{
  "_format": "hh-sol-artifact-1",
  "contractName": "BridgeUpgradeable",
  "sourceName": "contracts/BridgeUpgradeable.sol",
  "abi": [
    {
      "anonymous": false,
      "inputs": [
        {
          "indexed": false,
          "internalType": "uint256",
          "name": "transferIndex",
          "type": "uint256"
        },
        {
          "indexed": false,
          "internalType": "uint256",
          "name": "fromChainId",
          "type": "uint256"
        },
        {
          "indexed": false,
          "internalType": "uint256",
          "name": "toChainId",
          "type": "uint256"
        },
        {
          "indexed": false,
          "internalType": "address",
          "name": "account",
          "type": "address"
        },
        {
          "indexed": false,
          "internalType": "string",
          "name": "tokenTicker",
          "type": "string"
        },
        {
          "indexed": false,
          "internalType": "uint256",
          "name": "noOfTokens",
          "type": "uint256"
        },
        {
          "indexed": false,
          "internalType": "uint8",
          "name": "status",
          "type": "uint8"
        }
      ],
      "name": "BridgeTransaction",
      "type": "event"
    },
    {
      "anonymous": false,
      "inputs": [
        {
          "indexed": true,
          "internalType": "uint8",
          "name": "sourceChain",
          "type": "uint8"
        },
        {
          "indexed": true,
          "internalType": "uint8",
          "name": "destChain",
          "type": "uint8"
        },
        {
          "indexed": false,
          "internalType": "address",
          "name": "sourceAddress",
          "type": "address"
        }
      ],
      "name": "CrossTalkReceive",
      "type": "event"
    },
    {
      "anonymous": false,
      "inputs": [
        {
          "indexed": true,
          "internalType": "uint8",
          "name": "sourceChain",
          "type": "uint8"
        },
        {
          "indexed": true,
          "internalType": "uint8",
          "name": "destChain",
          "type": "uint8"
        },
        {
          "indexed": false,
          "internalType": "address",
          "name": "sourceAddress",
          "type": "address"
        },
        {
          "indexed": false,
          "internalType": "address",
          "name": "destinationAddress",
          "type": "address"
        },
        {
          "indexed": true,
          "internalType": "bytes4",
          "name": "_selector",
          "type": "bytes4"
        },
        {
          "indexed": false,
          "internalType": "bytes",
          "name": "_data",
          "type": "bytes"
        },
        {
          "indexed": false,
          "internalType": "bytes32",
          "name": "_hash",
          "type": "bytes32"
        }
      ],
      "name": "CrossTalkSend",
      "type": "event"
    },
    {
      "anonymous": false,
      "inputs": [
        {
          "indexed": false,
          "internalType": "uint8",
          "name": "version",
          "type": "uint8"
        }
      ],
      "name": "Initialized",
      "type": "event"
    },
    {
      "anonymous": false,
      "inputs": [
        {
          "indexed": true,
          "internalType": "uint8",
          "name": "ChainID",
          "type": "uint8"
        },
        {
          "indexed": true,
          "internalType": "address",
          "name": "linkedContract",
          "type": "address"
        }
      ],
      "name": "Linkevent",
      "type": "event"
    },
    {
      "anonymous": false,
      "inputs": [
        {
          "indexed": true,
          "internalType": "uint256",
          "name": "index",
          "type": "uint256"
        },
        {
          "indexed": true,
          "internalType": "address",
          "name": "account",
          "type": "address"
        },
        {
          "indexed": false,
          "internalType": "string",
          "name": "tokenTicker",
          "type": "string"
        },
        {
          "indexed": false,
          "internalType": "uint256",
          "name": "noOfTokens",
          "type": "uint256"
        }
      ],
      "name": "LiquidityAdded",
      "type": "event"
    },
    {
      "anonymous": false,
      "inputs": [
        {
          "indexed": true,
          "internalType": "uint256",
          "name": "index",
          "type": "uint256"
        },
        {
          "indexed": true,
          "internalType": "address",
          "name": "account",
          "type": "address"
        },
        {
          "indexed": false,
          "internalType": "string",
          "name": "tokenTicker",
          "type": "string"
        },
        {
          "indexed": false,
          "internalType": "uint256",
          "name": "noOfTokens",
          "type": "uint256"
        }
      ],
      "name": "LiquidityRemoved",
      "type": "event"
    },
    {
      "anonymous": false,
      "inputs": [
        {
          "indexed": true,
          "internalType": "address",
          "name": "previousOwner",
          "type": "address"
        },
        {
          "indexed": true,
          "internalType": "address",
          "name": "newOwner",
          "type": "address"
        }
      ],
      "name": "OwnershipTransferred",
      "type": "event"
    },
    {
      "anonymous": false,
      "inputs": [
        {
          "indexed": true,
          "internalType": "uint8",
          "name": "ChainID",
          "type": "uint8"
        },
        {
          "indexed": true,
          "internalType": "address",
          "name": "linkedContract",
          "type": "address"
        }
      ],
      "name": "Unlinkevent",
      "type": "event"
    },
    {
      "inputs": [
        {
          "internalType": "uint8",
          "name": "_chainID",
          "type": "uint8"
        },
        {
          "internalType": "address",
          "name": "_linkedContract",
          "type": "address"
        }
      ],
      "name": "Link",
      "outputs": [],
      "stateMutability": "nonpayable",
      "type": "function"
    },
    {
      "inputs": [
        {
          "internalType": "uint8",
          "name": "_chainID",
          "type": "uint8"
        }
      ],
      "name": "Unlink",
      "outputs": [],
      "stateMutability": "nonpayable",
      "type": "function"
    },
    {
      "inputs": [
        {
          "internalType": "string",
          "name": "_tokenTicker",
          "type": "string"
        },
        {
          "internalType": "uint256",
          "name": "_noOfTokens",
          "type": "uint256"
        },
        {
          "internalType": "uint256",
          "name": "_noOfBoosters",
          "type": "uint256"
        }
      ],
      "name": "addLiquidity",
      "outputs": [],
      "stateMutability": "nonpayable",
      "type": "function"
    },
    {
      "inputs": [
        {
          "internalType": "string",
          "name": "_tokenTicker",
          "type": "string"
        }
      ],
      "name": "addPassedEpochs",
      "outputs": [],
      "stateMutability": "nonpayable",
      "type": "function"
    },
    {
      "inputs": [
        {
          "internalType": "address",
          "name": "_feeToken",
          "type": "address"
        },
        {
          "internalType": "uint256",
          "name": "_value",
          "type": "uint256"
        }
      ],
      "name": "approveRouterFee",
      "outputs": [],
      "stateMutability": "nonpayable",
      "type": "function"
    },
    {
      "inputs": [],
      "name": "boosterConfig",
      "outputs": [
        {
          "internalType": "address",
          "name": "tokenAddress",
          "type": "address"
        },
        {
          "internalType": "uint256",
          "name": "price",
          "type": "uint256"
        },
        {
          "internalType": "string",
          "name": "imageUrl",
          "type": "string"
        },
        {
          "internalType": "address",
          "name": "adminAccount",
          "type": "address"
        }
      ],
      "stateMutability": "view",
      "type": "function"
    },
    {
      "inputs": [],
      "name": "bridgeUtilsUpgradeable",
      "outputs": [
        {
          "internalType": "contract BridgeUtilsUpgradeable",
          "name": "",
          "type": "address"
        }
      ],
      "stateMutability": "view",
      "type": "function"
    },
    {
      "inputs": [
        {
          "internalType": "string",
          "name": "_tokenTicker",
          "type": "string"
        },
        {
          "internalType": "uint256",
          "name": "_index",
          "type": "uint256"
        },
        {
          "internalType": "uint256",
          "name": "_quantity",
          "type": "uint256"
        }
      ],
      "name": "buyBoosterPacks",
      "outputs": [],
      "stateMutability": "nonpayable",
      "type": "function"
    },
    {
      "inputs": [],
      "name": "chainId",
      "outputs": [
        {
          "internalType": "uint8",
          "name": "",
          "type": "uint8"
        }
      ],
      "stateMutability": "view",
      "type": "function"
    },
    {
      "inputs": [
        {
          "internalType": "address",
          "name": "_userAddress",
          "type": "address"
        },
        {
          "internalType": "uint256",
          "name": "_noOfTokens",
          "type": "uint256"
        },
        {
          "internalType": "string",
          "name": "_tokenTicker",
          "type": "string"
        },
        {
          "internalType": "uint256",
          "name": "_transferIndex",
          "type": "uint256"
        },
        {
          "internalType": "uint8",
          "name": "_fromChain",
          "type": "uint8"
        }
      ],
      "name": "createCrossChainTransferMapping",
      "outputs": [],
      "stateMutability": "nonpayable",
      "type": "function"
    },
    {
      "inputs": [],
      "name": "crossChainGas",
      "outputs": [
        {
          "internalType": "uint256",
          "name": "",
          "type": "uint256"
        }
      ],
      "stateMutability": "view",
      "type": "function"
    },
    {
      "inputs": [
        {
          "internalType": "uint256",
          "name": "_noOfTokens",
          "type": "uint256"
        },
        {
          "internalType": "string",
          "name": "_tokenTicker",
          "type": "string"
        },
        {
          "internalType": "uint256",
          "name": "_index",
          "type": "uint256"
        },
        {
          "internalType": "uint8",
          "name": "_fromChain",
          "type": "uint8"
        }
      ],
      "name": "crossChainTransferIn",
      "outputs": [],
      "stateMutability": "payable",
      "type": "function"
    },
    {
      "inputs": [
        {
          "internalType": "string",
          "name": "_tokenTicker",
          "type": "string"
        },
        {
          "internalType": "uint256",
          "name": "_noOfTokens",
          "type": "uint256"
        },
        {
          "internalType": "uint8",
          "name": "_toChainId",
          "type": "uint8"
        },
        {
          "internalType": "uint256",
          "name": "_gasPrice",
          "type": "uint256"
        }
      ],
      "name": "crossChainTransferOut",
      "outputs": [
        {
          "internalType": "bool",
          "name": "",
          "type": "bool"
        },
        {
          "internalType": "uint256",
          "name": "",
          "type": "uint256"
        }
      ],
      "stateMutability": "nonpayable",
      "type": "function"
    },
    {
      "inputs": [
        {
          "internalType": "string",
          "name": "",
          "type": "string"
        },
        {
          "internalType": "address",
          "name": "",
          "type": "address"
        }
      ],
      "name": "currentIndex",
      "outputs": [
        {
          "internalType": "uint256",
          "name": "",
          "type": "uint256"
        }
      ],
      "stateMutability": "view",
      "type": "function"
    },
    {
      "inputs": [
        {
          "internalType": "bytes32",
          "name": "",
          "type": "bytes32"
        }
      ],
      "name": "currentTransferIndex",
      "outputs": [
        {
          "internalType": "uint256",
          "name": "",
          "type": "uint256"
        }
      ],
      "stateMutability": "view",
      "type": "function"
    },
    {
      "inputs": [
        {
          "internalType": "string",
          "name": "_tokenTicker",
          "type": "string"
        },
        {
          "internalType": "address",
          "name": "_account",
          "type": "address"
        },
        {
          "internalType": "uint256",
          "name": "_index",
          "type": "uint256"
        },
        {
          "internalType": "uint256",
          "name": "epochIndex",
          "type": "uint256"
        }
      ],
      "name": "deleteHasBoosterMapping",
      "outputs": [],
      "stateMutability": "nonpayable",
      "type": "function"
    },
    {
      "inputs": [
        {
          "internalType": "string",
          "name": "",
          "type": "string"
        },
        {
          "internalType": "uint256",
          "name": "",
          "type": "uint256"
        }
      ],
      "name": "epochs",
      "outputs": [
        {
          "internalType": "uint256",
          "name": "startBlock",
          "type": "uint256"
        },
        {
          "internalType": "uint256",
          "name": "epochLength",
          "type": "uint256"
        },
        {
          "internalType": "uint256",
          "name": "totalFeesCollected",
          "type": "uint256"
        },
        {
          "internalType": "uint256",
          "name": "totalActiveLiquidity",
          "type": "uint256"
        },
        {
          "internalType": "uint256",
          "name": "noOfDepositors",
          "type": "uint256"
        }
      ],
      "stateMutability": "view",
      "type": "function"
    },
    {
      "inputs": [],
      "name": "feePoolUpgradeable",
      "outputs": [
        {
          "internalType": "contract FeePoolUpgradeable",
          "name": "",
          "type": "address"
        }
      ],
      "stateMutability": "view",
      "type": "function"
    },
    {
      "inputs": [
        {
          "internalType": "bytes32",
          "name": "hash",
          "type": "bytes32"
        }
      ],
      "name": "fetchExecutes",
      "outputs": [
        {
          "components": [
            {
              "internalType": "uint8",
              "name": "chainID",
              "type": "uint8"
            },
            {
              "internalType": "uint64",
              "name": "nonce",
              "type": "uint64"
            }
          ],
          "internalType": "struct iRouterCrossTalkUpgradeable.ExecutesStruct",
          "name": "",
          "type": "tuple"
        }
      ],
      "stateMutability": "view",
      "type": "function"
    },
    {
      "inputs": [],
      "name": "fetchFeeToken",
      "outputs": [
        {
          "internalType": "address",
          "name": "",
          "type": "address"
        }
      ],
      "stateMutability": "view",
      "type": "function"
    },
    {
      "inputs": [],
      "name": "fetchHandler",
      "outputs": [
        {
          "internalType": "address",
          "name": "",
          "type": "address"
        }
      ],
      "stateMutability": "view",
      "type": "function"
    },
    {
      "inputs": [
        {
          "internalType": "uint8",
          "name": "_chainID",
          "type": "uint8"
        }
      ],
      "name": "fetchLink",
      "outputs": [
        {
          "internalType": "address",
          "name": "",
          "type": "address"
        }
      ],
      "stateMutability": "view",
      "type": "function"
    },
    {
      "inputs": [],
      "name": "fetchLinkSetter",
      "outputs": [
        {
          "internalType": "address",
          "name": "",
          "type": "address"
        }
      ],
      "stateMutability": "view",
      "type": "function"
    },
    {
      "inputs": [
        {
          "internalType": "string",
          "name": "_tokenTicker",
          "type": "string"
        }
      ],
      "name": "getEpochsLength",
      "outputs": [
        {
          "internalType": "uint256",
          "name": "",
          "type": "uint256"
        }
      ],
      "stateMutability": "view",
      "type": "function"
    },
    {
      "inputs": [
        {
          "internalType": "string",
          "name": "_tokenTicker",
          "type": "string"
        }
      ],
      "name": "getToken",
      "outputs": [
        {
          "internalType": "contract TokenUpgradeable",
          "name": "",
          "type": "address"
        }
      ],
      "stateMutability": "view",
      "type": "function"
    },
    {
      "inputs": [
        {
          "internalType": "string",
          "name": "",
          "type": "string"
        },
        {
          "internalType": "address",
          "name": "",
          "type": "address"
        },
        {
          "internalType": "uint256",
          "name": "",
          "type": "uint256"
        },
        {
          "internalType": "uint256",
          "name": "",
          "type": "uint256"
        }
      ],
      "name": "hasBooster",
      "outputs": [
        {
          "internalType": "bool",
          "name": "",
          "type": "bool"
        }
      ],
      "stateMutability": "view",
      "type": "function"
    },
    {
      "inputs": [
        {
          "internalType": "string",
          "name": "_tokenTicker",
          "type": "string"
        },
        {
          "internalType": "uint256",
          "name": "epochLength",
          "type": "uint256"
        }
      ],
      "name": "initNextEpochBlock",
      "outputs": [],
      "stateMutability": "nonpayable",
      "type": "function"
    },
    {
      "inputs": [
        {
          "internalType": "contract TokenBridgeRegistryUpgradeable",
          "name": "_tokenBridgeRegistryUpgradeable",
          "type": "address"
        },
        {
          "internalType": "address",
          "name": "_genericHandler",
          "type": "address"
        },
        {
          "internalType": "uint8",
          "name": "_chainId",
          "type": "uint8"
        }
      ],
      "name": "initialize",
      "outputs": [],
      "stateMutability": "nonpayable",
      "type": "function"
    },
    {
      "inputs": [
        {
          "internalType": "string",
          "name": "",
          "type": "string"
        },
        {
          "internalType": "address",
          "name": "",
          "type": "address"
        },
        {
          "internalType": "uint256",
          "name": "",
          "type": "uint256"
        }
      ],
      "name": "liquidityPosition",
      "outputs": [
        {
          "internalType": "uint256",
          "name": "depositedAmount",
          "type": "uint256"
        },
        {
          "internalType": "uint256",
          "name": "blockNo",
          "type": "uint256"
        },
        {
          "internalType": "uint256",
          "name": "claimedTillEpochIndex",
          "type": "uint256"
        },
        {
          "internalType": "uint256",
          "name": "epochStartIndex",
          "type": "uint256"
        },
        {
          "internalType": "uint256",
          "name": "epochStartBlock",
          "type": "uint256"
        },
        {
          "internalType": "uint256",
          "name": "boosterEndEpochIndex",
          "type": "uint256"
        },
        {
          "internalType": "uint256",
          "name": "startTimestamp",
          "type": "uint256"
        }
      ],
      "stateMutability": "view",
      "type": "function"
    },
    {
      "inputs": [],
      "name": "maxBips",
      "outputs": [
        {
          "internalType": "uint256",
          "name": "",
          "type": "uint256"
        }
      ],
      "stateMutability": "view",
      "type": "function"
    },
    {
      "inputs": [
        {
          "internalType": "string",
          "name": "",
          "type": "string"
        }
      ],
      "name": "nextEpochBlock",
      "outputs": [
        {
          "internalType": "uint256",
          "name": "",
          "type": "uint256"
        }
      ],
      "stateMutability": "view",
      "type": "function"
    },
    {
      "inputs": [],
      "name": "owner",
      "outputs": [
        {
          "internalType": "address",
          "name": "",
          "type": "address"
        }
      ],
      "stateMutability": "view",
      "type": "function"
    },
    {
      "inputs": [
        {
          "internalType": "uint256",
          "name": "_index",
          "type": "uint256"
        },
        {
          "internalType": "string",
          "name": "_tokenTicker",
          "type": "string"
        }
      ],
      "name": "removeLiquidity",
      "outputs": [],
      "stateMutability": "nonpayable",
      "type": "function"
    },
    {
      "inputs": [],
      "name": "renounceOwnership",
      "outputs": [],
      "stateMutability": "nonpayable",
      "type": "function"
    },
    {
      "inputs": [
        {
          "internalType": "bytes32",
          "name": "hash",
          "type": "bytes32"
        },
        {
          "internalType": "uint256",
          "name": "_crossChainGasPrice",
          "type": "uint256"
        }
      ],
      "name": "replayTransaction",
      "outputs": [],
      "stateMutability": "nonpayable",
      "type": "function"
    },
    {
      "inputs": [
        {
          "internalType": "uint8",
          "name": "srcChainID",
          "type": "uint8"
        },
        {
          "internalType": "address",
          "name": "srcAddress",
          "type": "address"
        },
        {
          "internalType": "bytes",
          "name": "data",
          "type": "bytes"
        }
      ],
      "name": "routerSync",
      "outputs": [
        {
          "internalType": "bool",
          "name": "",
          "type": "bool"
        },
        {
          "internalType": "bytes",
          "name": "",
          "type": "bytes"
        }
      ],
      "stateMutability": "nonpayable",
      "type": "function"
    },
    {
      "inputs": [
        {
          "internalType": "string",
          "name": "_tokenTicker",
          "type": "string"
        },
        {
          "internalType": "uint256",
          "name": "_noOfTokens",
          "type": "uint256"
        }
      ],
      "name": "safeWithdrawLiquidity",
      "outputs": [],
      "stateMutability": "nonpayable",
      "type": "function"
    },
    {
      "inputs": [
        {
          "internalType": "address",
          "name": "_feeAddress",
          "type": "address"
        }
      ],
      "name": "setFeeTokenAddress",
      "outputs": [],
      "stateMutability": "nonpayable",
      "type": "function"
    },
    {
      "inputs": [
        {
          "internalType": "address",
          "name": "_linker",
          "type": "address"
        }
      ],
      "name": "setLinker",
      "outputs": [],
      "stateMutability": "nonpayable",
      "type": "function"
    },
    {
      "inputs": [
        {
          "internalType": "bytes4",
          "name": "interfaceId",
          "type": "bytes4"
        }
      ],
      "name": "supportsInterface",
      "outputs": [
        {
          "internalType": "bool",
          "name": "",
          "type": "bool"
        }
      ],
      "stateMutability": "view",
      "type": "function"
    },
    {
      "inputs": [],
      "name": "tokenBridgeRegistryUpgradeable",
      "outputs": [
        {
          "internalType": "contract TokenBridgeRegistryUpgradeable",
          "name": "",
          "type": "address"
        }
      ],
      "stateMutability": "view",
      "type": "function"
    },
    {
      "inputs": [
        {
          "internalType": "string",
          "name": "",
          "type": "string"
        },
        {
          "internalType": "uint256",
          "name": "",
          "type": "uint256"
        }
      ],
      "name": "totalBoostedLiquidity",
      "outputs": [
        {
          "internalType": "uint256",
          "name": "",
          "type": "uint256"
        }
      ],
      "stateMutability": "view",
      "type": "function"
    },
    {
      "inputs": [
        {
          "internalType": "string",
          "name": "",
          "type": "string"
        }
      ],
      "name": "totalLiquidity",
      "outputs": [
        {
          "internalType": "uint256",
          "name": "",
          "type": "uint256"
        }
      ],
      "stateMutability": "view",
      "type": "function"
    },
    {
      "inputs": [
        {
          "internalType": "string",
          "name": "",
          "type": "string"
        }
      ],
      "name": "totalLpLiquidity",
      "outputs": [
        {
          "internalType": "uint256",
          "name": "",
          "type": "uint256"
        }
      ],
      "stateMutability": "view",
      "type": "function"
    },
    {
      "inputs": [
        {
          "internalType": "string",
          "name": "_tokenTicker",
          "type": "string"
        },
        {
          "internalType": "uint256",
          "name": "_noOfTokens",
          "type": "uint256"
        },
        {
          "internalType": "uint8",
          "name": "_toChainId",
          "type": "uint8"
        },
        {
          "internalType": "uint256",
          "name": "_gasPrice",
          "type": "uint256"
        }
      ],
      "name": "transferIn",
      "outputs": [
        {
          "internalType": "bool",
          "name": "",
          "type": "bool"
        },
        {
          "internalType": "uint256",
          "name": "",
          "type": "uint256"
        }
      ],
      "stateMutability": "nonpayable",
      "type": "function"
    },
    {
      "inputs": [
        {
          "internalType": "bytes32",
          "name": "",
          "type": "bytes32"
        }
      ],
      "name": "transferMapping",
      "outputs": [
        {
          "internalType": "uint256",
          "name": "",
          "type": "uint256"
        }
      ],
      "stateMutability": "view",
      "type": "function"
    },
    {
      "inputs": [
        {
          "internalType": "uint256",
          "name": "_noOfTokens",
          "type": "uint256"
        },
        {
          "internalType": "string",
          "name": "_tokenTicker",
          "type": "string"
        }
      ],
      "name": "transferOut",
      "outputs": [],
      "stateMutability": "payable",
      "type": "function"
    },
    {
      "inputs": [
        {
          "internalType": "address",
          "name": "newOwner",
          "type": "address"
        }
      ],
      "name": "transferOwnership",
      "outputs": [],
      "stateMutability": "nonpayable",
      "type": "function"
    },
    {
      "inputs": [
        {
          "internalType": "address",
          "name": "_adminAccount",
          "type": "address"
        },
        {
          "internalType": "address",
          "name": "_boosterToken",
          "type": "address"
        },
        {
          "internalType": "uint256",
          "name": "_perBoosterPrice",
          "type": "uint256"
        },
        {
          "internalType": "string",
          "name": "_imageUrl",
          "type": "string"
        }
      ],
      "name": "updateBoosterConfig",
      "outputs": [],
      "stateMutability": "nonpayable",
      "type": "function"
    },
    {
      "inputs": [
        {
          "internalType": "contract BridgeUtilsUpgradeable",
          "name": "_bridgeUtilsAddress",
          "type": "address"
        }
      ],
      "name": "updateBridgeUtilsAddress",
      "outputs": [],
      "stateMutability": "nonpayable",
      "type": "function"
    },
    {
      "inputs": [
        {
          "internalType": "uint256",
          "name": "_newGasAmount",
          "type": "uint256"
        }
      ],
      "name": "updateCrossChainGas",
      "outputs": [],
      "stateMutability": "nonpayable",
      "type": "function"
    },
    {
      "inputs": [
        {
          "internalType": "contract FeePoolUpgradeable",
          "name": "_feePoolAddress",
          "type": "address"
        }
      ],
      "name": "updateFeePoolAddress",
      "outputs": [],
      "stateMutability": "nonpayable",
      "type": "function"
    },
    {
      "inputs": [
        {
          "internalType": "uint256",
          "name": "_newMaxBips",
          "type": "uint256"
        }
      ],
      "name": "updateMaxBips",
      "outputs": [],
      "stateMutability": "nonpayable",
      "type": "function"
    },
    {
      "inputs": [
        {
          "internalType": "contract TokenBridgeRegistryUpgradeable",
          "name": "_registryAddress",
          "type": "address"
        }
      ],
      "name": "updateRegistryAddress",
      "outputs": [],
      "stateMutability": "nonpayable",
      "type": "function"
    },
    {
      "inputs": [
        {
          "internalType": "string",
          "name": "_tokenTicker",
          "type": "string"
        },
        {
          "internalType": "address",
          "name": "_account",
          "type": "address"
        },
        {
          "internalType": "uint256",
          "name": "_index",
          "type": "uint256"
        }
      ],
      "name": "updateRewardClaimedTillIndex",
      "outputs": [],
      "stateMutability": "nonpayable",
      "type": "function"
    },
    {
      "stateMutability": "payable",
      "type": "receive"
    }
  ],
  "bytecode": "0x608060405234801561001057600080fd5b50615fe380620000216000396000f3fe6080604052600436106103545760003560e01c80638d208d75116101c6578063d8c7be75116100f7578063ea043e2a11610095578063f2fde38b1161006f578063f2fde38b14610c21578063f93dd87314610c41578063fda8c7cd14610c7a578063fe9dc81a14610c9a57600080fd5b8063ea043e2a14610ba3578063ee69786414610bdc578063f25e42c014610c0157600080fd5b8063de915ea8116100d1578063de915ea814610b0a578063e08cc97114610b43578063e3567aac14610b63578063e8c594ba14610b8357600080fd5b8063d8c7be7514610a0d578063d93cc86614610abc578063da8d154814610adc57600080fd5b8063c1733f6811610164578063c9adbf821161013e578063c9adbf8214610966578063cc80204814610984578063cf351c1d146109a4578063d29bf32d146109c457600080fd5b8063c1733f6814610906578063c57a882514610926578063c97d67d41461094657600080fd5b80639a8a0592116101a05780639a8a0592146108825780639ff21ccf146108af578063a0404e6e146108c6578063bff390a7146108e657600080fd5b80638d208d75146108315780638da5cb5b14610844578063907e76fc1461086257600080fd5b80635ec43b71116102a0578063792f32301161023e57806380488f621161021857806380488f62146107b157806382b147a6146107d157806389232a00146107f15780638ae5d0821461081157600080fd5b8063792f3230146107435780637b6c98b2146107635780637d821df01461078357600080fd5b80636972bc501161027a5780636972bc50146106d15780636e2e8fe1146106ef5780636edb7a3e14610710578063715018a61461072e57600080fd5b80635ec43b711461066f578063603b78401461069057806367276acd146106b057600080fd5b80633093becb1161030d5780634158cc27116102e75780634158cc271461053157806341afdc67146105be5780634500fad9146105de5780635a069b2e1461062657600080fd5b80633093becb146104cc5780633e27323d146104f15780633fe00df11461051157600080fd5b806301ffc9a7146103605780630500387f146103a657806306d07c59146103f75780630a1ee81b146104255780630fe3f0021461043a5780631c58293f1461047157600080fd5b3661035b57005b600080fd5b34801561036c57600080fd5b5061039161037b366004615324565b6001600160e01b0319166301ffc9a760e01b1490565b60405190151581526020015b60405180910390f35b3480156103b257600080fd5b506103df6103c13660046157c7565b60ff166000908152609a60205260409020546001600160a01b031690565b6040516001600160a01b03909116815260200161039d565b34801561040357600080fd5b5061041761041236600461582c565b610cba565b60405161039d929190615a4f565b6104386104333660046156da565b610e78565b005b34801561044657600080fd5b5061045a610455366004615482565b6115dd565b60408051921515835260208301919091520161039d565b34801561047d57600080fd5b5061039161048c3660046155c6565b8351602081860181018051610101825292820196820196909620919095528452600092835260408084208552918352818320909352918152205460ff1681565b3480156104d857600080fd5b506104e361010a5481565b60405190815260200161039d565b3480156104fd57600080fd5b5061043861050c3660046157ff565b61194a565b34801561051d57600080fd5b5061043861052c366004615622565b611a5e565b34801561053d57600080fd5b5061059761054c3660046152eb565b6040805180820190915260008082526020820152506000908152609b602090815260409182902082518084019093525460ff8116835261010090046001600160401b03169082015290565b60408051825160ff1681526020928301516001600160401b0316928101929092520161039d565b3480156105ca57600080fd5b506104386105d9366004615227565b611aed565b3480156105ea57600080fd5b506105fe6105f9366004615622565b611b03565b604080519586526020860194909452928401919091526060830152608082015260a00161039d565b34801561063257600080fd5b506104e3610641366004615622565b8151602081840181018051610105825292820194820194909420919093529091526000908152604090205481565b34801561067b57600080fd5b50610176546103df906001600160a01b031681565b34801561069c57600080fd5b506104386106ab366004615303565b611b61565b3480156106bc57600080fd5b50610177546103df906001600160a01b031681565b3480156106dd57600080fd5b506099546001600160a01b03166103df565b3480156106fb57600080fd5b50610175546103df906001600160a01b031681565b34801561071c57600080fd5b506097546001600160a01b03166103df565b34801561073a57600080fd5b50610438611b77565b34801561074f57600080fd5b5061043861075e366004615434565b611b8b565b34801561076f57600080fd5b5061043861077e3660046152eb565b611e14565b34801561078f57600080fd5b506104e361079e3660046152eb565b6101076020526000908152604090205481565b3480156107bd57600080fd5b506104386107cc3660046156da565b611e22565b3480156107dd57600080fd5b506104386107ec3660046154e6565b6120e1565b3480156107fd57600080fd5b5061043861080c3660046153a1565b61210e565b34801561081d57600080fd5b5061043861082c3660046155c6565b61221f565b61043861083f366004615723565b6122c6565b34801561085057600080fd5b506033546001600160a01b03166103df565b34801561086e57600080fd5b5061043861087d3660046150f6565b61251f565b34801561088e57600080fd5b506101105461089d9060ff1681565b60405160ff909116815260200161039d565b3480156108bb57600080fd5b506104e361010b5481565b3480156108d257600080fd5b506104386108e1366004615252565b61254a565b3480156108f257600080fd5b50610438610901366004615434565b612709565b34801561091257600080fd5b506103df6109213660046154e6565b612e54565b34801561093257600080fd5b506104386109413660046150f6565b612f28565b34801561095257600080fd5b5061043861096136600461556f565b612f53565b34801561097257600080fd5b506098546001600160a01b03166103df565b34801561099057600080fd5b5061043861099f3660046153eb565b61300f565b3480156109b057600080fd5b506104386109bf3660046150f6565b6130f2565b3480156109d057600080fd5b506104e36109df366004615520565b8151602081840181018051610102825292820194820194909420919093529091526000908152604090205481565b348015610a1957600080fd5b50610a87610a2836600461556f565b825160208185018101805161010082529282019582019590952091909452835260009182526040808320909352815220805460018201546002830154600384015460048501546005860154600690960154949593949293919290919087565b604080519788526020880196909652948601939093526060850191909152608084015260a083015260c082015260e00161039d565b348015610ac857600080fd5b5061045a610ad7366004615664565b613118565b348015610ae857600080fd5b506104e3610af73660046152eb565b6101066020526000908152604090205481565b348015610b1657600080fd5b506104e3610b253660046154e6565b80516020818301810180516101098252928201919093012091525481565b348015610b4f57600080fd5b50610438610b5e3660046150f6565b61331e565b348015610b6f57600080fd5b506104e3610b7e3660046154e6565b613349565b348015610b8f57600080fd5b50610438610b9e3660046151b7565b613372565b348015610baf57600080fd5b506104e3610bbe3660046154e6565b80516020818301810180516101038252928201919093012091525481565b348015610be857600080fd5b50610bf16134b8565b60405161039d94939291906159d1565b348015610c0d57600080fd5b50610438610c1c3660046150f6565b61356f565b348015610c2d57600080fd5b50610438610c3c3660046150f6565b613595565b348015610c4d57600080fd5b506104e3610c5c3660046154e6565b80516020818301810180516101048252928201919093012091525481565b348015610c8657600080fd5b50610438610c953660046152eb565b61360b565b348015610ca657600080fd5b50610438610cb53660046157c7565b613619565b60ff83166000908152609a6020526040812054606090859085906001600160a01b03808316911614610d425760405162461bcd60e51b815260206004820152602660248201527f526f7574657253796e63203a20536f757263652041646472657373204e6f74206044820152651b1a5b9ad95960d21b60648201526084015b60405180910390fd5b6097546001600160a01b0316336001600160a01b031614610d755760405162461bcd60e51b8152600401610d3990615c16565b609754604080516302cb03d960e61b815290516000926001600160a01b03169163b2c0f640916004808301926020929190829003018186803b158015610dba57600080fd5b505afa158015610dce573d6000803e3d6000fd5b505050506040513d601f19601f82011682018060405250810190610df291906157e3565b905060008087806020019051810190610e0b9190615340565b91509150600080610e1c84846136b3565b6040516001600160a01b038e168152919350915060ff80871691908e16907f4ef7c5e8df4a93d9634e83492a16efe750374905f02a02656e31369ff469ce3f9060200160405180910390a3909b909a5098505050505050505050565b81818080601f016020809104026020016040519081016040528093929190818152602001838380828437600092019190915250610eba92508391506137999050565b610ef983838080601f0160208091040260200160405190810160405280939291908181526020018383808284376000920191909152506138e692505050565b6000610f5a610921604051806040016040528060048152602001637365747560e01b81525086868080601f016020809104026020016040519081016040528093929190818152602001838380828437600092019190915250613c9192505050565b90506000610f9d85858080601f016020809104026020016040519081016040528093929190818152602001838380828437600092019190915250612e5492505050565b61017754604051632efff6cb60e01b81529192506000916001600160a01b0390911690632efff6cb90610fd69089908990600401615a8c565b60206040518083038186803b158015610fee57600080fd5b505afa158015611002573d6000803e3d6000fd5b505050506040513d601f19601f8201168201806040525081019061102691906157e3565b90506000610103878760405161103d92919061593c565b908152604051908190036020019020549050878082101561105b5750805b60ff8316611228576000611070898984613cbd565b6040516306888c6760e11b81529091506001600160a01b03871690630d1118ce906110a190339086906004016159b8565b600060405180830381600087803b1580156110bb57600080fd5b505af11580156110cf573d6000803e3d6000fd5b50505050816101038a8a6040516110e792919061593c565b908152602001604051809103902060008282546111049190615eae565b90915550506001600160a01b03851663a9059cbb336111238486615eae565b6040518363ffffffff1660e01b81526004016111409291906159b8565b602060405180830381600087803b15801561115a57600080fd5b505af115801561116e573d6000803e3d6000fd5b505050506040513d601f19601f8201168201806040525081019061119291906152cb565b508015611222576101765460405163a9059cbb60e01b81526001600160a01b038781169263a9059cbb926111ce929091169085906004016159b8565b602060405180830381600087803b1580156111e857600080fd5b505af11580156111fc573d6000803e3d6000fd5b505050506040513d601f19601f8201168201806040525081019061122091906152cb565b505b506115d2565b8260ff16600114156115d257600061124189898c613cbd565b6040516306888c6760e11b81529091506001600160a01b03871690630d1118ce906112729033908e906004016159b8565b600060405180830381600087803b15801561128c57600080fd5b505af11580156112a0573d6000803e3d6000fd5b50505050816101038a8a6040516112b892919061593c565b908152602001604051809103902060008282546112d59190615eae565b90915550508082101561144d5760405163a9059cbb60e01b81526001600160a01b0386169063a9059cbb9061131090339086906004016159b8565b602060405180830381600087803b15801561132a57600080fd5b505af115801561133e573d6000803e3d6000fd5b505050506040513d601f19601f8201168201806040525081019061136291906152cb565b506001600160a01b03851663f0dda65c338361137e868f615eae565b6113889190615eae565b6040518363ffffffff1660e01b81526004016113a59291906159b8565b600060405180830381600087803b1580156113bf57600080fd5b505af11580156113d3573d6000803e3d6000fd5b5050505060008111156114485761017654604051633c37699760e21b81526001600160a01b038781169263f0dda65c92611415929091169085906004016159b8565b600060405180830381600087803b15801561142f57600080fd5b505af1158015611443573d6000803e3d6000fd5b505050505b6115d0565b80156114dc576101765460405163a9059cbb60e01b81526001600160a01b038781169263a9059cbb92611488929091169085906004016159b8565b602060405180830381600087803b1580156114a257600080fd5b505af11580156114b6573d6000803e3d6000fd5b505050506040513d601f19601f820116820180604052508101906114da91906152cb565b505b6001600160a01b03851663a9059cbb336114f68486615eae565b6040518363ffffffff1660e01b81526004016115139291906159b8565b602060405180830381600087803b15801561152d57600080fd5b505af1158015611541573d6000803e3d6000fd5b505050506040513d601f19601f8201168201806040525081019061156591906152cb565b506001600160a01b03851663f0dda65c33611580858e615eae565b6040518363ffffffff1660e01b815260040161159d9291906159b8565b600060405180830381600087803b1580156115b757600080fd5b505af11580156115cb573d6000803e3d6000fd5b505050505b505b505050505050505050565b60008086868080601f01602080910402602001604051908101604052809392919081815260200183838082843760009201919091525061162292508391506137999050565b600061166389898080601f016020809104026020016040519081016040528093929190818152602001838380828437600092019190915250612e5492505050565b90506001600160a01b0381166323b872dd336040516001600160e01b031960e084901b1681526001600160a01b039091166004820152306024820152604481018a9052606401602060405180830381600087803b1580156116c357600080fd5b505af11580156116d7573d6000803e3d6000fd5b505050506040513d601f19601f820116820180604052508101906116fb91906152cb565b50600061175d610921604051806040016040528060048152602001637365747560e01b8152508c8c8080601f016020809104026020016040519081016040528093929190818152602001838380828437600092019190915250613c9192505050565b604051633c37699760e21b81529091506001600160a01b0382169063f0dda65c9061178e9033908c906004016159b8565b600060405180830381600087803b1580156117a857600080fd5b505af11580156117bc573d6000803e3d6000fd5b505061017754604051632efff6cb60e01b8152600093506001600160a01b039091169150632efff6cb906117f6908e908e90600401615a8c565b60206040518083038186803b15801561180e57600080fd5b505afa158015611822573d6000803e3d6000fd5b505050506040513d601f19601f8201168201806040525081019061184691906157e3565b905060ff811661188757886101038c8c60405161186492919061593c565b908152602001604051809103902060008282546118819190615e57565b90915550505b8060ff16600114156118f4576040516306888c6760e11b81526001600160a01b03841690630d1118ce906118c19033908d906004016159b8565b600060405180830381600087803b1580156118db57600080fd5b505af11580156118ef573d6000803e3d6000fd5b505050505b6119388b8b8080601f0160208091040260200160405190810160405280939291908181526020018383808284376000920191909152508d92508c91508b9050613118565b95509550505050509550959350505050565b6097546001600160a01b0316336001600160a01b03161461197d5760405162461bcd60e51b8152600401610d3990615c16565b60ff82166000908152609a602052604090205482906001600160a01b031615611a025760405162461bcd60e51b815260206004820152603160248201527f526f7574657253796e63203a2043726f737320436861696e20436f6e747261636044820152701d081d1bc810da185a5b881251081cd95d607a1b6064820152608401610d39565b60ff83166000818152609a602052604080822080546001600160a01b0319166001600160a01b03871690811790915590519092917f53c7bf44dd47ad6fd3a8aac7c23d9ad4bddd7ec5889d7afef3450216586460a391a3505050565b610175546001600160a01b0316336001600160a01b031614611ab25760405162461bcd60e51b815260206004820152600d60248201526c4f4e4c595f524547495354525960981b6044820152606401610d39565b6001611abe8243615e57565b611ac89190615eae565b61010983604051611ad99190615920565b908152604051908190036020019020555050565b611af5613f17565b611aff8282613f71565b5050565b8151602081840181018051610108825292820191850191909120919052805482908110611b2f57600080fd5b600091825260209091206005909102018054600182015460028301546003840154600490940154929550909350919085565b611b69613f17565b611aff8261010b5483613ff7565b611b7f613f17565b611b89600061408e565b565b83838080601f016020809104026020016040519081016040528093929190818152602001838380828437600092019190915250611bcd92508391506137999050565b60006101008686604051611be292919061593c565b90815260200160405180910390206000611bf93390565b6001600160a01b031681526020808201929092526040908101600090812087825290925290208054909150611c635760405162461bcd60e51b815260206004820152601060248201526f24a72b20a624a22fa827a9a4aa24a7a760811b6044820152606401610d39565b61010c546001600160a01b0316806323b872dd3361010f5461010d546001600160a01b0390911690611c96908990615e8f565b6040516001600160e01b031960e086901b1681526001600160a01b0393841660048201529290911660248301526044820152606401602060405180830381600087803b158015611ce557600080fd5b505af1158015611cf9573d6000803e3d6000fd5b505050506040513d601f19601f82011682018060405250810190611d1d91906152cb565b50611d5d87878080601f0160208091040260200160405190810160405280939291908181526020018383808284376000920191909152506138e692505050565b60006101088888604051611d7292919061593c565b90815260405190819003602001902054611d8d906001615e57565b905080836005015410611dda57611dbb8888888887600501546001611db29190615e57565b885460016140e0565b84836005016000828254611dcf9190615e57565b90915550611e0a9050565b611dee8888888885886000015460016140e0565b6001611dfa8683615e57565b611e049190615eae565b60058401555b5050505050505050565b611e1c613f17565b61010b55565b81818080601f016020809104026020016040519081016040528093929190818152602001838380828437600092019190915250611e6492508391506137999050565b611ea383838080601f0160208091040260200160405190810160405280939291908181526020018383808284376000920191909152506138e692505050565b60006101008484604051611eb892919061593c565b90815260200160405180910390206000611ecf3390565b6001600160a01b03168152602080820192909252604090810160009081208882528352819020815160e08101835281548082526001830154948201949094526002820154928101929092526003810154606083015260048101546080830152600581015460a08301526006015460c08201529150611f825760405162461bcd60e51b815260206004820152601060248201526f24a72b20a624a22fa827a9a4aa24a7a760811b6044820152606401610d39565b610176546001600160a01b03166360576b89858533896040518563ffffffff1660e01b8152600401611fb79493929190615aa0565b600060405180830381600087803b158015611fd157600080fd5b505af1158015611fe5573d6000803e3d6000fd5b50505050600061204a610921604051806040016040528060048152602001637365747560e01b81525087878080601f016020809104026020016040519081016040528093929190818152602001838380828437600092019190915250613c9192505050565b825160405162c7a7a760e61b81529192506001600160a01b038316916331e9e9c09161207b913391906004016159b8565b602060405180830381600087803b15801561209557600080fd5b505af11580156120a9573d6000803e3d6000fd5b505050506040513d601f19601f820116820180604052508101906120cd91906152cb565b506120d9868686614279565b505050505050565b610176546001600160a01b0316336001600160a01b03161461210257600080fd5b61210b816138e6565b50565b600054610100900460ff161580801561212e5750600054600160ff909116105b806121485750303b158015612148575060005460ff166001145b6121645760405162461bcd60e51b8152600401610d3990615c73565b6000805460ff191660011790558015612187576000805461ff0019166101001790555b61218f614914565b61219883614943565b61017580546001600160a01b0319166001600160a01b038616179055610110805460ff191660ff84161790556103e861010a55620f424061010b558015612219576000805461ff0019169055604051600181527f7f26b83ff96e1f2b6a682f133852f6798a09c465da95921460cefb38474024989060200160405180910390a15b50505050565b610176546001600160a01b0316336001600160a01b0316146122735760405162461bcd60e51b815260206004820152600d60248201526c13d3931657d1915157d413d3d3609a1b6044820152606401610d39565b610101846040516122849190615920565b90815260408051602092819003830190206001600160a01b03959095166000908152948252808520938552928152828420918452529020805460ff1916905550565b83838080601f01602080910402602001604051908101604052809392919081815260200183838082843760009201919091525061230892508391506137999050565b60008585336101105460405161232d94939291889160ff909116908a90602001615b0e565b60408051601f198184030181529181528151602092830120600081815261010690935291205490915061238b5760405162461bcd60e51b8152600401610d3990602080825260049082015263544d4e4560e01b604082015260600190565b600081815261010660205260409020548711156123d05760405162461bcd60e51b815260206004820152600360248201526222aa2960e91b6044820152606401610d39565b6000612431610921604051806040016040528060048152602001637365747560e01b81525089898080601f016020809104026020016040519081016040528093929190818152602001838380828437600092019190915250613c9192505050565b604051633c37699760e21b81529091506001600160a01b0382169063f0dda65c906124629033908c906004016159b8565b600060405180830381600087803b15801561247c57600080fd5b505af1158015612490573d6000803e3d6000fd5b50505060008381526101066020526040812080548b93509091906124b5908490615eae565b909155506124c69050888888610e78565b610110547f03429c36e1c4b6cc93bea4bdecc3e66626619e81da26e25fbcfc11406a116942908690869060ff16338b8b8e600360405161250d989796959493929190615d0c565b60405180910390a15050505050505050565b612527613f17565b61017780546001600160a01b0319166001600160a01b0392909216919091179055565b3330146125bf5760405162461bcd60e51b815260206004820152603860248201527f526f7574657243726f737354616c6b203a2043616e206f6e6c7920626520636160448201527f6c6c65642062792043757272656e7420436f6e747261637400000000000000006064820152608401610d39565b610110546040516000916125e391879187918b91879160ff90911690602001615ad0565b60408051601f198184030181529181528151602092830120600081815261010790935291205490915083146126535760405162461bcd60e51b81526020600482015260166024820152750929cac82989288bea8a4829ca68c8aa4be929c888ab60531b6044820152606401610d39565b6101105460008281526101076020526040812080549192889288928c92889260ff909116918761268283615f2c565b9190505560405160200161269b96959493929190615b0e565b60408051601f1981840301815282825280516020918201206000818152610106909252919020899055610110549092507f03429c36e1c4b6cc93bea4bdecc3e66626619e81da26e25fbcfc11406a1169429161250d918791879160ff16908d908c908c908f90600290615d0c565b83838080601f01602080910402602001604051908101604052809392919081815260200183838082843760009201919091525061274b92508391506137999050565b6000831161278e5760405162461bcd60e51b815260206004820152601060248201526f04e4f5f4f465f544f4b454e53203e20360841b6044820152606401610d39565b6127cd85858080601f0160208091040260200160405190810160405280939291908181526020018383808284376000920191909152506138e692505050565b60006001905060008061010888886040516127e992919061593c565b908152604051908190036020019020541115612905576000610108888860405161281492919061593c565b908152602001604051809103902060016101088a8a60405161283792919061593c565b908152604051908190036020019020546128519190615eae565b8154811061286f57634e487b7160e01b600052603260045260246000fd5b90600052602060002090600502016040518060a001604052908160008201548152602001600182015481526020016002820154815260200160038201548152602001600482015481525050905061010888886040516128cf92919061593c565b908152604051908190036020019020546128ea906001615e57565b602082015182519194506128fd91615e57565b91505061298b565b610177546040516318565e0f60e01b81526001600160a01b03909116906318565e0f90612938908a908a90600401615a8c565b604080518083038186803b15801561294f57600080fd5b505afa158015612963573d6000803e3d6000fd5b505050506040513d601f19601f82011682018060405250810190612987919061577d565b5090505b60006040518060e001604052808781526020014381526020016101088a8a6040516129b792919061593c565b90815260200160405180910390208054905081526020018481526020018381526020016101088a8a6040516129ed92919061593c565b908152602001604051809103902080549050815260200142815250905060006101028989604051612a1f92919061593c565b90815260200160405180910390206000612a363390565b6001600160a01b0316815260208101919091526040016000908120805491612a5d83615f2c565b919050559050816101008a8a604051612a7792919061593c565b90815260200160405180910390206000612a8e3390565b6001600160a01b0316815260208082019290925260409081016000908120858252835281902083518155918301516001830155828101516002830155606083015160038301556080830151600483015560a0830151600583015560c09092015160069091015551879061010390612b08908c908c9061593c565b90815260200160405180910390206000828254612b259190615e57565b92505081905550866101048a8a604051612b4092919061593c565b90815260200160405180910390206000828254612b5d9190615e57565b909155505061017554604051633b6cb21560e21b81526001600160a01b039091169063edb2c85490612b98908c908c90600190600401615b51565b600060405180830381600087803b158015612bb257600080fd5b505af1158015612bc6573d6000803e3d6000fd5b505050506000612c0b8a8a8080601f016020809104026020016040519081016040528093929190818152602001838380828437600092019190915250612e5492505050565b90506001600160a01b0381166323b872dd336040516001600160e01b031960e084901b1681526001600160a01b039091166004820152306024820152604481018b9052606401602060405180830381600087803b158015612c6b57600080fd5b505af1158015612c7f573d6000803e3d6000fd5b505050506040513d601f19601f82011682018060405250810190612ca391906152cb565b506000612d05610921604051806040016040528060048152602001637365747560e01b8152508d8d8080601f016020809104026020016040519081016040528093929190818152602001838380828437600092019190915250613c9192505050565b604051633c37699760e21b81529091506001600160a01b0382169063f0dda65c90612d369033908d906004016159b8565b600060405180830381600087803b158015612d5057600080fd5b505af1158015612d64573d6000803e3d6000fd5b50505050806001600160a01b031663b1c25586612d7e3390565b8b6040518363ffffffff1660e01b8152600401612d9c9291906159b8565b602060405180830381600087803b158015612db657600080fd5b505af1158015612dca573d6000803e3d6000fd5b505050506040513d601f19601f82011682018060405250810190612dee91906152cb565b508715612e0157612e018b8b858b611b8b565b336001600160a01b0316837f9a4bd40884e6b582f1bcdde16a1c16eb99d827a988a328e89e83e42face98df38d8d8d604051612e3f93929190615b77565b60405180910390a35050505050505050505050565b61017754604051636204891b60e11b815260009182916001600160a01b039091169063c409123690612e8a908690600401615bc7565b60206040518083038186803b158015612ea257600080fd5b505afa158015612eb6573d6000803e3d6000fd5b505050506040513d601f19601f82011682018060405250810190612eda9190615112565b90506001600160a01b038116612f225760405162461bcd60e51b815260206004820152600d60248201526c24a72b20a624a22faa27a5a2a760991b6044820152606401610d39565b92915050565b612f30613f17565b61017580546001600160a01b0319166001600160a01b0392909216919091179055565b610176546001600160a01b0316336001600160a01b031614612fa75760405162461bcd60e51b815260206004820152600d60248201526c13d3931657d1915157d413d3d3609a1b6044820152606401610d39565b61010883604051612fb89190615920565b908152604051908190036020018120549061010090612fd8908690615920565b90815260408051602092819003830190206001600160a01b0395909516600090815294825280852093855292905291206002015550565b613017613f17565b600061305884848080601f016020809104026020016040519081016040528093929190818152602001838380828437600092019190915250612e5492505050565b9050806001600160a01b031663a9059cbb61307b6033546001600160a01b031690565b846040518363ffffffff1660e01b81526004016130999291906159b8565b602060405180830381600087803b1580156130b357600080fd5b505af11580156130c7573d6000803e3d6000fd5b505050506040513d601f19601f820116820180604052508101906130eb91906152cb565b5050505050565b6130fa613f17565b609980546001600160a01b0319166001600160a01b03831617905550565b6000808561312581613799565b61312e876138e6565b6000613159610921604051806040016040528060048152602001637365747560e01b8152508a613c91565b6040516306888c6760e11b81529091506001600160a01b03821690630d1118ce9061318a9033908b906004016159b8565b600060405180830381600087803b1580156131a457600080fd5b505af11580156131b8573d6000803e3d6000fd5b505050506000886131c63390565b610110546040516131e193929160ff16908b90602001615bda565b60408051601f19818403018152918152815160209283012060008181526101079093529082208054919350909161321783615f2c565b909155506000613284897fa0404e6edcba9f47e04f4f0818bb46c6dd0e727c95fab9eec093657693b04a51338d8f8761011060009054906101000a900460ff1660405160200161326b959493929190615a0d565b60405160208183030381529060405261010b548c614a28565b509050806132c35760405162461bcd60e51b815260206004820152600c60248201526b2927aaaa22a92fa2a92927a960a11b6044820152606401610d39565b610110547f03429c36e1c4b6cc93bea4bdecc3e66626619e81da26e25fbcfc11406a11694290839060ff168b338f8f60016040516133079796959493929190615d66565b60405180910390a19a909950975050505050505050565b613326613f17565b61017680546001600160a01b0319166001600160a01b0392909216919091179055565b60006101088260405161335c9190615920565b9081526040519081900360200190205492915050565b61337a613f17565b6001600160a01b0385161580159061339a57506001600160a01b03841615155b80156133a65750600083115b6133e35760405162461bcd60e51b815260206004820152600e60248201526d494e56414c49445f504152414d5360901b6044820152606401610d39565b6040518060800160405280856001600160a01b0316815260200184815260200183838080601f0160208091040260200160405190810160405280939291908181526020018383808284376000920191909152505050908252506001600160a01b03878116602092830152825161010c80546001600160a01b031916919092161781558282015161010d556040830151805191926134879261010e9290910190614f91565b5060609190910151600390910180546001600160a01b0319166001600160a01b039092169190911790555050505050565b61010c805461010d5461010e80546001600160a01b039093169391926134dd90615ef1565b80601f016020809104026020016040519081016040528092919081815260200182805461350990615ef1565b80156135565780601f1061352b57610100808354040283529160200191613556565b820191906000526020600020905b81548152906001019060200180831161353957829003601f168201915b505050600390930154919250506001600160a01b031684565b613577613f17565b609880546001600160a01b0319166001600160a01b03831617905550565b61359d613f17565b6001600160a01b0381166136025760405162461bcd60e51b815260206004820152602660248201527f4f776e61626c653a206e6577206f776e657220697320746865207a65726f206160448201526564647265737360d01b6064820152608401610d39565b61210b8161408e565b613613613f17565b61010a55565b6097546001600160a01b0316336001600160a01b03161461364c5760405162461bcd60e51b8152600401610d3990615c16565b60ff81166000818152609a60205260408082205490516001600160a01b0390911692917f566e5d71d4547dca8d21d2527ec375bb6ad1052ea20ab35c3f310aba1d6bc66b91a360ff166000908152609a6020526040902080546001600160a01b0319169055565b600060606000806000806000878060200190518101906136d3919061512e565b94509450945094509450600080306001600160a01b03168b8888888888604051602401613704959493929190615a0d565b60408051601f198184030181529181526020820180516001600160e01b03166001600160e01b03199094169390931790925290516137429190615920565b6000604051808303816000865af19150503d806000811461377f576040519150601f19603f3d011682016040523d82523d6000602084013e613784565b606091505b509099509750505050505050505b9250929050565b61017560009054906101000a90046001600160a01b03166001600160a01b031663029a7ba66040518163ffffffff1660e01b815260040160206040518083038186803b1580156137e857600080fd5b505afa1580156137fc573d6000803e3d6000fd5b505050506040513d601f19601f8201168201806040525081019061382091906152cb565b80156138a857506101775460405163d1ae6e2160e01b81526001600160a01b039091169063d1ae6e2190613858908490600401615bc7565b60206040518083038186803b15801561387057600080fd5b505afa158015613884573d6000803e3d6000fd5b505050506040513d601f19601f820116820180604052508101906138a891906152cb565b61210b5760405162461bcd60e51b815260206004820152600f60248201526e1094925111d157d11254d050931151608a1b6044820152606401610d39565b6000806138f283614c14565b91509150816000141561390457505050565b610177546040516318565e0f60e01b81526000916001600160a01b0316906318565e0f90613936908790600401615bc7565b604080518083038186803b15801561394d57600080fd5b505afa158015613961573d6000803e3d6000fd5b505050506040513d601f19601f82011682018060405250810190613985919061577d565b90508091505060006101048560405161399e9190615920565b908152604051908190036020018120546101775463139927bd60e21b83529092506000916001600160a01b0390911690634e649ef4906139e2908990600401615bc7565b60206040518083038186803b1580156139fa57600080fd5b505afa158015613a0e573d6000803e3d6000fd5b505050506040513d601f19601f82011682018060405250810190613a3291906156c2565b905060005b613a42600187615eae565b811015613b015760006040518060a001604052808684613a629190615e8f565b613a6c9089615e57565b81526020018681526020016000815260200185815260200184815250905061010888604051613a9b9190615920565b90815260408051602092819003830190208054600180820183556000928352918490208551600590920201908155928401519083015582015160028201556060820151600382015560809091015160049091015580613af981615f2c565b915050613a37565b610176546040516320a359f560e11b81526000916001600160a01b031690634146b3ea90613b33908b90600401615bc7565b60206040518083038186803b158015613b4b57600080fd5b505afa158015613b5f573d6000803e3d6000fd5b505050506040513d601f19601f82011682018060405250810190613b8391906156c2565b905060006040518060a001604052808785613b9e9190615e8f565b613ba8908a615e57565b815260200187815260200183815260200186815260200185815250905061010889604051613bd69190615920565b90815260408051602092819003830181208054600180820183556000928352918590208651600590920201908155938501519084015590830151600283015560608301516003830155608083015160049283015561017654633f96c4b960e21b82526001600160a01b03169163fe5b12e491613c54918d9101615bc7565b600060405180830381600087803b158015613c6e57600080fd5b505af1158015613c82573d6000803e3d6000fd5b50505050505050505050505050565b60608282604051602001613ca692919061594c565b604051602081830303815290604052905092915050565b610177546040516339d7fa4360e21b81526000918291829182916001600160a01b039091169063e75fe90c90613cf9908a908a90600401615a8c565b604080518083038186803b158015613d1057600080fd5b505afa158015613d24573d6000803e3d6000fd5b505050506040513d601f19601f82011682018060405250810190613d48919061589e565b909350915060ff8316613e7b5781341015613d995760405162461bcd60e51b8152602060048201526011602482015270494e53554646494349454e545f4645455360781b6044820152606401610d39565b610176546040516332ba05b560e21b81526001600160a01b039091169063cae816d490613dd1908a908a908790600190600401615b9b565b600060405180830381600087803b158015613deb57600080fd5b505af1158015613dff573d6000803e3d6000fd5b5050610176546040516001600160a01b03909116925084156108fc02915084906000818181858888f19350505050158015613e3e573d6000803e3d6000fd5b50336108fc613e4d8434615eae565b6040518115909202916000818181858888f19350505050158015613e75573d6000803e3d6000fd5b50613f0b565b8260ff1660011415613f0b5761010a54613e958387615e8f565b613e9f9190615e6f565b610176546040516332ba05b560e21b81529192506001600160a01b03169063cae816d490613ed8908a908a908690600190600401615b9b565b600060405180830381600087803b158015613ef257600080fd5b505af1158015613f06573d6000803e3d6000fd5b505050505b925050505b9392505050565b6033546001600160a01b03163314611b895760405162461bcd60e51b815260206004820181905260248201527f4f776e61626c653a2063616c6c6572206973206e6f7420746865206f776e65726044820152606401610d39565b60975460405163095ea7b360e01b815283916001600160a01b038084169263095ea7b392613fa592169086906004016159b8565b602060405180830381600087803b158015613fbf57600080fd5b505af1158015613fd3573d6000803e3d6000fd5b505050506040513d601f19601f8201168201806040525081019061221991906152cb565b6097546000848152609b60205260409081902054905163f8d9a81360e01b815260ff821660048201526101009091046001600160401b0316602482015260448101849052606481018390526001600160a01b039091169063f8d9a81390608401600060405180830381600087803b15801561407157600080fd5b505af1158015614085573d6000803e3d6000fd5b50505050505050565b603380546001600160a01b038381166001600160a01b0319831681179093556040519116919082907f8be0079c531659141344cd1fd0a4f28419497f9722a3daafe3b4186f6b6457e090600090a35050565b825b60016140ee8686615e57565b6140f89190615eae565b8111611e0a5781156141bd576001610101898960405161411992919061593c565b908152602001604051809103902060006141303390565b6001600160a01b03168152602080820192909252604090810160009081208a8252835281812085825290925290819020805460ff19169215159290921790915551839061010590614184908b908b9061593c565b9081526020016040518091039020600083815260200190815260200160002060008282546141b29190615e57565b909155506142679050565b61010188886040516141d092919061593c565b908152602001604051809103902060006141e73390565b6001600160a01b0316815260208082019290925260409081016000908120898252835281812084825290925290819020805460ff1916905551839061010590614233908b908b9061593c565b9081526020016040518091039020600083815260200190815260200160002060008282546142619190615eae565b90915550505b8061427181615f2c565b9150506140e2565b6000610103838360405161428e92919061593c565b9081526020016040518091039020549050600061010084846040516142b492919061593c565b908152602001604051809103902060006142cb3390565b6001600160a01b03166001600160a01b031681526020019081526020016000206000868152602001908152602001600020905060008160000154905080610104868660405161431b92919061593c565b908152602001604051809103902060008282546143389190615eae565b925050819055506000610108868660405161435492919061593c565b9081526040519081900360200190205461436f906001615e57565b9050808360050154106143a6576143a68686898487600501546143929190615eae565b61439d906001615e57565b858760006140e0565b60006143e787878080601f016020809104026020016040519081016040528093929190818152602001838380828437600092019190915250612e5492505050565b9050600061444a610921604051806040016040528060048152602001637365747560e01b8152508a8a8080601f016020809104026020016040519081016040528093929190818152602001838380828437600092019190915250613c9192505050565b61017554604051633b6cb21560e21b81529192506001600160a01b03169063edb2c85490614481908b908b90600090600401615b51565b600060405180830381600087803b15801561449b57600080fd5b505af11580156144af573d6000803e3d6000fd5b505061017754604051632efff6cb60e01b8152600093506001600160a01b039091169150632efff6cb906144e9908c908c90600401615a8c565b60206040518083038186803b15801561450157600080fd5b505afa158015614515573d6000803e3d6000fd5b505050506040513d601f19601f8201168201806040525081019061453991906157e3565b905084808810156145475750865b60ff82166146b1576040516306888c6760e11b81526001600160a01b03841690630d1118ce9061457d90339085906004016159b8565b600060405180830381600087803b15801561459757600080fd5b505af11580156145ab573d6000803e3d6000fd5b50505050806101038b8b6040516145c392919061593c565b908152602001604051809103902060008282546145e09190615eae565b909155505060405163a9059cbb60e01b81526001600160a01b0385169063a9059cbb9061461390339085906004016159b8565b602060405180830381600087803b15801561462d57600080fd5b505af1158015614641573d6000803e3d6000fd5b505050506040513d601f19601f8201168201806040525081019061466591906152cb565b50336001600160a01b03168b7f5d056bb450525d11fa5bb863a08b957060c64636cf5032046552a28619608f9f8c8c856040516146a493929190615b77565b60405180910390a361488a565b8160ff166001141561488a576040516306888c6760e11b81526001600160a01b03841690630d1118ce906146eb9033908a906004016159b8565b600060405180830381600087803b15801561470557600080fd5b505af1158015614719573d6000803e3d6000fd5b50505050806101038b8b60405161473192919061593c565b9081526020016040518091039020600082825461474e9190615eae565b909155505060405163a9059cbb60e01b81526001600160a01b0385169063a9059cbb9061478190339085906004016159b8565b602060405180830381600087803b15801561479b57600080fd5b505af11580156147af573d6000803e3d6000fd5b505050506040513d601f19601f820116820180604052508101906147d391906152cb565b506001600160a01b03841663f0dda65c336147ee848a615eae565b6040518363ffffffff1660e01b815260040161480b9291906159b8565b600060405180830381600087803b15801561482557600080fd5b505af1158015614839573d6000803e3d6000fd5b505050506148443390565b6001600160a01b03168b7f5d056bb450525d11fa5bb863a08b957060c64636cf5032046552a28619608f9f8c8c8a60405161488193929190615b77565b60405180910390a35b6101008a8a60405161489d92919061593c565b908152602001604051809103902060006148b43390565b6001600160a01b03168152602080820192909252604090810160009081209d81529c9091528b208b8155600181018c9055600281018c9055600381018c9055600481018c9055600581018c90556006019a909a5550505050505050505050565b600054610100900460ff1661493b5760405162461bcd60e51b8152600401610d3990615cc1565b611b89614e3f565b600054610100900460ff16158080156149635750600054600160ff909116105b8061497d5750303b15801561497d575060005460ff166001145b6149995760405162461bcd60e51b8152600401610d3990615c73565b6000805460ff1916600117905580156149bc576000805461ff0019166101001790555b6149c4614e6f565b609780546001600160a01b0319166001600160a01b0384161790558015611aff576000805461ff0019169055604051600181527f7f26b83ff96e1f2b6a682f133852f6798a09c465da95921460cefb38474024989060200160405180910390a15050565b60ff85166000908152609a6020526040812054819087906001600160a01b0316614aba5760405162461bcd60e51b815260206004820152603d60248201527f526f7574657243726f737354616c6b203a2043726f737320436861696e20436f60448201527f6e747261637420746f20436861696e204944206973206e6f74207365740000006064820152608401610d39565b60008787604051602001614acf929190615a6a565b60408051601f1981840301815290829052609754609954639f77b1fb60e01b84529193506000926001600160a01b0391821692639f77b1fb92614b20928f9288928e928e9290911690600401615dbe565b602060405180830381600087803b158015614b3a57600080fd5b505af1158015614b4e573d6000803e3d6000fd5b505050506040513d601f19601f82011682018060405250810190614b7291906157a0565b6040805160ff8d811660208084018290526001600160401b038681168587018190528651808703880181526060870180895281519185019190912060a08801895294815260809096019081526000848152609b909352959091209351845495519091166101000268ffffffffffffffffff19909516921691909117929092179055909150614c028b8b8b84614e96565b60019b909a5098505050505050505050565b60008060008061010985604051614c2b9190615920565b908152602001604051809103902054431115614e3557610177546040516318565e0f60e01b815260009182916001600160a01b03909116906318565e0f90614c77908a90600401615bc7565b604080518083038186803b158015614c8e57600080fd5b505afa158015614ca2573d6000803e3d6000fd5b505050506040513d601f19601f82011682018060405250810190614cc6919061577d565b604051919350915060009061010890614ce0908a90615920565b908152604051908190036020019020541115614dda57600061010888604051614d099190615920565b908152602001604051809103902060016101088a604051614d2a9190615920565b90815260405190819003602001902054614d449190615eae565b81548110614d6257634e487b7160e01b600052603260045260246000fd5b60009182526020918290206040805160a08101825260059093029091018054808452600182015494840185905260028201549284019290925260038101546060840152600401546080830152909250614dbb9190615e57565b935081614dc88543615eae565b614dd29190615e6f565b945050614df5565b80614de58343615eae565b614def9190615e6f565b93508192505b614dff8185615e8f565b61010988604051614e109190615920565b90815260200160405180910390206000828254614e2d9190615e57565b909155505050505b9094909350915050565b600054610100900460ff16614e665760405162461bcd60e51b8152600401610d3990615cc1565b611b893361408e565b600054610100900460ff16611b895760405162461bcd60e51b8152600401610d3990615cc1565b826001600160e01b0319168460ff16609760009054906101000a90046001600160a01b03166001600160a01b031663b2c0f6406040518163ffffffff1660e01b815260040160206040518083038186803b158015614ef357600080fd5b505afa158015614f07573d6000803e3d6000fd5b505050506040513d601f19601f82011682018060405250810190614f2b91906157e3565b60ff8781166000908152609a60205260409081902054905192909116917f5577eec09aa2850627ee68188b4ade468b8d0e82083954ecb4928e85e3db9ad591614f839130916001600160a01b0316908990899061597b565b60405180910390a450505050565b828054614f9d90615ef1565b90600052602060002090601f016020900481019282614fbf5760008555615005565b82601f10614fd857805160ff1916838001178555615005565b82800160010185558215615005579182015b82811115615005578251825591602001919060010190614fea565b50615011929150615015565b5090565b5b808211156150115760008155600101615016565b600061503d61503884615e30565b615e00565b905082815283838301111561505157600080fd5b828260208301376000602084830101529392505050565b600061507661503884615e30565b905082815283838301111561508a57600080fd5b613f10836020830184615ec5565b60008083601f8401126150a9578182fd5b5081356001600160401b038111156150bf578182fd5b60208301915083602082850101111561379257600080fd5b600082601f8301126150e7578081fd5b613f108383356020850161502a565b600060208284031215615107578081fd5b8135613f1081615f73565b600060208284031215615123578081fd5b8151613f1081615f73565b600080600080600060a08688031215615145578081fd5b855161515081615f73565b6020870151604088015191965094506001600160401b03811115615172578182fd5b8601601f81018813615182578182fd5b61519188825160208401615068565b9350506060860151915060808601516151a981615f9e565b809150509295509295909350565b6000806000806000608086880312156151ce578081fd5b85356151d981615f73565b945060208601356151e981615f73565b93506040860135925060608601356001600160401b0381111561520a578182fd5b61521688828901615098565b969995985093965092949392505050565b60008060408385031215615239578182fd5b823561524481615f73565b946020939093013593505050565b60008060008060008060a0878903121561526a578384fd5b863561527581615f73565b95506020870135945060408701356001600160401b03811115615296578485fd5b6152a289828a01615098565b9095509350506060870135915060808701356152bd81615f9e565b809150509295509295509295565b6000602082840312156152dc578081fd5b81518015158114613f10578182fd5b6000602082840312156152fc578081fd5b5035919050565b60008060408385031215615315578182fd5b50508035926020909101359150565b600060208284031215615335578081fd5b8135613f1081615f88565b60008060408385031215615352578182fd5b825161535d81615f88565b60208401519092506001600160401b03811115615378578182fd5b8301601f81018513615388578182fd5b61539785825160208401615068565b9150509250929050565b6000806000606084860312156153b5578081fd5b83356153c081615f73565b925060208401356153d081615f73565b915060408401356153e081615f9e565b809150509250925092565b6000806000604084860312156153ff578081fd5b83356001600160401b03811115615414578182fd5b61542086828701615098565b909790965060209590950135949350505050565b60008060008060608587031215615449578182fd5b84356001600160401b0381111561545e578283fd5b61546a87828801615098565b90989097506020870135966040013595509350505050565b600080600080600060808688031215615499578283fd5b85356001600160401b038111156154ae578384fd5b6154ba88828901615098565b9096509450506020860135925060408601356154d581615f9e565b949793965091946060013592915050565b6000602082840312156154f7578081fd5b81356001600160401b0381111561550c578182fd5b615518848285016150d7565b949350505050565b60008060408385031215615532578182fd5b82356001600160401b03811115615547578283fd5b615553858286016150d7565b925050602083013561556481615f73565b809150509250929050565b600080600060608486031215615583578081fd5b83356001600160401b03811115615598578182fd5b6155a4868287016150d7565b93505060208401356155b581615f73565b929592945050506040919091013590565b600080600080608085870312156155db578182fd5b84356001600160401b038111156155f0578283fd5b6155fc878288016150d7565b945050602085013561560d81615f73565b93969395505050506040820135916060013590565b60008060408385031215615634578182fd5b82356001600160401b03811115615649578283fd5b615655858286016150d7565b95602094909401359450505050565b60008060008060808587031215615679578182fd5b84356001600160401b0381111561568e578283fd5b61569a878288016150d7565b9450506020850135925060408501356156b281615f9e565b9396929550929360600135925050565b6000602082840312156156d3578081fd5b5051919050565b6000806000604084860312156156ee578081fd5b8335925060208401356001600160401b0381111561570a578182fd5b61571686828701615098565b9497909650939450505050565b60008060008060006080868803121561573a578283fd5b8535945060208601356001600160401b03811115615756578384fd5b61576288828901615098565b9095509350506040860135915060608601356151a981615f9e565b6000806040838503121561578f578182fd5b505080516020909101519092909150565b6000602082840312156157b1578081fd5b81516001600160401b0381168114613f10578182fd5b6000602082840312156157d8578081fd5b8135613f1081615f9e565b6000602082840312156157f4578081fd5b8151613f1081615f9e565b60008060408385031215615811578182fd5b823561581c81615f9e565b9150602083013561556481615f73565b600080600060608486031215615840578081fd5b833561584b81615f9e565b9250602084013561585b81615f73565b915060408401356001600160401b03811115615875578182fd5b8401601f81018613615885578182fd5b6158948682356020840161502a565b9150509250925092565b600080604083850312156158b0578182fd5b82516158bb81615f9e565b6020939093015192949293505050565b600081518084526158e3816020860160208601615ec5565b601f01601f19169290920160200192915050565b81835281816020850137506000828201602090810191909152601f909101601f19169091010190565b60008251615932818460208701615ec5565b9190910192915050565b8183823760009101908152919050565b6000835161595e818460208801615ec5565b835190830190615972818360208801615ec5565b01949350505050565b6001600160a01b038581168252841660208201526080604082018190526000906159a7908301856158cb565b905082606083015295945050505050565b6001600160a01b03929092168252602082015260400190565b600060018060a01b038087168352856020840152608060408401526159f960808401866158cb565b915080841660608401525095945050505050565b60018060a01b038616815284602082015260a060408201526000615a3460a08301866158cb565b905083606083015260ff831660808301529695505050505050565b821515815260406020820152600061551860408301846158cb565b63ffffffff60e01b8316815260406020820152600061551860408301846158cb565b6020815260006155186020830184866158f7565b606081526000615ab46060830186886158f7565b6001600160a01b03949094166020830152506040015292915050565b608081526000615ae46080830187896158f7565b6001600160a01b039590951660208301525060ff9283166040820152911660609091015292915050565b60a081526000615b2260a08301888a6158f7565b6001600160a01b039690961660208301525060ff93841660408201529190921660608201526080015292915050565b604081526000615b656040830185876158f7565b90508215156020830152949350505050565b604081526000615b8b6040830185876158f7565b9050826020830152949350505050565b606081526000615baf6060830186886158f7565b60208301949094525090151560409091015292915050565b602081526000613f1060208301846158cb565b608081526000615bed60808301876158cb565b6001600160a01b039590951660208301525060ff92831660408201529116606090910152919050565b60208082526037908201527f526f7574657253796e63203a204f6e6c792047656e6572696348616e646c657260408201527f2063616e2063616c6c20746869732066756e6374696f6e000000000000000000606082015260800190565b6020808252602e908201527f496e697469616c697a61626c653a20636f6e747261637420697320616c72656160408201526d191e481a5b9a5d1a585b1a5e995960921b606082015260800190565b6020808252602b908201527f496e697469616c697a61626c653a20636f6e7472616374206973206e6f74206960408201526a6e697469616c697a696e6760a81b606082015260800190565b88815260ff8881166020830152871660408201526001600160a01b038616606082015260e060808201819052600090615d4890830186886158f7565b90508360a083015260ff831660c08301529998505050505050505050565b87815260ff8781166020830152861660408201526001600160a01b038516606082015260e060808201819052600090615da1908301866158cb565b90508360a083015260ff831660c083015298975050505050505050565b60ff8616815260a060208201526000615dda60a08301876158cb565b60408301959095525060608101929092526001600160a01b031660809091015292915050565b604051601f8201601f191681016001600160401b0381118282101715615e2857615e28615f5d565b604052919050565b60006001600160401b03821115615e4957615e49615f5d565b50601f01601f191660200190565b60008219821115615e6a57615e6a615f47565b500190565b600082615e8a57634e487b7160e01b81526012600452602481fd5b500490565b6000816000190483118215151615615ea957615ea9615f47565b500290565b600082821015615ec057615ec0615f47565b500390565b60005b83811015615ee0578181015183820152602001615ec8565b838111156122195750506000910152565b600181811c90821680615f0557607f821691505b60208210811415615f2657634e487b7160e01b600052602260045260246000fd5b50919050565b6000600019821415615f4057615f40615f47565b5060010190565b634e487b7160e01b600052601160045260246000fd5b634e487b7160e01b600052604160045260246000fd5b6001600160a01b038116811461210b57600080fd5b6001600160e01b03198116811461210b57600080fd5b60ff8116811461210b57600080fdfea2646970667358221220687643d42ec4f81becd9ae7e0d567bde1ffcd8cf6f6b5a9060b788e1ec392fa064736f6c63430008040033",
  "linkReferences": {},
  "deployedLinkReferences": {}
}