{
  "_format": "hh-sol-artifact-1",
  "contractName": "BridgeUpgradeable",
  "sourceName": "contracts/BridgeUpgradeable.sol",
  "abi": [
    {
      "anonymous": false,
      "inputs": [
        {
          "indexed": false,
          "internalType": "uint256",
          "name": "transferIndex",
          "type": "uint256"
        },
        {
          "indexed": false,
          "internalType": "uint256",
          "name": "fromChainId",
          "type": "uint256"
        },
        {
          "indexed": false,
          "internalType": "uint256",
          "name": "toChainId",
          "type": "uint256"
        },
        {
          "indexed": false,
          "internalType": "address",
          "name": "account",
          "type": "address"
        },
        {
          "indexed": false,
          "internalType": "string",
          "name": "tokenTicker",
          "type": "string"
        },
        {
          "indexed": false,
          "internalType": "uint8",
          "name": "status",
          "type": "uint8"
        }
      ],
      "name": "BridgeTransactionEnd",
      "type": "event"
    },
    {
      "anonymous": false,
      "inputs": [
        {
          "indexed": false,
          "internalType": "uint256",
          "name": "transferIndex",
          "type": "uint256"
        },
        {
          "indexed": false,
          "internalType": "uint256",
          "name": "toChainId",
          "type": "uint256"
        },
        {
          "indexed": false,
          "internalType": "address",
          "name": "account",
          "type": "address"
        },
        {
          "indexed": false,
          "internalType": "string",
          "name": "tokenTicker",
          "type": "string"
        },
        {
          "indexed": false,
          "internalType": "uint256",
          "name": "noOfTokens",
          "type": "uint256"
        }
      ],
      "name": "BridgeTransactionInit",
      "type": "event"
    },
    {
      "anonymous": false,
      "inputs": [
        {
          "indexed": true,
          "internalType": "uint8",
          "name": "sourceChain",
          "type": "uint8"
        },
        {
          "indexed": true,
          "internalType": "uint8",
          "name": "destChain",
          "type": "uint8"
        },
        {
          "indexed": false,
          "internalType": "address",
          "name": "sourceAddress",
          "type": "address"
        }
      ],
      "name": "CrossTalkReceive",
      "type": "event"
    },
    {
      "anonymous": false,
      "inputs": [
        {
          "indexed": true,
          "internalType": "uint8",
          "name": "sourceChain",
          "type": "uint8"
        },
        {
          "indexed": true,
          "internalType": "uint8",
          "name": "destChain",
          "type": "uint8"
        },
        {
          "indexed": false,
          "internalType": "address",
          "name": "sourceAddress",
          "type": "address"
        },
        {
          "indexed": false,
          "internalType": "address",
          "name": "destinationAddress",
          "type": "address"
        },
        {
          "indexed": true,
          "internalType": "bytes4",
          "name": "_selector",
          "type": "bytes4"
        },
        {
          "indexed": false,
          "internalType": "bytes",
          "name": "_data",
          "type": "bytes"
        },
        {
          "indexed": false,
          "internalType": "bytes32",
          "name": "_hash",
          "type": "bytes32"
        }
      ],
      "name": "CrossTalkSend",
      "type": "event"
    },
    {
      "anonymous": false,
      "inputs": [
        {
          "indexed": false,
          "internalType": "uint8",
          "name": "version",
          "type": "uint8"
        }
      ],
      "name": "Initialized",
      "type": "event"
    },
    {
      "anonymous": false,
      "inputs": [
        {
          "indexed": true,
          "internalType": "uint8",
          "name": "ChainID",
          "type": "uint8"
        },
        {
          "indexed": true,
          "internalType": "address",
          "name": "linkedContract",
          "type": "address"
        }
      ],
      "name": "Linkevent",
      "type": "event"
    },
    {
      "anonymous": false,
      "inputs": [
        {
          "indexed": true,
          "internalType": "uint256",
          "name": "index",
          "type": "uint256"
        },
        {
          "indexed": true,
          "internalType": "address",
          "name": "account",
          "type": "address"
        },
        {
          "indexed": false,
          "internalType": "string",
          "name": "tokenTicker",
          "type": "string"
        },
        {
          "indexed": false,
          "internalType": "uint256",
          "name": "noOfTokens",
          "type": "uint256"
        }
      ],
      "name": "LiquidityAdded",
      "type": "event"
    },
    {
      "anonymous": false,
      "inputs": [
        {
          "indexed": true,
          "internalType": "uint256",
          "name": "index",
          "type": "uint256"
        },
        {
          "indexed": true,
          "internalType": "address",
          "name": "account",
          "type": "address"
        },
        {
          "indexed": false,
          "internalType": "string",
          "name": "tokenTicker",
          "type": "string"
        }
      ],
      "name": "LiquidityRemoved",
      "type": "event"
    },
    {
      "anonymous": false,
      "inputs": [
        {
          "indexed": true,
          "internalType": "address",
          "name": "previousOwner",
          "type": "address"
        },
        {
          "indexed": true,
          "internalType": "address",
          "name": "newOwner",
          "type": "address"
        }
      ],
      "name": "OwnershipTransferred",
      "type": "event"
    },
    {
      "anonymous": false,
      "inputs": [
        {
          "indexed": true,
          "internalType": "uint8",
          "name": "ChainID",
          "type": "uint8"
        },
        {
          "indexed": true,
          "internalType": "address",
          "name": "linkedContract",
          "type": "address"
        }
      ],
      "name": "Unlinkevent",
      "type": "event"
    },
    {
      "inputs": [
        {
          "internalType": "uint8",
          "name": "_chainID",
          "type": "uint8"
        },
        {
          "internalType": "address",
          "name": "_linkedContract",
          "type": "address"
        }
      ],
      "name": "Link",
      "outputs": [],
      "stateMutability": "nonpayable",
      "type": "function"
    },
    {
      "inputs": [
        {
          "internalType": "uint8",
          "name": "_chainID",
          "type": "uint8"
        }
      ],
      "name": "Unlink",
      "outputs": [],
      "stateMutability": "nonpayable",
      "type": "function"
    },
    {
      "inputs": [
        {
          "internalType": "string",
          "name": "_tokenTicker",
          "type": "string"
        }
      ],
      "name": "_addPassedEpochs",
      "outputs": [],
      "stateMutability": "nonpayable",
      "type": "function"
    },
    {
      "inputs": [
        {
          "internalType": "string",
          "name": "_tokenTicker",
          "type": "string"
        },
        {
          "internalType": "uint256",
          "name": "_noOfTokens",
          "type": "uint256"
        },
        {
          "internalType": "uint256",
          "name": "_noOfBoosters",
          "type": "uint256"
        }
      ],
      "name": "addLiquidity",
      "outputs": [],
      "stateMutability": "nonpayable",
      "type": "function"
    },
    {
      "inputs": [
        {
          "internalType": "address",
          "name": "_feeToken",
          "type": "address"
        },
        {
          "internalType": "uint256",
          "name": "_value",
          "type": "uint256"
        }
      ],
      "name": "approveRouterFee",
      "outputs": [],
      "stateMutability": "nonpayable",
      "type": "function"
    },
    {
      "inputs": [],
      "name": "boosterConfig",
      "outputs": [
        {
          "internalType": "address",
          "name": "tokenAddress",
          "type": "address"
        },
        {
          "internalType": "uint256",
          "name": "price",
          "type": "uint256"
        },
        {
          "internalType": "string",
          "name": "imageUrl",
          "type": "string"
        },
        {
          "internalType": "address",
          "name": "adminAccount",
          "type": "address"
        }
      ],
      "stateMutability": "view",
      "type": "function"
    },
    {
      "inputs": [],
      "name": "bridgeUtilsUpgradeable",
      "outputs": [
        {
          "internalType": "contract BridgeUtilsUpgradeable",
          "name": "",
          "type": "address"
        }
      ],
      "stateMutability": "view",
      "type": "function"
    },
    {
      "inputs": [
        {
          "internalType": "string",
          "name": "_tokenTicker",
          "type": "string"
        },
        {
          "internalType": "uint256",
          "name": "_index",
          "type": "uint256"
        },
        {
          "internalType": "uint256",
          "name": "_quantity",
          "type": "uint256"
        }
      ],
      "name": "buyBoosterPacks",
      "outputs": [],
      "stateMutability": "nonpayable",
      "type": "function"
    },
    {
      "inputs": [],
      "name": "chainId",
      "outputs": [
        {
          "internalType": "uint8",
          "name": "",
          "type": "uint8"
        }
      ],
      "stateMutability": "view",
      "type": "function"
    },
    {
      "inputs": [
        {
          "internalType": "address",
          "name": "_userAddress",
          "type": "address"
        },
        {
          "internalType": "uint256",
          "name": "_noOfTokens",
          "type": "uint256"
        },
        {
          "internalType": "string",
          "name": "_tokenTicker",
          "type": "string"
        },
        {
          "internalType": "uint256",
          "name": "_transferIndex",
          "type": "uint256"
        },
        {
          "internalType": "uint8",
          "name": "_fromChain",
          "type": "uint8"
        }
      ],
      "name": "createCrossChainTransferMapping",
      "outputs": [],
      "stateMutability": "nonpayable",
      "type": "function"
    },
    {
      "inputs": [],
      "name": "crossChainGas",
      "outputs": [
        {
          "internalType": "uint256",
          "name": "",
          "type": "uint256"
        }
      ],
      "stateMutability": "view",
      "type": "function"
    },
    {
      "inputs": [
        {
          "internalType": "uint256",
          "name": "_noOfTokens",
          "type": "uint256"
        },
        {
          "internalType": "string",
          "name": "_tokenTicker",
          "type": "string"
        },
        {
          "internalType": "uint256",
          "name": "_index",
          "type": "uint256"
        },
        {
          "internalType": "uint8",
          "name": "_fromChain",
          "type": "uint8"
        }
      ],
      "name": "crossChainTransferIn",
      "outputs": [],
      "stateMutability": "payable",
      "type": "function"
    },
    {
      "inputs": [
        {
          "internalType": "string",
          "name": "_tokenTicker",
          "type": "string"
        },
        {
          "internalType": "uint256",
          "name": "_noOfTokens",
          "type": "uint256"
        },
        {
          "internalType": "uint8",
          "name": "_toChainId",
          "type": "uint8"
        },
        {
          "internalType": "uint256",
          "name": "_gasPrice",
          "type": "uint256"
        }
      ],
      "name": "crossChainTransferOut",
      "outputs": [
        {
          "internalType": "bool",
          "name": "",
          "type": "bool"
        },
        {
          "internalType": "uint256",
          "name": "",
          "type": "uint256"
        }
      ],
      "stateMutability": "nonpayable",
      "type": "function"
    },
    {
      "inputs": [
        {
          "internalType": "string",
          "name": "",
          "type": "string"
        },
        {
          "internalType": "address",
          "name": "",
          "type": "address"
        }
      ],
      "name": "currentIndex",
      "outputs": [
        {
          "internalType": "uint256",
          "name": "",
          "type": "uint256"
        }
      ],
      "stateMutability": "view",
      "type": "function"
    },
    {
      "inputs": [
        {
          "internalType": "bytes32",
          "name": "",
          "type": "bytes32"
        }
      ],
      "name": "currentTransferIndex",
      "outputs": [
        {
          "internalType": "uint256",
          "name": "",
          "type": "uint256"
        }
      ],
      "stateMutability": "view",
      "type": "function"
    },
    {
      "inputs": [
        {
          "internalType": "string",
          "name": "_tokenTicker",
          "type": "string"
        },
        {
          "internalType": "address",
          "name": "_account",
          "type": "address"
        },
        {
          "internalType": "uint256",
          "name": "_index",
          "type": "uint256"
        },
        {
          "internalType": "uint256",
          "name": "epochIndex",
          "type": "uint256"
        }
      ],
      "name": "deleteHasBoosterMapping",
      "outputs": [],
      "stateMutability": "nonpayable",
      "type": "function"
    },
    {
      "inputs": [
        {
          "internalType": "string",
          "name": "",
          "type": "string"
        },
        {
          "internalType": "uint256",
          "name": "",
          "type": "uint256"
        }
      ],
      "name": "epochs",
      "outputs": [
        {
          "internalType": "uint256",
          "name": "startBlock",
          "type": "uint256"
        },
        {
          "internalType": "uint256",
          "name": "epochLength",
          "type": "uint256"
        },
        {
          "internalType": "uint256",
          "name": "totalFeesCollected",
          "type": "uint256"
        },
        {
          "internalType": "uint256",
          "name": "totalActiveLiquidity",
          "type": "uint256"
        },
        {
          "internalType": "uint256",
          "name": "noOfDepositors",
          "type": "uint256"
        }
      ],
      "stateMutability": "view",
      "type": "function"
    },
    {
      "inputs": [],
      "name": "feePoolUpgradeable",
      "outputs": [
        {
          "internalType": "contract FeePoolUpgradeable",
          "name": "",
          "type": "address"
        }
      ],
      "stateMutability": "view",
      "type": "function"
    },
    {
      "inputs": [
        {
          "internalType": "bytes32",
          "name": "hash",
          "type": "bytes32"
        }
      ],
      "name": "fetchExecutes",
      "outputs": [
        {
          "components": [
            {
              "internalType": "uint8",
              "name": "chainID",
              "type": "uint8"
            },
            {
              "internalType": "uint64",
              "name": "nonce",
              "type": "uint64"
            }
          ],
          "internalType": "struct iRouterCrossTalkUpgradeable.ExecutesStruct",
          "name": "",
          "type": "tuple"
        }
      ],
      "stateMutability": "view",
      "type": "function"
    },
    {
      "inputs": [],
      "name": "fetchFeeToken",
      "outputs": [
        {
          "internalType": "address",
          "name": "",
          "type": "address"
        }
      ],
      "stateMutability": "view",
      "type": "function"
    },
    {
      "inputs": [],
      "name": "fetchHandler",
      "outputs": [
        {
          "internalType": "address",
          "name": "",
          "type": "address"
        }
      ],
      "stateMutability": "view",
      "type": "function"
    },
    {
      "inputs": [
        {
          "internalType": "uint8",
          "name": "_chainID",
          "type": "uint8"
        }
      ],
      "name": "fetchLink",
      "outputs": [
        {
          "internalType": "address",
          "name": "",
          "type": "address"
        }
      ],
      "stateMutability": "view",
      "type": "function"
    },
    {
      "inputs": [],
      "name": "fetchLinkSetter",
      "outputs": [
        {
          "internalType": "address",
          "name": "",
          "type": "address"
        }
      ],
      "stateMutability": "view",
      "type": "function"
    },
    {
      "inputs": [],
      "name": "getBackNativeTokens",
      "outputs": [],
      "stateMutability": "nonpayable",
      "type": "function"
    },
    {
      "inputs": [
        {
          "internalType": "address",
          "name": "tokenAddress",
          "type": "address"
        }
      ],
      "name": "getBackTokens",
      "outputs": [],
      "stateMutability": "nonpayable",
      "type": "function"
    },
    {
      "inputs": [
        {
          "internalType": "string",
          "name": "_tokenTicker",
          "type": "string"
        }
      ],
      "name": "getEpochsLength",
      "outputs": [
        {
          "internalType": "uint256",
          "name": "",
          "type": "uint256"
        }
      ],
      "stateMutability": "view",
      "type": "function"
    },
    {
      "inputs": [
        {
          "internalType": "string",
          "name": "_tokenTicker",
          "type": "string"
        }
      ],
      "name": "getToken",
      "outputs": [
        {
          "internalType": "contract TokenUpgradeable",
          "name": "",
          "type": "address"
        }
      ],
      "stateMutability": "view",
      "type": "function"
    },
    {
      "inputs": [
        {
          "internalType": "string",
          "name": "",
          "type": "string"
        },
        {
          "internalType": "address",
          "name": "",
          "type": "address"
        },
        {
          "internalType": "uint256",
          "name": "",
          "type": "uint256"
        },
        {
          "internalType": "uint256",
          "name": "",
          "type": "uint256"
        }
      ],
      "name": "hasBooster",
      "outputs": [
        {
          "internalType": "bool",
          "name": "",
          "type": "bool"
        }
      ],
      "stateMutability": "view",
      "type": "function"
    },
    {
      "inputs": [
        {
          "internalType": "string",
          "name": "_tokenTicker",
          "type": "string"
        },
        {
          "internalType": "uint256",
          "name": "epochLength",
          "type": "uint256"
        }
      ],
      "name": "initNextEpochBlock",
      "outputs": [],
      "stateMutability": "nonpayable",
      "type": "function"
    },
    {
      "inputs": [
        {
          "internalType": "contract TokenBridgeRegistryUpgradeable",
          "name": "_tokenBridgeRegistryUpgradeable",
          "type": "address"
        },
        {
          "internalType": "address",
          "name": "_genericHandler",
          "type": "address"
        },
        {
          "internalType": "uint8",
          "name": "_chainId",
          "type": "uint8"
        }
      ],
      "name": "initialize",
      "outputs": [],
      "stateMutability": "nonpayable",
      "type": "function"
    },
    {
      "inputs": [
        {
          "internalType": "string",
          "name": "",
          "type": "string"
        },
        {
          "internalType": "address",
          "name": "",
          "type": "address"
        },
        {
          "internalType": "uint256",
          "name": "",
          "type": "uint256"
        }
      ],
      "name": "liquidityPosition",
      "outputs": [
        {
          "internalType": "uint256",
          "name": "depositedAmount",
          "type": "uint256"
        },
        {
          "internalType": "uint256",
          "name": "blockNo",
          "type": "uint256"
        },
        {
          "internalType": "uint256",
          "name": "claimedTillEpochIndex",
          "type": "uint256"
        },
        {
          "internalType": "uint256",
          "name": "epochStartIndex",
          "type": "uint256"
        },
        {
          "internalType": "uint256",
          "name": "epochStartBlock",
          "type": "uint256"
        },
        {
          "internalType": "uint256",
          "name": "boosterEndEpochIndex",
          "type": "uint256"
        },
        {
          "internalType": "uint256",
          "name": "startTimestamp",
          "type": "uint256"
        }
      ],
      "stateMutability": "view",
      "type": "function"
    },
    {
      "inputs": [],
      "name": "maxBips",
      "outputs": [
        {
          "internalType": "uint256",
          "name": "",
          "type": "uint256"
        }
      ],
      "stateMutability": "view",
      "type": "function"
    },
    {
      "inputs": [
        {
          "internalType": "string",
          "name": "",
          "type": "string"
        }
      ],
      "name": "nextEpochBlock",
      "outputs": [
        {
          "internalType": "uint256",
          "name": "",
          "type": "uint256"
        }
      ],
      "stateMutability": "view",
      "type": "function"
    },
    {
      "inputs": [],
      "name": "owner",
      "outputs": [
        {
          "internalType": "address",
          "name": "",
          "type": "address"
        }
      ],
      "stateMutability": "view",
      "type": "function"
    },
    {
      "inputs": [
        {
          "internalType": "uint256",
          "name": "_index",
          "type": "uint256"
        },
        {
          "internalType": "string",
          "name": "_tokenTicker",
          "type": "string"
        }
      ],
      "name": "removeLiquidity",
      "outputs": [],
      "stateMutability": "nonpayable",
      "type": "function"
    },
    {
      "inputs": [],
      "name": "renounceOwnership",
      "outputs": [],
      "stateMutability": "nonpayable",
      "type": "function"
    },
    {
      "inputs": [
        {
          "internalType": "bytes32",
          "name": "hash",
          "type": "bytes32"
        },
        {
          "internalType": "uint256",
          "name": "_crossChainGasPrice",
          "type": "uint256"
        }
      ],
      "name": "replayTransaction",
      "outputs": [],
      "stateMutability": "nonpayable",
      "type": "function"
    },
    {
      "inputs": [
        {
          "internalType": "uint8",
          "name": "srcChainID",
          "type": "uint8"
        },
        {
          "internalType": "address",
          "name": "srcAddress",
          "type": "address"
        },
        {
          "internalType": "bytes",
          "name": "data",
          "type": "bytes"
        }
      ],
      "name": "routerSync",
      "outputs": [
        {
          "internalType": "bool",
          "name": "",
          "type": "bool"
        },
        {
          "internalType": "bytes",
          "name": "",
          "type": "bytes"
        }
      ],
      "stateMutability": "nonpayable",
      "type": "function"
    },
    {
      "inputs": [
        {
          "internalType": "string",
          "name": "_tokenTicker",
          "type": "string"
        },
        {
          "internalType": "uint256",
          "name": "_noOfTokens",
          "type": "uint256"
        }
      ],
      "name": "safeWithdrawLiquidity",
      "outputs": [],
      "stateMutability": "nonpayable",
      "type": "function"
    },
    {
      "inputs": [
        {
          "internalType": "address",
          "name": "_feeAddress",
          "type": "address"
        }
      ],
      "name": "setFeeTokenAddress",
      "outputs": [],
      "stateMutability": "nonpayable",
      "type": "function"
    },
    {
      "inputs": [
        {
          "internalType": "address",
          "name": "_linker",
          "type": "address"
        }
      ],
      "name": "setLinker",
      "outputs": [],
      "stateMutability": "nonpayable",
      "type": "function"
    },
    {
      "inputs": [
        {
          "internalType": "bytes4",
          "name": "interfaceId",
          "type": "bytes4"
        }
      ],
      "name": "supportsInterface",
      "outputs": [
        {
          "internalType": "bool",
          "name": "",
          "type": "bool"
        }
      ],
      "stateMutability": "view",
      "type": "function"
    },
    {
      "inputs": [],
      "name": "tokenBridgeRegistryUpgradeable",
      "outputs": [
        {
          "internalType": "contract TokenBridgeRegistryUpgradeable",
          "name": "",
          "type": "address"
        }
      ],
      "stateMutability": "view",
      "type": "function"
    },
    {
      "inputs": [
        {
          "internalType": "string",
          "name": "",
          "type": "string"
        },
        {
          "internalType": "uint256",
          "name": "",
          "type": "uint256"
        }
      ],
      "name": "totalBoostedUsers",
      "outputs": [
        {
          "internalType": "uint256",
          "name": "",
          "type": "uint256"
        }
      ],
      "stateMutability": "view",
      "type": "function"
    },
    {
      "inputs": [
        {
          "internalType": "string",
          "name": "",
          "type": "string"
        }
      ],
      "name": "totalLiquidity",
      "outputs": [
        {
          "internalType": "uint256",
          "name": "",
          "type": "uint256"
        }
      ],
      "stateMutability": "view",
      "type": "function"
    },
    {
      "inputs": [
        {
          "internalType": "string",
          "name": "",
          "type": "string"
        }
      ],
      "name": "totalLpLiquidity",
      "outputs": [
        {
          "internalType": "uint256",
          "name": "",
          "type": "uint256"
        }
      ],
      "stateMutability": "view",
      "type": "function"
    },
    {
      "inputs": [
        {
          "internalType": "string",
          "name": "_tokenTicker",
          "type": "string"
        },
        {
          "internalType": "uint256",
          "name": "_noOfTokens",
          "type": "uint256"
        },
        {
          "internalType": "uint8",
          "name": "_toChainId",
          "type": "uint8"
        },
        {
          "internalType": "uint256",
          "name": "_gasPrice",
          "type": "uint256"
        }
      ],
      "name": "transferIn",
      "outputs": [
        {
          "internalType": "bool",
          "name": "",
          "type": "bool"
        },
        {
          "internalType": "uint256",
          "name": "",
          "type": "uint256"
        }
      ],
      "stateMutability": "nonpayable",
      "type": "function"
    },
    {
      "inputs": [
        {
          "internalType": "bytes32",
          "name": "",
          "type": "bytes32"
        }
      ],
      "name": "transferMapping",
      "outputs": [
        {
          "internalType": "uint256",
          "name": "",
          "type": "uint256"
        }
      ],
      "stateMutability": "view",
      "type": "function"
    },
    {
      "inputs": [
        {
          "internalType": "uint256",
          "name": "_noOfTokens",
          "type": "uint256"
        },
        {
          "internalType": "string",
          "name": "_tokenTicker",
          "type": "string"
        }
      ],
      "name": "transferOut",
      "outputs": [],
      "stateMutability": "payable",
      "type": "function"
    },
    {
      "inputs": [
        {
          "internalType": "address",
          "name": "newOwner",
          "type": "address"
        }
      ],
      "name": "transferOwnership",
      "outputs": [],
      "stateMutability": "nonpayable",
      "type": "function"
    },
    {
      "inputs": [
        {
          "internalType": "address",
          "name": "_adminAccount",
          "type": "address"
        },
        {
          "internalType": "address",
          "name": "_boosterToken",
          "type": "address"
        },
        {
          "internalType": "uint256",
          "name": "_perBoosterPrice",
          "type": "uint256"
        },
        {
          "internalType": "string",
          "name": "_imageUrl",
          "type": "string"
        }
      ],
      "name": "updateBoosterConfig",
      "outputs": [],
      "stateMutability": "nonpayable",
      "type": "function"
    },
    {
      "inputs": [
        {
          "internalType": "contract BridgeUtilsUpgradeable",
          "name": "_bridgeUtilsAddress",
          "type": "address"
        }
      ],
      "name": "updateBridgeUtilsAddress",
      "outputs": [],
      "stateMutability": "nonpayable",
      "type": "function"
    },
    {
      "inputs": [
        {
          "internalType": "uint256",
          "name": "_newGasAmount",
          "type": "uint256"
        }
      ],
      "name": "updateCrossChainGas",
      "outputs": [],
      "stateMutability": "nonpayable",
      "type": "function"
    },
    {
      "inputs": [
        {
          "internalType": "contract FeePoolUpgradeable",
          "name": "_feePoolAddress",
          "type": "address"
        }
      ],
      "name": "updateFeePoolAddress",
      "outputs": [],
      "stateMutability": "nonpayable",
      "type": "function"
    },
    {
      "inputs": [
        {
          "internalType": "uint256",
          "name": "_newMaxBips",
          "type": "uint256"
        }
      ],
      "name": "updateMaxBips",
      "outputs": [],
      "stateMutability": "nonpayable",
      "type": "function"
    },
    {
      "inputs": [
        {
          "internalType": "contract TokenBridgeRegistryUpgradeable",
          "name": "_registryAddress",
          "type": "address"
        }
      ],
      "name": "updateRegistryAddress",
      "outputs": [],
      "stateMutability": "nonpayable",
      "type": "function"
    },
    {
      "inputs": [
        {
          "internalType": "string",
          "name": "_tokenTicker",
          "type": "string"
        },
        {
          "internalType": "address",
          "name": "_account",
          "type": "address"
        },
        {
          "internalType": "uint256",
          "name": "_index",
          "type": "uint256"
        }
      ],
      "name": "updateRewardClaimedTillIndex",
      "outputs": [],
      "stateMutability": "nonpayable",
      "type": "function"
    },
    {
      "stateMutability": "payable",
      "type": "receive"
    }
  ],
  "bytecode": "0x608060405234801561001057600080fd5b50615e7780620000216000396000f3fe60806040526004361061037a5760003560e01c80638d208d75116101d1578063d3f6f58411610102578063e8c594ba116100a0578063f2fde38b1161006f578063f2fde38b14610c7c578063f93dd87314610c9c578063fda8c7cd14610cd5578063fe9dc81a14610cf557600080fd5b8063e8c594ba14610bde578063ea043e2a14610bfe578063ee69786414610c37578063f25e42c014610c5c57600080fd5b8063da8d1548116100dc578063da8d154814610b37578063de915ea814610b65578063e08cc97114610b9e578063e3567aac14610bbe57600080fd5b8063d3f6f58414610a1f578063d8c7be7514610a68578063d93cc86614610b1757600080fd5b8063c1733f681161016f578063c9adbf8211610149578063c9adbf8214610978578063cc80204814610996578063cf351c1d146109b6578063d29bf32d146109d657600080fd5b8063c1733f6814610918578063c57a882514610938578063c97d67d41461095857600080fd5b80639a8a0592116101ab5780639a8a0592146108945780639ff21ccf146108c1578063a0404e6e146108d8578063bff390a7146108f857600080fd5b80638d208d75146108435780638da5cb5b14610856578063907e76fc1461087457600080fd5b80635d01eb0f116102ab578063715018a6116102495780637d821df0116102235780637d821df0146107b557806380488f62146107e357806389232a00146108035780638ae5d0821461082357600080fd5b8063715018a614610760578063792f3230146107755780637b6c98b21461079557600080fd5b806367276acd1161028557806367276acd146106e25780636972bc50146107035780636e2e8fe1146107215780636edb7a3e1461074257600080fd5b80635d01eb0f146106815780635ec43b71146106a1578063603b7840146106c257600080fd5b80631c58293f116103185780633fe00df1116102f25780633fe00df11461056c5780634158cc271461058c57806341afdc67146106195780634500fad91461063957600080fd5b80631c58293f146104cc5780633093becb146105275780633e27323d1461054c57600080fd5b806306d07c591161035457806306d07c59146104345780630a1ee81b146104625780630fe3f002146104755780631b5e4ea3146104ac57600080fd5b806301ffc9a7146103865780630500387f146103cc57806305d0dc261461041d57600080fd5b3661038157005b600080fd5b34801561039257600080fd5b506103b76103a13660046151d2565b6001600160e01b0319166301ffc9a760e01b1490565b60405190151581526020015b60405180910390f35b3480156103d857600080fd5b506104056103e7366004615675565b60ff166000908152609a60205260409020546001600160a01b031690565b6040516001600160a01b0390911681526020016103c3565b34801561042957600080fd5b50610432610d15565b005b34801561044057600080fd5b5061045461044f3660046156da565b610daf565b6040516103c39291906158fd565b610432610470366004615588565b610f68565b34801561048157600080fd5b50610495610490366004615330565b6116cd565b6040805192151583526020830191909152016103c3565b3480156104b857600080fd5b506104326104c7366004614fa4565b611a3a565b3480156104d857600080fd5b506103b76104e7366004615474565b8351602081860181018051610101825292820196820196909620919095528452600092835260408084208552918352818320909352918152205460ff1681565b34801561053357600080fd5b5061053e61010a5481565b6040519081526020016103c3565b34801561055857600080fd5b506104326105673660046156ad565b611b39565b34801561057857600080fd5b506104326105873660046154d0565b611c4d565b34801561059857600080fd5b506105f26105a7366004615199565b6040805180820190915260008082526020820152506000908152609b602090815260409182902082518084019093525460ff8116835261010090046001600160401b03169082015290565b60408051825160ff1681526020928301516001600160401b031692810192909252016103c3565b34801561062557600080fd5b506104326106343660046150d5565b611cdc565b34801561064557600080fd5b506106596106543660046154d0565b611cf2565b604080519586526020860194909452928401919091526060830152608082015260a0016103c3565b34801561068d57600080fd5b5061043261069c366004615394565b611d50565b3480156106ad57600080fd5b5061017654610405906001600160a01b031681565b3480156106ce57600080fd5b506104326106dd3660046151b1565b611d7a565b3480156106ee57600080fd5b5061017754610405906001600160a01b031681565b34801561070f57600080fd5b506099546001600160a01b0316610405565b34801561072d57600080fd5b5061017554610405906001600160a01b031681565b34801561074e57600080fd5b506097546001600160a01b0316610405565b34801561076c57600080fd5b50610432611d90565b34801561078157600080fd5b506104326107903660046152e2565b611da4565b3480156107a157600080fd5b506104326107b0366004615199565b611feb565b3480156107c157600080fd5b5061053e6107d0366004615199565b6101076020526000908152604090205481565b3480156107ef57600080fd5b506104326107fe366004615588565b611ff9565b34801561080f57600080fd5b5061043261081e36600461524f565b6122fc565b34801561082f57600080fd5b5061043261083e366004615474565b61240d565b6104326108513660046155d1565b6124b4565b34801561086257600080fd5b506033546001600160a01b0316610405565b34801561088057600080fd5b5061043261088f366004614fa4565b612760565b3480156108a057600080fd5b50610110546108af9060ff1681565b60405160ff90911681526020016103c3565b3480156108cd57600080fd5b5061053e61010b5481565b3480156108e457600080fd5b506104326108f3366004615100565b61278b565b34801561090457600080fd5b506104326109133660046152e2565b612948565b34801561092457600080fd5b50610405610933366004615394565b613093565b34801561094457600080fd5b50610432610953366004614fa4565b613167565b34801561096457600080fd5b5061043261097336600461541d565b613192565b34801561098457600080fd5b506098546001600160a01b0316610405565b3480156109a257600080fd5b506104326109b1366004615299565b61324e565b3480156109c257600080fd5b506104326109d1366004614fa4565b613331565b3480156109e257600080fd5b5061053e6109f13660046153ce565b8151602081840181018051610102825292820194820194909420919093529091526000908152604090205481565b348015610a2b57600080fd5b5061053e610a3a3660046154d0565b8151602081840181018051610105825292820194820194909420919093529091526000908152604090205481565b348015610a7457600080fd5b50610ae2610a8336600461541d565b825160208185018101805161010082529282019582019590952091909452835260009182526040808320909352815220805460018201546002830154600384015460048501546005860154600690960154949593949293919290919087565b604080519788526020880196909652948601939093526060850191909152608084015260a083015260c082015260e0016103c3565b348015610b2357600080fd5b50610495610b32366004615512565b613357565b348015610b4357600080fd5b5061053e610b52366004615199565b6101066020526000908152604090205481565b348015610b7157600080fd5b5061053e610b80366004615394565b80516020818301810180516101098252928201919093012091525481565b348015610baa57600080fd5b50610432610bb9366004614fa4565b613550565b348015610bca57600080fd5b5061053e610bd9366004615394565b61357b565b348015610bea57600080fd5b50610432610bf9366004615065565b6135a4565b348015610c0a57600080fd5b5061053e610c19366004615394565b80516020818301810180516101038252928201919093012091525481565b348015610c4357600080fd5b50610c4c613681565b6040516103c3949392919061587f565b348015610c6857600080fd5b50610432610c77366004614fa4565b613738565b348015610c8857600080fd5b50610432610c97366004614fa4565b61375e565b348015610ca857600080fd5b5061053e610cb7366004615394565b80516020818301810180516101048252928201919093012091525481565b348015610ce157600080fd5b50610432610cf0366004615199565b6137d4565b348015610d0157600080fd5b50610432610d10366004615675565b6137e2565b610d1d61387c565b604051600090339047908381818185875af1925050503d8060008114610d5f576040519150601f19603f3d011682016040523d82523d6000602084013e610d64565b606091505b5050905080610dac5760405162461bcd60e51b815260206004820152600f60248201526e1514905394d1915497d19052531151608a1b60448201526064015b60405180910390fd5b50565b60ff83166000908152609a6020526040812054606090859085906001600160a01b03808316911614610e325760405162461bcd60e51b815260206004820152602660248201527f526f7574657253796e63203a20536f757263652041646472657373204e6f74206044820152651b1a5b9ad95960d21b6064820152608401610da3565b6097546001600160a01b0316336001600160a01b031614610e655760405162461bcd60e51b8152600401610da390615ac4565b609754604080516302cb03d960e61b815290516000926001600160a01b03169163b2c0f640916004808301926020929190829003018186803b158015610eaa57600080fd5b505afa158015610ebe573d6000803e3d6000fd5b505050506040513d601f19601f82011682018060405250810190610ee29190615691565b905060008087806020019051810190610efb91906151ee565b91509150600080610f0c84846138d6565b6040516001600160a01b038e168152919350915060ff80871691908e16907f4ef7c5e8df4a93d9634e83492a16efe750374905f02a02656e31369ff469ce3f9060200160405180910390a3909b909a5098505050505050505050565b81818080601f016020809104026020016040519081016040528093929190818152602001838380828437600092019190915250610faa92508391506139bc9050565b610fe983838080601f016020809104026020016040519081016040528093929190818152602001838380828437600092019190915250613b0992505050565b600061104a610933604051806040016040528060048152602001637365747560e01b81525086868080601f016020809104026020016040519081016040528093929190818152602001838380828437600092019190915250613eb492505050565b9050600061108d85858080601f01602080910402602001604051908101604052809392919081815260200183838082843760009201919091525061309392505050565b61017754604051632efff6cb60e01b81529192506000916001600160a01b0390911690632efff6cb906110c6908990899060040161593a565b60206040518083038186803b1580156110de57600080fd5b505afa1580156110f2573d6000803e3d6000fd5b505050506040513d601f19601f820116820180604052508101906111169190615691565b90506000610103878760405161112d9291906157ea565b908152604051908190036020019020549050878082101561114b5750805b60ff8316611318576000611160898984613ee0565b6040516306888c6760e11b81529091506001600160a01b03871690630d1118ce906111919033908690600401615866565b600060405180830381600087803b1580156111ab57600080fd5b505af11580156111bf573d6000803e3d6000fd5b50505050816101038a8a6040516111d79291906157ea565b908152602001604051809103902060008282546111f49190615d42565b90915550506001600160a01b03851663a9059cbb336112138486615d42565b6040518363ffffffff1660e01b8152600401611230929190615866565b602060405180830381600087803b15801561124a57600080fd5b505af115801561125e573d6000803e3d6000fd5b505050506040513d601f19601f820116820180604052508101906112829190615179565b508015611312576101765460405163a9059cbb60e01b81526001600160a01b038781169263a9059cbb926112be92909116908590600401615866565b602060405180830381600087803b1580156112d857600080fd5b505af11580156112ec573d6000803e3d6000fd5b505050506040513d601f19601f820116820180604052508101906113109190615179565b505b506116c2565b8260ff16600114156116c257600061133189898c613ee0565b6040516306888c6760e11b81529091506001600160a01b03871690630d1118ce906113629033908e90600401615866565b600060405180830381600087803b15801561137c57600080fd5b505af1158015611390573d6000803e3d6000fd5b50505050816101038a8a6040516113a89291906157ea565b908152602001604051809103902060008282546113c59190615d42565b90915550508082101561153d5760405163a9059cbb60e01b81526001600160a01b0386169063a9059cbb906114009033908690600401615866565b602060405180830381600087803b15801561141a57600080fd5b505af115801561142e573d6000803e3d6000fd5b505050506040513d601f19601f820116820180604052508101906114529190615179565b506001600160a01b03851663f0dda65c338361146e868f615d42565b6114789190615d42565b6040518363ffffffff1660e01b8152600401611495929190615866565b600060405180830381600087803b1580156114af57600080fd5b505af11580156114c3573d6000803e3d6000fd5b5050505060008111156115385761017654604051633c37699760e21b81526001600160a01b038781169263f0dda65c9261150592909116908590600401615866565b600060405180830381600087803b15801561151f57600080fd5b505af1158015611533573d6000803e3d6000fd5b505050505b6116c0565b80156115cc576101765460405163a9059cbb60e01b81526001600160a01b038781169263a9059cbb9261157892909116908590600401615866565b602060405180830381600087803b15801561159257600080fd5b505af11580156115a6573d6000803e3d6000fd5b505050506040513d601f19601f820116820180604052508101906115ca9190615179565b505b6001600160a01b03851663a9059cbb336115e68486615d42565b6040518363ffffffff1660e01b8152600401611603929190615866565b602060405180830381600087803b15801561161d57600080fd5b505af1158015611631573d6000803e3d6000fd5b505050506040513d601f19601f820116820180604052508101906116559190615179565b506001600160a01b03851663f0dda65c33611670858e615d42565b6040518363ffffffff1660e01b815260040161168d929190615866565b600060405180830381600087803b1580156116a757600080fd5b505af11580156116bb573d6000803e3d6000fd5b505050505b505b505050505050505050565b60008086868080601f01602080910402602001604051908101604052809392919081815260200183838082843760009201919091525061171292508391506139bc9050565b600061175389898080601f01602080910402602001604051908101604052809392919081815260200183838082843760009201919091525061309392505050565b90506001600160a01b0381166323b872dd336040516001600160e01b031960e084901b1681526001600160a01b039091166004820152306024820152604481018a9052606401602060405180830381600087803b1580156117b357600080fd5b505af11580156117c7573d6000803e3d6000fd5b505050506040513d601f19601f820116820180604052508101906117eb9190615179565b50600061184d610933604051806040016040528060048152602001637365747560e01b8152508c8c8080601f016020809104026020016040519081016040528093929190818152602001838380828437600092019190915250613eb492505050565b604051633c37699760e21b81529091506001600160a01b0382169063f0dda65c9061187e9033908c90600401615866565b600060405180830381600087803b15801561189857600080fd5b505af11580156118ac573d6000803e3d6000fd5b505061017754604051632efff6cb60e01b8152600093506001600160a01b039091169150632efff6cb906118e6908e908e9060040161593a565b60206040518083038186803b1580156118fe57600080fd5b505afa158015611912573d6000803e3d6000fd5b505050506040513d601f19601f820116820180604052508101906119369190615691565b905060ff811661197757886101038c8c6040516119549291906157ea565b908152602001604051809103902060008282546119719190615ceb565b90915550505b8060ff16600114156119e4576040516306888c6760e11b81526001600160a01b03841690630d1118ce906119b19033908d90600401615866565b600060405180830381600087803b1580156119cb57600080fd5b505af11580156119df573d6000803e3d6000fd5b505050505b611a288b8b8080601f0160208091040260200160405190810160405280939291908181526020018383808284376000920191909152508d92508c91508b9050613357565b95509550505050509550959350505050565b611a4261387c565b6040516370a0823160e01b815230600482015281906001600160a01b0382169063a9059cbb90339083906370a082319060240160206040518083038186803b158015611a8d57600080fd5b505afa158015611aa1573d6000803e3d6000fd5b505050506040513d601f19601f82011682018060405250810190611ac59190615570565b6040518363ffffffff1660e01b8152600401611ae2929190615866565b602060405180830381600087803b158015611afc57600080fd5b505af1158015611b10573d6000803e3d6000fd5b505050506040513d601f19601f82011682018060405250810190611b349190615179565b505050565b6097546001600160a01b0316336001600160a01b031614611b6c5760405162461bcd60e51b8152600401610da390615ac4565b60ff82166000908152609a602052604090205482906001600160a01b031615611bf15760405162461bcd60e51b815260206004820152603160248201527f526f7574657253796e63203a2043726f737320436861696e20436f6e747261636044820152701d081d1bc810da185a5b881251081cd95d607a1b6064820152608401610da3565b60ff83166000818152609a602052604080822080546001600160a01b0319166001600160a01b03871690811790915590519092917f53c7bf44dd47ad6fd3a8aac7c23d9ad4bddd7ec5889d7afef3450216586460a391a3505050565b610175546001600160a01b0316336001600160a01b031614611ca15760405162461bcd60e51b815260206004820152600d60248201526c4f4e4c595f524547495354525960981b6044820152606401610da3565b6001611cad8243615ceb565b611cb79190615d42565b61010983604051611cc891906157ce565b908152604051908190036020019020555050565b611ce461387c565b611cee82826141f6565b5050565b8151602081840181018051610108825292820191850191909120919052805482908110611d1e57600080fd5b600091825260209091206005909102018054600182015460028301546003840154600490940154929550909350919085565b610176546001600160a01b0316336001600160a01b031614611d7157600080fd5b610dac81613b09565b611d8261387c565b611cee8261010b548361427c565b611d9861387c565b611da26000614313565b565b83838080601f016020809104026020016040519081016040528093929190818152602001838380828437600092019190915250611de692508391506139bc9050565b61010c546001600160a01b0316806323b872dd3361010f5461010d546001600160a01b0390911690611e19908890615d23565b6040516001600160e01b031960e086901b1681526001600160a01b0393841660048201529290911660248301526044820152606401602060405180830381600087803b158015611e6857600080fd5b505af1158015611e7c573d6000803e3d6000fd5b505050506040513d601f19601f82011682018060405250810190611ea09190615179565b50611ee086868080601f016020809104026020016040519081016040528093929190818152602001838380828437600092019190915250613b0992505050565b60006101088787604051611ef59291906157ea565b90815260405190819003602001902054611f10906001615ceb565b905060006101008888604051611f279291906157ea565b90815260200160405180910390206000611f3e3390565b6001600160a01b03166001600160a01b031681526020019081526020016000206000878152602001908152602001600020905081816005015410611fb857611f998888888885600501546001611f949190615ceb565b614365565b84816005016000828254611fad9190615ceb565b90915550611fe19050565b611fc58888888886614365565b6001611fd18684615ceb565b611fdb9190615d42565b60058201555b5050505050505050565b611ff361387c565b61010b55565b81818080601f01602080910402602001604051908101604052809392919081815260200183838082843760009201919091525061203b92508391506139bc9050565b61207a83838080601f016020809104026020016040519081016040528093929190818152602001838380828437600092019190915250613b0992505050565b6000610100848460405161208f9291906157ea565b908152602001604051809103902060006120a63390565b6001600160a01b03168152602080820192909252604090810160009081208882528352819020815160e08101835281548082526001830154948201949094526002820154928101929092526003810154606083015260048101546080830152600581015460a08301526006015460c082015291506121595760405162461bcd60e51b815260206004820152601060248201526f24a72b20a624a22fa827a9a4aa24a7a760811b6044820152606401610da3565b60006121ba610933604051806040016040528060048152602001637365747560e01b81525087878080601f016020809104026020016040519081016040528093929190818152602001838380828437600092019190915250613eb492505050565b825160405162c7a7a760e61b81529192506001600160a01b038316916331e9e9c0916121eb91339190600401615866565b602060405180830381600087803b15801561220557600080fd5b505af1158015612219573d6000803e3d6000fd5b505050506040513d601f19601f8201168201806040525081019061223d9190615179565b50610176546001600160a01b03166360576b898686338a6040518563ffffffff1660e01b8152600401612273949392919061594e565b600060405180830381600087803b15801561228d57600080fd5b505af11580156122a1573d6000803e3d6000fd5b505050506122b086868661444b565b336001600160a01b0316867f957c1066339fbc836e386f6a107e3ae614f2aabcd445bb2479f08232839adc9b87876040516122ec92919061593a565b60405180910390a3505050505050565b600054610100900460ff161580801561231c5750600054600160ff909116105b806123365750303b158015612336575060005460ff166001145b6123525760405162461bcd60e51b8152600401610da390615b21565b6000805460ff191660011790558015612375576000805461ff0019166101001790555b61237d6147c2565b612386836147f1565b61017580546001600160a01b0319166001600160a01b038616179055610110805460ff191660ff84161790556103e861010a55620f424061010b558015612407576000805461ff0019169055604051600181527f7f26b83ff96e1f2b6a682f133852f6798a09c465da95921460cefb38474024989060200160405180910390a15b50505050565b610176546001600160a01b0316336001600160a01b0316146124615760405162461bcd60e51b815260206004820152600d60248201526c13d3931657d1915157d413d3d3609a1b6044820152606401610da3565b6101018460405161247291906157ce565b90815260408051602092819003830190206001600160a01b03959095166000908152948252808520938552928152828420918452529020805460ff1916905550565b83838080601f0160208091040260200160405190810160405280939291908181526020018383808284376000920191909152506124f692508391506139bc9050565b60008585336101105460405161251b94939291889160ff909116908a906020016159bc565b60408051601f19818403018152918152815160209283012060008181526101069093529120549091506125905760405162461bcd60e51b815260206004820152601b60248201527f5452414e534645525f4d415050494e475f4e4f545f45584953545300000000006044820152606401610da3565b600081815261010660205260409020548711156125ef5760405162461bcd60e51b815260206004820152601760248201527f4558434553535f544f4b454e535f5245515545535445440000000000000000006044820152606401610da3565b6000612650610933604051806040016040528060048152602001637365747560e01b81525089898080601f016020809104026020016040519081016040528093929190818152602001838380828437600092019190915250613eb492505050565b604051633c37699760e21b81529091506001600160a01b0382169063f0dda65c906126819033908c90600401615866565b600060405180830381600087803b15801561269b57600080fd5b505af11580156126af573d6000803e3d6000fd5b50505060008381526101066020526040812080548b93509091906126d4908490615d42565b9091555050600082815261010660205260409020546126fe57600082815261010660205260408120555b612709888888610f68565b610110547f3f42c5ea89da4edd124f493061b376639b7f0779f83c3835a335ace694baeae0908690869060ff16338b8b600360405161274e9796959493929190615bff565b60405180910390a15050505050505050565b61276861387c565b61017780546001600160a01b0319166001600160a01b0392909216919091179055565b3330146128005760405162461bcd60e51b815260206004820152603860248201527f526f7574657243726f737354616c6b203a2043616e206f6e6c7920626520636160448201527f6c6c65642062792043757272656e7420436f6e747261637400000000000000006064820152608401610da3565b6101105460405160009161282491879187918b91879160ff9091169060200161597e565b60408051601f198184030181529181528151602092830120600081815261010790935291205490915083146128945760405162461bcd60e51b81526020600482015260166024820152750929cac82989288bea8a4829ca68c8aa4be929c888ab60531b6044820152606401610da3565b6101105460008281526101076020526040812080549192889288928c92889260ff90911691876128c383615dc0565b919050556040516020016128dc969594939291906159bc565b60408051601f1981840301815282825280516020918201206000818152610106909252919020899055610110549092507f3f42c5ea89da4edd124f493061b376639b7f0779f83c3835a335ace694baeae09161274e918791879160ff16908d908c908c90600290615bff565b83838080601f01602080910402602001604051908101604052809392919081815260200183838082843760009201919091525061298a92508391506139bc9050565b600083116129cd5760405162461bcd60e51b815260206004820152601060248201526f04e4f5f4f465f544f4b454e53203e20360841b6044820152606401610da3565b612a0c85858080601f016020809104026020016040519081016040528093929190818152602001838380828437600092019190915250613b0992505050565b6000600190506000806101088888604051612a289291906157ea565b908152604051908190036020019020541115612b445760006101088888604051612a539291906157ea565b908152602001604051809103902060016101088a8a604051612a769291906157ea565b90815260405190819003602001902054612a909190615d42565b81548110612aae57634e487b7160e01b600052603260045260246000fd5b90600052602060002090600502016040518060a00160405290816000820154815260200160018201548152602001600282015481526020016003820154815260200160048201548152505090506101088888604051612b0e9291906157ea565b90815260405190819003602001902054612b29906001615ceb565b60208201518251919450612b3c91615ceb565b915050612bca565b610177546040516318565e0f60e01b81526001600160a01b03909116906318565e0f90612b77908a908a9060040161593a565b604080518083038186803b158015612b8e57600080fd5b505afa158015612ba2573d6000803e3d6000fd5b505050506040513d601f19601f82011682018060405250810190612bc6919061562b565b5090505b60006040518060e001604052808781526020014381526020016101088a8a604051612bf69291906157ea565b90815260200160405180910390208054905081526020018481526020018381526020016101088a8a604051612c2c9291906157ea565b908152602001604051809103902080549050815260200142815250905060006101028989604051612c5e9291906157ea565b90815260200160405180910390206000612c753390565b6001600160a01b0316815260208101919091526040016000908120805491612c9c83615dc0565b919050559050816101008a8a604051612cb69291906157ea565b90815260200160405180910390206000612ccd3390565b6001600160a01b0316815260208082019290925260409081016000908120858252835281902083518155918301516001830155828101516002830155606083015160038301556080830151600483015560a0830151600583015560c09092015160069091015551879061010390612d47908c908c906157ea565b90815260200160405180910390206000828254612d649190615ceb565b92505081905550866101048a8a604051612d7f9291906157ea565b90815260200160405180910390206000828254612d9c9190615ceb565b909155505061017554604051633b6cb21560e21b81526001600160a01b039091169063edb2c85490612dd7908c908c906001906004016159ff565b600060405180830381600087803b158015612df157600080fd5b505af1158015612e05573d6000803e3d6000fd5b505050506000612e4a8a8a8080601f01602080910402602001604051908101604052809392919081815260200183838082843760009201919091525061309392505050565b90506001600160a01b0381166323b872dd336040516001600160e01b031960e084901b1681526001600160a01b039091166004820152306024820152604481018b9052606401602060405180830381600087803b158015612eaa57600080fd5b505af1158015612ebe573d6000803e3d6000fd5b505050506040513d601f19601f82011682018060405250810190612ee29190615179565b506000612f44610933604051806040016040528060048152602001637365747560e01b8152508d8d8080601f016020809104026020016040519081016040528093929190818152602001838380828437600092019190915250613eb492505050565b604051633c37699760e21b81529091506001600160a01b0382169063f0dda65c90612f759033908d90600401615866565b600060405180830381600087803b158015612f8f57600080fd5b505af1158015612fa3573d6000803e3d6000fd5b50505050806001600160a01b031663b1c25586612fbd3390565b8b6040518363ffffffff1660e01b8152600401612fdb929190615866565b602060405180830381600087803b158015612ff557600080fd5b505af1158015613009573d6000803e3d6000fd5b505050506040513d601f19601f8201168201806040525081019061302d9190615179565b508715613040576130408b8b858b611da4565b336001600160a01b0316837f9a4bd40884e6b582f1bcdde16a1c16eb99d827a988a328e89e83e42face98df38d8d8d60405161307e93929190615a25565b60405180910390a35050505050505050505050565b61017754604051636204891b60e11b815260009182916001600160a01b039091169063c4091236906130c9908690600401615a75565b60206040518083038186803b1580156130e157600080fd5b505afa1580156130f5573d6000803e3d6000fd5b505050506040513d601f19601f820116820180604052508101906131199190614fc0565b90506001600160a01b0381166131615760405162461bcd60e51b815260206004820152600d60248201526c24a72b20a624a22faa27a5a2a760991b6044820152606401610da3565b92915050565b61316f61387c565b61017580546001600160a01b0319166001600160a01b0392909216919091179055565b610176546001600160a01b0316336001600160a01b0316146131e65760405162461bcd60e51b815260206004820152600d60248201526c13d3931657d1915157d413d3d3609a1b6044820152606401610da3565b610108836040516131f791906157ce565b9081526040519081900360200181205490610100906132179086906157ce565b90815260408051602092819003830190206001600160a01b0395909516600090815294825280852093855292905291206002015550565b61325661387c565b600061329784848080601f01602080910402602001604051908101604052809392919081815260200183838082843760009201919091525061309392505050565b9050806001600160a01b031663a9059cbb6132ba6033546001600160a01b031690565b846040518363ffffffff1660e01b81526004016132d8929190615866565b602060405180830381600087803b1580156132f257600080fd5b505af1158015613306573d6000803e3d6000fd5b505050506040513d601f19601f8201168201806040525081019061332a9190615179565b5050505050565b61333961387c565b609980546001600160a01b0319166001600160a01b03831617905550565b60008085613364816139bc565b61336d87613b09565b6000613398610933604051806040016040528060048152602001637365747560e01b8152508a613eb4565b6040516306888c6760e11b81529091506001600160a01b03821690630d1118ce906133c99033908b90600401615866565b600060405180830381600087803b1580156133e357600080fd5b505af11580156133f7573d6000803e3d6000fd5b505050506000886134053390565b6101105460405161342093929160ff16908b90602001615a88565b60408051601f19818403018152918152815160209283012060008181526101079093529082208054919350909161345683615dc0565b9091555060006134c3897fa0404e6edcba9f47e04f4f0818bb46c6dd0e727c95fab9eec093657693b04a51338d8f8761011060009054906101000a900460ff166040516020016134aa9594939291906158bb565b60405160208183030381529060405261010b548c6148d6565b509050806135025760405162461bcd60e51b815260206004820152600c60248201526b2927aaaa22a92fa2a92927a960a11b6044820152606401610da3565b7ff90be0cd8fe946e507d735bcb6c63e21b2c5cd668d8aa78a6679e46abc35e901828a338e8e604051613539959493929190615bba565b60405180910390a19a909950975050505050505050565b61355861387c565b61017680546001600160a01b0319166001600160a01b0392909216919091179055565b60006101088260405161358e91906157ce565b9081526040519081900360200190205492915050565b6135ac61387c565b6040518060800160405280856001600160a01b0316815260200184815260200183838080601f0160208091040260200160405190810160405280939291908181526020018383808284376000920191909152505050908252506001600160a01b03878116602092830152825161010c80546001600160a01b031916919092161781558282015161010d556040830151805191926136509261010e9290910190614e3f565b5060609190910151600390910180546001600160a01b0319166001600160a01b039092169190911790555050505050565b61010c805461010d5461010e80546001600160a01b039093169391926136a690615d85565b80601f01602080910402602001604051908101604052809291908181526020018280546136d290615d85565b801561371f5780601f106136f45761010080835404028352916020019161371f565b820191906000526020600020905b81548152906001019060200180831161370257829003601f168201915b505050600390930154919250506001600160a01b031684565b61374061387c565b609880546001600160a01b0319166001600160a01b03831617905550565b61376661387c565b6001600160a01b0381166137cb5760405162461bcd60e51b815260206004820152602660248201527f4f776e61626c653a206e6577206f776e657220697320746865207a65726f206160448201526564647265737360d01b6064820152608401610da3565b610dac81614313565b6137dc61387c565b61010a55565b6097546001600160a01b0316336001600160a01b0316146138155760405162461bcd60e51b8152600401610da390615ac4565b60ff81166000818152609a60205260408082205490516001600160a01b0390911692917f566e5d71d4547dca8d21d2527ec375bb6ad1052ea20ab35c3f310aba1d6bc66b91a360ff166000908152609a6020526040902080546001600160a01b0319169055565b6033546001600160a01b03163314611da25760405162461bcd60e51b815260206004820181905260248201527f4f776e61626c653a2063616c6c6572206973206e6f7420746865206f776e65726044820152606401610da3565b600060606000806000806000878060200190518101906138f69190614fdc565b94509450945094509450600080306001600160a01b03168b88888888886040516024016139279594939291906158bb565b60408051601f198184030181529181526020820180516001600160e01b03166001600160e01b031990941693909317909252905161396591906157ce565b6000604051808303816000865af19150503d80600081146139a2576040519150601f19603f3d011682016040523d82523d6000602084013e6139a7565b606091505b509099509750505050505050505b9250929050565b61017560009054906101000a90046001600160a01b03166001600160a01b031663029a7ba66040518163ffffffff1660e01b815260040160206040518083038186803b158015613a0b57600080fd5b505afa158015613a1f573d6000803e3d6000fd5b505050506040513d601f19601f82011682018060405250810190613a439190615179565b8015613acb57506101775460405163d1ae6e2160e01b81526001600160a01b039091169063d1ae6e2190613a7b908490600401615a75565b60206040518083038186803b158015613a9357600080fd5b505afa158015613aa7573d6000803e3d6000fd5b505050506040513d601f19601f82011682018060405250810190613acb9190615179565b610dac5760405162461bcd60e51b815260206004820152600f60248201526e1094925111d157d11254d050931151608a1b6044820152606401610da3565b600080613b1583614ac2565b915091508160001415613b2757505050565b610177546040516318565e0f60e01b81526000916001600160a01b0316906318565e0f90613b59908790600401615a75565b604080518083038186803b158015613b7057600080fd5b505afa158015613b84573d6000803e3d6000fd5b505050506040513d601f19601f82011682018060405250810190613ba8919061562b565b905080915050600061010485604051613bc191906157ce565b908152604051908190036020018120546101775463139927bd60e21b83529092506000916001600160a01b0390911690634e649ef490613c05908990600401615a75565b60206040518083038186803b158015613c1d57600080fd5b505afa158015613c31573d6000803e3d6000fd5b505050506040513d601f19601f82011682018060405250810190613c559190615570565b905060005b613c65600187615d42565b811015613d245760006040518060a001604052808684613c859190615d23565b613c8f9089615ceb565b81526020018681526020016000815260200185815260200184815250905061010888604051613cbe91906157ce565b90815260408051602092819003830190208054600180820183556000928352918490208551600590920201908155928401519083015582015160028201556060820151600382015560809091015160049091015580613d1c81615dc0565b915050613c5a565b610176546040516320a359f560e11b81526000916001600160a01b031690634146b3ea90613d56908b90600401615a75565b60206040518083038186803b158015613d6e57600080fd5b505afa158015613d82573d6000803e3d6000fd5b505050506040513d601f19601f82011682018060405250810190613da69190615570565b905060006040518060a001604052808785613dc19190615d23565b613dcb908a615ceb565b815260200187815260200183815260200186815260200185815250905061010889604051613df991906157ce565b90815260408051602092819003830181208054600180820183556000928352918590208651600590920201908155938501519084015590830151600283015560608301516003830155608083015160049283015561017654633f96c4b960e21b82526001600160a01b03169163fe5b12e491613e77918d9101615a75565b600060405180830381600087803b158015613e9157600080fd5b505af1158015613ea5573d6000803e3d6000fd5b50505050505050505050505050565b60608282604051602001613ec99291906157fa565b604051602081830303815290604052905092915050565b610177546040516339d7fa4360e21b81526000918291829182916001600160a01b039091169063e75fe90c90613f1c908a908a9060040161593a565b604080518083038186803b158015613f3357600080fd5b505afa158015613f47573d6000803e3d6000fd5b505050506040513d601f19601f82011682018060405250810190613f6b919061574c565b909350915060ff831661415a5781341015613fbc5760405162461bcd60e51b8152602060048201526011602482015270494e53554646494349454e545f4645455360781b6044820152606401610da3565b610176546040516332ba05b560e21b81526001600160a01b039091169063cae816d490613ff4908a908a908790600190600401615a49565b600060405180830381600087803b15801561400e57600080fd5b505af1158015614022573d6000803e3d6000fd5b505061017654604051600093506001600160a01b03909116915084908381818185875af1925050503d8060008114614076576040519150601f19603f3d011682016040523d82523d6000602084013e61407b565b606091505b50509050806140c25760405162461bcd60e51b81526020600482015260136024820152721413d3d317d514905391915497d19052531151606a1b6044820152606401610da3565b336140cd8434615d42565b604051600081818185875af1925050503d8060008114614109576040519150601f19603f3d011682016040523d82523d6000602084013e61410e565b606091505b505080915050806141545760405162461bcd60e51b815260206004820152601060248201526f14d1539517d09050d2d7d1905253115160821b6044820152606401610da3565b506141ea565b8260ff16600114156141ea5761010a546141748387615d23565b61417e9190615d03565b610176546040516332ba05b560e21b81529192506001600160a01b03169063cae816d4906141b7908a908a908690600190600401615a49565b600060405180830381600087803b1580156141d157600080fd5b505af11580156141e5573d6000803e3d6000fd5b505050505b925050505b9392505050565b60975460405163095ea7b360e01b815283916001600160a01b038084169263095ea7b39261422a9216908690600401615866565b602060405180830381600087803b15801561424457600080fd5b505af1158015614258573d6000803e3d6000fd5b505050506040513d601f19601f820116820180604052508101906124079190615179565b6097546000848152609b60205260409081902054905163f8d9a81360e01b815260ff821660048201526101009091046001600160401b0316602482015260448101849052606481018390526001600160a01b039091169063f8d9a81390608401600060405180830381600087803b1580156142f657600080fd5b505af115801561430a573d6000803e3d6000fd5b50505050505050565b603380546001600160a01b038381166001600160a01b0319831681179093556040519116919082907f8be0079c531659141344cd1fd0a4f28419497f9722a3daafe3b4186f6b6457e090600090a35050565b805b60016143738484615ceb565b61437d9190615d42565b811161444357600161010187876040516143989291906157ea565b908152602001604051809103902060006143af3390565b6001600160a01b0316815260208082019290925260409081016000908120888252835281812085825290925290819020805460ff191692151592909217909155516101059061440190889088906157ea565b908152602001604051809103902060008281526020019081526020016000206000815461442d90615dc0565b909155508061443b81615dc0565b915050614367565b505050505050565b600061010383836040516144609291906157ea565b9081526020016040518091039020549050600061010084846040516144869291906157ea565b9081526020016040518091039020600061449d3390565b6001600160a01b03166001600160a01b0316815260200190815260200160002060008681526020019081526020016000206000015490508061010485856040516144e89291906157ea565b908152602001604051809103902060008282546145059190615d42565b9091555050808210156145155750805b6000614576610933604051806040016040528060048152602001637365747560e01b81525087878080601f016020809104026020016040519081016040528093929190818152602001838380828437600092019190915250613eb492505050565b6040516306888c6760e11b81529091506001600160a01b03821690630d1118ce906145a79033908690600401615866565b600060405180830381600087803b1580156145c157600080fd5b505af11580156145d5573d6000803e3d6000fd5b505050508161010386866040516145ed9291906157ea565b9081526020016040518091039020600082825461460a9190615d42565b909155505061017554604051633b6cb21560e21b81526001600160a01b039091169063edb2c8549061464590889088906000906004016159ff565b600060405180830381600087803b15801561465f57600080fd5b505af1158015614673573d6000803e3d6000fd5b5050505060006146b886868080601f01602080910402602001604051908101604052809392919081815260200183838082843760009201919091525061309392505050565b60405163a9059cbb60e01b81529091506001600160a01b0382169063a9059cbb906146e99033908790600401615866565b602060405180830381600087803b15801561470357600080fd5b505af1158015614717573d6000803e3d6000fd5b505050506040513d601f19601f8201168201806040525081019061473b9190615179565b50610100868660405161474f9291906157ea565b908152602001604051809103902060006147663390565b6001600160a01b0316815260208082019290925260409081016000908120998152989091528720878155600181018890556002810188905560038101889055600481018890556005810188905560060196909655505050505050565b600054610100900460ff166147e95760405162461bcd60e51b8152600401610da390615b6f565b611da2614ced565b600054610100900460ff16158080156148115750600054600160ff909116105b8061482b5750303b15801561482b575060005460ff166001145b6148475760405162461bcd60e51b8152600401610da390615b21565b6000805460ff19166001179055801561486a576000805461ff0019166101001790555b614872614d1d565b609780546001600160a01b0319166001600160a01b0384161790558015611cee576000805461ff0019169055604051600181527f7f26b83ff96e1f2b6a682f133852f6798a09c465da95921460cefb38474024989060200160405180910390a15050565b60ff85166000908152609a6020526040812054819087906001600160a01b03166149685760405162461bcd60e51b815260206004820152603d60248201527f526f7574657243726f737354616c6b203a2043726f737320436861696e20436f60448201527f6e747261637420746f20436861696e204944206973206e6f74207365740000006064820152608401610da3565b6000878760405160200161497d929190615918565b60408051601f1981840301815290829052609754609954639f77b1fb60e01b84529193506000926001600160a01b0391821692639f77b1fb926149ce928f9288928e928e9290911690600401615c52565b602060405180830381600087803b1580156149e857600080fd5b505af11580156149fc573d6000803e3d6000fd5b505050506040513d601f19601f82011682018060405250810190614a20919061564e565b6040805160ff8d811660208084018290526001600160401b038681168587018190528651808703880181526060870180895281519185019190912060a08801895294815260809096019081526000848152609b909352959091209351845495519091166101000268ffffffffffffffffff19909516921691909117929092179055909150614ab08b8b8b84614d44565b60019b909a5098505050505050505050565b60008060008061010985604051614ad991906157ce565b908152602001604051809103902054431115614ce357610177546040516318565e0f60e01b815260009182916001600160a01b03909116906318565e0f90614b25908a90600401615a75565b604080518083038186803b158015614b3c57600080fd5b505afa158015614b50573d6000803e3d6000fd5b505050506040513d601f19601f82011682018060405250810190614b74919061562b565b604051919350915060009061010890614b8e908a906157ce565b908152604051908190036020019020541115614c8857600061010888604051614bb791906157ce565b908152602001604051809103902060016101088a604051614bd891906157ce565b90815260405190819003602001902054614bf29190615d42565b81548110614c1057634e487b7160e01b600052603260045260246000fd5b60009182526020918290206040805160a08101825260059093029091018054808452600182015494840185905260028201549284019290925260038101546060840152600401546080830152909250614c699190615ceb565b935081614c768543615d42565b614c809190615d03565b945050614ca3565b80614c938343615d42565b614c9d9190615d03565b93508192505b614cad8185615d23565b61010988604051614cbe91906157ce565b90815260200160405180910390206000828254614cdb9190615ceb565b909155505050505b9094909350915050565b600054610100900460ff16614d145760405162461bcd60e51b8152600401610da390615b6f565b611da233614313565b600054610100900460ff16611da25760405162461bcd60e51b8152600401610da390615b6f565b826001600160e01b0319168460ff16609760009054906101000a90046001600160a01b03166001600160a01b031663b2c0f6406040518163ffffffff1660e01b815260040160206040518083038186803b158015614da157600080fd5b505afa158015614db5573d6000803e3d6000fd5b505050506040513d601f19601f82011682018060405250810190614dd99190615691565b60ff8781166000908152609a60205260409081902054905192909116917f5577eec09aa2850627ee68188b4ade468b8d0e82083954ecb4928e85e3db9ad591614e319130916001600160a01b03169089908990615829565b60405180910390a450505050565b828054614e4b90615d85565b90600052602060002090601f016020900481019282614e6d5760008555614eb3565b82601f10614e8657805160ff1916838001178555614eb3565b82800160010185558215614eb3579182015b82811115614eb3578251825591602001919060010190614e98565b50614ebf929150614ec3565b5090565b5b80821115614ebf5760008155600101614ec4565b6000614eeb614ee684615cc4565b615c94565b9050828152838383011115614eff57600080fd5b828260208301376000602084830101529392505050565b6000614f24614ee684615cc4565b9050828152838383011115614f3857600080fd5b6141ef836020830184615d59565b60008083601f840112614f57578182fd5b5081356001600160401b03811115614f6d578182fd5b6020830191508360208285010111156139b557600080fd5b600082601f830112614f95578081fd5b6141ef83833560208501614ed8565b600060208284031215614fb5578081fd5b81356141ef81615e07565b600060208284031215614fd1578081fd5b81516141ef81615e07565b600080600080600060a08688031215614ff3578081fd5b8551614ffe81615e07565b6020870151604088015191965094506001600160401b03811115615020578182fd5b8601601f81018813615030578182fd5b61503f88825160208401614f16565b93505060608601519150608086015161505781615e32565b809150509295509295909350565b60008060008060006080868803121561507c578081fd5b853561508781615e07565b9450602086013561509781615e07565b93506040860135925060608601356001600160401b038111156150b8578182fd5b6150c488828901614f46565b969995985093965092949392505050565b600080604083850312156150e7578182fd5b82356150f281615e07565b946020939093013593505050565b60008060008060008060a08789031215615118578384fd5b863561512381615e07565b95506020870135945060408701356001600160401b03811115615144578485fd5b61515089828a01614f46565b90955093505060608701359150608087013561516b81615e32565b809150509295509295509295565b60006020828403121561518a578081fd5b815180151581146141ef578182fd5b6000602082840312156151aa578081fd5b5035919050565b600080604083850312156151c3578182fd5b50508035926020909101359150565b6000602082840312156151e3578081fd5b81356141ef81615e1c565b60008060408385031215615200578182fd5b825161520b81615e1c565b60208401519092506001600160401b03811115615226578182fd5b8301601f81018513615236578182fd5b61524585825160208401614f16565b9150509250929050565b600080600060608486031215615263578081fd5b833561526e81615e07565b9250602084013561527e81615e07565b9150604084013561528e81615e32565b809150509250925092565b6000806000604084860312156152ad578081fd5b83356001600160401b038111156152c2578182fd5b6152ce86828701614f46565b909790965060209590950135949350505050565b600080600080606085870312156152f7578182fd5b84356001600160401b0381111561530c578283fd5b61531887828801614f46565b90989097506020870135966040013595509350505050565b600080600080600060808688031215615347578283fd5b85356001600160401b0381111561535c578384fd5b61536888828901614f46565b90965094505060208601359250604086013561538381615e32565b949793965091946060013592915050565b6000602082840312156153a5578081fd5b81356001600160401b038111156153ba578182fd5b6153c684828501614f85565b949350505050565b600080604083850312156153e0578182fd5b82356001600160401b038111156153f5578283fd5b61540185828601614f85565b925050602083013561541281615e07565b809150509250929050565b600080600060608486031215615431578081fd5b83356001600160401b03811115615446578182fd5b61545286828701614f85565b935050602084013561546381615e07565b929592945050506040919091013590565b60008060008060808587031215615489578182fd5b84356001600160401b0381111561549e578283fd5b6154aa87828801614f85565b94505060208501356154bb81615e07565b93969395505050506040820135916060013590565b600080604083850312156154e2578182fd5b82356001600160401b038111156154f7578283fd5b61550385828601614f85565b95602094909401359450505050565b60008060008060808587031215615527578182fd5b84356001600160401b0381111561553c578283fd5b61554887828801614f85565b94505060208501359250604085013561556081615e32565b9396929550929360600135925050565b600060208284031215615581578081fd5b5051919050565b60008060006040848603121561559c578081fd5b8335925060208401356001600160401b038111156155b8578182fd5b6155c486828701614f46565b9497909650939450505050565b6000806000806000608086880312156155e8578283fd5b8535945060208601356001600160401b03811115615604578384fd5b61561088828901614f46565b90955093505060408601359150606086013561505781615e32565b6000806040838503121561563d578182fd5b505080516020909101519092909150565b60006020828403121561565f578081fd5b81516001600160401b03811681146141ef578182fd5b600060208284031215615686578081fd5b81356141ef81615e32565b6000602082840312156156a2578081fd5b81516141ef81615e32565b600080604083850312156156bf578182fd5b82356156ca81615e32565b9150602083013561541281615e07565b6000806000606084860312156156ee578081fd5b83356156f981615e32565b9250602084013561570981615e07565b915060408401356001600160401b03811115615723578182fd5b8401601f81018613615733578182fd5b61574286823560208401614ed8565b9150509250925092565b6000806040838503121561575e578182fd5b825161576981615e32565b6020939093015192949293505050565b60008151808452615791816020860160208601615d59565b601f01601f19169290920160200192915050565b81835281816020850137506000828201602090810191909152601f909101601f19169091010190565b600082516157e0818460208701615d59565b9190910192915050565b8183823760009101908152919050565b6000835161580c818460208801615d59565b835190830190615820818360208801615d59565b01949350505050565b6001600160a01b0385811682528416602082015260806040820181905260009061585590830185615779565b905082606083015295945050505050565b6001600160a01b03929092168252602082015260400190565b600060018060a01b038087168352856020840152608060408401526158a76080840186615779565b915080841660608401525095945050505050565b60018060a01b038616815284602082015260a0604082015260006158e260a0830186615779565b905083606083015260ff831660808301529695505050505050565b82151581526040602082015260006153c66040830184615779565b63ffffffff60e01b831681526040602082015260006153c66040830184615779565b6020815260006153c66020830184866157a5565b6060815260006159626060830186886157a5565b6001600160a01b03949094166020830152506040015292915050565b6080815260006159926080830187896157a5565b6001600160a01b039590951660208301525060ff9283166040820152911660609091015292915050565b60a0815260006159d060a08301888a6157a5565b6001600160a01b039690961660208301525060ff93841660408201529190921660608201526080015292915050565b604081526000615a136040830185876157a5565b90508215156020830152949350505050565b604081526000615a396040830185876157a5565b9050826020830152949350505050565b606081526000615a5d6060830186886157a5565b60208301949094525090151560409091015292915050565b6020815260006141ef6020830184615779565b608081526000615a9b6080830187615779565b6001600160a01b039590951660208301525060ff92831660408201529116606090910152919050565b60208082526037908201527f526f7574657253796e63203a204f6e6c792047656e6572696348616e646c657260408201527f2063616e2063616c6c20746869732066756e6374696f6e000000000000000000606082015260800190565b6020808252602e908201527f496e697469616c697a61626c653a20636f6e747261637420697320616c72656160408201526d191e481a5b9a5d1a585b1a5e995960921b606082015260800190565b6020808252602b908201527f496e697469616c697a61626c653a20636f6e7472616374206973206e6f74206960408201526a6e697469616c697a696e6760a81b606082015260800190565b85815260ff851660208201526001600160a01b038416604082015260a060608201819052600090615bed90830185615779565b90508260808301529695505050505050565b87815260ff8781166020830152861660408201526001600160a01b038516606082015260c060808201819052600090615c3b90830185876157a5565b905060ff831660a083015298975050505050505050565b60ff8616815260a060208201526000615c6e60a0830187615779565b60408301959095525060608101929092526001600160a01b031660809091015292915050565b604051601f8201601f191681016001600160401b0381118282101715615cbc57615cbc615df1565b604052919050565b60006001600160401b03821115615cdd57615cdd615df1565b50601f01601f191660200190565b60008219821115615cfe57615cfe615ddb565b500190565b600082615d1e57634e487b7160e01b81526012600452602481fd5b500490565b6000816000190483118215151615615d3d57615d3d615ddb565b500290565b600082821015615d5457615d54615ddb565b500390565b60005b83811015615d74578181015183820152602001615d5c565b838111156124075750506000910152565b600181811c90821680615d9957607f821691505b60208210811415615dba57634e487b7160e01b600052602260045260246000fd5b50919050565b6000600019821415615dd457615dd4615ddb565b5060010190565b634e487b7160e01b600052601160045260246000fd5b634e487b7160e01b600052604160045260246000fd5b6001600160a01b0381168114610dac57600080fd5b6001600160e01b031981168114610dac57600080fd5b60ff81168114610dac57600080fdfea2646970667358221220b436b74e5731e1b89ed79f54bbd0c7a79d5e7d020551460b276c07890be7451b64736f6c63430008040033",
  "linkReferences": {},
  "deployedLinkReferences": {}
}