{
  "_format": "hh-sol-artifact-1",
  "contractName": "BridgeUpgradeable",
  "sourceName": "contracts/BridgeUpgradeable.sol",
  "abi": [
    {
      "anonymous": false,
      "inputs": [
        {
          "indexed": false,
          "internalType": "uint256",
          "name": "transferIndex",
          "type": "uint256"
        },
        {
          "indexed": false,
          "internalType": "uint256",
          "name": "toChainId",
          "type": "uint256"
        },
        {
          "indexed": false,
          "internalType": "address",
          "name": "account",
          "type": "address"
        },
        {
          "indexed": false,
          "internalType": "string",
          "name": "tokenTicker",
          "type": "string"
        },
        {
          "indexed": false,
          "internalType": "uint8",
          "name": "status",
          "type": "uint8"
        }
      ],
      "name": "BridgeTransactionEnd",
      "type": "event"
    },
    {
      "anonymous": false,
      "inputs": [
        {
          "indexed": false,
          "internalType": "uint256",
          "name": "transferIndex",
          "type": "uint256"
        },
        {
          "indexed": false,
          "internalType": "uint256",
          "name": "toChainId",
          "type": "uint256"
        },
        {
          "indexed": false,
          "internalType": "address",
          "name": "account",
          "type": "address"
        },
        {
          "indexed": false,
          "internalType": "string",
          "name": "tokenTicker",
          "type": "string"
        },
        {
          "indexed": false,
          "internalType": "uint256",
          "name": "noOfTokens",
          "type": "uint256"
        }
      ],
      "name": "BridgeTransactionInit",
      "type": "event"
    },
    {
      "anonymous": false,
      "inputs": [
        {
          "indexed": true,
          "internalType": "uint8",
          "name": "sourceChain",
          "type": "uint8"
        },
        {
          "indexed": true,
          "internalType": "uint8",
          "name": "destChain",
          "type": "uint8"
        },
        {
          "indexed": false,
          "internalType": "address",
          "name": "sourceAddress",
          "type": "address"
        }
      ],
      "name": "CrossTalkReceive",
      "type": "event"
    },
    {
      "anonymous": false,
      "inputs": [
        {
          "indexed": true,
          "internalType": "uint8",
          "name": "sourceChain",
          "type": "uint8"
        },
        {
          "indexed": true,
          "internalType": "uint8",
          "name": "destChain",
          "type": "uint8"
        },
        {
          "indexed": false,
          "internalType": "address",
          "name": "sourceAddress",
          "type": "address"
        },
        {
          "indexed": false,
          "internalType": "address",
          "name": "destinationAddress",
          "type": "address"
        },
        {
          "indexed": true,
          "internalType": "bytes4",
          "name": "_selector",
          "type": "bytes4"
        },
        {
          "indexed": false,
          "internalType": "bytes",
          "name": "_data",
          "type": "bytes"
        },
        {
          "indexed": false,
          "internalType": "bytes32",
          "name": "_hash",
          "type": "bytes32"
        }
      ],
      "name": "CrossTalkSend",
      "type": "event"
    },
    {
      "anonymous": false,
      "inputs": [
        {
          "indexed": false,
          "internalType": "uint8",
          "name": "version",
          "type": "uint8"
        }
      ],
      "name": "Initialized",
      "type": "event"
    },
    {
      "anonymous": false,
      "inputs": [
        {
          "indexed": true,
          "internalType": "uint8",
          "name": "ChainID",
          "type": "uint8"
        },
        {
          "indexed": true,
          "internalType": "address",
          "name": "linkedContract",
          "type": "address"
        }
      ],
      "name": "Linkevent",
      "type": "event"
    },
    {
      "anonymous": false,
      "inputs": [
        {
          "indexed": true,
          "internalType": "uint256",
          "name": "index",
          "type": "uint256"
        },
        {
          "indexed": true,
          "internalType": "address",
          "name": "account",
          "type": "address"
        },
        {
          "indexed": false,
          "internalType": "string",
          "name": "tokenTicker",
          "type": "string"
        },
        {
          "indexed": false,
          "internalType": "uint256",
          "name": "noOfTokens",
          "type": "uint256"
        }
      ],
      "name": "LiquidityAdded",
      "type": "event"
    },
    {
      "anonymous": false,
      "inputs": [
        {
          "indexed": true,
          "internalType": "uint256",
          "name": "index",
          "type": "uint256"
        },
        {
          "indexed": true,
          "internalType": "address",
          "name": "account",
          "type": "address"
        },
        {
          "indexed": false,
          "internalType": "string",
          "name": "tokenTicker",
          "type": "string"
        }
      ],
      "name": "LiquidityRemoved",
      "type": "event"
    },
    {
      "anonymous": false,
      "inputs": [
        {
          "indexed": true,
          "internalType": "address",
          "name": "previousOwner",
          "type": "address"
        },
        {
          "indexed": true,
          "internalType": "address",
          "name": "newOwner",
          "type": "address"
        }
      ],
      "name": "OwnershipTransferred",
      "type": "event"
    },
    {
      "anonymous": false,
      "inputs": [
        {
          "indexed": true,
          "internalType": "uint8",
          "name": "ChainID",
          "type": "uint8"
        },
        {
          "indexed": true,
          "internalType": "address",
          "name": "linkedContract",
          "type": "address"
        }
      ],
      "name": "Unlinkevent",
      "type": "event"
    },
    {
      "inputs": [
        {
          "internalType": "uint8",
          "name": "_chainID",
          "type": "uint8"
        },
        {
          "internalType": "address",
          "name": "_linkedContract",
          "type": "address"
        }
      ],
      "name": "Link",
      "outputs": [],
      "stateMutability": "nonpayable",
      "type": "function"
    },
    {
      "inputs": [
        {
          "internalType": "uint8",
          "name": "_chainID",
          "type": "uint8"
        }
      ],
      "name": "Unlink",
      "outputs": [],
      "stateMutability": "nonpayable",
      "type": "function"
    },
    {
      "inputs": [
        {
          "internalType": "string",
          "name": "_tokenTicker",
          "type": "string"
        }
      ],
      "name": "_addPassedEpochs",
      "outputs": [],
      "stateMutability": "nonpayable",
      "type": "function"
    },
    {
      "inputs": [
        {
          "internalType": "string",
          "name": "_tokenTicker",
          "type": "string"
        },
        {
          "internalType": "uint256",
          "name": "_noOfTokens",
          "type": "uint256"
        },
        {
          "internalType": "uint256",
          "name": "_noOfBoosters",
          "type": "uint256"
        }
      ],
      "name": "addLiquidity",
      "outputs": [],
      "stateMutability": "nonpayable",
      "type": "function"
    },
    {
      "inputs": [
        {
          "internalType": "address",
          "name": "_feeToken",
          "type": "address"
        },
        {
          "internalType": "uint256",
          "name": "_value",
          "type": "uint256"
        }
      ],
      "name": "approveRouterFee",
      "outputs": [],
      "stateMutability": "nonpayable",
      "type": "function"
    },
    {
      "inputs": [],
      "name": "boosterConfig",
      "outputs": [
        {
          "internalType": "address",
          "name": "tokenAddress",
          "type": "address"
        },
        {
          "internalType": "uint256",
          "name": "price",
          "type": "uint256"
        },
        {
          "internalType": "string",
          "name": "imageUrl",
          "type": "string"
        },
        {
          "internalType": "address",
          "name": "adminAccount",
          "type": "address"
        }
      ],
      "stateMutability": "view",
      "type": "function"
    },
    {
      "inputs": [
        {
          "internalType": "string",
          "name": "_tokenTicker",
          "type": "string"
        },
        {
          "internalType": "uint256",
          "name": "_index",
          "type": "uint256"
        },
        {
          "internalType": "uint256",
          "name": "_quantity",
          "type": "uint256"
        }
      ],
      "name": "buyBoosterPacks",
      "outputs": [],
      "stateMutability": "nonpayable",
      "type": "function"
    },
    {
      "inputs": [],
      "name": "chainId",
      "outputs": [
        {
          "internalType": "uint8",
          "name": "",
          "type": "uint8"
        }
      ],
      "stateMutability": "view",
      "type": "function"
    },
    {
      "inputs": [
        {
          "internalType": "address",
          "name": "_userAddress",
          "type": "address"
        },
        {
          "internalType": "uint256",
          "name": "_noOfTokens",
          "type": "uint256"
        },
        {
          "internalType": "string",
          "name": "_tokenTicker",
          "type": "string"
        },
        {
          "internalType": "uint256",
          "name": "_transferIndex",
          "type": "uint256"
        }
      ],
      "name": "createCrossChainTransferMapping",
      "outputs": [],
      "stateMutability": "nonpayable",
      "type": "function"
    },
    {
      "inputs": [],
      "name": "crossChainGas",
      "outputs": [
        {
          "internalType": "uint256",
          "name": "",
          "type": "uint256"
        }
      ],
      "stateMutability": "view",
      "type": "function"
    },
    {
      "inputs": [
        {
          "internalType": "uint256",
          "name": "_noOfTokens",
          "type": "uint256"
        },
        {
          "internalType": "string",
          "name": "_tokenTicker",
          "type": "string"
        },
        {
          "internalType": "uint256",
          "name": "_index",
          "type": "uint256"
        }
      ],
      "name": "crossChainTransferIn",
      "outputs": [],
      "stateMutability": "payable",
      "type": "function"
    },
    {
      "inputs": [
        {
          "internalType": "string",
          "name": "_tokenTicker",
          "type": "string"
        },
        {
          "internalType": "uint256",
          "name": "_noOfTokens",
          "type": "uint256"
        },
        {
          "internalType": "uint8",
          "name": "_toChainId",
          "type": "uint8"
        },
        {
          "internalType": "uint256",
          "name": "_gasPrice",
          "type": "uint256"
        }
      ],
      "name": "crossChainTransferOut",
      "outputs": [
        {
          "internalType": "bool",
          "name": "",
          "type": "bool"
        },
        {
          "internalType": "uint256",
          "name": "",
          "type": "uint256"
        }
      ],
      "stateMutability": "nonpayable",
      "type": "function"
    },
    {
      "inputs": [
        {
          "internalType": "string",
          "name": "",
          "type": "string"
        },
        {
          "internalType": "address",
          "name": "",
          "type": "address"
        }
      ],
      "name": "currentIndex",
      "outputs": [
        {
          "internalType": "uint256",
          "name": "",
          "type": "uint256"
        }
      ],
      "stateMutability": "view",
      "type": "function"
    },
    {
      "inputs": [
        {
          "internalType": "string",
          "name": "",
          "type": "string"
        },
        {
          "internalType": "address",
          "name": "",
          "type": "address"
        },
        {
          "internalType": "uint8",
          "name": "",
          "type": "uint8"
        }
      ],
      "name": "currentTransferIndex",
      "outputs": [
        {
          "internalType": "uint256",
          "name": "",
          "type": "uint256"
        }
      ],
      "stateMutability": "view",
      "type": "function"
    },
    {
      "inputs": [
        {
          "internalType": "string",
          "name": "_tokenTicker",
          "type": "string"
        },
        {
          "internalType": "address",
          "name": "_account",
          "type": "address"
        },
        {
          "internalType": "uint256",
          "name": "_index",
          "type": "uint256"
        },
        {
          "internalType": "uint256",
          "name": "epochIndex",
          "type": "uint256"
        }
      ],
      "name": "deleteHasBoosterMapping",
      "outputs": [],
      "stateMutability": "nonpayable",
      "type": "function"
    },
    {
      "inputs": [
        {
          "internalType": "string",
          "name": "",
          "type": "string"
        },
        {
          "internalType": "uint256",
          "name": "",
          "type": "uint256"
        }
      ],
      "name": "epochs",
      "outputs": [
        {
          "internalType": "uint256",
          "name": "startBlock",
          "type": "uint256"
        },
        {
          "internalType": "uint256",
          "name": "epochLength",
          "type": "uint256"
        },
        {
          "internalType": "uint256",
          "name": "totalFeesCollected",
          "type": "uint256"
        },
        {
          "internalType": "uint256",
          "name": "totalActiveLiquidity",
          "type": "uint256"
        },
        {
          "internalType": "uint256",
          "name": "noOfDepositors",
          "type": "uint256"
        }
      ],
      "stateMutability": "view",
      "type": "function"
    },
    {
      "inputs": [],
      "name": "feePoolUpgradeable",
      "outputs": [
        {
          "internalType": "contract FeePoolUpgradeable",
          "name": "",
          "type": "address"
        }
      ],
      "stateMutability": "view",
      "type": "function"
    },
    {
      "inputs": [
        {
          "internalType": "bytes32",
          "name": "hash",
          "type": "bytes32"
        }
      ],
      "name": "fetchExecutes",
      "outputs": [
        {
          "components": [
            {
              "internalType": "uint8",
              "name": "chainID",
              "type": "uint8"
            },
            {
              "internalType": "uint64",
              "name": "nonce",
              "type": "uint64"
            }
          ],
          "internalType": "struct iRouterCrossTalkUpgradeable.ExecutesStruct",
          "name": "",
          "type": "tuple"
        }
      ],
      "stateMutability": "view",
      "type": "function"
    },
    {
      "inputs": [],
      "name": "fetchFeeToken",
      "outputs": [
        {
          "internalType": "address",
          "name": "",
          "type": "address"
        }
      ],
      "stateMutability": "view",
      "type": "function"
    },
    {
      "inputs": [],
      "name": "fetchHandler",
      "outputs": [
        {
          "internalType": "address",
          "name": "",
          "type": "address"
        }
      ],
      "stateMutability": "view",
      "type": "function"
    },
    {
      "inputs": [
        {
          "internalType": "uint8",
          "name": "_chainID",
          "type": "uint8"
        }
      ],
      "name": "fetchLink",
      "outputs": [
        {
          "internalType": "address",
          "name": "",
          "type": "address"
        }
      ],
      "stateMutability": "view",
      "type": "function"
    },
    {
      "inputs": [],
      "name": "fetchLinkSetter",
      "outputs": [
        {
          "internalType": "address",
          "name": "",
          "type": "address"
        }
      ],
      "stateMutability": "view",
      "type": "function"
    },
    {
      "inputs": [
        {
          "internalType": "string",
          "name": "_tokenTicker",
          "type": "string"
        },
        {
          "internalType": "uint256",
          "name": "_epochIndex",
          "type": "uint256"
        }
      ],
      "name": "getEpochTotalDepositors",
      "outputs": [
        {
          "internalType": "uint256",
          "name": "",
          "type": "uint256"
        }
      ],
      "stateMutability": "view",
      "type": "function"
    },
    {
      "inputs": [
        {
          "internalType": "string",
          "name": "_tokenTicker",
          "type": "string"
        },
        {
          "internalType": "uint256",
          "name": "_epochIndex",
          "type": "uint256"
        }
      ],
      "name": "getEpochTotalFees",
      "outputs": [
        {
          "internalType": "uint256",
          "name": "",
          "type": "uint256"
        }
      ],
      "stateMutability": "view",
      "type": "function"
    },
    {
      "inputs": [
        {
          "internalType": "string",
          "name": "_tokenTicker",
          "type": "string"
        }
      ],
      "name": "getEpochsLength",
      "outputs": [
        {
          "internalType": "uint256",
          "name": "",
          "type": "uint256"
        }
      ],
      "stateMutability": "view",
      "type": "function"
    },
    {
      "inputs": [
        {
          "internalType": "string",
          "name": "_tokenTicker",
          "type": "string"
        }
      ],
      "name": "getToken",
      "outputs": [
        {
          "internalType": "contract TokenUpgradeable",
          "name": "",
          "type": "address"
        }
      ],
      "stateMutability": "view",
      "type": "function"
    },
    {
      "inputs": [
        {
          "internalType": "string",
          "name": "tokenTicker",
          "type": "string"
        }
      ],
      "name": "getTokenTotalLiquidity",
      "outputs": [
        {
          "internalType": "uint256",
          "name": "",
          "type": "uint256"
        }
      ],
      "stateMutability": "view",
      "type": "function"
    },
    {
      "inputs": [
        {
          "internalType": "string",
          "name": "tokenTicker",
          "type": "string"
        },
        {
          "internalType": "address",
          "name": "account",
          "type": "address"
        },
        {
          "internalType": "uint256",
          "name": "index",
          "type": "uint256"
        }
      ],
      "name": "getUserTotalDeposit",
      "outputs": [
        {
          "internalType": "uint256",
          "name": "",
          "type": "uint256"
        }
      ],
      "stateMutability": "view",
      "type": "function"
    },
    {
      "inputs": [
        {
          "internalType": "string",
          "name": "",
          "type": "string"
        },
        {
          "internalType": "address",
          "name": "",
          "type": "address"
        },
        {
          "internalType": "uint256",
          "name": "",
          "type": "uint256"
        },
        {
          "internalType": "uint256",
          "name": "",
          "type": "uint256"
        }
      ],
      "name": "hasBooster",
      "outputs": [
        {
          "internalType": "bool",
          "name": "",
          "type": "bool"
        }
      ],
      "stateMutability": "view",
      "type": "function"
    },
    {
      "inputs": [
        {
          "internalType": "string",
          "name": "_tokenTicker",
          "type": "string"
        },
        {
          "internalType": "uint256",
          "name": "epochLength",
          "type": "uint256"
        }
      ],
      "name": "initNextEpochBlock",
      "outputs": [],
      "stateMutability": "nonpayable",
      "type": "function"
    },
    {
      "inputs": [
        {
          "internalType": "contract TokenBridgeRegistryUpgradeable",
          "name": "_tokenBridgeRegistryUpgradeable",
          "type": "address"
        },
        {
          "internalType": "address",
          "name": "_genericHandler",
          "type": "address"
        },
        {
          "internalType": "uint8",
          "name": "_chainId",
          "type": "uint8"
        }
      ],
      "name": "initialize",
      "outputs": [],
      "stateMutability": "nonpayable",
      "type": "function"
    },
    {
      "inputs": [
        {
          "internalType": "string",
          "name": "",
          "type": "string"
        },
        {
          "internalType": "address",
          "name": "",
          "type": "address"
        },
        {
          "internalType": "uint256",
          "name": "",
          "type": "uint256"
        }
      ],
      "name": "liquidityPosition",
      "outputs": [
        {
          "internalType": "uint256",
          "name": "depositedAmount",
          "type": "uint256"
        },
        {
          "internalType": "uint256",
          "name": "blockNo",
          "type": "uint256"
        },
        {
          "internalType": "uint256",
          "name": "claimedTillEpochIndex",
          "type": "uint256"
        },
        {
          "internalType": "uint256",
          "name": "epochStartIndex",
          "type": "uint256"
        },
        {
          "internalType": "uint256",
          "name": "epochStartBlock",
          "type": "uint256"
        },
        {
          "internalType": "uint256",
          "name": "boosterEndEpochIndex",
          "type": "uint256"
        },
        {
          "internalType": "uint256",
          "name": "startTimestamp",
          "type": "uint256"
        }
      ],
      "stateMutability": "view",
      "type": "function"
    },
    {
      "inputs": [],
      "name": "maxBips",
      "outputs": [
        {
          "internalType": "uint256",
          "name": "",
          "type": "uint256"
        }
      ],
      "stateMutability": "view",
      "type": "function"
    },
    {
      "inputs": [
        {
          "internalType": "string",
          "name": "",
          "type": "string"
        }
      ],
      "name": "nextEpochBlock",
      "outputs": [
        {
          "internalType": "uint256",
          "name": "",
          "type": "uint256"
        }
      ],
      "stateMutability": "view",
      "type": "function"
    },
    {
      "inputs": [],
      "name": "owner",
      "outputs": [
        {
          "internalType": "address",
          "name": "",
          "type": "address"
        }
      ],
      "stateMutability": "view",
      "type": "function"
    },
    {
      "inputs": [
        {
          "internalType": "uint256",
          "name": "_index",
          "type": "uint256"
        },
        {
          "internalType": "string",
          "name": "_tokenTicker",
          "type": "string"
        }
      ],
      "name": "removeLiquidity",
      "outputs": [],
      "stateMutability": "nonpayable",
      "type": "function"
    },
    {
      "inputs": [],
      "name": "renounceOwnership",
      "outputs": [],
      "stateMutability": "nonpayable",
      "type": "function"
    },
    {
      "inputs": [
        {
          "internalType": "bytes32",
          "name": "hash",
          "type": "bytes32"
        },
        {
          "internalType": "uint256",
          "name": "_crossChainGasPrice",
          "type": "uint256"
        }
      ],
      "name": "replayTransaction",
      "outputs": [],
      "stateMutability": "nonpayable",
      "type": "function"
    },
    {
      "inputs": [
        {
          "internalType": "uint8",
          "name": "srcChainID",
          "type": "uint8"
        },
        {
          "internalType": "address",
          "name": "srcAddress",
          "type": "address"
        },
        {
          "internalType": "bytes",
          "name": "data",
          "type": "bytes"
        }
      ],
      "name": "routerSync",
      "outputs": [
        {
          "internalType": "bool",
          "name": "",
          "type": "bool"
        },
        {
          "internalType": "bytes",
          "name": "",
          "type": "bytes"
        }
      ],
      "stateMutability": "nonpayable",
      "type": "function"
    },
    {
      "inputs": [
        {
          "internalType": "string",
          "name": "_tokenTicker",
          "type": "string"
        },
        {
          "internalType": "uint256",
          "name": "_noOfTokens",
          "type": "uint256"
        }
      ],
      "name": "safeWithdrawLiquidity",
      "outputs": [],
      "stateMutability": "nonpayable",
      "type": "function"
    },
    {
      "inputs": [
        {
          "internalType": "address",
          "name": "_feeAddress",
          "type": "address"
        }
      ],
      "name": "setFeeTokenAddress",
      "outputs": [],
      "stateMutability": "nonpayable",
      "type": "function"
    },
    {
      "inputs": [
        {
          "internalType": "address",
          "name": "_linker",
          "type": "address"
        }
      ],
      "name": "setLinker",
      "outputs": [],
      "stateMutability": "nonpayable",
      "type": "function"
    },
    {
      "inputs": [
        {
          "internalType": "bytes4",
          "name": "interfaceId",
          "type": "bytes4"
        }
      ],
      "name": "supportsInterface",
      "outputs": [
        {
          "internalType": "bool",
          "name": "",
          "type": "bool"
        }
      ],
      "stateMutability": "view",
      "type": "function"
    },
    {
      "inputs": [],
      "name": "tokenBridgeRegistryUpgradeable",
      "outputs": [
        {
          "internalType": "contract TokenBridgeRegistryUpgradeable",
          "name": "",
          "type": "address"
        }
      ],
      "stateMutability": "view",
      "type": "function"
    },
    {
      "inputs": [
        {
          "internalType": "string",
          "name": "",
          "type": "string"
        },
        {
          "internalType": "uint256",
          "name": "",
          "type": "uint256"
        }
      ],
      "name": "totalBoostedUsers",
      "outputs": [
        {
          "internalType": "uint256",
          "name": "",
          "type": "uint256"
        }
      ],
      "stateMutability": "view",
      "type": "function"
    },
    {
      "inputs": [
        {
          "internalType": "string",
          "name": "",
          "type": "string"
        }
      ],
      "name": "totalLiquidity",
      "outputs": [
        {
          "internalType": "uint256",
          "name": "",
          "type": "uint256"
        }
      ],
      "stateMutability": "view",
      "type": "function"
    },
    {
      "inputs": [
        {
          "internalType": "string",
          "name": "_tokenTicker",
          "type": "string"
        },
        {
          "internalType": "uint256",
          "name": "_noOfTokens",
          "type": "uint256"
        },
        {
          "internalType": "uint8",
          "name": "_toChainId",
          "type": "uint8"
        },
        {
          "internalType": "uint256",
          "name": "_gasPrice",
          "type": "uint256"
        }
      ],
      "name": "transferIn",
      "outputs": [
        {
          "internalType": "bool",
          "name": "",
          "type": "bool"
        },
        {
          "internalType": "uint256",
          "name": "",
          "type": "uint256"
        }
      ],
      "stateMutability": "nonpayable",
      "type": "function"
    },
    {
      "inputs": [
        {
          "internalType": "string",
          "name": "",
          "type": "string"
        },
        {
          "internalType": "address",
          "name": "",
          "type": "address"
        },
        {
          "internalType": "uint8",
          "name": "",
          "type": "uint8"
        },
        {
          "internalType": "uint256",
          "name": "",
          "type": "uint256"
        }
      ],
      "name": "transferMapping",
      "outputs": [
        {
          "internalType": "uint256",
          "name": "",
          "type": "uint256"
        }
      ],
      "stateMutability": "view",
      "type": "function"
    },
    {
      "inputs": [
        {
          "internalType": "uint256",
          "name": "_noOfTokens",
          "type": "uint256"
        },
        {
          "internalType": "string",
          "name": "_tokenTicker",
          "type": "string"
        }
      ],
      "name": "transferOut",
      "outputs": [],
      "stateMutability": "payable",
      "type": "function"
    },
    {
      "inputs": [
        {
          "internalType": "address",
          "name": "newOwner",
          "type": "address"
        }
      ],
      "name": "transferOwnership",
      "outputs": [],
      "stateMutability": "nonpayable",
      "type": "function"
    },
    {
      "inputs": [
        {
          "internalType": "address",
          "name": "_adminAccount",
          "type": "address"
        },
        {
          "internalType": "address",
          "name": "_boosterToken",
          "type": "address"
        },
        {
          "internalType": "uint256",
          "name": "_perBoosterPrice",
          "type": "uint256"
        },
        {
          "internalType": "string",
          "name": "_imageUrl",
          "type": "string"
        }
      ],
      "name": "updateBoosterConfig",
      "outputs": [],
      "stateMutability": "nonpayable",
      "type": "function"
    },
    {
      "inputs": [
        {
          "internalType": "uint256",
          "name": "_newGasAmount",
          "type": "uint256"
        }
      ],
      "name": "updateCrossChainGas",
      "outputs": [],
      "stateMutability": "nonpayable",
      "type": "function"
    },
    {
      "inputs": [
        {
          "internalType": "contract FeePoolUpgradeable",
          "name": "_feePoolAddress",
          "type": "address"
        }
      ],
      "name": "updateFeePoolAddress",
      "outputs": [],
      "stateMutability": "nonpayable",
      "type": "function"
    },
    {
      "inputs": [
        {
          "internalType": "uint256",
          "name": "_newMaxBips",
          "type": "uint256"
        }
      ],
      "name": "updateMaxBips",
      "outputs": [],
      "stateMutability": "nonpayable",
      "type": "function"
    },
    {
      "inputs": [
        {
          "internalType": "contract TokenBridgeRegistryUpgradeable",
          "name": "_registryAddress",
          "type": "address"
        }
      ],
      "name": "updateRegistryAddress",
      "outputs": [],
      "stateMutability": "nonpayable",
      "type": "function"
    },
    {
      "stateMutability": "payable",
      "type": "receive"
    }
  ],
  "bytecode": "0x608060405234801561001057600080fd5b50615f5180620000216000396000f3fe6080604052600436106103545760003560e01c806389232a00116101c6578063d7f1279b116100f7578063e8c594ba11610095578063f25e42c01161006f578063f25e42c014610c6b578063f2fde38b14610c8b578063fda8c7cd14610cab578063fe9dc81a14610ccb57600080fd5b8063e8c594ba14610bed578063ea043e2a14610c0d578063ee69786414610c4657600080fd5b8063de915ea8116100d1578063de915ea814610b54578063e08cc97114610b8d578063e1c5478514610bad578063e3567aac14610bcd57600080fd5b8063d7f1279b14610a2d578063d8c7be7514610a85578063d93cc86614610b3457600080fd5b8063c57a882511610164578063cc8020481161013e578063cc8020481461095b578063cf351c1d1461097b578063d29bf32d1461099b578063d3f6f584146109e457600080fd5b8063c57a88251461090a578063c9adbf821461092a578063cbd42d141461094857600080fd5b80639a8a0592116101a05780639a8a0592146108865780639ff21ccf146108b3578063bff390a7146108ca578063c1733f68146108ea57600080fd5b806389232a00146108285780638ae5d082146108485780638da5cb5b1461086857600080fd5b80634158cc27116102a05780636972bc501161023e578063715018a611610218578063715018a6146107b3578063792f3230146107c85780637b6c98b2146107e857806380488f621461080857600080fd5b80636972bc50146107565780636e2e8fe1146107745780636edb7a3e1461079557600080fd5b80635d01eb0f1161027a5780635d01eb0f146106a65780635db44bf4146106c65780635ec43b7114610715578063603b78401461073657600080fd5b80634158cc27146105b157806341afdc671461063e5780634500fad91461065e57600080fd5b8063140d9ec51161030d5780632394770d116102e75780632394770d1461053a5780633093becb1461055a5780633e27323d146105715780633fe00df11461059157600080fd5b8063140d9ec51461049f5780631c58293f146104bf57806320490d841461051a57600080fd5b806301ffc9a7146103605780630500387f146103a6578063058a1245146103f757806306d07c59146104255780630a1ee81b146104535780630fe3f0021461046857600080fd5b3661035b57005b600080fd5b34801561036c57600080fd5b5061039161037b366004615261565b6001600160e01b0319166301ffc9a760e01b1490565b60405190151581526020015b60405180910390f35b3480156103b257600080fd5b506103df6103c1366004615830565b60ff166000908152609a60205260409020546001600160a01b031690565b6040516001600160a01b03909116815260200161039d565b34801561040357600080fd5b50610417610412366004615328565b610ceb565b60405190815260200161039d565b34801561043157600080fd5b50610445610440366004615895565b610d17565b60405161039d929190615a9d565b61046661046136600461574d565b610ed5565b005b34801561047457600080fd5b50610488610483366004615458565b61163a565b60408051921515835260208301919091520161039d565b3480156104ab57600080fd5b506104176104ba366004615367565b6119a7565b3480156104cb57600080fd5b506103916104da36600461559c565b8351602081860181018051610103825292820196820196909620919095528452600092835260408084208552918352818320909352918152205460ff1681565b34801561052657600080fd5b506104176105353660046156a5565b6119f4565b34801561054657600080fd5b506104666105553660046151a7565b611a59565b34801561056657600080fd5b5061041761010b5481565b34801561057d57600080fd5b5061046661058c366004615868565b611c62565b34801561059d57600080fd5b506104666105ac3660046156a5565b611d76565b3480156105bd57600080fd5b506106176105cc366004615228565b6040805180820190915260008082526020820152506000908152609b602090815260409182902082518084019093525460ff8116835261010090046001600160401b03169082015290565b60408051825160ff1681526020928301516001600160401b0316928101929092520161039d565b34801561064a57600080fd5b5061046661065936600461517c565b611e05565b34801561066a57600080fd5b5061067e6106793660046156a5565b611e1b565b604080519586526020860194909452928401919091526060830152608082015260a00161039d565b3480156106b257600080fd5b506104666106c13660046154bc565b611e79565b3480156106d257600080fd5b506104176106e13660046155f8565b8251602081850181018051610108825292820195820195909520919094528352600091825260408083209093528152205481565b34801561072157600080fd5b50610101546103df906001600160a01b031681565b34801561074257600080fd5b50610466610751366004615240565b611ea6565b34801561076257600080fd5b506099546001600160a01b03166103df565b34801561078057600080fd5b50610100546103df906001600160a01b031681565b3480156107a157600080fd5b506097546001600160a01b03166103df565b3480156107bf57600080fd5b50610466611ebc565b3480156107d457600080fd5b506104666107e336600461540a565b611ed0565b3480156107f457600080fd5b50610466610803366004615228565b612117565b34801561081457600080fd5b5061046661082336600461574d565b612125565b34801561083457600080fd5b506104666108433660046152de565b612428565b34801561085457600080fd5b5061046661086336600461559c565b612539565b34801561087457600080fd5b506033546001600160a01b03166103df565b34801561089257600080fd5b50610111546108a19060ff1681565b60405160ff909116815260200161039d565b3480156108bf57600080fd5b5061041761010c5481565b3480156108d657600080fd5b506104666108e536600461540a565b6125e0565b3480156108f657600080fd5b506103df6109053660046154bc565b612cf3565b34801561091657600080fd5b50610466610925366004615062565b612dc7565b34801561093657600080fd5b506098546001600160a01b03166103df565b610466610956366004615796565b612df2565b34801561096757600080fd5b506104666109763660046153c1565b6131e8565b34801561098757600080fd5b50610466610996366004615062565b613366565b3480156109a757600080fd5b506104176109b63660046154f6565b8151602081840181018051610104825292820194820194909420919093529091526000908152604090205481565b3480156109f057600080fd5b506104176109ff3660046156a5565b8151602081840181018051610106825292820194820194909420919093529091526000908152604090205481565b348015610a3957600080fd5b50610417610a4836600461563e565b8351602081860181018051610107825292820196820196909620919095528452600092835260408084208552918352818320909352918152205481565b348015610a9157600080fd5b50610aff610aa0366004615545565b825160208185018101805161010282529282019582019590952091909452835260009182526040808320909352815220805460018201546002830154600384015460048501546005860154600690960154949593949293919290919087565b604080519788526020880196909652948601939093526060850191909152608084015260a083015260c082015260e00161039d565b348015610b4057600080fd5b50610488610b4f3660046156e7565b61338c565b348015610b6057600080fd5b50610417610b6f3660046154bc565b805160208183018101805161010a8252928201919093012091525481565b348015610b9957600080fd5b50610466610ba8366004615062565b6135f4565b348015610bb957600080fd5b50610417610bc83660046156a5565b61361f565b348015610bd957600080fd5b50610417610be83660046154bc565b613684565b348015610bf957600080fd5b50610466610c0836600461510c565b6136ad565b348015610c1957600080fd5b50610417610c283660046154bc565b80516020818301810180516101058252928201919093012091525481565b348015610c5257600080fd5b50610c5b61378a565b60405161039d9493929190615a3a565b348015610c7757600080fd5b50610466610c86366004615062565b613841565b348015610c9757600080fd5b50610466610ca6366004615062565b613867565b348015610cb757600080fd5b50610466610cc6366004615228565b6138dd565b348015610cd757600080fd5b50610466610ce6366004615830565b6138eb565b60006101058383604051610d009291906159a5565b908152602001604051809103902054905092915050565b60ff83166000908152609a6020526040812054606090859085906001600160a01b03808316911614610d9f5760405162461bcd60e51b815260206004820152602660248201527f526f7574657253796e63203a20536f757263652041646472657373204e6f74206044820152651b1a5b9ad95960d21b60648201526084015b60405180910390fd5b6097546001600160a01b0316336001600160a01b031614610dd25760405162461bcd60e51b8152600401610d9690615ba7565b609754604080516302cb03d960e61b815290516000926001600160a01b03169163b2c0f640916004808301926020929190829003018186803b158015610e1757600080fd5b505afa158015610e2b573d6000803e3d6000fd5b505050506040513d601f19601f82011682018060405250810190610e4f919061584c565b905060008087806020019051810190610e68919061527d565b91509150600080610e798484613985565b6040516001600160a01b038e168152919350915060ff80871691908e16907f4ef7c5e8df4a93d9634e83492a16efe750374905f02a02656e31369ff469ce3f9060200160405180910390a3909b909a5098505050505050505050565b81818080601f016020809104026020016040519081016040528093929190818152602001838380828437600092019190915250610f179250839150613a649050565b610f5683838080601f016020809104026020016040519081016040528093929190818152602001838380828437600092019190915250613bb192505050565b6000610fb7610905604051806040016040528060048152602001637365747560e01b81525086868080601f016020809104026020016040519081016040528093929190818152602001838380828437600092019190915250613f5c92505050565b90506000610ffa85858080601f016020809104026020016040519081016040528093929190818152602001838380828437600092019190915250612cf392505050565b61010054604051632efff6cb60e01b81529192506000916001600160a01b0390911690632efff6cb906110339089908990600401615ada565b60206040518083038186803b15801561104b57600080fd5b505afa15801561105f573d6000803e3d6000fd5b505050506040513d601f19601f82011682018060405250810190611083919061584c565b90506000610105878760405161109a9291906159a5565b90815260405190819003602001902054905087808210156110b85750805b60ff83166112855760006110cd898984613f88565b6040516306888c6760e11b81529091506001600160a01b03871690630d1118ce906110fe9033908690600401615a21565b600060405180830381600087803b15801561111857600080fd5b505af115801561112c573d6000803e3d6000fd5b50505050816101058a8a6040516111449291906159a5565b908152602001604051809103902060008282546111619190615e1c565b90915550506001600160a01b03851663a9059cbb336111808486615e1c565b6040518363ffffffff1660e01b815260040161119d929190615a21565b602060405180830381600087803b1580156111b757600080fd5b505af11580156111cb573d6000803e3d6000fd5b505050506040513d601f19601f820116820180604052508101906111ef9190615208565b50801561127f576101015460405163a9059cbb60e01b81526001600160a01b038781169263a9059cbb9261122b92909116908590600401615a21565b602060405180830381600087803b15801561124557600080fd5b505af1158015611259573d6000803e3d6000fd5b505050506040513d601f19601f8201168201806040525081019061127d9190615208565b505b5061162f565b8260ff166001141561162f57600061129e89898c613f88565b6040516306888c6760e11b81529091506001600160a01b03871690630d1118ce906112cf9033908e90600401615a21565b600060405180830381600087803b1580156112e957600080fd5b505af11580156112fd573d6000803e3d6000fd5b50505050816101058a8a6040516113159291906159a5565b908152602001604051809103902060008282546113329190615e1c565b9091555050808210156114aa5760405163a9059cbb60e01b81526001600160a01b0386169063a9059cbb9061136d9033908690600401615a21565b602060405180830381600087803b15801561138757600080fd5b505af115801561139b573d6000803e3d6000fd5b505050506040513d601f19601f820116820180604052508101906113bf9190615208565b506001600160a01b03851663f0dda65c33836113db868f615e1c565b6113e59190615e1c565b6040518363ffffffff1660e01b8152600401611402929190615a21565b600060405180830381600087803b15801561141c57600080fd5b505af1158015611430573d6000803e3d6000fd5b5050505060008111156114a55761010154604051633c37699760e21b81526001600160a01b038781169263f0dda65c9261147292909116908590600401615a21565b600060405180830381600087803b15801561148c57600080fd5b505af11580156114a0573d6000803e3d6000fd5b505050505b61162d565b8015611539576101015460405163a9059cbb60e01b81526001600160a01b038781169263a9059cbb926114e592909116908590600401615a21565b602060405180830381600087803b1580156114ff57600080fd5b505af1158015611513573d6000803e3d6000fd5b505050506040513d601f19601f820116820180604052508101906115379190615208565b505b6001600160a01b03851663a9059cbb336115538486615e1c565b6040518363ffffffff1660e01b8152600401611570929190615a21565b602060405180830381600087803b15801561158a57600080fd5b505af115801561159e573d6000803e3d6000fd5b505050506040513d601f19601f820116820180604052508101906115c29190615208565b506001600160a01b03851663f0dda65c336115dd858e615e1c565b6040518363ffffffff1660e01b81526004016115fa929190615a21565b600060405180830381600087803b15801561161457600080fd5b505af1158015611628573d6000803e3d6000fd5b505050505b505b505050505050505050565b60008086868080601f01602080910402602001604051908101604052809392919081815260200183838082843760009201919091525061167f9250839150613a649050565b60006116c089898080601f016020809104026020016040519081016040528093929190818152602001838380828437600092019190915250612cf392505050565b90506001600160a01b0381166323b872dd336040516001600160e01b031960e084901b1681526001600160a01b039091166004820152306024820152604481018a9052606401602060405180830381600087803b15801561172057600080fd5b505af1158015611734573d6000803e3d6000fd5b505050506040513d601f19601f820116820180604052508101906117589190615208565b5060006117ba610905604051806040016040528060048152602001637365747560e01b8152508c8c8080601f016020809104026020016040519081016040528093929190818152602001838380828437600092019190915250613f5c92505050565b604051633c37699760e21b81529091506001600160a01b0382169063f0dda65c906117eb9033908c90600401615a21565b600060405180830381600087803b15801561180557600080fd5b505af1158015611819573d6000803e3d6000fd5b505061010054604051632efff6cb60e01b8152600093506001600160a01b039091169150632efff6cb90611853908e908e90600401615ada565b60206040518083038186803b15801561186b57600080fd5b505afa15801561187f573d6000803e3d6000fd5b505050506040513d601f19601f820116820180604052508101906118a3919061584c565b905060ff81166118e457886101058c8c6040516118c19291906159a5565b908152602001604051809103902060008282546118de9190615dc5565b90915550505b8060ff1660011415611951576040516306888c6760e11b81526001600160a01b03841690630d1118ce9061191e9033908d90600401615a21565b600060405180830381600087803b15801561193857600080fd5b505af115801561194c573d6000803e3d6000fd5b505050505b6119958b8b8080601f0160208091040260200160405190810160405280939291908181526020018383808284376000920191909152508d92508c91508b905061338c565b95509550505050509550959350505050565b600061010285856040516119bc9291906159a5565b90815260408051602092819003830190206001600160a01b039590951660009081529482528085209385529290525090205492915050565b600061010983604051611a079190615989565b908152604051908190036020019020611a21600184615e1c565b81548110611a3f57634e487b7160e01b600052603260045260246000fd5b906000526020600020906005020160020154905092915050565b333014611ace5760405162461bcd60e51b815260206004820152603860248201527f526f7574657243726f737354616c6b203a2043616e206f6e6c7920626520636160448201527f6c6c65642062792043757272656e7420436f6e747261637400000000000000006064820152608401610d96565b6101088383604051611ae19291906159a5565b90815260408051602092819003830190206001600160a01b03881660009081529083528181206101115460ff1682529092529020548114611b5d5760405162461bcd60e51b81526020600482015260166024820152750929cac82989288bea8a4829ca68c8aa4be929c888ab60531b6044820152606401610d96565b836101078484604051611b719291906159a5565b9081526040805191829003602090810183206001600160a01b038a1660009081529082528281206101115460ff1682529091529081209161010890611bb990889088906159a5565b90815260408051602092819003830190206001600160a01b038b1660009081529083528181206101115460ff1682529092528120805491611bf983615e9a565b90915550815260208101919091526040908101600020919091556101115490517f4a3858eb882cada5cc1f22162c8a3baa27cc2c3993f06a7b9589492889be026391611c5391849160ff1690899088908890600290615c9d565b60405180910390a15050505050565b6097546001600160a01b0316336001600160a01b031614611c955760405162461bcd60e51b8152600401610d9690615ba7565b60ff82166000908152609a602052604090205482906001600160a01b031615611d1a5760405162461bcd60e51b815260206004820152603160248201527f526f7574657253796e63203a2043726f737320436861696e20436f6e747261636044820152701d081d1bc810da185a5b881251081cd95d607a1b6064820152608401610d96565b60ff83166000818152609a602052604080822080546001600160a01b0319166001600160a01b03871690811790915590519092917f53c7bf44dd47ad6fd3a8aac7c23d9ad4bddd7ec5889d7afef3450216586460a391a3505050565b610100546001600160a01b0316336001600160a01b031614611dca5760405162461bcd60e51b815260206004820152600d60248201526c4f4e4c595f524547495354525960981b6044820152606401610d96565b6001611dd68243615dc5565b611de09190615e1c565b61010a83604051611df19190615989565b908152604051908190036020019020555050565b611e0d61429e565b611e1782826142f8565b5050565b8151602081840181018051610109825292820191850191909120919052805482908110611e4757600080fd5b600091825260209091206005909102018054600182015460028301546003840154600490940154929550909350919085565b610101546001600160a01b0316336001600160a01b031614611e9a57600080fd5b611ea381613bb1565b50565b611eae61429e565b611e178261010c548361437e565b611ec461429e565b611ece6000614415565b565b83838080601f016020809104026020016040519081016040528093929190818152602001838380828437600092019190915250611f129250839150613a649050565b61010d546001600160a01b0316806323b872dd336101105461010e546001600160a01b0390911690611f45908890615dfd565b6040516001600160e01b031960e086901b1681526001600160a01b0393841660048201529290911660248301526044820152606401602060405180830381600087803b158015611f9457600080fd5b505af1158015611fa8573d6000803e3d6000fd5b505050506040513d601f19601f82011682018060405250810190611fcc9190615208565b5061200c86868080601f016020809104026020016040519081016040528093929190818152602001838380828437600092019190915250613bb192505050565b600061010987876040516120219291906159a5565b9081526040519081900360200190205461203c906001615dc5565b9050600061010288886040516120539291906159a5565b9081526020016040518091039020600061206a3390565b6001600160a01b03166001600160a01b0316815260200190815260200160002060008781526020019081526020016000209050818160050154106120e4576120c588888888856005015460016120c09190615dc5565b614467565b848160050160008282546120d99190615dc5565b9091555061210d9050565b6120f18888888886614467565b60016120fd8684615dc5565b6121079190615e1c565b60058201555b5050505050505050565b61211f61429e565b61010c55565b81818080601f0160208091040260200160405190810160405280939291908181526020018383808284376000920191909152506121679250839150613a649050565b6121a683838080601f016020809104026020016040519081016040528093929190818152602001838380828437600092019190915250613bb192505050565b600061010284846040516121bb9291906159a5565b908152602001604051809103902060006121d23390565b6001600160a01b03168152602080820192909252604090810160009081208882528352819020815160e08101835281548082526001830154948201949094526002820154928101929092526003810154606083015260048101546080830152600581015460a08301526006015460c082015291506122855760405162461bcd60e51b815260206004820152601060248201526f24a72b20a624a22fa827a9a4aa24a7a760811b6044820152606401610d96565b60006122e6610905604051806040016040528060048152602001637365747560e01b81525087878080601f016020809104026020016040519081016040528093929190818152602001838380828437600092019190915250613f5c92505050565b825160405162c7a7a760e61b81529192506001600160a01b038316916331e9e9c09161231791339190600401615a21565b602060405180830381600087803b15801561233157600080fd5b505af1158015612345573d6000803e3d6000fd5b505050506040513d601f19601f820116820180604052508101906123699190615208565b50610101546001600160a01b03166360576b898686338a6040518563ffffffff1660e01b815260040161239f9493929190615aee565b600060405180830381600087803b1580156123b957600080fd5b505af11580156123cd573d6000803e3d6000fd5b505050506123dc86868661454d565b336001600160a01b0316867f957c1066339fbc836e386f6a107e3ae614f2aabcd445bb2479f08232839adc9b8787604051612418929190615ada565b60405180910390a3505050505050565b600054610100900460ff16158080156124485750600054600160ff909116105b806124625750303b158015612462575060005460ff166001145b61247e5760405162461bcd60e51b8152600401610d9690615c04565b6000805460ff1916600117905580156124a1576000805461ff0019166101001790555b6124a9614880565b6124b2836148af565b61010080546001600160a01b0319166001600160a01b038616179055610111805460ff191660ff84161790556103e861010b55620f424061010c558015612533576000805461ff0019169055604051600181527f7f26b83ff96e1f2b6a682f133852f6798a09c465da95921460cefb38474024989060200160405180910390a15b50505050565b610101546001600160a01b0316336001600160a01b03161461258d5760405162461bcd60e51b815260206004820152600d60248201526c13d3931657d1915157d413d3d3609a1b6044820152606401610d96565b6101038460405161259e9190615989565b90815260408051602092819003830190206001600160a01b03959095166000908152948252808520938552928152828420918452529020805460ff1916905550565b83838080601f0160208091040260200160405190810160405280939291908181526020018383808284376000920191909152506126229250839150613a649050565b600083116126655760405162461bcd60e51b815260206004820152601060248201526f04e4f5f4f465f544f4b454e53203e20360841b6044820152606401610d96565b6126a485858080601f016020809104026020016040519081016040528093929190818152602001838380828437600092019190915250613bb192505050565b60006001905060008061010988886040516126c09291906159a5565b9081526040519081900360200190205411156127dc57600061010988886040516126eb9291906159a5565b908152602001604051809103902060016101098a8a60405161270e9291906159a5565b908152604051908190036020019020546127289190615e1c565b8154811061274657634e487b7160e01b600052603260045260246000fd5b90600052602060002090600502016040518060a001604052908160008201548152602001600182015481526020016002820154815260200160038201548152602001600482015481525050905061010988886040516127a69291906159a5565b908152604051908190036020019020546127c1906001615dc5565b602082015182519194506127d491615dc5565b915050612862565b610100546040516318565e0f60e01b81526001600160a01b03909116906318565e0f9061280f908a908a90600401615ada565b604080518083038186803b15801561282657600080fd5b505afa15801561283a573d6000803e3d6000fd5b505050506040513d601f19601f8201168201806040525081019061285e91906157e6565b5090505b60006040518060e001604052808781526020014381526020016101098a8a60405161288e9291906159a5565b90815260200160405180910390208054905081526020018481526020018381526020016101098a8a6040516128c49291906159a5565b9081526020016040518091039020805490508152602001428152509050600061010489896040516128f69291906159a5565b9081526020016040518091039020600061290d3390565b6001600160a01b031681526020810191909152604001600090812080549161293483615e9a565b919050559050816101028a8a60405161294e9291906159a5565b908152602001604051809103902060006129653390565b6001600160a01b0316815260208082019290925260409081016000908120858252835281902083518155918301516001830155828101516002830155606083015160038301556080830151600483015560a0830151600583015560c090920151600690910155518790610105906129df908c908c906159a5565b908152602001604051809103902060008282546129fc9190615dc5565b909155505061010054604051633b6cb21560e21b81526001600160a01b039091169063edb2c85490612a37908c908c90600190600401615b1e565b600060405180830381600087803b158015612a5157600080fd5b505af1158015612a65573d6000803e3d6000fd5b505050506000612aaa8a8a8080601f016020809104026020016040519081016040528093929190818152602001838380828437600092019190915250612cf392505050565b90506001600160a01b0381166323b872dd336040516001600160e01b031960e084901b1681526001600160a01b039091166004820152306024820152604481018b9052606401602060405180830381600087803b158015612b0a57600080fd5b505af1158015612b1e573d6000803e3d6000fd5b505050506040513d601f19601f82011682018060405250810190612b429190615208565b506000612ba4610905604051806040016040528060048152602001637365747560e01b8152508d8d8080601f016020809104026020016040519081016040528093929190818152602001838380828437600092019190915250613f5c92505050565b604051633c37699760e21b81529091506001600160a01b0382169063f0dda65c90612bd59033908d90600401615a21565b600060405180830381600087803b158015612bef57600080fd5b505af1158015612c03573d6000803e3d6000fd5b50505050806001600160a01b031663b1c25586612c1d3390565b8b6040518363ffffffff1660e01b8152600401612c3b929190615a21565b602060405180830381600087803b158015612c5557600080fd5b505af1158015612c69573d6000803e3d6000fd5b505050506040513d601f19601f82011682018060405250810190612c8d9190615208565b508715612ca057612ca08b8b858b611ed0565b336001600160a01b0316837f9a4bd40884e6b582f1bcdde16a1c16eb99d827a988a328e89e83e42face98df38d8d8d604051612cde93929190615b44565b60405180910390a35050505050505050505050565b61010054604051636204891b60e11b815260009182916001600160a01b039091169063c409123690612d29908690600401615b94565b60206040518083038186803b158015612d4157600080fd5b505afa158015612d55573d6000803e3d6000fd5b505050506040513d601f19601f82011682018060405250810190612d79919061507e565b90506001600160a01b038116612dc15760405162461bcd60e51b815260206004820152600d60248201526c24a72b20a624a22faa27a5a2a760991b6044820152606401610d96565b92915050565b612dcf61429e565b61010080546001600160a01b0319166001600160a01b0392909216919091179055565b82828080601f016020809104026020016040519081016040528093929190818152602001838380828437600092019190915250612e349250839150613a649050565b60006101078585604051612e499291906159a5565b90815260200160405180910390206000612e603390565b6001600160a01b03168152602080820192909252604090810160009081206101115460ff168252835281812086825290925290205411612ee25760405162461bcd60e51b815260206004820152601b60248201527f5452414e534645525f4d415050494e475f4e4f545f45584953545300000000006044820152606401610d96565b6101078484604051612ef59291906159a5565b90815260200160405180910390206000612f0c3390565b6001600160a01b03168152602080820192909252604090810160009081206101115460ff1682528352818120858252909252902054851115612f905760405162461bcd60e51b815260206004820152601760248201527f4558434553535f544f4b454e535f5245515545535445440000000000000000006044820152606401610d96565b6000612ff1610905604051806040016040528060048152602001637365747560e01b81525087878080601f016020809104026020016040519081016040528093929190818152602001838380828437600092019190915250613f5c92505050565b604051633c37699760e21b81529091506001600160a01b0382169063f0dda65c906130229033908a90600401615a21565b600060405180830381600087803b15801561303c57600080fd5b505af1158015613050573d6000803e3d6000fd5b505050508561010786866040516130689291906159a5565b9081526020016040518091039020600061307f3390565b6001600160a01b03168152602080820192909252604090810160009081206101115460ff1682528352818120878252909252812080549091906130c3908490615e1c565b9091555050604051610107906130dc90879087906159a5565b908152602001604051809103902060006130f33390565b6001600160a01b03168152602080820192909252604090810160009081206101115460ff168252835281812086825290925290205461318c57610107858560405161313f9291906159a5565b908152602001604051809103902060006131563390565b6001600160a01b03168152602080820192909252604090810160009081206101115460ff16825283528181208682529092528120555b613197868686610ed5565b610111546040517f4a3858eb882cada5cc1f22162c8a3baa27cc2c3993f06a7b9589492889be0263916131d891869160ff169033908a908a90600390615c9d565b60405180910390a1505050505050565b6131f061429e565b61010583836040516132039291906159a5565b9081526020016040518091039020548111156132535760405162461bcd60e51b815260206004820152600f60248201526e414d4f554e545f4f564552464c4f5760881b6044820152606401610d96565b8061010584846040516132679291906159a5565b908152602001604051809103902060008282546132849190615e1c565b9250508190555060006132cc84848080601f016020809104026020016040519081016040528093929190818152602001838380828437600092019190915250612cf392505050565b9050806001600160a01b031663a9059cbb6132ef6033546001600160a01b031690565b846040518363ffffffff1660e01b815260040161330d929190615a21565b602060405180830381600087803b15801561332757600080fd5b505af115801561333b573d6000803e3d6000fd5b505050506040513d601f19601f8201168201806040525081019061335f9190615208565b5050505050565b61336e61429e565b609980546001600160a01b0319166001600160a01b03831617905550565b6000808561339981613a64565b6133a287613bb1565b60006133cd610905604051806040016040528060048152602001637365747560e01b8152508a613f5c565b6040516306888c6760e11b81529091506001600160a01b03821690630d1118ce906133fe9033908b90600401615a21565b600060405180830381600087803b15801561341857600080fd5b505af115801561342c573d6000803e3d6000fd5b505050506000610108896040516134439190615989565b9081526020016040518091039020600061345a3390565b6001600160a01b03166001600160a01b0316815260200190815260200160002060008860ff1660ff168152602001908152602001600020549050610108896040516134a59190615989565b908152602001604051809103902060006134bc3390565b6001600160a01b03166001600160a01b0316815260200190815260200160002060008860ff1660ff1681526020019081526020016000206000815461350090615e9a565b90915550600033898b8460405160200161351d9493929190615a76565b604051602081830303815290604052905060007f2394770d26d54b0f9d832f848c67afda3833858a40dc7d9f69b594987b65ffb2905060006135658a838561010c548d614994565b509050806135a45760405162461bcd60e51b815260206004820152600c60248201526b2927aaaa22a92fa2a92927a960a11b6044820152606401610d96565b7ff90be0cd8fe946e507d735bcb6c63e21b2c5cd668d8aa78a6679e46abc35e901848b338f8f6040516135db959493929190615ce7565b60405180910390a19b929a509198505050505050505050565b6135fc61429e565b61010180546001600160a01b0319166001600160a01b0392909216919091179055565b6000610109836040516136329190615989565b90815260405190819003602001902061364c600184615e1c565b8154811061366a57634e487b7160e01b600052603260045260246000fd5b906000526020600020906005020160040154905092915050565b6000610109826040516136979190615989565b9081526040519081900360200190205492915050565b6136b561429e565b6040518060800160405280856001600160a01b0316815260200184815260200183838080601f0160208091040260200160405190810160405280939291908181526020018383808284376000920191909152505050908252506001600160a01b03878116602092830152825161010d80546001600160a01b031916919092161781558282015161010e556040830151805191926137599261010f9290910190614efd565b5060609190910151600390910180546001600160a01b0319166001600160a01b039092169190911790555050505050565b61010d805461010e5461010f80546001600160a01b039093169391926137af90615e5f565b80601f01602080910402602001604051908101604052809291908181526020018280546137db90615e5f565b80156138285780601f106137fd57610100808354040283529160200191613828565b820191906000526020600020905b81548152906001019060200180831161380b57829003601f168201915b505050600390930154919250506001600160a01b031684565b61384961429e565b609880546001600160a01b0319166001600160a01b03831617905550565b61386f61429e565b6001600160a01b0381166138d45760405162461bcd60e51b815260206004820152602660248201527f4f776e61626c653a206e6577206f776e657220697320746865207a65726f206160448201526564647265737360d01b6064820152608401610d96565b611ea381614415565b6138e561429e565b61010b55565b6097546001600160a01b0316336001600160a01b03161461391e5760405162461bcd60e51b8152600401610d9690615ba7565b60ff81166000818152609a60205260408082205490516001600160a01b0390911692917f566e5d71d4547dca8d21d2527ec375bb6ad1052ea20ab35c3f310aba1d6bc66b91a360ff166000908152609a6020526040902080546001600160a01b0319169055565b60006060600080600080868060200190518101906139a3919061509a565b9350935093509350600080306001600160a01b03168a878787876040516024016139d09493929190615a76565b60408051601f198184030181529181526020820180516001600160e01b03166001600160e01b0319909416939093179092529051613a0e9190615989565b6000604051808303816000865af19150503d8060008114613a4b576040519150601f19603f3d011682016040523d82523d6000602084013e613a50565b606091505b5090985096505050505050505b9250929050565b61010060009054906101000a90046001600160a01b03166001600160a01b031663029a7ba66040518163ffffffff1660e01b815260040160206040518083038186803b158015613ab357600080fd5b505afa158015613ac7573d6000803e3d6000fd5b505050506040513d601f19601f82011682018060405250810190613aeb9190615208565b8015613b7357506101005460405163d1ae6e2160e01b81526001600160a01b039091169063d1ae6e2190613b23908490600401615b94565b60206040518083038186803b158015613b3b57600080fd5b505afa158015613b4f573d6000803e3d6000fd5b505050506040513d601f19601f82011682018060405250810190613b739190615208565b611ea35760405162461bcd60e51b815260206004820152600f60248201526e1094925111d157d11254d050931151608a1b6044820152606401610d96565b600080613bbd83614b80565b915091508160001415613bcf57505050565b610100546040516318565e0f60e01b81526000916001600160a01b0316906318565e0f90613c01908790600401615b94565b604080518083038186803b158015613c1857600080fd5b505afa158015613c2c573d6000803e3d6000fd5b505050506040513d601f19601f82011682018060405250810190613c5091906157e6565b905080915050600061010585604051613c699190615989565b908152604051908190036020018120546101005463139927bd60e21b83529092506000916001600160a01b0390911690634e649ef490613cad908990600401615b94565b60206040518083038186803b158015613cc557600080fd5b505afa158015613cd9573d6000803e3d6000fd5b505050506040513d601f19601f82011682018060405250810190613cfd9190615735565b905060005b613d0d600187615e1c565b811015613dcc5760006040518060a001604052808684613d2d9190615dfd565b613d379089615dc5565b81526020018681526020016000815260200185815260200184815250905061010988604051613d669190615989565b90815260408051602092819003830190208054600180820183556000928352918490208551600590920201908155928401519083015582015160028201556060820151600382015560809091015160049091015580613dc481615e9a565b915050613d02565b610101546040516320a359f560e11b81526000916001600160a01b031690634146b3ea90613dfe908b90600401615b94565b60206040518083038186803b158015613e1657600080fd5b505afa158015613e2a573d6000803e3d6000fd5b505050506040513d601f19601f82011682018060405250810190613e4e9190615735565b905060006040518060a001604052808785613e699190615dfd565b613e73908a615dc5565b815260200187815260200183815260200186815260200185815250905061010989604051613ea19190615989565b90815260408051602092819003830181208054600180820183556000928352918590208651600590920201908155938501519084015590830151600283015560608301516003830155608083015160049283015561010154633f96c4b960e21b82526001600160a01b03169163fe5b12e491613f1f918d9101615b94565b600060405180830381600087803b158015613f3957600080fd5b505af1158015613f4d573d6000803e3d6000fd5b50505050505050505050505050565b60608282604051602001613f719291906159b5565b604051602081830303815290604052905092915050565b610100546040516339d7fa4360e21b81526000918291829182916001600160a01b039091169063e75fe90c90613fc4908a908a90600401615ada565b604080518083038186803b158015613fdb57600080fd5b505afa158015613fef573d6000803e3d6000fd5b505050506040513d601f19601f820116820180604052508101906140139190615907565b909350915060ff831661420257813410156140645760405162461bcd60e51b8152602060048201526011602482015270494e53554646494349454e545f4645455360781b6044820152606401610d96565b610101546040516332ba05b560e21b81526001600160a01b039091169063cae816d49061409c908a908a908790600190600401615b68565b600060405180830381600087803b1580156140b657600080fd5b505af11580156140ca573d6000803e3d6000fd5b505061010154604051600093506001600160a01b03909116915084908381818185875af1925050503d806000811461411e576040519150601f19603f3d011682016040523d82523d6000602084013e614123565b606091505b505090508061416a5760405162461bcd60e51b81526020600482015260136024820152721413d3d317d514905391915497d19052531151606a1b6044820152606401610d96565b336141758434615e1c565b604051600081818185875af1925050503d80600081146141b1576040519150601f19603f3d011682016040523d82523d6000602084013e6141b6565b606091505b505080915050806141fc5760405162461bcd60e51b815260206004820152601060248201526f14d1539517d09050d2d7d1905253115160821b6044820152606401610d96565b50614292565b8260ff16600114156142925761010b5461421c8387615dfd565b6142269190615ddd565b610101546040516332ba05b560e21b81529192506001600160a01b03169063cae816d49061425f908a908a908690600190600401615b68565b600060405180830381600087803b15801561427957600080fd5b505af115801561428d573d6000803e3d6000fd5b505050505b925050505b9392505050565b6033546001600160a01b03163314611ece5760405162461bcd60e51b815260206004820181905260248201527f4f776e61626c653a2063616c6c6572206973206e6f7420746865206f776e65726044820152606401610d96565b60975460405163095ea7b360e01b815283916001600160a01b038084169263095ea7b39261432c9216908690600401615a21565b602060405180830381600087803b15801561434657600080fd5b505af115801561435a573d6000803e3d6000fd5b505050506040513d601f19601f820116820180604052508101906125339190615208565b6097546000848152609b60205260409081902054905163f8d9a81360e01b815260ff821660048201526101009091046001600160401b0316602482015260448101849052606481018390526001600160a01b039091169063f8d9a81390608401600060405180830381600087803b1580156143f857600080fd5b505af115801561440c573d6000803e3d6000fd5b50505050505050565b603380546001600160a01b038381166001600160a01b0319831681179093556040519116919082907f8be0079c531659141344cd1fd0a4f28419497f9722a3daafe3b4186f6b6457e090600090a35050565b805b60016144758484615dc5565b61447f9190615e1c565b8111614545576001610103878760405161449a9291906159a5565b908152602001604051809103902060006144b13390565b6001600160a01b0316815260208082019290925260409081016000908120888252835281812085825290925290819020805460ff191692151592909217909155516101069061450390889088906159a5565b908152602001604051809103902060008281526020019081526020016000206000815461452f90615e9a565b909155508061453d81615e9a565b915050614469565b505050505050565b600061010583836040516145629291906159a5565b9081526020016040518091039020549050600061010284846040516145889291906159a5565b9081526020016040518091039020600061459f3390565b6001600160a01b03168152602080820192909252604090810160009081208882529092529020549050808210156145d35750805b6000614634610905604051806040016040528060048152602001637365747560e01b81525087878080601f016020809104026020016040519081016040528093929190818152602001838380828437600092019190915250613f5c92505050565b6040516306888c6760e11b81529091506001600160a01b03821690630d1118ce906146659033908690600401615a21565b600060405180830381600087803b15801561467f57600080fd5b505af1158015614693573d6000803e3d6000fd5b505050508161010586866040516146ab9291906159a5565b908152602001604051809103902060008282546146c89190615e1c565b909155505061010054604051633b6cb21560e21b81526001600160a01b039091169063edb2c854906147039088908890600090600401615b1e565b600060405180830381600087803b15801561471d57600080fd5b505af1158015614731573d6000803e3d6000fd5b50505050600061477686868080601f016020809104026020016040519081016040528093929190818152602001838380828437600092019190915250612cf392505050565b60405163a9059cbb60e01b81529091506001600160a01b0382169063a9059cbb906147a79033908790600401615a21565b602060405180830381600087803b1580156147c157600080fd5b505af11580156147d5573d6000803e3d6000fd5b505050506040513d601f19601f820116820180604052508101906147f99190615208565b50610102868660405161480d9291906159a5565b908152602001604051809103902060006148243390565b6001600160a01b0316815260208082019290925260409081016000908120998152989091528720878155600181018890556002810188905560038101889055600481018890556005810188905560060196909655505050505050565b600054610100900460ff166148a75760405162461bcd60e51b8152600401610d9690615c52565b611ece614dab565b600054610100900460ff16158080156148cf5750600054600160ff909116105b806148e95750303b1580156148e9575060005460ff166001145b6149055760405162461bcd60e51b8152600401610d9690615c04565b6000805460ff191660011790558015614928576000805461ff0019166101001790555b614930614ddb565b609780546001600160a01b0319166001600160a01b0384161790558015611e17576000805461ff0019169055604051600181527f7f26b83ff96e1f2b6a682f133852f6798a09c465da95921460cefb38474024989060200160405180910390a15050565b60ff85166000908152609a6020526040812054819087906001600160a01b0316614a265760405162461bcd60e51b815260206004820152603d60248201527f526f7574657243726f737354616c6b203a2043726f737320436861696e20436f60448201527f6e747261637420746f20436861696e204944206973206e6f74207365740000006064820152608401610d96565b60008787604051602001614a3b929190615ab8565b60408051601f1981840301815290829052609754609954639f77b1fb60e01b84529193506000926001600160a01b0391821692639f77b1fb92614a8c928f9288928e928e9290911690600401615d2c565b602060405180830381600087803b158015614aa657600080fd5b505af1158015614aba573d6000803e3d6000fd5b505050506040513d601f19601f82011682018060405250810190614ade9190615809565b6040805160ff8d811660208084018290526001600160401b038681168587018190528651808703880181526060870180895281519185019190912060a08801895294815260809096019081526000848152609b909352959091209351845495519091166101000268ffffffffffffffffff19909516921691909117929092179055909150614b6e8b8b8b84614e02565b60019b909a5098505050505050505050565b60008060008061010a85604051614b979190615989565b908152602001604051809103902054431115614da157610100546040516318565e0f60e01b815260009182916001600160a01b03909116906318565e0f90614be3908a90600401615b94565b604080518083038186803b158015614bfa57600080fd5b505afa158015614c0e573d6000803e3d6000fd5b505050506040513d601f19601f82011682018060405250810190614c3291906157e6565b604051919350915060009061010990614c4c908a90615989565b908152604051908190036020019020541115614d4657600061010988604051614c759190615989565b908152602001604051809103902060016101098a604051614c969190615989565b90815260405190819003602001902054614cb09190615e1c565b81548110614cce57634e487b7160e01b600052603260045260246000fd5b60009182526020918290206040805160a08101825260059093029091018054808452600182015494840185905260028201549284019290925260038101546060840152600401546080830152909250614d279190615dc5565b935081614d348543615e1c565b614d3e9190615ddd565b945050614d61565b80614d518343615e1c565b614d5b9190615ddd565b93508192505b614d6b8185615dfd565b61010a88604051614d7c9190615989565b90815260200160405180910390206000828254614d999190615dc5565b909155505050505b9094909350915050565b600054610100900460ff16614dd25760405162461bcd60e51b8152600401610d9690615c52565b611ece33614415565b600054610100900460ff16611ece5760405162461bcd60e51b8152600401610d9690615c52565b826001600160e01b0319168460ff16609760009054906101000a90046001600160a01b03166001600160a01b031663b2c0f6406040518163ffffffff1660e01b815260040160206040518083038186803b158015614e5f57600080fd5b505afa158015614e73573d6000803e3d6000fd5b505050506040513d601f19601f82011682018060405250810190614e97919061584c565b60ff8781166000908152609a60205260409081902054905192909116917f5577eec09aa2850627ee68188b4ade468b8d0e82083954ecb4928e85e3db9ad591614eef9130916001600160a01b031690899089906159e4565b60405180910390a450505050565b828054614f0990615e5f565b90600052602060002090601f016020900481019282614f2b5760008555614f71565b82601f10614f4457805160ff1916838001178555614f71565b82800160010185558215614f71579182015b82811115614f71578251825591602001919060010190614f56565b50614f7d929150614f81565b5090565b5b80821115614f7d5760008155600101614f82565b6000614fa9614fa484615d9e565b615d6e565b9050828152838383011115614fbd57600080fd5b828260208301376000602084830101529392505050565b6000614fe2614fa484615d9e565b9050828152838383011115614ff657600080fd5b614297836020830184615e33565b60008083601f840112615015578182fd5b5081356001600160401b0381111561502b578182fd5b602083019150836020828501011115613a5d57600080fd5b600082601f830112615053578081fd5b61429783833560208501614f96565b600060208284031215615073578081fd5b813561429781615ee1565b60006020828403121561508f578081fd5b815161429781615ee1565b600080600080608085870312156150af578283fd5b84516150ba81615ee1565b6020860151604087015191955093506001600160401b038111156150dc578283fd5b8501601f810187136150ec578283fd5b6150fb87825160208401614fd4565b606096909601519497939650505050565b600080600080600060808688031215615123578081fd5b853561512e81615ee1565b9450602086013561513e81615ee1565b93506040860135925060608601356001600160401b0381111561515f578182fd5b61516b88828901615004565b969995985093965092949392505050565b6000806040838503121561518e578081fd5b823561519981615ee1565b946020939093013593505050565b6000806000806000608086880312156151be578283fd5b85356151c981615ee1565b94506020860135935060408601356001600160401b038111156151ea578384fd5b6151f688828901615004565b96999598509660600135949350505050565b600060208284031215615219578081fd5b81518015158114614297578182fd5b600060208284031215615239578081fd5b5035919050565b60008060408385031215615252578182fd5b50508035926020909101359150565b600060208284031215615272578081fd5b813561429781615ef6565b6000806040838503121561528f578182fd5b825161529a81615ef6565b60208401519092506001600160401b038111156152b5578182fd5b8301601f810185136152c5578182fd5b6152d485825160208401614fd4565b9150509250929050565b6000806000606084860312156152f2578081fd5b83356152fd81615ee1565b9250602084013561530d81615ee1565b9150604084013561531d81615f0c565b809150509250925092565b6000806020838503121561533a578182fd5b82356001600160401b0381111561534f578283fd5b61535b85828601615004565b90969095509350505050565b6000806000806060858703121561537c578182fd5b84356001600160401b03811115615391578283fd5b61539d87828801615004565b90955093505060208501356153b181615ee1565b9396929550929360400135925050565b6000806000604084860312156153d5578081fd5b83356001600160401b038111156153ea578182fd5b6153f686828701615004565b909790965060209590950135949350505050565b6000806000806060858703121561541f578182fd5b84356001600160401b03811115615434578283fd5b61544087828801615004565b90989097506020870135966040013595509350505050565b60008060008060006080868803121561546f578283fd5b85356001600160401b03811115615484578384fd5b61549088828901615004565b9096509450506020860135925060408601356154ab81615f0c565b949793965091946060013592915050565b6000602082840312156154cd578081fd5b81356001600160401b038111156154e2578182fd5b6154ee84828501615043565b949350505050565b60008060408385031215615508578182fd5b82356001600160401b0381111561551d578283fd5b61552985828601615043565b925050602083013561553a81615ee1565b809150509250929050565b600080600060608486031215615559578081fd5b83356001600160401b0381111561556e578182fd5b61557a86828701615043565b935050602084013561558b81615ee1565b929592945050506040919091013590565b600080600080608085870312156155b1578182fd5b84356001600160401b038111156155c6578283fd5b6155d287828801615043565b94505060208501356155e381615ee1565b93969395505050506040820135916060013590565b60008060006060848603121561560c578081fd5b83356001600160401b03811115615621578182fd5b61562d86828701615043565b935050602084013561530d81615ee1565b60008060008060808587031215615653578182fd5b84356001600160401b03811115615668578283fd5b61567487828801615043565b945050602085013561568581615ee1565b9250604085013561569581615f0c565b9396929550929360600135925050565b600080604083850312156156b7578182fd5b82356001600160401b038111156156cc578283fd5b6156d885828601615043565b95602094909401359450505050565b600080600080608085870312156156fc578182fd5b84356001600160401b03811115615711578283fd5b61571d87828801615043565b94505060208501359250604085013561569581615f0c565b600060208284031215615746578081fd5b5051919050565b600080600060408486031215615761578081fd5b8335925060208401356001600160401b0381111561577d578182fd5b61578986828701615004565b9497909650939450505050565b600080600080606085870312156157ab578182fd5b8435935060208501356001600160401b038111156157c7578283fd5b6157d387828801615004565b9598909750949560400135949350505050565b600080604083850312156157f8578182fd5b505080516020909101519092909150565b60006020828403121561581a578081fd5b81516001600160401b0381168114614297578182fd5b600060208284031215615841578081fd5b813561429781615f0c565b60006020828403121561585d578081fd5b815161429781615f0c565b6000806040838503121561587a578182fd5b823561588581615f0c565b9150602083013561553a81615ee1565b6000806000606084860312156158a9578081fd5b83356158b481615f0c565b925060208401356158c481615ee1565b915060408401356001600160401b038111156158de578182fd5b8401601f810186136158ee578182fd5b6158fd86823560208401614f96565b9150509250925092565b60008060408385031215615919578182fd5b825161592481615f0c565b6020939093015192949293505050565b6000815180845261594c816020860160208601615e33565b601f01601f19169290920160200192915050565b81835281816020850137506000828201602090810191909152601f909101601f19169091010190565b6000825161599b818460208701615e33565b9190910192915050565b8183823760009101908152919050565b600083516159c7818460208801615e33565b8351908301906159db818360208801615e33565b01949350505050565b6001600160a01b03858116825284166020820152608060408201819052600090615a1090830185615934565b905082606083015295945050505050565b6001600160a01b03929092168252602082015260400190565b600060018060a01b03808716835285602084015260806040840152615a626080840186615934565b915080841660608401525095945050505050565b60018060a01b0385168152836020820152608060408201526000615a106080830185615934565b82151581526040602082015260006154ee6040830184615934565b63ffffffff60e01b831681526040602082015260006154ee6040830184615934565b6020815260006154ee602083018486615960565b606081526000615b02606083018688615960565b6001600160a01b03949094166020830152506040015292915050565b604081526000615b32604083018587615960565b90508215156020830152949350505050565b604081526000615b58604083018587615960565b9050826020830152949350505050565b606081526000615b7c606083018688615960565b60208301949094525090151560409091015292915050565b6020815260006142976020830184615934565b60208082526037908201527f526f7574657253796e63203a204f6e6c792047656e6572696348616e646c657260408201527f2063616e2063616c6c20746869732066756e6374696f6e000000000000000000606082015260800190565b6020808252602e908201527f496e697469616c697a61626c653a20636f6e747261637420697320616c72656160408201526d191e481a5b9a5d1a585b1a5e995960921b606082015260800190565b6020808252602b908201527f496e697469616c697a61626c653a20636f6e7472616374206973206e6f74206960408201526a6e697469616c697a696e6760a81b606082015260800190565b86815260ff861660208201526001600160a01b038516604082015260a060608201819052600090615cd19083018587615960565b905060ff83166080830152979650505050505050565b85815260ff851660208201526001600160a01b038416604082015260a060608201819052600090615d1a90830185615934565b90508260808301529695505050505050565b60ff8616815260a060208201526000615d4860a0830187615934565b60408301959095525060608101929092526001600160a01b031660809091015292915050565b604051601f8201601f191681016001600160401b0381118282101715615d9657615d96615ecb565b604052919050565b60006001600160401b03821115615db757615db7615ecb565b50601f01601f191660200190565b60008219821115615dd857615dd8615eb5565b500190565b600082615df857634e487b7160e01b81526012600452602481fd5b500490565b6000816000190483118215151615615e1757615e17615eb5565b500290565b600082821015615e2e57615e2e615eb5565b500390565b60005b83811015615e4e578181015183820152602001615e36565b838111156125335750506000910152565b600181811c90821680615e7357607f821691505b60208210811415615e9457634e487b7160e01b600052602260045260246000fd5b50919050565b6000600019821415615eae57615eae615eb5565b5060010190565b634e487b7160e01b600052601160045260246000fd5b634e487b7160e01b600052604160045260246000fd5b6001600160a01b0381168114611ea357600080fd5b6001600160e01b031981168114611ea357600080fd5b60ff81168114611ea357600080fdfea26469706673582212209899718e5d074c9a0e7e20d0af430bf2c88837c2d87f4142d18e49e637d83da264736f6c63430008040033",
  "linkReferences": {},
  "deployedLinkReferences": {}
}