{
  "_format": "hh-sol-artifact-1",
  "contractName": "BridgeUpgradeable",
  "sourceName": "contracts/BridgeUpgradeable.sol",
  "abi": [
    {
      "anonymous": false,
      "inputs": [
        {
          "indexed": false,
          "internalType": "uint256",
          "name": "transferIndex",
          "type": "uint256"
        },
        {
          "indexed": false,
          "internalType": "uint256",
          "name": "fromChainId",
          "type": "uint256"
        },
        {
          "indexed": false,
          "internalType": "uint256",
          "name": "toChainId",
          "type": "uint256"
        },
        {
          "indexed": false,
          "internalType": "address",
          "name": "account",
          "type": "address"
        },
        {
          "indexed": false,
          "internalType": "string",
          "name": "tokenTicker",
          "type": "string"
        },
        {
          "indexed": false,
          "internalType": "uint8",
          "name": "status",
          "type": "uint8"
        }
      ],
      "name": "BridgeTransactionEnd",
      "type": "event"
    },
    {
      "anonymous": false,
      "inputs": [
        {
          "indexed": false,
          "internalType": "uint256",
          "name": "transferIndex",
          "type": "uint256"
        },
        {
          "indexed": false,
          "internalType": "uint256",
          "name": "toChainId",
          "type": "uint256"
        },
        {
          "indexed": false,
          "internalType": "address",
          "name": "account",
          "type": "address"
        },
        {
          "indexed": false,
          "internalType": "string",
          "name": "tokenTicker",
          "type": "string"
        },
        {
          "indexed": false,
          "internalType": "uint256",
          "name": "noOfTokens",
          "type": "uint256"
        }
      ],
      "name": "BridgeTransactionInit",
      "type": "event"
    },
    {
      "anonymous": false,
      "inputs": [
        {
          "indexed": true,
          "internalType": "uint8",
          "name": "sourceChain",
          "type": "uint8"
        },
        {
          "indexed": true,
          "internalType": "uint8",
          "name": "destChain",
          "type": "uint8"
        },
        {
          "indexed": false,
          "internalType": "address",
          "name": "sourceAddress",
          "type": "address"
        }
      ],
      "name": "CrossTalkReceive",
      "type": "event"
    },
    {
      "anonymous": false,
      "inputs": [
        {
          "indexed": true,
          "internalType": "uint8",
          "name": "sourceChain",
          "type": "uint8"
        },
        {
          "indexed": true,
          "internalType": "uint8",
          "name": "destChain",
          "type": "uint8"
        },
        {
          "indexed": false,
          "internalType": "address",
          "name": "sourceAddress",
          "type": "address"
        },
        {
          "indexed": false,
          "internalType": "address",
          "name": "destinationAddress",
          "type": "address"
        },
        {
          "indexed": true,
          "internalType": "bytes4",
          "name": "_selector",
          "type": "bytes4"
        },
        {
          "indexed": false,
          "internalType": "bytes",
          "name": "_data",
          "type": "bytes"
        },
        {
          "indexed": false,
          "internalType": "bytes32",
          "name": "_hash",
          "type": "bytes32"
        }
      ],
      "name": "CrossTalkSend",
      "type": "event"
    },
    {
      "anonymous": false,
      "inputs": [
        {
          "indexed": false,
          "internalType": "uint8",
          "name": "version",
          "type": "uint8"
        }
      ],
      "name": "Initialized",
      "type": "event"
    },
    {
      "anonymous": false,
      "inputs": [
        {
          "indexed": true,
          "internalType": "uint8",
          "name": "ChainID",
          "type": "uint8"
        },
        {
          "indexed": true,
          "internalType": "address",
          "name": "linkedContract",
          "type": "address"
        }
      ],
      "name": "Linkevent",
      "type": "event"
    },
    {
      "anonymous": false,
      "inputs": [
        {
          "indexed": true,
          "internalType": "uint256",
          "name": "index",
          "type": "uint256"
        },
        {
          "indexed": true,
          "internalType": "address",
          "name": "account",
          "type": "address"
        },
        {
          "indexed": false,
          "internalType": "string",
          "name": "tokenTicker",
          "type": "string"
        },
        {
          "indexed": false,
          "internalType": "uint256",
          "name": "noOfTokens",
          "type": "uint256"
        }
      ],
      "name": "LiquidityAdded",
      "type": "event"
    },
    {
      "anonymous": false,
      "inputs": [
        {
          "indexed": true,
          "internalType": "uint256",
          "name": "index",
          "type": "uint256"
        },
        {
          "indexed": true,
          "internalType": "address",
          "name": "account",
          "type": "address"
        },
        {
          "indexed": false,
          "internalType": "string",
          "name": "tokenTicker",
          "type": "string"
        }
      ],
      "name": "LiquidityRemoved",
      "type": "event"
    },
    {
      "anonymous": false,
      "inputs": [
        {
          "indexed": true,
          "internalType": "address",
          "name": "previousOwner",
          "type": "address"
        },
        {
          "indexed": true,
          "internalType": "address",
          "name": "newOwner",
          "type": "address"
        }
      ],
      "name": "OwnershipTransferred",
      "type": "event"
    },
    {
      "anonymous": false,
      "inputs": [
        {
          "indexed": true,
          "internalType": "uint8",
          "name": "ChainID",
          "type": "uint8"
        },
        {
          "indexed": true,
          "internalType": "address",
          "name": "linkedContract",
          "type": "address"
        }
      ],
      "name": "Unlinkevent",
      "type": "event"
    },
    {
      "inputs": [
        {
          "internalType": "uint8",
          "name": "_chainID",
          "type": "uint8"
        },
        {
          "internalType": "address",
          "name": "_linkedContract",
          "type": "address"
        }
      ],
      "name": "Link",
      "outputs": [],
      "stateMutability": "nonpayable",
      "type": "function"
    },
    {
      "inputs": [
        {
          "internalType": "uint8",
          "name": "_chainID",
          "type": "uint8"
        }
      ],
      "name": "Unlink",
      "outputs": [],
      "stateMutability": "nonpayable",
      "type": "function"
    },
    {
      "inputs": [
        {
          "internalType": "string",
          "name": "_tokenTicker",
          "type": "string"
        }
      ],
      "name": "_addPassedEpochs",
      "outputs": [],
      "stateMutability": "nonpayable",
      "type": "function"
    },
    {
      "inputs": [
        {
          "internalType": "string",
          "name": "_tokenTicker",
          "type": "string"
        },
        {
          "internalType": "uint256",
          "name": "_noOfTokens",
          "type": "uint256"
        },
        {
          "internalType": "uint256",
          "name": "_noOfBoosters",
          "type": "uint256"
        }
      ],
      "name": "addLiquidity",
      "outputs": [],
      "stateMutability": "nonpayable",
      "type": "function"
    },
    {
      "inputs": [
        {
          "internalType": "address",
          "name": "_feeToken",
          "type": "address"
        },
        {
          "internalType": "uint256",
          "name": "_value",
          "type": "uint256"
        }
      ],
      "name": "approveRouterFee",
      "outputs": [],
      "stateMutability": "nonpayable",
      "type": "function"
    },
    {
      "inputs": [],
      "name": "boosterConfig",
      "outputs": [
        {
          "internalType": "address",
          "name": "tokenAddress",
          "type": "address"
        },
        {
          "internalType": "uint256",
          "name": "price",
          "type": "uint256"
        },
        {
          "internalType": "string",
          "name": "imageUrl",
          "type": "string"
        },
        {
          "internalType": "address",
          "name": "adminAccount",
          "type": "address"
        }
      ],
      "stateMutability": "view",
      "type": "function"
    },
    {
      "inputs": [],
      "name": "bridgeUtilsUpgradeable",
      "outputs": [
        {
          "internalType": "contract BridgeUtilsUpgradeable",
          "name": "",
          "type": "address"
        }
      ],
      "stateMutability": "view",
      "type": "function"
    },
    {
      "inputs": [
        {
          "internalType": "string",
          "name": "_tokenTicker",
          "type": "string"
        },
        {
          "internalType": "uint256",
          "name": "_index",
          "type": "uint256"
        },
        {
          "internalType": "uint256",
          "name": "_quantity",
          "type": "uint256"
        }
      ],
      "name": "buyBoosterPacks",
      "outputs": [],
      "stateMutability": "nonpayable",
      "type": "function"
    },
    {
      "inputs": [],
      "name": "chainId",
      "outputs": [
        {
          "internalType": "uint8",
          "name": "",
          "type": "uint8"
        }
      ],
      "stateMutability": "view",
      "type": "function"
    },
    {
      "inputs": [
        {
          "internalType": "address",
          "name": "_userAddress",
          "type": "address"
        },
        {
          "internalType": "uint256",
          "name": "_noOfTokens",
          "type": "uint256"
        },
        {
          "internalType": "string",
          "name": "_tokenTicker",
          "type": "string"
        },
        {
          "internalType": "uint256",
          "name": "_transferIndex",
          "type": "uint256"
        },
        {
          "internalType": "uint8",
          "name": "_fromChain",
          "type": "uint8"
        }
      ],
      "name": "createCrossChainTransferMapping",
      "outputs": [],
      "stateMutability": "nonpayable",
      "type": "function"
    },
    {
      "inputs": [],
      "name": "crossChainGas",
      "outputs": [
        {
          "internalType": "uint256",
          "name": "",
          "type": "uint256"
        }
      ],
      "stateMutability": "view",
      "type": "function"
    },
    {
      "inputs": [
        {
          "internalType": "uint256",
          "name": "_noOfTokens",
          "type": "uint256"
        },
        {
          "internalType": "string",
          "name": "_tokenTicker",
          "type": "string"
        },
        {
          "internalType": "uint256",
          "name": "_index",
          "type": "uint256"
        },
        {
          "internalType": "uint8",
          "name": "_fromChain",
          "type": "uint8"
        }
      ],
      "name": "crossChainTransferIn",
      "outputs": [],
      "stateMutability": "payable",
      "type": "function"
    },
    {
      "inputs": [
        {
          "internalType": "string",
          "name": "_tokenTicker",
          "type": "string"
        },
        {
          "internalType": "uint256",
          "name": "_noOfTokens",
          "type": "uint256"
        },
        {
          "internalType": "uint8",
          "name": "_toChainId",
          "type": "uint8"
        },
        {
          "internalType": "uint256",
          "name": "_gasPrice",
          "type": "uint256"
        }
      ],
      "name": "crossChainTransferOut",
      "outputs": [
        {
          "internalType": "bool",
          "name": "",
          "type": "bool"
        },
        {
          "internalType": "uint256",
          "name": "",
          "type": "uint256"
        }
      ],
      "stateMutability": "nonpayable",
      "type": "function"
    },
    {
      "inputs": [
        {
          "internalType": "string",
          "name": "",
          "type": "string"
        },
        {
          "internalType": "address",
          "name": "",
          "type": "address"
        }
      ],
      "name": "currentIndex",
      "outputs": [
        {
          "internalType": "uint256",
          "name": "",
          "type": "uint256"
        }
      ],
      "stateMutability": "view",
      "type": "function"
    },
    {
      "inputs": [
        {
          "internalType": "bytes32",
          "name": "",
          "type": "bytes32"
        }
      ],
      "name": "currentTransferIndex",
      "outputs": [
        {
          "internalType": "uint256",
          "name": "",
          "type": "uint256"
        }
      ],
      "stateMutability": "view",
      "type": "function"
    },
    {
      "inputs": [
        {
          "internalType": "string",
          "name": "_tokenTicker",
          "type": "string"
        },
        {
          "internalType": "address",
          "name": "_account",
          "type": "address"
        },
        {
          "internalType": "uint256",
          "name": "_index",
          "type": "uint256"
        },
        {
          "internalType": "uint256",
          "name": "epochIndex",
          "type": "uint256"
        }
      ],
      "name": "deleteHasBoosterMapping",
      "outputs": [],
      "stateMutability": "nonpayable",
      "type": "function"
    },
    {
      "inputs": [
        {
          "internalType": "string",
          "name": "",
          "type": "string"
        },
        {
          "internalType": "uint256",
          "name": "",
          "type": "uint256"
        }
      ],
      "name": "epochs",
      "outputs": [
        {
          "internalType": "uint256",
          "name": "startBlock",
          "type": "uint256"
        },
        {
          "internalType": "uint256",
          "name": "epochLength",
          "type": "uint256"
        },
        {
          "internalType": "uint256",
          "name": "totalFeesCollected",
          "type": "uint256"
        },
        {
          "internalType": "uint256",
          "name": "totalActiveLiquidity",
          "type": "uint256"
        },
        {
          "internalType": "uint256",
          "name": "noOfDepositors",
          "type": "uint256"
        }
      ],
      "stateMutability": "view",
      "type": "function"
    },
    {
      "inputs": [],
      "name": "feePoolUpgradeable",
      "outputs": [
        {
          "internalType": "contract FeePoolUpgradeable",
          "name": "",
          "type": "address"
        }
      ],
      "stateMutability": "view",
      "type": "function"
    },
    {
      "inputs": [
        {
          "internalType": "bytes32",
          "name": "hash",
          "type": "bytes32"
        }
      ],
      "name": "fetchExecutes",
      "outputs": [
        {
          "components": [
            {
              "internalType": "uint8",
              "name": "chainID",
              "type": "uint8"
            },
            {
              "internalType": "uint64",
              "name": "nonce",
              "type": "uint64"
            }
          ],
          "internalType": "struct iRouterCrossTalkUpgradeable.ExecutesStruct",
          "name": "",
          "type": "tuple"
        }
      ],
      "stateMutability": "view",
      "type": "function"
    },
    {
      "inputs": [],
      "name": "fetchFeeToken",
      "outputs": [
        {
          "internalType": "address",
          "name": "",
          "type": "address"
        }
      ],
      "stateMutability": "view",
      "type": "function"
    },
    {
      "inputs": [],
      "name": "fetchHandler",
      "outputs": [
        {
          "internalType": "address",
          "name": "",
          "type": "address"
        }
      ],
      "stateMutability": "view",
      "type": "function"
    },
    {
      "inputs": [
        {
          "internalType": "uint8",
          "name": "_chainID",
          "type": "uint8"
        }
      ],
      "name": "fetchLink",
      "outputs": [
        {
          "internalType": "address",
          "name": "",
          "type": "address"
        }
      ],
      "stateMutability": "view",
      "type": "function"
    },
    {
      "inputs": [],
      "name": "fetchLinkSetter",
      "outputs": [
        {
          "internalType": "address",
          "name": "",
          "type": "address"
        }
      ],
      "stateMutability": "view",
      "type": "function"
    },
    {
      "inputs": [],
      "name": "getBackNativeTokens",
      "outputs": [],
      "stateMutability": "nonpayable",
      "type": "function"
    },
    {
      "inputs": [
        {
          "internalType": "address",
          "name": "tokenAddress",
          "type": "address"
        }
      ],
      "name": "getBackTokens",
      "outputs": [],
      "stateMutability": "nonpayable",
      "type": "function"
    },
    {
      "inputs": [
        {
          "internalType": "string",
          "name": "_tokenTicker",
          "type": "string"
        }
      ],
      "name": "getEpochsLength",
      "outputs": [
        {
          "internalType": "uint256",
          "name": "",
          "type": "uint256"
        }
      ],
      "stateMutability": "view",
      "type": "function"
    },
    {
      "inputs": [
        {
          "internalType": "string",
          "name": "_tokenTicker",
          "type": "string"
        }
      ],
      "name": "getToken",
      "outputs": [
        {
          "internalType": "contract TokenUpgradeable",
          "name": "",
          "type": "address"
        }
      ],
      "stateMutability": "view",
      "type": "function"
    },
    {
      "inputs": [
        {
          "internalType": "string",
          "name": "",
          "type": "string"
        },
        {
          "internalType": "address",
          "name": "",
          "type": "address"
        },
        {
          "internalType": "uint256",
          "name": "",
          "type": "uint256"
        },
        {
          "internalType": "uint256",
          "name": "",
          "type": "uint256"
        }
      ],
      "name": "hasBooster",
      "outputs": [
        {
          "internalType": "bool",
          "name": "",
          "type": "bool"
        }
      ],
      "stateMutability": "view",
      "type": "function"
    },
    {
      "inputs": [
        {
          "internalType": "string",
          "name": "_tokenTicker",
          "type": "string"
        },
        {
          "internalType": "uint256",
          "name": "epochLength",
          "type": "uint256"
        }
      ],
      "name": "initNextEpochBlock",
      "outputs": [],
      "stateMutability": "nonpayable",
      "type": "function"
    },
    {
      "inputs": [
        {
          "internalType": "contract TokenBridgeRegistryUpgradeable",
          "name": "_tokenBridgeRegistryUpgradeable",
          "type": "address"
        },
        {
          "internalType": "address",
          "name": "_genericHandler",
          "type": "address"
        },
        {
          "internalType": "uint8",
          "name": "_chainId",
          "type": "uint8"
        }
      ],
      "name": "initialize",
      "outputs": [],
      "stateMutability": "nonpayable",
      "type": "function"
    },
    {
      "inputs": [
        {
          "internalType": "string",
          "name": "",
          "type": "string"
        },
        {
          "internalType": "address",
          "name": "",
          "type": "address"
        },
        {
          "internalType": "uint256",
          "name": "",
          "type": "uint256"
        }
      ],
      "name": "liquidityPosition",
      "outputs": [
        {
          "internalType": "uint256",
          "name": "depositedAmount",
          "type": "uint256"
        },
        {
          "internalType": "uint256",
          "name": "blockNo",
          "type": "uint256"
        },
        {
          "internalType": "uint256",
          "name": "claimedTillEpochIndex",
          "type": "uint256"
        },
        {
          "internalType": "uint256",
          "name": "epochStartIndex",
          "type": "uint256"
        },
        {
          "internalType": "uint256",
          "name": "epochStartBlock",
          "type": "uint256"
        },
        {
          "internalType": "uint256",
          "name": "boosterEndEpochIndex",
          "type": "uint256"
        },
        {
          "internalType": "uint256",
          "name": "startTimestamp",
          "type": "uint256"
        }
      ],
      "stateMutability": "view",
      "type": "function"
    },
    {
      "inputs": [],
      "name": "maxBips",
      "outputs": [
        {
          "internalType": "uint256",
          "name": "",
          "type": "uint256"
        }
      ],
      "stateMutability": "view",
      "type": "function"
    },
    {
      "inputs": [
        {
          "internalType": "string",
          "name": "",
          "type": "string"
        }
      ],
      "name": "nextEpochBlock",
      "outputs": [
        {
          "internalType": "uint256",
          "name": "",
          "type": "uint256"
        }
      ],
      "stateMutability": "view",
      "type": "function"
    },
    {
      "inputs": [],
      "name": "owner",
      "outputs": [
        {
          "internalType": "address",
          "name": "",
          "type": "address"
        }
      ],
      "stateMutability": "view",
      "type": "function"
    },
    {
      "inputs": [
        {
          "internalType": "uint256",
          "name": "_index",
          "type": "uint256"
        },
        {
          "internalType": "string",
          "name": "_tokenTicker",
          "type": "string"
        }
      ],
      "name": "removeLiquidity",
      "outputs": [],
      "stateMutability": "nonpayable",
      "type": "function"
    },
    {
      "inputs": [],
      "name": "renounceOwnership",
      "outputs": [],
      "stateMutability": "nonpayable",
      "type": "function"
    },
    {
      "inputs": [
        {
          "internalType": "bytes32",
          "name": "hash",
          "type": "bytes32"
        },
        {
          "internalType": "uint256",
          "name": "_crossChainGasPrice",
          "type": "uint256"
        }
      ],
      "name": "replayTransaction",
      "outputs": [],
      "stateMutability": "nonpayable",
      "type": "function"
    },
    {
      "inputs": [
        {
          "internalType": "uint8",
          "name": "srcChainID",
          "type": "uint8"
        },
        {
          "internalType": "address",
          "name": "srcAddress",
          "type": "address"
        },
        {
          "internalType": "bytes",
          "name": "data",
          "type": "bytes"
        }
      ],
      "name": "routerSync",
      "outputs": [
        {
          "internalType": "bool",
          "name": "",
          "type": "bool"
        },
        {
          "internalType": "bytes",
          "name": "",
          "type": "bytes"
        }
      ],
      "stateMutability": "nonpayable",
      "type": "function"
    },
    {
      "inputs": [
        {
          "internalType": "string",
          "name": "_tokenTicker",
          "type": "string"
        },
        {
          "internalType": "uint256",
          "name": "_noOfTokens",
          "type": "uint256"
        }
      ],
      "name": "safeWithdrawLiquidity",
      "outputs": [],
      "stateMutability": "nonpayable",
      "type": "function"
    },
    {
      "inputs": [
        {
          "internalType": "address",
          "name": "_feeAddress",
          "type": "address"
        }
      ],
      "name": "setFeeTokenAddress",
      "outputs": [],
      "stateMutability": "nonpayable",
      "type": "function"
    },
    {
      "inputs": [
        {
          "internalType": "address",
          "name": "_linker",
          "type": "address"
        }
      ],
      "name": "setLinker",
      "outputs": [],
      "stateMutability": "nonpayable",
      "type": "function"
    },
    {
      "inputs": [
        {
          "internalType": "bytes4",
          "name": "interfaceId",
          "type": "bytes4"
        }
      ],
      "name": "supportsInterface",
      "outputs": [
        {
          "internalType": "bool",
          "name": "",
          "type": "bool"
        }
      ],
      "stateMutability": "view",
      "type": "function"
    },
    {
      "inputs": [],
      "name": "tokenBridgeRegistryUpgradeable",
      "outputs": [
        {
          "internalType": "contract TokenBridgeRegistryUpgradeable",
          "name": "",
          "type": "address"
        }
      ],
      "stateMutability": "view",
      "type": "function"
    },
    {
      "inputs": [
        {
          "internalType": "string",
          "name": "",
          "type": "string"
        },
        {
          "internalType": "uint256",
          "name": "",
          "type": "uint256"
        }
      ],
      "name": "totalBoostedLiquidity",
      "outputs": [
        {
          "internalType": "uint256",
          "name": "",
          "type": "uint256"
        }
      ],
      "stateMutability": "view",
      "type": "function"
    },
    {
      "inputs": [
        {
          "internalType": "string",
          "name": "",
          "type": "string"
        }
      ],
      "name": "totalLiquidity",
      "outputs": [
        {
          "internalType": "uint256",
          "name": "",
          "type": "uint256"
        }
      ],
      "stateMutability": "view",
      "type": "function"
    },
    {
      "inputs": [
        {
          "internalType": "string",
          "name": "",
          "type": "string"
        }
      ],
      "name": "totalLpLiquidity",
      "outputs": [
        {
          "internalType": "uint256",
          "name": "",
          "type": "uint256"
        }
      ],
      "stateMutability": "view",
      "type": "function"
    },
    {
      "inputs": [
        {
          "internalType": "string",
          "name": "_tokenTicker",
          "type": "string"
        },
        {
          "internalType": "uint256",
          "name": "_noOfTokens",
          "type": "uint256"
        },
        {
          "internalType": "uint8",
          "name": "_toChainId",
          "type": "uint8"
        },
        {
          "internalType": "uint256",
          "name": "_gasPrice",
          "type": "uint256"
        }
      ],
      "name": "transferIn",
      "outputs": [
        {
          "internalType": "bool",
          "name": "",
          "type": "bool"
        },
        {
          "internalType": "uint256",
          "name": "",
          "type": "uint256"
        }
      ],
      "stateMutability": "nonpayable",
      "type": "function"
    },
    {
      "inputs": [
        {
          "internalType": "bytes32",
          "name": "",
          "type": "bytes32"
        }
      ],
      "name": "transferMapping",
      "outputs": [
        {
          "internalType": "uint256",
          "name": "",
          "type": "uint256"
        }
      ],
      "stateMutability": "view",
      "type": "function"
    },
    {
      "inputs": [
        {
          "internalType": "uint256",
          "name": "_noOfTokens",
          "type": "uint256"
        },
        {
          "internalType": "string",
          "name": "_tokenTicker",
          "type": "string"
        }
      ],
      "name": "transferOut",
      "outputs": [],
      "stateMutability": "payable",
      "type": "function"
    },
    {
      "inputs": [
        {
          "internalType": "address",
          "name": "newOwner",
          "type": "address"
        }
      ],
      "name": "transferOwnership",
      "outputs": [],
      "stateMutability": "nonpayable",
      "type": "function"
    },
    {
      "inputs": [
        {
          "internalType": "address",
          "name": "_adminAccount",
          "type": "address"
        },
        {
          "internalType": "address",
          "name": "_boosterToken",
          "type": "address"
        },
        {
          "internalType": "uint256",
          "name": "_perBoosterPrice",
          "type": "uint256"
        },
        {
          "internalType": "string",
          "name": "_imageUrl",
          "type": "string"
        }
      ],
      "name": "updateBoosterConfig",
      "outputs": [],
      "stateMutability": "nonpayable",
      "type": "function"
    },
    {
      "inputs": [
        {
          "internalType": "contract BridgeUtilsUpgradeable",
          "name": "_bridgeUtilsAddress",
          "type": "address"
        }
      ],
      "name": "updateBridgeUtilsAddress",
      "outputs": [],
      "stateMutability": "nonpayable",
      "type": "function"
    },
    {
      "inputs": [
        {
          "internalType": "uint256",
          "name": "_newGasAmount",
          "type": "uint256"
        }
      ],
      "name": "updateCrossChainGas",
      "outputs": [],
      "stateMutability": "nonpayable",
      "type": "function"
    },
    {
      "inputs": [
        {
          "internalType": "contract FeePoolUpgradeable",
          "name": "_feePoolAddress",
          "type": "address"
        }
      ],
      "name": "updateFeePoolAddress",
      "outputs": [],
      "stateMutability": "nonpayable",
      "type": "function"
    },
    {
      "inputs": [
        {
          "internalType": "uint256",
          "name": "_newMaxBips",
          "type": "uint256"
        }
      ],
      "name": "updateMaxBips",
      "outputs": [],
      "stateMutability": "nonpayable",
      "type": "function"
    },
    {
      "inputs": [
        {
          "internalType": "contract TokenBridgeRegistryUpgradeable",
          "name": "_registryAddress",
          "type": "address"
        }
      ],
      "name": "updateRegistryAddress",
      "outputs": [],
      "stateMutability": "nonpayable",
      "type": "function"
    },
    {
      "inputs": [
        {
          "internalType": "string",
          "name": "_tokenTicker",
          "type": "string"
        },
        {
          "internalType": "address",
          "name": "_account",
          "type": "address"
        },
        {
          "internalType": "uint256",
          "name": "_index",
          "type": "uint256"
        }
      ],
      "name": "updateRewardClaimedTillIndex",
      "outputs": [],
      "stateMutability": "nonpayable",
      "type": "function"
    },
    {
      "stateMutability": "payable",
      "type": "receive"
    }
  ],
  "bytecode": "0x608060405234801561001057600080fd5b50615fa680620000216000396000f3fe60806040526004361061037a5760003560e01c80638ae5d082116101d1578063d29bf32d11610102578063e8c594ba116100a0578063f2fde38b1161006f578063f2fde38b14610c7c578063f93dd87314610c9c578063fda8c7cd14610cd5578063fe9dc81a14610cf557600080fd5b8063e8c594ba14610bde578063ea043e2a14610bfe578063ee69786414610c37578063f25e42c014610c5c57600080fd5b8063da8d1548116100dc578063da8d154814610b37578063de915ea814610b65578063e08cc97114610b9e578063e3567aac14610bbe57600080fd5b8063d29bf32d14610a1f578063d8c7be7514610a68578063d93cc86614610b1757600080fd5b8063bff390a71161016f578063c97d67d411610149578063c97d67d4146109a1578063c9adbf82146109c1578063cc802048146109df578063cf351c1d146109ff57600080fd5b8063bff390a714610941578063c1733f6814610961578063c57a88251461098157600080fd5b8063907e76fc116101ab578063907e76fc146108bd5780639a8a0592146108dd5780639ff21ccf1461090a578063a0404e6e1461092157600080fd5b80638ae5d0821461086c5780638d208d751461088c5780638da5cb5b1461089f57600080fd5b80635a069b2e116102ab5780636edb7a3e116102495780637b6c98b2116102235780637b6c98b2146107de5780637d821df0146107fe57806380488f621461082c57806389232a001461084c57600080fd5b80636edb7a3e1461078b578063715018a6146107a9578063792f3230146107be57600080fd5b8063603b784011610285578063603b78401461070b57806367276acd1461072b5780636972bc501461074c5780636e2e8fe11461076a57600080fd5b80635a069b2e146106815780635d01eb0f146106ca5780635ec43b71146106ea57600080fd5b80631c58293f116103185780633fe00df1116102f25780633fe00df11461056c5780634158cc271461058c57806341afdc67146106195780634500fad91461063957600080fd5b80631c58293f146104cc5780633093becb146105275780633e27323d1461054c57600080fd5b806306d07c591161035457806306d07c59146104345780630a1ee81b146104625780630fe3f002146104755780631b5e4ea3146104ac57600080fd5b806301ffc9a7146103865780630500387f146103cc57806305d0dc261461041d57600080fd5b3661038157005b600080fd5b34801561039257600080fd5b506103b76103a1366004615301565b6001600160e01b0319166301ffc9a760e01b1490565b60405190151581526020015b60405180910390f35b3480156103d857600080fd5b506104056103e73660046157a4565b60ff166000908152609a60205260409020546001600160a01b031690565b6040516001600160a01b0390911681526020016103c3565b34801561042957600080fd5b50610432610d15565b005b34801561044057600080fd5b5061045461044f366004615809565b610daf565b6040516103c3929190615a2c565b6104326104703660046156b7565b610f68565b34801561048157600080fd5b5061049561049036600461545f565b6116cd565b6040805192151583526020830191909152016103c3565b3480156104b857600080fd5b506104326104c73660046150d3565b611a3a565b3480156104d857600080fd5b506103b76104e73660046155a3565b8351602081860181018051610101825292820196820196909620919095528452600092835260408084208552918352818320909352918152205460ff1681565b34801561053357600080fd5b5061053e61010a5481565b6040519081526020016103c3565b34801561055857600080fd5b506104326105673660046157dc565b611b39565b34801561057857600080fd5b506104326105873660046155ff565b611c4d565b34801561059857600080fd5b506105f26105a73660046152c8565b6040805180820190915260008082526020820152506000908152609b602090815260409182902082518084019093525460ff8116835261010090046001600160401b03169082015290565b60408051825160ff1681526020928301516001600160401b031692810192909252016103c3565b34801561062557600080fd5b50610432610634366004615204565b611cdc565b34801561064557600080fd5b506106596106543660046155ff565b611cf2565b604080519586526020860194909452928401919091526060830152608082015260a0016103c3565b34801561068d57600080fd5b5061053e61069c3660046155ff565b8151602081840181018051610105825292820194820194909420919093529091526000908152604090205481565b3480156106d657600080fd5b506104326106e53660046154c3565b611d50565b3480156106f657600080fd5b5061017654610405906001600160a01b031681565b34801561071757600080fd5b506104326107263660046152e0565b611d7a565b34801561073757600080fd5b5061017754610405906001600160a01b031681565b34801561075857600080fd5b506099546001600160a01b0316610405565b34801561077657600080fd5b5061017554610405906001600160a01b031681565b34801561079757600080fd5b506097546001600160a01b0316610405565b3480156107b557600080fd5b50610432611d90565b3480156107ca57600080fd5b506104326107d9366004615411565b611da4565b3480156107ea57600080fd5b506104326107f93660046152c8565b611ff6565b34801561080a57600080fd5b5061053e6108193660046152c8565b6101076020526000908152604090205481565b34801561083857600080fd5b506104326108473660046156b7565b612004565b34801561085857600080fd5b5061043261086736600461537e565b612307565b34801561087857600080fd5b506104326108873660046155a3565b612418565b61043261089a366004615700565b6124bf565b3480156108ab57600080fd5b506033546001600160a01b0316610405565b3480156108c957600080fd5b506104326108d83660046150d3565b61276b565b3480156108e957600080fd5b50610110546108f89060ff1681565b60405160ff90911681526020016103c3565b34801561091657600080fd5b5061053e61010b5481565b34801561092d57600080fd5b5061043261093c36600461522f565b612796565b34801561094d57600080fd5b5061043261095c366004615411565b612953565b34801561096d57600080fd5b5061040561097c3660046154c3565b61309e565b34801561098d57600080fd5b5061043261099c3660046150d3565b613172565b3480156109ad57600080fd5b506104326109bc36600461554c565b61319d565b3480156109cd57600080fd5b506098546001600160a01b0316610405565b3480156109eb57600080fd5b506104326109fa3660046153c8565b613259565b348015610a0b57600080fd5b50610432610a1a3660046150d3565b61333c565b348015610a2b57600080fd5b5061053e610a3a3660046154fd565b8151602081840181018051610102825292820194820194909420919093529091526000908152604090205481565b348015610a7457600080fd5b50610ae2610a8336600461554c565b825160208185018101805161010082529282019582019590952091909452835260009182526040808320909352815220805460018201546002830154600384015460048501546005860154600690960154949593949293919290919087565b604080519788526020880196909652948601939093526060850191909152608084015260a083015260c082015260e0016103c3565b348015610b2357600080fd5b50610495610b32366004615641565b613362565b348015610b4357600080fd5b5061053e610b523660046152c8565b6101066020526000908152604090205481565b348015610b7157600080fd5b5061053e610b803660046154c3565b80516020818301810180516101098252928201919093012091525481565b348015610baa57600080fd5b50610432610bb93660046150d3565b61355b565b348015610bca57600080fd5b5061053e610bd93660046154c3565b613586565b348015610bea57600080fd5b50610432610bf9366004615194565b6135af565b348015610c0a57600080fd5b5061053e610c193660046154c3565b80516020818301810180516101038252928201919093012091525481565b348015610c4357600080fd5b50610c4c61368c565b6040516103c394939291906159ae565b348015610c6857600080fd5b50610432610c773660046150d3565b613743565b348015610c8857600080fd5b50610432610c973660046150d3565b613769565b348015610ca857600080fd5b5061053e610cb73660046154c3565b80516020818301810180516101048252928201919093012091525481565b348015610ce157600080fd5b50610432610cf03660046152c8565b6137df565b348015610d0157600080fd5b50610432610d103660046157a4565b6137ed565b610d1d613887565b604051600090339047908381818185875af1925050503d8060008114610d5f576040519150601f19603f3d011682016040523d82523d6000602084013e610d64565b606091505b5050905080610dac5760405162461bcd60e51b815260206004820152600f60248201526e1514905394d1915497d19052531151608a1b60448201526064015b60405180910390fd5b50565b60ff83166000908152609a6020526040812054606090859085906001600160a01b03808316911614610e325760405162461bcd60e51b815260206004820152602660248201527f526f7574657253796e63203a20536f757263652041646472657373204e6f74206044820152651b1a5b9ad95960d21b6064820152608401610da3565b6097546001600160a01b0316336001600160a01b031614610e655760405162461bcd60e51b8152600401610da390615bf3565b609754604080516302cb03d960e61b815290516000926001600160a01b03169163b2c0f640916004808301926020929190829003018186803b158015610eaa57600080fd5b505afa158015610ebe573d6000803e3d6000fd5b505050506040513d601f19601f82011682018060405250810190610ee291906157c0565b905060008087806020019051810190610efb919061531d565b91509150600080610f0c84846138e1565b6040516001600160a01b038e168152919350915060ff80871691908e16907f4ef7c5e8df4a93d9634e83492a16efe750374905f02a02656e31369ff469ce3f9060200160405180910390a3909b909a5098505050505050505050565b81818080601f016020809104026020016040519081016040528093929190818152602001838380828437600092019190915250610faa92508391506139c79050565b610fe983838080601f016020809104026020016040519081016040528093929190818152602001838380828437600092019190915250613b1492505050565b600061104a61097c604051806040016040528060048152602001637365747560e01b81525086868080601f016020809104026020016040519081016040528093929190818152602001838380828437600092019190915250613ebf92505050565b9050600061108d85858080601f01602080910402602001604051908101604052809392919081815260200183838082843760009201919091525061309e92505050565b61017754604051632efff6cb60e01b81529192506000916001600160a01b0390911690632efff6cb906110c69089908990600401615a69565b60206040518083038186803b1580156110de57600080fd5b505afa1580156110f2573d6000803e3d6000fd5b505050506040513d601f19601f8201168201806040525081019061111691906157c0565b90506000610103878760405161112d929190615919565b908152604051908190036020019020549050878082101561114b5750805b60ff8316611318576000611160898984613eeb565b6040516306888c6760e11b81529091506001600160a01b03871690630d1118ce906111919033908690600401615995565b600060405180830381600087803b1580156111ab57600080fd5b505af11580156111bf573d6000803e3d6000fd5b50505050816101038a8a6040516111d7929190615919565b908152602001604051809103902060008282546111f49190615e71565b90915550506001600160a01b03851663a9059cbb336112138486615e71565b6040518363ffffffff1660e01b8152600401611230929190615995565b602060405180830381600087803b15801561124a57600080fd5b505af115801561125e573d6000803e3d6000fd5b505050506040513d601f19601f8201168201806040525081019061128291906152a8565b508015611312576101765460405163a9059cbb60e01b81526001600160a01b038781169263a9059cbb926112be92909116908590600401615995565b602060405180830381600087803b1580156112d857600080fd5b505af11580156112ec573d6000803e3d6000fd5b505050506040513d601f19601f8201168201806040525081019061131091906152a8565b505b506116c2565b8260ff16600114156116c257600061133189898c613eeb565b6040516306888c6760e11b81529091506001600160a01b03871690630d1118ce906113629033908e90600401615995565b600060405180830381600087803b15801561137c57600080fd5b505af1158015611390573d6000803e3d6000fd5b50505050816101038a8a6040516113a8929190615919565b908152602001604051809103902060008282546113c59190615e71565b90915550508082101561153d5760405163a9059cbb60e01b81526001600160a01b0386169063a9059cbb906114009033908690600401615995565b602060405180830381600087803b15801561141a57600080fd5b505af115801561142e573d6000803e3d6000fd5b505050506040513d601f19601f8201168201806040525081019061145291906152a8565b506001600160a01b03851663f0dda65c338361146e868f615e71565b6114789190615e71565b6040518363ffffffff1660e01b8152600401611495929190615995565b600060405180830381600087803b1580156114af57600080fd5b505af11580156114c3573d6000803e3d6000fd5b5050505060008111156115385761017654604051633c37699760e21b81526001600160a01b038781169263f0dda65c9261150592909116908590600401615995565b600060405180830381600087803b15801561151f57600080fd5b505af1158015611533573d6000803e3d6000fd5b505050505b6116c0565b80156115cc576101765460405163a9059cbb60e01b81526001600160a01b038781169263a9059cbb9261157892909116908590600401615995565b602060405180830381600087803b15801561159257600080fd5b505af11580156115a6573d6000803e3d6000fd5b505050506040513d601f19601f820116820180604052508101906115ca91906152a8565b505b6001600160a01b03851663a9059cbb336115e68486615e71565b6040518363ffffffff1660e01b8152600401611603929190615995565b602060405180830381600087803b15801561161d57600080fd5b505af1158015611631573d6000803e3d6000fd5b505050506040513d601f19601f8201168201806040525081019061165591906152a8565b506001600160a01b03851663f0dda65c33611670858e615e71565b6040518363ffffffff1660e01b815260040161168d929190615995565b600060405180830381600087803b1580156116a757600080fd5b505af11580156116bb573d6000803e3d6000fd5b505050505b505b505050505050505050565b60008086868080601f01602080910402602001604051908101604052809392919081815260200183838082843760009201919091525061171292508391506139c79050565b600061175389898080601f01602080910402602001604051908101604052809392919081815260200183838082843760009201919091525061309e92505050565b90506001600160a01b0381166323b872dd336040516001600160e01b031960e084901b1681526001600160a01b039091166004820152306024820152604481018a9052606401602060405180830381600087803b1580156117b357600080fd5b505af11580156117c7573d6000803e3d6000fd5b505050506040513d601f19601f820116820180604052508101906117eb91906152a8565b50600061184d61097c604051806040016040528060048152602001637365747560e01b8152508c8c8080601f016020809104026020016040519081016040528093929190818152602001838380828437600092019190915250613ebf92505050565b604051633c37699760e21b81529091506001600160a01b0382169063f0dda65c9061187e9033908c90600401615995565b600060405180830381600087803b15801561189857600080fd5b505af11580156118ac573d6000803e3d6000fd5b505061017754604051632efff6cb60e01b8152600093506001600160a01b039091169150632efff6cb906118e6908e908e90600401615a69565b60206040518083038186803b1580156118fe57600080fd5b505afa158015611912573d6000803e3d6000fd5b505050506040513d601f19601f8201168201806040525081019061193691906157c0565b905060ff811661197757886101038c8c604051611954929190615919565b908152602001604051809103902060008282546119719190615e1a565b90915550505b8060ff16600114156119e4576040516306888c6760e11b81526001600160a01b03841690630d1118ce906119b19033908d90600401615995565b600060405180830381600087803b1580156119cb57600080fd5b505af11580156119df573d6000803e3d6000fd5b505050505b611a288b8b8080601f0160208091040260200160405190810160405280939291908181526020018383808284376000920191909152508d92508c91508b9050613362565b95509550505050509550959350505050565b611a42613887565b6040516370a0823160e01b815230600482015281906001600160a01b0382169063a9059cbb90339083906370a082319060240160206040518083038186803b158015611a8d57600080fd5b505afa158015611aa1573d6000803e3d6000fd5b505050506040513d601f19601f82011682018060405250810190611ac5919061569f565b6040518363ffffffff1660e01b8152600401611ae2929190615995565b602060405180830381600087803b158015611afc57600080fd5b505af1158015611b10573d6000803e3d6000fd5b505050506040513d601f19601f82011682018060405250810190611b3491906152a8565b505050565b6097546001600160a01b0316336001600160a01b031614611b6c5760405162461bcd60e51b8152600401610da390615bf3565b60ff82166000908152609a602052604090205482906001600160a01b031615611bf15760405162461bcd60e51b815260206004820152603160248201527f526f7574657253796e63203a2043726f737320436861696e20436f6e747261636044820152701d081d1bc810da185a5b881251081cd95d607a1b6064820152608401610da3565b60ff83166000818152609a602052604080822080546001600160a01b0319166001600160a01b03871690811790915590519092917f53c7bf44dd47ad6fd3a8aac7c23d9ad4bddd7ec5889d7afef3450216586460a391a3505050565b610175546001600160a01b0316336001600160a01b031614611ca15760405162461bcd60e51b815260206004820152600d60248201526c4f4e4c595f524547495354525960981b6044820152606401610da3565b6001611cad8243615e1a565b611cb79190615e71565b61010983604051611cc891906158fd565b908152604051908190036020019020555050565b611ce4613887565b611cee8282614201565b5050565b8151602081840181018051610108825292820191850191909120919052805482908110611d1e57600080fd5b600091825260209091206005909102018054600182015460028301546003840154600490940154929550909350919085565b610176546001600160a01b0316336001600160a01b031614611d7157600080fd5b610dac81613b14565b611d82613887565b611cee8261010b5483614287565b611d98613887565b611da2600061431e565b565b83838080601f016020809104026020016040519081016040528093929190818152602001838380828437600092019190915250611de692508391506139c79050565b61010c546001600160a01b0316806323b872dd3361010f5461010d546001600160a01b0390911690611e19908890615e52565b6040516001600160e01b031960e086901b1681526001600160a01b0393841660048201529290911660248301526044820152606401602060405180830381600087803b158015611e6857600080fd5b505af1158015611e7c573d6000803e3d6000fd5b505050506040513d601f19601f82011682018060405250810190611ea091906152a8565b50611ee086868080601f016020809104026020016040519081016040528093929190818152602001838380828437600092019190915250613b1492505050565b60006101088787604051611ef5929190615919565b90815260405190819003602001902054611f10906001615e1a565b905060006101008888604051611f27929190615919565b90815260200160405180910390206000611f3e3390565b6001600160a01b03166001600160a01b031681526020019081526020016000206000878152602001908152602001600020905081816005015410611fbc57611f9d8888888885600501546001611f949190615e1a565b86546001614370565b84816005016000828254611fb19190615e1a565b90915550611fec9050565b611fd0888888888686600001546001614370565b6001611fdc8684615e1a565b611fe69190615e71565b60058201555b5050505050505050565b611ffe613887565b61010b55565b81818080601f01602080910402602001604051908101604052809392919081815260200183838082843760009201919091525061204692508391506139c79050565b61208583838080601f016020809104026020016040519081016040528093929190818152602001838380828437600092019190915250613b1492505050565b6000610100848460405161209a929190615919565b908152602001604051809103902060006120b13390565b6001600160a01b03168152602080820192909252604090810160009081208882528352819020815160e08101835281548082526001830154948201949094526002820154928101929092526003810154606083015260048101546080830152600581015460a08301526006015460c082015291506121645760405162461bcd60e51b815260206004820152601060248201526f24a72b20a624a22fa827a9a4aa24a7a760811b6044820152606401610da3565b60006121c561097c604051806040016040528060048152602001637365747560e01b81525087878080601f016020809104026020016040519081016040528093929190818152602001838380828437600092019190915250613ebf92505050565b825160405162c7a7a760e61b81529192506001600160a01b038316916331e9e9c0916121f691339190600401615995565b602060405180830381600087803b15801561221057600080fd5b505af1158015612224573d6000803e3d6000fd5b505050506040513d601f19601f8201168201806040525081019061224891906152a8565b50610176546001600160a01b03166360576b898686338a6040518563ffffffff1660e01b815260040161227e9493929190615a7d565b600060405180830381600087803b15801561229857600080fd5b505af11580156122ac573d6000803e3d6000fd5b505050506122bb868686614509565b336001600160a01b0316867f957c1066339fbc836e386f6a107e3ae614f2aabcd445bb2479f08232839adc9b87876040516122f7929190615a69565b60405180910390a3505050505050565b600054610100900460ff16158080156123275750600054600160ff909116105b806123415750303b158015612341575060005460ff166001145b61235d5760405162461bcd60e51b8152600401610da390615c50565b6000805460ff191660011790558015612380576000805461ff0019166101001790555b6123886148f1565b61239183614920565b61017580546001600160a01b0319166001600160a01b038616179055610110805460ff191660ff84161790556103e861010a55620f424061010b558015612412576000805461ff0019169055604051600181527f7f26b83ff96e1f2b6a682f133852f6798a09c465da95921460cefb38474024989060200160405180910390a15b50505050565b610176546001600160a01b0316336001600160a01b03161461246c5760405162461bcd60e51b815260206004820152600d60248201526c13d3931657d1915157d413d3d3609a1b6044820152606401610da3565b6101018460405161247d91906158fd565b90815260408051602092819003830190206001600160a01b03959095166000908152948252808520938552928152828420918452529020805460ff1916905550565b83838080601f01602080910402602001604051908101604052809392919081815260200183838082843760009201919091525061250192508391506139c79050565b60008585336101105460405161252694939291889160ff909116908a90602001615aeb565b60408051601f198184030181529181528151602092830120600081815261010690935291205490915061259b5760405162461bcd60e51b815260206004820152601b60248201527f5452414e534645525f4d415050494e475f4e4f545f45584953545300000000006044820152606401610da3565b600081815261010660205260409020548711156125fa5760405162461bcd60e51b815260206004820152601760248201527f4558434553535f544f4b454e535f5245515545535445440000000000000000006044820152606401610da3565b600061265b61097c604051806040016040528060048152602001637365747560e01b81525089898080601f016020809104026020016040519081016040528093929190818152602001838380828437600092019190915250613ebf92505050565b604051633c37699760e21b81529091506001600160a01b0382169063f0dda65c9061268c9033908c90600401615995565b600060405180830381600087803b1580156126a657600080fd5b505af11580156126ba573d6000803e3d6000fd5b50505060008381526101066020526040812080548b93509091906126df908490615e71565b90915550506000828152610106602052604090205461270957600082815261010660205260408120555b612714888888610f68565b610110547f3f42c5ea89da4edd124f493061b376639b7f0779f83c3835a335ace694baeae0908690869060ff16338b8b60036040516127599796959493929190615d2e565b60405180910390a15050505050505050565b612773613887565b61017780546001600160a01b0319166001600160a01b0392909216919091179055565b33301461280b5760405162461bcd60e51b815260206004820152603860248201527f526f7574657243726f737354616c6b203a2043616e206f6e6c7920626520636160448201527f6c6c65642062792043757272656e7420436f6e747261637400000000000000006064820152608401610da3565b6101105460405160009161282f91879187918b91879160ff90911690602001615aad565b60408051601f1981840301815291815281516020928301206000818152610107909352912054909150831461289f5760405162461bcd60e51b81526020600482015260166024820152750929cac82989288bea8a4829ca68c8aa4be929c888ab60531b6044820152606401610da3565b6101105460008281526101076020526040812080549192889288928c92889260ff90911691876128ce83615eef565b919050556040516020016128e796959493929190615aeb565b60408051601f1981840301815282825280516020918201206000818152610106909252919020899055610110549092507f3f42c5ea89da4edd124f493061b376639b7f0779f83c3835a335ace694baeae091612759918791879160ff16908d908c908c90600290615d2e565b83838080601f01602080910402602001604051908101604052809392919081815260200183838082843760009201919091525061299592508391506139c79050565b600083116129d85760405162461bcd60e51b815260206004820152601060248201526f04e4f5f4f465f544f4b454e53203e20360841b6044820152606401610da3565b612a1785858080601f016020809104026020016040519081016040528093929190818152602001838380828437600092019190915250613b1492505050565b6000600190506000806101088888604051612a33929190615919565b908152604051908190036020019020541115612b4f5760006101088888604051612a5e929190615919565b908152602001604051809103902060016101088a8a604051612a81929190615919565b90815260405190819003602001902054612a9b9190615e71565b81548110612ab957634e487b7160e01b600052603260045260246000fd5b90600052602060002090600502016040518060a00160405290816000820154815260200160018201548152602001600282015481526020016003820154815260200160048201548152505090506101088888604051612b19929190615919565b90815260405190819003602001902054612b34906001615e1a565b60208201518251919450612b4791615e1a565b915050612bd5565b610177546040516318565e0f60e01b81526001600160a01b03909116906318565e0f90612b82908a908a90600401615a69565b604080518083038186803b158015612b9957600080fd5b505afa158015612bad573d6000803e3d6000fd5b505050506040513d601f19601f82011682018060405250810190612bd1919061575a565b5090505b60006040518060e001604052808781526020014381526020016101088a8a604051612c01929190615919565b90815260200160405180910390208054905081526020018481526020018381526020016101088a8a604051612c37929190615919565b908152602001604051809103902080549050815260200142815250905060006101028989604051612c69929190615919565b90815260200160405180910390206000612c803390565b6001600160a01b0316815260208101919091526040016000908120805491612ca783615eef565b919050559050816101008a8a604051612cc1929190615919565b90815260200160405180910390206000612cd83390565b6001600160a01b0316815260208082019290925260409081016000908120858252835281902083518155918301516001830155828101516002830155606083015160038301556080830151600483015560a0830151600583015560c09092015160069091015551879061010390612d52908c908c90615919565b90815260200160405180910390206000828254612d6f9190615e1a565b92505081905550866101048a8a604051612d8a929190615919565b90815260200160405180910390206000828254612da79190615e1a565b909155505061017554604051633b6cb21560e21b81526001600160a01b039091169063edb2c85490612de2908c908c90600190600401615b2e565b600060405180830381600087803b158015612dfc57600080fd5b505af1158015612e10573d6000803e3d6000fd5b505050506000612e558a8a8080601f01602080910402602001604051908101604052809392919081815260200183838082843760009201919091525061309e92505050565b90506001600160a01b0381166323b872dd336040516001600160e01b031960e084901b1681526001600160a01b039091166004820152306024820152604481018b9052606401602060405180830381600087803b158015612eb557600080fd5b505af1158015612ec9573d6000803e3d6000fd5b505050506040513d601f19601f82011682018060405250810190612eed91906152a8565b506000612f4f61097c604051806040016040528060048152602001637365747560e01b8152508d8d8080601f016020809104026020016040519081016040528093929190818152602001838380828437600092019190915250613ebf92505050565b604051633c37699760e21b81529091506001600160a01b0382169063f0dda65c90612f809033908d90600401615995565b600060405180830381600087803b158015612f9a57600080fd5b505af1158015612fae573d6000803e3d6000fd5b50505050806001600160a01b031663b1c25586612fc83390565b8b6040518363ffffffff1660e01b8152600401612fe6929190615995565b602060405180830381600087803b15801561300057600080fd5b505af1158015613014573d6000803e3d6000fd5b505050506040513d601f19601f8201168201806040525081019061303891906152a8565b50871561304b5761304b8b8b858b611da4565b336001600160a01b0316837f9a4bd40884e6b582f1bcdde16a1c16eb99d827a988a328e89e83e42face98df38d8d8d60405161308993929190615b54565b60405180910390a35050505050505050505050565b61017754604051636204891b60e11b815260009182916001600160a01b039091169063c4091236906130d4908690600401615ba4565b60206040518083038186803b1580156130ec57600080fd5b505afa158015613100573d6000803e3d6000fd5b505050506040513d601f19601f8201168201806040525081019061312491906150ef565b90506001600160a01b03811661316c5760405162461bcd60e51b815260206004820152600d60248201526c24a72b20a624a22faa27a5a2a760991b6044820152606401610da3565b92915050565b61317a613887565b61017580546001600160a01b0319166001600160a01b0392909216919091179055565b610176546001600160a01b0316336001600160a01b0316146131f15760405162461bcd60e51b815260206004820152600d60248201526c13d3931657d1915157d413d3d3609a1b6044820152606401610da3565b6101088360405161320291906158fd565b9081526040519081900360200181205490610100906132229086906158fd565b90815260408051602092819003830190206001600160a01b0395909516600090815294825280852093855292905291206002015550565b613261613887565b60006132a284848080601f01602080910402602001604051908101604052809392919081815260200183838082843760009201919091525061309e92505050565b9050806001600160a01b031663a9059cbb6132c56033546001600160a01b031690565b846040518363ffffffff1660e01b81526004016132e3929190615995565b602060405180830381600087803b1580156132fd57600080fd5b505af1158015613311573d6000803e3d6000fd5b505050506040513d601f19601f8201168201806040525081019061333591906152a8565b5050505050565b613344613887565b609980546001600160a01b0319166001600160a01b03831617905550565b6000808561336f816139c7565b61337887613b14565b60006133a361097c604051806040016040528060048152602001637365747560e01b8152508a613ebf565b6040516306888c6760e11b81529091506001600160a01b03821690630d1118ce906133d49033908b90600401615995565b600060405180830381600087803b1580156133ee57600080fd5b505af1158015613402573d6000803e3d6000fd5b505050506000886134103390565b6101105460405161342b93929160ff16908b90602001615bb7565b60408051601f19818403018152918152815160209283012060008181526101079093529082208054919350909161346183615eef565b9091555060006134ce897fa0404e6edcba9f47e04f4f0818bb46c6dd0e727c95fab9eec093657693b04a51338d8f8761011060009054906101000a900460ff166040516020016134b59594939291906159ea565b60405160208183030381529060405261010b548c614a05565b5090508061350d5760405162461bcd60e51b815260206004820152600c60248201526b2927aaaa22a92fa2a92927a960a11b6044820152606401610da3565b7ff90be0cd8fe946e507d735bcb6c63e21b2c5cd668d8aa78a6679e46abc35e901828a338e8e604051613544959493929190615ce9565b60405180910390a19a909950975050505050505050565b613563613887565b61017680546001600160a01b0319166001600160a01b0392909216919091179055565b60006101088260405161359991906158fd565b9081526040519081900360200190205492915050565b6135b7613887565b6040518060800160405280856001600160a01b0316815260200184815260200183838080601f0160208091040260200160405190810160405280939291908181526020018383808284376000920191909152505050908252506001600160a01b03878116602092830152825161010c80546001600160a01b031916919092161781558282015161010d5560408301518051919261365b9261010e9290910190614f6e565b5060609190910151600390910180546001600160a01b0319166001600160a01b039092169190911790555050505050565b61010c805461010d5461010e80546001600160a01b039093169391926136b190615eb4565b80601f01602080910402602001604051908101604052809291908181526020018280546136dd90615eb4565b801561372a5780601f106136ff5761010080835404028352916020019161372a565b820191906000526020600020905b81548152906001019060200180831161370d57829003601f168201915b505050600390930154919250506001600160a01b031684565b61374b613887565b609880546001600160a01b0319166001600160a01b03831617905550565b613771613887565b6001600160a01b0381166137d65760405162461bcd60e51b815260206004820152602660248201527f4f776e61626c653a206e6577206f776e657220697320746865207a65726f206160448201526564647265737360d01b6064820152608401610da3565b610dac8161431e565b6137e7613887565b61010a55565b6097546001600160a01b0316336001600160a01b0316146138205760405162461bcd60e51b8152600401610da390615bf3565b60ff81166000818152609a60205260408082205490516001600160a01b0390911692917f566e5d71d4547dca8d21d2527ec375bb6ad1052ea20ab35c3f310aba1d6bc66b91a360ff166000908152609a6020526040902080546001600160a01b0319169055565b6033546001600160a01b03163314611da25760405162461bcd60e51b815260206004820181905260248201527f4f776e61626c653a2063616c6c6572206973206e6f7420746865206f776e65726044820152606401610da3565b60006060600080600080600087806020019051810190613901919061510b565b94509450945094509450600080306001600160a01b03168b88888888886040516024016139329594939291906159ea565b60408051601f198184030181529181526020820180516001600160e01b03166001600160e01b031990941693909317909252905161397091906158fd565b6000604051808303816000865af19150503d80600081146139ad576040519150601f19603f3d011682016040523d82523d6000602084013e6139b2565b606091505b509099509750505050505050505b9250929050565b61017560009054906101000a90046001600160a01b03166001600160a01b031663029a7ba66040518163ffffffff1660e01b815260040160206040518083038186803b158015613a1657600080fd5b505afa158015613a2a573d6000803e3d6000fd5b505050506040513d601f19601f82011682018060405250810190613a4e91906152a8565b8015613ad657506101775460405163d1ae6e2160e01b81526001600160a01b039091169063d1ae6e2190613a86908490600401615ba4565b60206040518083038186803b158015613a9e57600080fd5b505afa158015613ab2573d6000803e3d6000fd5b505050506040513d601f19601f82011682018060405250810190613ad691906152a8565b610dac5760405162461bcd60e51b815260206004820152600f60248201526e1094925111d157d11254d050931151608a1b6044820152606401610da3565b600080613b2083614bf1565b915091508160001415613b3257505050565b610177546040516318565e0f60e01b81526000916001600160a01b0316906318565e0f90613b64908790600401615ba4565b604080518083038186803b158015613b7b57600080fd5b505afa158015613b8f573d6000803e3d6000fd5b505050506040513d601f19601f82011682018060405250810190613bb3919061575a565b905080915050600061010485604051613bcc91906158fd565b908152604051908190036020018120546101775463139927bd60e21b83529092506000916001600160a01b0390911690634e649ef490613c10908990600401615ba4565b60206040518083038186803b158015613c2857600080fd5b505afa158015613c3c573d6000803e3d6000fd5b505050506040513d601f19601f82011682018060405250810190613c60919061569f565b905060005b613c70600187615e71565b811015613d2f5760006040518060a001604052808684613c909190615e52565b613c9a9089615e1a565b81526020018681526020016000815260200185815260200184815250905061010888604051613cc991906158fd565b90815260408051602092819003830190208054600180820183556000928352918490208551600590920201908155928401519083015582015160028201556060820151600382015560809091015160049091015580613d2781615eef565b915050613c65565b610176546040516320a359f560e11b81526000916001600160a01b031690634146b3ea90613d61908b90600401615ba4565b60206040518083038186803b158015613d7957600080fd5b505afa158015613d8d573d6000803e3d6000fd5b505050506040513d601f19601f82011682018060405250810190613db1919061569f565b905060006040518060a001604052808785613dcc9190615e52565b613dd6908a615e1a565b815260200187815260200183815260200186815260200185815250905061010889604051613e0491906158fd565b90815260408051602092819003830181208054600180820183556000928352918590208651600590920201908155938501519084015590830151600283015560608301516003830155608083015160049283015561017654633f96c4b960e21b82526001600160a01b03169163fe5b12e491613e82918d9101615ba4565b600060405180830381600087803b158015613e9c57600080fd5b505af1158015613eb0573d6000803e3d6000fd5b50505050505050505050505050565b60608282604051602001613ed4929190615929565b604051602081830303815290604052905092915050565b610177546040516339d7fa4360e21b81526000918291829182916001600160a01b039091169063e75fe90c90613f27908a908a90600401615a69565b604080518083038186803b158015613f3e57600080fd5b505afa158015613f52573d6000803e3d6000fd5b505050506040513d601f19601f82011682018060405250810190613f76919061587b565b909350915060ff83166141655781341015613fc75760405162461bcd60e51b8152602060048201526011602482015270494e53554646494349454e545f4645455360781b6044820152606401610da3565b610176546040516332ba05b560e21b81526001600160a01b039091169063cae816d490613fff908a908a908790600190600401615b78565b600060405180830381600087803b15801561401957600080fd5b505af115801561402d573d6000803e3d6000fd5b505061017654604051600093506001600160a01b03909116915084908381818185875af1925050503d8060008114614081576040519150601f19603f3d011682016040523d82523d6000602084013e614086565b606091505b50509050806140cd5760405162461bcd60e51b81526020600482015260136024820152721413d3d317d514905391915497d19052531151606a1b6044820152606401610da3565b336140d88434615e71565b604051600081818185875af1925050503d8060008114614114576040519150601f19603f3d011682016040523d82523d6000602084013e614119565b606091505b5050809150508061415f5760405162461bcd60e51b815260206004820152601060248201526f14d1539517d09050d2d7d1905253115160821b6044820152606401610da3565b506141f5565b8260ff16600114156141f55761010a5461417f8387615e52565b6141899190615e32565b610176546040516332ba05b560e21b81529192506001600160a01b03169063cae816d4906141c2908a908a908690600190600401615b78565b600060405180830381600087803b1580156141dc57600080fd5b505af11580156141f0573d6000803e3d6000fd5b505050505b925050505b9392505050565b60975460405163095ea7b360e01b815283916001600160a01b038084169263095ea7b3926142359216908690600401615995565b602060405180830381600087803b15801561424f57600080fd5b505af1158015614263573d6000803e3d6000fd5b505050506040513d601f19601f8201168201806040525081019061241291906152a8565b6097546000848152609b60205260409081902054905163f8d9a81360e01b815260ff821660048201526101009091046001600160401b0316602482015260448101849052606481018390526001600160a01b039091169063f8d9a81390608401600060405180830381600087803b15801561430157600080fd5b505af1158015614315573d6000803e3d6000fd5b50505050505050565b603380546001600160a01b038381166001600160a01b0319831681179093556040519116919082907f8be0079c531659141344cd1fd0a4f28419497f9722a3daafe3b4186f6b6457e090600090a35050565b825b600161437e8686615e1a565b6143889190615e71565b8111611fec57811561444d57600161010189896040516143a9929190615919565b908152602001604051809103902060006143c03390565b6001600160a01b03168152602080820192909252604090810160009081208a8252835281812085825290925290819020805460ff19169215159290921790915551839061010590614414908b908b90615919565b9081526020016040518091039020600083815260200190815260200160002060008282546144429190615e1a565b909155506144f79050565b6101018888604051614460929190615919565b908152602001604051809103902060006144773390565b6001600160a01b0316815260208082019290925260409081016000908120898252835281812084825290925290819020805460ff19169055518390610105906144c3908b908b90615919565b9081526020016040518091039020600083815260200190815260200160002060008282546144f19190615e71565b90915550505b8061450181615eef565b915050614372565b6000610103838360405161451e929190615919565b908152602001604051809103902054905060006101008484604051614544929190615919565b9081526020016040518091039020600061455b3390565b6001600160a01b03166001600160a01b03168152602001908152602001600020600086815260200190815260200160002090506000816000015490508061010486866040516145ab929190615919565b908152602001604051809103902060008282546145c89190615e71565b92505081905550600061010886866040516145e4929190615919565b908152604051908190036020019020546145ff906001615e1a565b905080836005015410614636576146368686898487600501546146229190615e71565b61462d906001615e1a565b85876000614370565b81841015614642578391505b60006146a361097c604051806040016040528060048152602001637365747560e01b81525089898080601f016020809104026020016040519081016040528093929190818152602001838380828437600092019190915250613ebf92505050565b6040516306888c6760e11b81529091506001600160a01b03821690630d1118ce906146d49033908790600401615995565b600060405180830381600087803b1580156146ee57600080fd5b505af1158015614702573d6000803e3d6000fd5b5050505082610103888860405161471a929190615919565b908152602001604051809103902060008282546147379190615e71565b909155505061017554604051633b6cb21560e21b81526001600160a01b039091169063edb2c85490614772908a908a90600090600401615b2e565b600060405180830381600087803b15801561478c57600080fd5b505af11580156147a0573d6000803e3d6000fd5b5050505060006147e588888080601f01602080910402602001604051908101604052809392919081815260200183838082843760009201919091525061309e92505050565b60405163a9059cbb60e01b81529091506001600160a01b0382169063a9059cbb906148169033908890600401615995565b602060405180830381600087803b15801561483057600080fd5b505af1158015614844573d6000803e3d6000fd5b505050506040513d601f19601f8201168201806040525081019061486891906152a8565b50610100888860405161487c929190615919565b908152602001604051809103902060006148933390565b6001600160a01b03168152602080820192909252604090810160009081209b81529a9091528920898155600181018a9055600281018a9055600381018a9055600481018a9055600581018a9055600601989098555050505050505050565b600054610100900460ff166149185760405162461bcd60e51b8152600401610da390615c9e565b611da2614e1c565b600054610100900460ff16158080156149405750600054600160ff909116105b8061495a5750303b15801561495a575060005460ff166001145b6149765760405162461bcd60e51b8152600401610da390615c50565b6000805460ff191660011790558015614999576000805461ff0019166101001790555b6149a1614e4c565b609780546001600160a01b0319166001600160a01b0384161790558015611cee576000805461ff0019169055604051600181527f7f26b83ff96e1f2b6a682f133852f6798a09c465da95921460cefb38474024989060200160405180910390a15050565b60ff85166000908152609a6020526040812054819087906001600160a01b0316614a975760405162461bcd60e51b815260206004820152603d60248201527f526f7574657243726f737354616c6b203a2043726f737320436861696e20436f60448201527f6e747261637420746f20436861696e204944206973206e6f74207365740000006064820152608401610da3565b60008787604051602001614aac929190615a47565b60408051601f1981840301815290829052609754609954639f77b1fb60e01b84529193506000926001600160a01b0391821692639f77b1fb92614afd928f9288928e928e9290911690600401615d81565b602060405180830381600087803b158015614b1757600080fd5b505af1158015614b2b573d6000803e3d6000fd5b505050506040513d601f19601f82011682018060405250810190614b4f919061577d565b6040805160ff8d811660208084018290526001600160401b038681168587018190528651808703880181526060870180895281519185019190912060a08801895294815260809096019081526000848152609b909352959091209351845495519091166101000268ffffffffffffffffff19909516921691909117929092179055909150614bdf8b8b8b84614e73565b60019b909a5098505050505050505050565b60008060008061010985604051614c0891906158fd565b908152602001604051809103902054431115614e1257610177546040516318565e0f60e01b815260009182916001600160a01b03909116906318565e0f90614c54908a90600401615ba4565b604080518083038186803b158015614c6b57600080fd5b505afa158015614c7f573d6000803e3d6000fd5b505050506040513d601f19601f82011682018060405250810190614ca3919061575a565b604051919350915060009061010890614cbd908a906158fd565b908152604051908190036020019020541115614db757600061010888604051614ce691906158fd565b908152602001604051809103902060016101088a604051614d0791906158fd565b90815260405190819003602001902054614d219190615e71565b81548110614d3f57634e487b7160e01b600052603260045260246000fd5b60009182526020918290206040805160a08101825260059093029091018054808452600182015494840185905260028201549284019290925260038101546060840152600401546080830152909250614d989190615e1a565b935081614da58543615e71565b614daf9190615e32565b945050614dd2565b80614dc28343615e71565b614dcc9190615e32565b93508192505b614ddc8185615e52565b61010988604051614ded91906158fd565b90815260200160405180910390206000828254614e0a9190615e1a565b909155505050505b9094909350915050565b600054610100900460ff16614e435760405162461bcd60e51b8152600401610da390615c9e565b611da23361431e565b600054610100900460ff16611da25760405162461bcd60e51b8152600401610da390615c9e565b826001600160e01b0319168460ff16609760009054906101000a90046001600160a01b03166001600160a01b031663b2c0f6406040518163ffffffff1660e01b815260040160206040518083038186803b158015614ed057600080fd5b505afa158015614ee4573d6000803e3d6000fd5b505050506040513d601f19601f82011682018060405250810190614f0891906157c0565b60ff8781166000908152609a60205260409081902054905192909116917f5577eec09aa2850627ee68188b4ade468b8d0e82083954ecb4928e85e3db9ad591614f609130916001600160a01b03169089908990615958565b60405180910390a450505050565b828054614f7a90615eb4565b90600052602060002090601f016020900481019282614f9c5760008555614fe2565b82601f10614fb557805160ff1916838001178555614fe2565b82800160010185558215614fe2579182015b82811115614fe2578251825591602001919060010190614fc7565b50614fee929150614ff2565b5090565b5b80821115614fee5760008155600101614ff3565b600061501a61501584615df3565b615dc3565b905082815283838301111561502e57600080fd5b828260208301376000602084830101529392505050565b600061505361501584615df3565b905082815283838301111561506757600080fd5b6141fa836020830184615e88565b60008083601f840112615086578182fd5b5081356001600160401b0381111561509c578182fd5b6020830191508360208285010111156139c057600080fd5b600082601f8301126150c4578081fd5b6141fa83833560208501615007565b6000602082840312156150e4578081fd5b81356141fa81615f36565b600060208284031215615100578081fd5b81516141fa81615f36565b600080600080600060a08688031215615122578081fd5b855161512d81615f36565b6020870151604088015191965094506001600160401b0381111561514f578182fd5b8601601f8101881361515f578182fd5b61516e88825160208401615045565b93505060608601519150608086015161518681615f61565b809150509295509295909350565b6000806000806000608086880312156151ab578081fd5b85356151b681615f36565b945060208601356151c681615f36565b93506040860135925060608601356001600160401b038111156151e7578182fd5b6151f388828901615075565b969995985093965092949392505050565b60008060408385031215615216578182fd5b823561522181615f36565b946020939093013593505050565b60008060008060008060a08789031215615247578384fd5b863561525281615f36565b95506020870135945060408701356001600160401b03811115615273578485fd5b61527f89828a01615075565b90955093505060608701359150608087013561529a81615f61565b809150509295509295509295565b6000602082840312156152b9578081fd5b815180151581146141fa578182fd5b6000602082840312156152d9578081fd5b5035919050565b600080604083850312156152f2578182fd5b50508035926020909101359150565b600060208284031215615312578081fd5b81356141fa81615f4b565b6000806040838503121561532f578182fd5b825161533a81615f4b565b60208401519092506001600160401b03811115615355578182fd5b8301601f81018513615365578182fd5b61537485825160208401615045565b9150509250929050565b600080600060608486031215615392578081fd5b833561539d81615f36565b925060208401356153ad81615f36565b915060408401356153bd81615f61565b809150509250925092565b6000806000604084860312156153dc578081fd5b83356001600160401b038111156153f1578182fd5b6153fd86828701615075565b909790965060209590950135949350505050565b60008060008060608587031215615426578182fd5b84356001600160401b0381111561543b578283fd5b61544787828801615075565b90989097506020870135966040013595509350505050565b600080600080600060808688031215615476578283fd5b85356001600160401b0381111561548b578384fd5b61549788828901615075565b9096509450506020860135925060408601356154b281615f61565b949793965091946060013592915050565b6000602082840312156154d4578081fd5b81356001600160401b038111156154e9578182fd5b6154f5848285016150b4565b949350505050565b6000806040838503121561550f578182fd5b82356001600160401b03811115615524578283fd5b615530858286016150b4565b925050602083013561554181615f36565b809150509250929050565b600080600060608486031215615560578081fd5b83356001600160401b03811115615575578182fd5b615581868287016150b4565b935050602084013561559281615f36565b929592945050506040919091013590565b600080600080608085870312156155b8578182fd5b84356001600160401b038111156155cd578283fd5b6155d9878288016150b4565b94505060208501356155ea81615f36565b93969395505050506040820135916060013590565b60008060408385031215615611578182fd5b82356001600160401b03811115615626578283fd5b615632858286016150b4565b95602094909401359450505050565b60008060008060808587031215615656578182fd5b84356001600160401b0381111561566b578283fd5b615677878288016150b4565b94505060208501359250604085013561568f81615f61565b9396929550929360600135925050565b6000602082840312156156b0578081fd5b5051919050565b6000806000604084860312156156cb578081fd5b8335925060208401356001600160401b038111156156e7578182fd5b6156f386828701615075565b9497909650939450505050565b600080600080600060808688031215615717578283fd5b8535945060208601356001600160401b03811115615733578384fd5b61573f88828901615075565b90955093505060408601359150606086013561518681615f61565b6000806040838503121561576c578182fd5b505080516020909101519092909150565b60006020828403121561578e578081fd5b81516001600160401b03811681146141fa578182fd5b6000602082840312156157b5578081fd5b81356141fa81615f61565b6000602082840312156157d1578081fd5b81516141fa81615f61565b600080604083850312156157ee578182fd5b82356157f981615f61565b9150602083013561554181615f36565b60008060006060848603121561581d578081fd5b833561582881615f61565b9250602084013561583881615f36565b915060408401356001600160401b03811115615852578182fd5b8401601f81018613615862578182fd5b61587186823560208401615007565b9150509250925092565b6000806040838503121561588d578182fd5b825161589881615f61565b6020939093015192949293505050565b600081518084526158c0816020860160208601615e88565b601f01601f19169290920160200192915050565b81835281816020850137506000828201602090810191909152601f909101601f19169091010190565b6000825161590f818460208701615e88565b9190910192915050565b8183823760009101908152919050565b6000835161593b818460208801615e88565b83519083019061594f818360208801615e88565b01949350505050565b6001600160a01b03858116825284166020820152608060408201819052600090615984908301856158a8565b905082606083015295945050505050565b6001600160a01b03929092168252602082015260400190565b600060018060a01b038087168352856020840152608060408401526159d660808401866158a8565b915080841660608401525095945050505050565b60018060a01b038616815284602082015260a060408201526000615a1160a08301866158a8565b905083606083015260ff831660808301529695505050505050565b82151581526040602082015260006154f560408301846158a8565b63ffffffff60e01b831681526040602082015260006154f560408301846158a8565b6020815260006154f56020830184866158d4565b606081526000615a916060830186886158d4565b6001600160a01b03949094166020830152506040015292915050565b608081526000615ac16080830187896158d4565b6001600160a01b039590951660208301525060ff9283166040820152911660609091015292915050565b60a081526000615aff60a08301888a6158d4565b6001600160a01b039690961660208301525060ff93841660408201529190921660608201526080015292915050565b604081526000615b426040830185876158d4565b90508215156020830152949350505050565b604081526000615b686040830185876158d4565b9050826020830152949350505050565b606081526000615b8c6060830186886158d4565b60208301949094525090151560409091015292915050565b6020815260006141fa60208301846158a8565b608081526000615bca60808301876158a8565b6001600160a01b039590951660208301525060ff92831660408201529116606090910152919050565b60208082526037908201527f526f7574657253796e63203a204f6e6c792047656e6572696348616e646c657260408201527f2063616e2063616c6c20746869732066756e6374696f6e000000000000000000606082015260800190565b6020808252602e908201527f496e697469616c697a61626c653a20636f6e747261637420697320616c72656160408201526d191e481a5b9a5d1a585b1a5e995960921b606082015260800190565b6020808252602b908201527f496e697469616c697a61626c653a20636f6e7472616374206973206e6f74206960408201526a6e697469616c697a696e6760a81b606082015260800190565b85815260ff851660208201526001600160a01b038416604082015260a060608201819052600090615d1c908301856158a8565b90508260808301529695505050505050565b87815260ff8781166020830152861660408201526001600160a01b038516606082015260c060808201819052600090615d6a90830185876158d4565b905060ff831660a083015298975050505050505050565b60ff8616815260a060208201526000615d9d60a08301876158a8565b60408301959095525060608101929092526001600160a01b031660809091015292915050565b604051601f8201601f191681016001600160401b0381118282101715615deb57615deb615f20565b604052919050565b60006001600160401b03821115615e0c57615e0c615f20565b50601f01601f191660200190565b60008219821115615e2d57615e2d615f0a565b500190565b600082615e4d57634e487b7160e01b81526012600452602481fd5b500490565b6000816000190483118215151615615e6c57615e6c615f0a565b500290565b600082821015615e8357615e83615f0a565b500390565b60005b83811015615ea3578181015183820152602001615e8b565b838111156124125750506000910152565b600181811c90821680615ec857607f821691505b60208210811415615ee957634e487b7160e01b600052602260045260246000fd5b50919050565b6000600019821415615f0357615f03615f0a565b5060010190565b634e487b7160e01b600052601160045260246000fd5b634e487b7160e01b600052604160045260246000fd5b6001600160a01b0381168114610dac57600080fd5b6001600160e01b031981168114610dac57600080fd5b60ff81168114610dac57600080fdfea26469706673582212203dd0daeee86266ee9577836ff39076a2db3c2bd94041b55c151e3d725b797e8564736f6c63430008040033",
  "linkReferences": {},
  "deployedLinkReferences": {}
}