{
  "_format": "hh-sol-artifact-1",
  "contractName": "FeePoolUpgradeable",
  "sourceName": "contracts/FeePoolUpgradeable.sol",
  "abi": [
    {
      "anonymous": false,
      "inputs": [
        {
          "indexed": true,
          "internalType": "uint256",
          "name": "index",
          "type": "uint256"
        },
        {
          "indexed": true,
          "internalType": "address",
          "name": "account",
          "type": "address"
        },
        {
          "indexed": false,
          "internalType": "string",
          "name": "tokenTicker",
          "type": "string"
        },
        {
          "indexed": false,
          "internalType": "uint256",
          "name": "noOfTokens",
          "type": "uint256"
        },
        {
          "indexed": false,
          "internalType": "uint256",
          "name": "claimTimestamp",
          "type": "uint256"
        }
      ],
      "name": "ClaimedRewards",
      "type": "event"
    },
    {
      "anonymous": false,
      "inputs": [
        {
          "indexed": false,
          "internalType": "uint8",
          "name": "version",
          "type": "uint8"
        }
      ],
      "name": "Initialized",
      "type": "event"
    },
    {
      "anonymous": false,
      "inputs": [
        {
          "indexed": true,
          "internalType": "address",
          "name": "previousOwner",
          "type": "address"
        },
        {
          "indexed": true,
          "internalType": "address",
          "name": "newOwner",
          "type": "address"
        }
      ],
      "name": "OwnershipTransferred",
      "type": "event"
    },
    {
      "inputs": [
        {
          "internalType": "string",
          "name": "",
          "type": "string"
        }
      ],
      "name": "adminClaimedTillEpoch",
      "outputs": [
        {
          "internalType": "uint256",
          "name": "",
          "type": "uint256"
        }
      ],
      "stateMutability": "view",
      "type": "function"
    },
    {
      "inputs": [],
      "name": "bridgeUpgradeable",
      "outputs": [
        {
          "internalType": "contract BridgeUpgradeable",
          "name": "",
          "type": "address"
        }
      ],
      "stateMutability": "view",
      "type": "function"
    },
    {
      "inputs": [],
      "name": "bridgeUtilsUpgradeable",
      "outputs": [
        {
          "internalType": "contract BridgeUtilsUpgradeable",
          "name": "",
          "type": "address"
        }
      ],
      "stateMutability": "view",
      "type": "function"
    },
    {
      "inputs": [
        {
          "internalType": "string",
          "name": "_tokenTicker",
          "type": "string"
        },
        {
          "internalType": "uint256",
          "name": "_index",
          "type": "uint256"
        }
      ],
      "name": "claimFeeShare",
      "outputs": [],
      "stateMutability": "nonpayable",
      "type": "function"
    },
    {
      "inputs": [
        {
          "internalType": "string",
          "name": "",
          "type": "string"
        }
      ],
      "name": "feesInCurrentEpoch",
      "outputs": [
        {
          "internalType": "uint256",
          "name": "",
          "type": "uint256"
        }
      ],
      "stateMutability": "view",
      "type": "function"
    },
    {
      "inputs": [
        {
          "internalType": "string",
          "name": "_tokenTicker",
          "type": "string"
        }
      ],
      "name": "getAdminTokenFees",
      "outputs": [
        {
          "internalType": "uint256",
          "name": "",
          "type": "uint256"
        }
      ],
      "stateMutability": "view",
      "type": "function"
    },
    {
      "inputs": [
        {
          "internalType": "string",
          "name": "_tokenTicker",
          "type": "string"
        }
      ],
      "name": "getLastEpochLpFees",
      "outputs": [
        {
          "internalType": "uint256",
          "name": "",
          "type": "uint256"
        }
      ],
      "stateMutability": "view",
      "type": "function"
    },
    {
      "inputs": [
        {
          "internalType": "string",
          "name": "_tokenTicker",
          "type": "string"
        },
        {
          "internalType": "address",
          "name": "_account",
          "type": "address"
        },
        {
          "internalType": "uint256",
          "name": "_index",
          "type": "uint256"
        }
      ],
      "name": "getUserConfirmedRewards",
      "outputs": [
        {
          "internalType": "uint256",
          "name": "",
          "type": "uint256"
        }
      ],
      "stateMutability": "view",
      "type": "function"
    },
    {
      "inputs": [
        {
          "internalType": "string",
          "name": "_tokenTicker",
          "type": "string"
        },
        {
          "internalType": "address",
          "name": "_account",
          "type": "address"
        },
        {
          "internalType": "uint256",
          "name": "_index",
          "type": "uint256"
        }
      ],
      "name": "getUserUnconfirmedRewards",
      "outputs": [
        {
          "internalType": "uint256",
          "name": "",
          "type": "uint256"
        }
      ],
      "stateMutability": "view",
      "type": "function"
    },
    {
      "inputs": [
        {
          "internalType": "contract TokenBridgeRegistryUpgradeable",
          "name": "_tokenBridgeRegistryUpgradeable",
          "type": "address"
        },
        {
          "internalType": "contract BridgeUpgradeable",
          "name": "_bridgeUpgradeable",
          "type": "address"
        }
      ],
      "name": "initialize",
      "outputs": [],
      "stateMutability": "nonpayable",
      "type": "function"
    },
    {
      "inputs": [],
      "name": "owner",
      "outputs": [
        {
          "internalType": "address",
          "name": "",
          "type": "address"
        }
      ],
      "stateMutability": "view",
      "type": "function"
    },
    {
      "inputs": [],
      "name": "renounceOwnership",
      "outputs": [],
      "stateMutability": "nonpayable",
      "type": "function"
    },
    {
      "inputs": [
        {
          "internalType": "string",
          "name": "_tokenTicker",
          "type": "string"
        }
      ],
      "name": "resetFeesInCurrentEpoch",
      "outputs": [],
      "stateMutability": "nonpayable",
      "type": "function"
    },
    {
      "inputs": [],
      "name": "tokenBridgeRegistryUpgradeable",
      "outputs": [
        {
          "internalType": "contract TokenBridgeRegistryUpgradeable",
          "name": "",
          "type": "address"
        }
      ],
      "stateMutability": "view",
      "type": "function"
    },
    {
      "inputs": [
        {
          "internalType": "string",
          "name": "",
          "type": "string"
        }
      ],
      "name": "totalFees",
      "outputs": [
        {
          "internalType": "uint256",
          "name": "",
          "type": "uint256"
        }
      ],
      "stateMutability": "view",
      "type": "function"
    },
    {
      "inputs": [
        {
          "internalType": "string",
          "name": "_tokenTicker",
          "type": "string"
        },
        {
          "internalType": "address",
          "name": "_account",
          "type": "address"
        },
        {
          "internalType": "uint256",
          "name": "_index",
          "type": "uint256"
        }
      ],
      "name": "transferLpFee",
      "outputs": [],
      "stateMutability": "nonpayable",
      "type": "function"
    },
    {
      "inputs": [
        {
          "internalType": "address",
          "name": "newOwner",
          "type": "address"
        }
      ],
      "name": "transferOwnership",
      "outputs": [],
      "stateMutability": "nonpayable",
      "type": "function"
    },
    {
      "inputs": [
        {
          "internalType": "contract BridgeUpgradeable",
          "name": "_newInstance",
          "type": "address"
        }
      ],
      "name": "updateBridgeUpgradeableAddress",
      "outputs": [],
      "stateMutability": "nonpayable",
      "type": "function"
    },
    {
      "inputs": [
        {
          "internalType": "contract BridgeUtilsUpgradeable",
          "name": "_newInstance",
          "type": "address"
        }
      ],
      "name": "updateBridgeUtilsUpgradeableAddress",
      "outputs": [],
      "stateMutability": "nonpayable",
      "type": "function"
    },
    {
      "inputs": [
        {
          "internalType": "contract TokenBridgeRegistryUpgradeable",
          "name": "_newInstance",
          "type": "address"
        }
      ],
      "name": "updateTokenBridgeRegistryAddress",
      "outputs": [],
      "stateMutability": "nonpayable",
      "type": "function"
    },
    {
      "inputs": [
        {
          "internalType": "string",
          "name": "_tokenTicker",
          "type": "string"
        },
        {
          "internalType": "uint256",
          "name": "feesEarned",
          "type": "uint256"
        },
        {
          "internalType": "bool",
          "name": "_isAddingFees",
          "type": "bool"
        }
      ],
      "name": "updateTotalFees",
      "outputs": [],
      "stateMutability": "nonpayable",
      "type": "function"
    },
    {
      "inputs": [],
      "name": "withdrawAdminAllTokenFees",
      "outputs": [],
      "stateMutability": "nonpayable",
      "type": "function"
    },
    {
      "inputs": [
        {
          "internalType": "string",
          "name": "_tokenTicker",
          "type": "string"
        }
      ],
      "name": "withdrawAdminTokenFees",
      "outputs": [],
      "stateMutability": "nonpayable",
      "type": "function"
    },
    {
      "stateMutability": "payable",
      "type": "receive"
    }
  ],
  "bytecode": "0x608060405234801561001057600080fd5b50613208806100206000396000f3fe6080604052600436106101435760003560e01c8063b3b4e917116100b6578063de4c82721161006f578063de4c8272146103bf578063ee2a752b146103df578063f1bcba0a146103f4578063f2fde38b1461042c578063fc901f741461044c578063fe5b12e41461046c57600080fd5b8063b3b4e917146102ff578063c92f86e41461031f578063cae816d41461033f578063d178bdc01461035f578063d33ad0301461037f578063d7b55c3b1461039f57600080fd5b806360576b891161010857806360576b891461023457806365af68841461025457806367276acd146102745780636e2e8fe1146102ac578063715018a6146102cc5780638da5cb5b146102e157600080fd5b8062e79e5c1461014f5780634146b3ea1461017157806347be423c146101bc578063485cc955146101f4578063489acb011461021457600080fd5b3661014a57005b600080fd5b34801561015b57600080fd5b5061016f61016a366004612a7e565b61048c565b005b34801561017d57600080fd5b506101a961018c366004612cb3565b8051602081830181018051606a8252928201919093012091525481565b6040519081526020015b60405180910390f35b3480156101c857600080fd5b506101a96101d7366004612cb3565b805160208183018101805160688252928201919093012091525481565b34801561020057600080fd5b5061016f61020f366004612b78565b6104b6565b34801561022057600080fd5b5061016f61022f366004612cb3565b6105fe565b34801561024057600080fd5b5061016f61024f366004612ce6565b61098c565b34801561026057600080fd5b506101a961026f366004612ce6565b610ca8565b34801561028057600080fd5b50606754610294906001600160a01b031681565b6040516001600160a01b0390911681526020016101b3565b3480156102b857600080fd5b50606554610294906001600160a01b031681565b3480156102d857600080fd5b5061016f610e46565b3480156102ed57600080fd5b506033546001600160a01b0316610294565b34801561030b57600080fd5b5061016f61031a366004612c0c565b610e5a565b34801561032b57600080fd5b5061016f61033a366004612a7e565b6112bd565b34801561034b57600080fd5b5061016f61035a366004612c56565b6112e7565b34801561036b57600080fd5b506101a961037a366004612cb3565b6113cd565b34801561038b57600080fd5b506101a961039a366004612ce6565b61166f565b3480156103ab57600080fd5b5061016f6103ba366004612a7e565b6118b0565b3480156103cb57600080fd5b506101a96103da366004612cb3565b6118da565b3480156103eb57600080fd5b5061016f611b19565b34801561040057600080fd5b506101a961040f366004612cb3565b805160208183018101805160698252928201919093012091525481565b34801561043857600080fd5b5061016f610447366004612a7e565b611bf5565b34801561045857600080fd5b50606654610294906001600160a01b031681565b34801561047857600080fd5b5061016f610487366004612bcc565b611c6e565b610494611cc9565b606680546001600160a01b0319166001600160a01b0392909216919091179055565b600054610100900460ff16158080156104d65750600054600160ff909116105b806104f05750303b1580156104f0575060005460ff166001145b6105585760405162461bcd60e51b815260206004820152602e60248201527f496e697469616c697a61626c653a20636f6e747261637420697320616c72656160448201526d191e481a5b9a5d1a585b1a5e995960921b60648201526084015b60405180910390fd5b6000805460ff19166001179055801561057b576000805461ff0019166101001790555b610583611d23565b606580546001600160a01b038086166001600160a01b031992831617909255606680549285169290911691909117905580156105f9576000805461ff0019169055604051600181527f7f26b83ff96e1f2b6a682f133852f6798a09c465da95921460cefb38474024989060200160405180910390a15b505050565b610606611cc9565b606654604051635d01eb0f60e01b81526001600160a01b0390911690635d01eb0f90610636908490600401612f40565b600060405180830381600087803b15801561065057600080fd5b505af1158015610664573d6000803e3d6000fd5b505050506000610673826113cd565b9050806068836040516106869190612e7f565b908152602001604051809103902060008282546106a39190613125565b90915550506066546040516338d59eab60e21b81526001600160a01b039091169063e3567aac906106d8908590600401612f40565b60206040518083038186803b1580156106f057600080fd5b505afa158015610704573d6000803e3d6000fd5b505050506040513d601f19601f820116820180604052508101906107289190612d3e565b6069836040516107389190612e7f565b908152604051908190036020018120919091556067546339d7fa4360e21b82526000916001600160a01b039091169063e75fe90c9061077b908690600401612f40565b604080518083038186803b15801561079257600080fd5b505afa1580156107a6573d6000803e3d6000fd5b505050506040513d601f19601f820116820180604052508101906107ca9190612de8565b50905060ff811661086657604051600090339084908381818185875af1925050503d8060008114610817576040519150601f19603f3d011682016040523d82523d6000602084013e61081c565b606091505b50509050806108605760405162461bcd60e51b815260206004820152601060248201526f10d310525357d1915157d1905253115160821b604482015260640161054f565b50505050565b8060ff16600114156105f95760665460405163182e67ed60e31b81526000916001600160a01b03169063c1733f68906108a3908790600401612f40565b60206040518083038186803b1580156108bb57600080fd5b505afa1580156108cf573d6000803e3d6000fd5b505050506040513d601f19601f820116820180604052508101906108f39190612bb0565b90506001600160a01b03811663a9059cbb336040516001600160e01b031960e084901b1681526001600160a01b03909116600482015260248101869052604401602060405180830381600087803b15801561094d57600080fd5b505af1158015610961573d6000803e3d6000fd5b505050506040513d601f19601f820116820180604052508101906109859190612b5c565b5050505050565b6066546001600160a01b0316336001600160a01b0316146109bf5760405162461bcd60e51b815260040161054f90613005565b60006109cc84848461166f565b9050806068856040516109df9190612e7f565b9081526020016040518091039020541015610a305760405162461bcd60e51b8152602060048201526011602482015270494e53554646494349454e545f4645455360781b604482015260640161054f565b6067546040516339d7fa4360e21b81526000916001600160a01b03169063e75fe90c90610a61908890600401612f40565b604080518083038186803b158015610a7857600080fd5b505afa158015610a8c573d6000803e3d6000fd5b505050506040513d601f19601f82011682018060405250810190610ab09190612de8565b508091505081606886604051610ac69190612e7f565b90815260200160405180910390206000828254610ae39190613125565b909155505060ff8116610b8b576000846001600160a01b03168360405160006040518083038185875af1925050503d8060008114610b3d576040519150601f19603f3d011682016040523d82523d6000602084013e610b42565b606091505b5050905080610b855760405162461bcd60e51b815260206004820152600f60248201526e1514905394d1915497d19052531151608a1b604482015260640161054f565b50610985565b8060ff16600114156109855760665460405163182e67ed60e31b81526000916001600160a01b03169063c1733f6890610bc8908990600401612f40565b60206040518083038186803b158015610be057600080fd5b505afa158015610bf4573d6000803e3d6000fd5b505050506040513d601f19601f82011682018060405250810190610c189190612bb0565b60405163a9059cbb60e01b81526001600160a01b038781166004830152602482018690529192509082169063a9059cbb906044015b602060405180830381600087803b158015610c6757600080fd5b505af1158015610c7b573d6000803e3d6000fd5b505050506040513d601f19601f82011682018060405250810190610c9f9190612b5c565b50505050505050565b60665460405163d8c7be7560e01b815260009182918291829182916001600160a01b03169063d8c7be7590610ce5908b908b908b90600401612f53565b60e06040518083038186803b158015610cfd57600080fd5b505afa158015610d11573d6000803e3d6000fd5b505050506040513d601f19601f82011682018060405250810190610d359190612d95565b505050935093509350935060008411610d605760405162461bcd60e51b815260040161054f90612fdb565b6066546040516338d59eab60e21b815260009182916001600160a01b039091169063e3567aac90610d95908d90600401612f40565b60206040518083038186803b158015610dad57600080fd5b505afa158015610dc1573d6000803e3d6000fd5b505050506040513d601f19601f82011682018060405250810190610de59190612d3e565b9050610df2600184613125565b811415610e1457610e078a86888c8c86611d52565b9650505050505050610e3f565b83811415610e3757610e2a8a85888c8c86611f8b565b610e3490836130ce565b91505b509450505050505b9392505050565b610e4e611cc9565b610e586000612273565b565b610e9983838080601f0160208091040260200160405190810160405280939291908181526020018383808284376000920191909152506122c592505050565b606654604051635d01eb0f60e01b81526001600160a01b0390911690635d01eb0f90610ecb9086908690600401612e9b565b600060405180830381600087803b158015610ee557600080fd5b505af1158015610ef9573d6000803e3d6000fd5b505050506000610f063390565b60665460405163d8c7be7560e01b815291925060009182916001600160a01b03169063d8c7be7590610f42908990899088908a90600401612eaf565b60e06040518083038186803b158015610f5a57600080fd5b505afa158015610f6e573d6000803e3d6000fd5b505050506040513d601f19601f82011682018060405250810190610f929190612d95565b50505050925050915060008211610fbb5760405162461bcd60e51b815260040161054f90612fdb565b6000610fc88260016130ce565b9050600061100f88888080601f0160208091040260200160405190810160405280939291908181526020018383808284376000920191909152508992508a915061166f9050565b90506000811161104d5760405162461bcd60e51b81526020600482015260096024820152681393d7d49155d0549160ba1b604482015260640161054f565b8060688989604051611060929190612e6f565b90815260200160405180910390205410156110b15760405162461bcd60e51b8152602060048201526011602482015270494e53554646494349454e545f4645455360781b604482015260640161054f565b60665460405163325f59f560e21b81526001600160a01b039091169063c97d67d4906110e7908b908b908a908c90600401612eaf565b600060405180830381600087803b15801561110157600080fd5b505af1158015611115573d6000803e3d6000fd5b50506066546040516338d59eab60e21b8152600093506001600160a01b03909116915063e3567aac9061114e908c908c90600401612e9b565b60206040518083038186803b15801561116657600080fd5b505afa15801561117a573d6000803e3d6000fd5b505050506040513d601f19601f8201168201806040525081019061119e9190612d3e565b9050825b81811161122657606654604051634572e84160e11b81526001600160a01b0390911690638ae5d082906111e1908d908d908c908e908890600401612edf565b600060405180830381600087803b1580156111fb57600080fd5b505af115801561120f573d6000803e3d6000fd5b50505050808061121e90613168565b9150506111a2565b5061126a89898080601f0160208091040260200160405190810160405280939291908181526020018383808284376000920191909152508a92508691506124109050565b856001600160a01b0316877f5693da3e77f1a1aa49acd48f3f16beaa0c279ad5c1e582a362c4e6a6e24b4f488b8b86426040516112aa9493929190612f19565b60405180910390a3505050505050505050565b6112c5611cc9565b606780546001600160a01b0319166001600160a01b0392909216919091179055565b6066546001600160a01b0316336001600160a01b03161461131a5760405162461bcd60e51b815260040161054f90613005565b8015611392578160688585604051611333929190612e6f565b9081526020016040518091039020600082825461135091906130ce565b9250508190555081606a858560405161136a929190612e6f565b9081526020016040518091039020600082825461138791906130ce565b909155506108609050565b81606885856040516113a5929190612e6f565b908152602001604051809103902060008282546113c29190613125565b909155505050505050565b60006113d7611cc9565b6066546040516338d59eab60e21b81526000916001600160a01b03169063e3567aac90611408908690600401612f40565b60206040518083038186803b15801561142057600080fd5b505afa158015611434573d6000803e3d6000fd5b505050506040513d601f19601f820116820180604052508101906114589190612d3e565b905060008060698560405161146d9190612e7f565b908152602001604051809103902054600161148891906130ce565b90505b82811161166757606654600090819081906001600160a01b0316634500fad9896114b6600188613125565b6040518363ffffffff1660e01b81526004016114d3929190612fb9565b60a06040518083038186803b1580156114eb57600080fd5b505afa1580156114ff573d6000803e3d6000fd5b505050506040513d601f19601f820116820180604052508101906115239190612d56565b945094509450505080600014156115485761153e83866130ce565b9450505050611655565b606654604051632d034d9760e11b81526000916001600160a01b031690635a069b2e9061157b908c908990600401612fb9565b60206040518083038186803b15801561159357600080fd5b505afa1580156115a7573d6000803e3d6000fd5b505050506040513d601f19601f820116820180604052508101906115cb9190612d3e565b905060006115d98285613125565b905060006115e8856004613106565b6115f28785613106565b6115fd906003613106565b61160791906130e6565b90506000611616866002613106565b6116208885613106565b61162a91906130e6565b9050816116378289613125565b6116419190613125565b61164b908a6130ce565b9850505050505050505b8061165f81613168565b91505061148b565b509392505050565b60665460405163d8c7be7560e01b8152600091829182918291829182916001600160a01b039091169063d8c7be75906116b0908c908c908c90600401612f53565b60e06040518083038186803b1580156116c857600080fd5b505afa1580156116dc573d6000803e3d6000fd5b505050506040513d601f19601f820116820180604052508101906117009190612d95565b5050945094509450945094506000851161172c5760405162461bcd60e51b815260040161054f90612fdb565b6066546040516338d59eab60e21b81526000916001600160a01b03169063e3567aac9061175d908d90600401612f40565b60206040518083038186803b15801561177557600080fd5b505afa158015611789573d6000803e3d6000fd5b505050506040513d601f19601f820116820180604052508101906117ad9190612d3e565b905060006117bc600185613125565b8214156117d1579650610e3f95505050505050565b846117dd600186613125565b1480156117f357506117f0600185613125565b82115b156118525760006040518060e001604052808d81526020018681526020018581526020018881526020018981526020018c6001600160a01b031681526020018b815250905061184181612632565b915061184e6001876130ce565b9550505b600061185f8660016130ce565b90505b8281116118a1576118768c828a8e8e6127f8565b61188090836130ce565b915061188d6001876130ce565b95508061189981613168565b915050611862565b509a9950505050505050505050565b6118b8611cc9565b606580546001600160a01b0319166001600160a01b0392909216919091179055565b6066546040516338d59eab60e21b815260009182916001600160a01b039091169063e3567aac9061190f908690600401612f40565b60206040518083038186803b15801561192757600080fd5b505afa15801561193b573d6000803e3d6000fd5b505050506040513d601f19601f8201168201806040525081019061195f9190612d3e565b90508061196f5750600092915050565b606654600090819081906001600160a01b0316634500fad987611993600188613125565b6040518363ffffffff1660e01b81526004016119b0929190612fb9565b60a06040518083038186803b1580156119c857600080fd5b505afa1580156119dc573d6000803e3d6000fd5b505050506040513d601f19601f82011682018060405250810190611a009190612d56565b94509450945050508060001415611a1d5750600095945050505050565b606654604051632d034d9760e11b81526000916001600160a01b031690635a069b2e90611a50908a908990600401612fb9565b60206040518083038186803b158015611a6857600080fd5b505afa158015611a7c573d6000803e3d6000fd5b505050506040513d601f19601f82011682018060405250810190611aa09190612d3e565b90506000611aae8285613125565b90506000611abd856004613106565b611ac78785613106565b611ad2906003613106565b611adc91906130e6565b90506000611aeb866002613106565b611af58885613106565b611aff91906130e6565b9050611b0b82826130ce565b9a9950505050505050505050565b611b21611cc9565b6065546040805163f6e22ef360e01b815290516000926001600160a01b03169163f6e22ef39160048083019286929190829003018186803b158015611b6557600080fd5b505afa158015611b79573d6000803e3d6000fd5b505050506040513d6000823e601f3d908101601f19168201604052611ba19190810190612a9a565b905060005b8151811015611bf157611bdf828281518110611bd257634e487b7160e01b600052603260045260246000fd5b60200260200101516105fe565b80611be981613168565b915050611ba6565b5050565b611bfd611cc9565b6001600160a01b038116611c625760405162461bcd60e51b815260206004820152602660248201527f4f776e61626c653a206e6577206f776e657220697320746865207a65726f206160448201526564647265737360d01b606482015260840161054f565b611c6b81612273565b50565b6066546001600160a01b0316336001600160a01b031614611ca15760405162461bcd60e51b815260040161054f90613005565b6000606a8383604051611cb5929190612e6f565b908152604051908190036020019020555050565b6033546001600160a01b03163314610e585760405162461bcd60e51b815260206004820181905260248201527f4f776e61626c653a2063616c6c6572206973206e6f7420746865206f776e6572604482015260640161054f565b600054610100900460ff16611d4a5760405162461bcd60e51b815260040161054f9061302a565b610e5861296b565b600080606a88604051611d659190612e7f565b9081526040519081900360200190205490506000611d846002836130e6565b60665460405163f93dd87360e01b81529192506000916001600160a01b039091169063f93dd87390611dba908d90600401612f40565b60206040518083038186803b158015611dd257600080fd5b505afa158015611de6573d6000803e3d6000fd5b505050506040513d601f19601f82011682018060405250810190611e0a9190612d3e565b90506000611e188a43613125565b606754604051637eddaa9760e11b81529192506000916001600160a01b039091169063fdbb552e90611e4e908f90600401612f40565b60206040518083038186803b158015611e6657600080fd5b505afa158015611e7a573d6000803e3d6000fd5b505050506040513d601f19601f82011682018060405250810190611e9e9190612d3e565b90506000611eac8285613106565b85611eb7858e613106565b611ec19190613106565b611ecb91906130e6565b6066549091506001600160a01b0316631c58293f8e8c8c611eed8d60016130ce565b6040518563ffffffff1660e01b8152600401611f0c9493929190612f81565b60206040518083038186803b158015611f2457600080fd5b505afa158015611f38573d6000803e3d6000fd5b505050506040513d601f19601f82011682018060405250810190611f5c9190612b5c565b15611f7b576002611f6e826003613106565b611f7891906130e6565b90505b9c9b505050505050505050505050565b60665460405163f93dd87360e01b815260009182916001600160a01b039091169063f93dd87390611fc0908b90600401612f40565b60206040518083038186803b158015611fd857600080fd5b505afa158015611fec573d6000803e3d6000fd5b505050506040513d601f19601f820116820180604052508101906120109190612d3e565b905060006002606a8a6040516120269190612e7f565b90815260200160405180910390205461203f91906130e6565b60665490915060009081906001600160a01b0316634500fad98c61206460018e613125565b6040518363ffffffff1660e01b8152600401612081929190612fb9565b60a06040518083038186803b15801561209957600080fd5b505afa1580156120ad573d6000803e3d6000fd5b505050506040513d601f19601f820116820180604052508101906120d19190612d56565b50505091509150600081836120e691906130ce565b6120f09043613125565b90506000606760009054906101000a90046001600160a01b03166001600160a01b031663fdbb552e8e6040518263ffffffff1660e01b81526004016121359190612f40565b60206040518083038186803b15801561214d57600080fd5b505afa158015612161573d6000803e3d6000fd5b505050506040513d601f19601f820116820180604052508101906121859190612d3e565b905060006121938288613106565b8661219e858f613106565b6121a89190613106565b6121b291906130e6565b6066549091506001600160a01b0316631c58293f8f8d8d6121d48e60016130ce565b6040518563ffffffff1660e01b81526004016121f39493929190612f81565b60206040518083038186803b15801561220b57600080fd5b505afa15801561221f573d6000803e3d6000fd5b505050506040513d601f19601f820116820180604052508101906122439190612b5c565b15612262576002612255826003613106565b61225f91906130e6565b90505b9d9c50505050505050505050505050565b603380546001600160a01b038381166001600160a01b0319831681179093556040519116919082907f8be0079c531659141344cd1fd0a4f28419497f9722a3daafe3b4186f6b6457e090600090a35050565b606560009054906101000a90046001600160a01b03166001600160a01b031663029a7ba66040518163ffffffff1660e01b815260040160206040518083038186803b15801561231357600080fd5b505afa158015612327573d6000803e3d6000fd5b505050506040513d601f19601f8201168201806040525081019061234b9190612b5c565b80156123d2575060675460405163d1ae6e2160e01b81526001600160a01b039091169063d1ae6e2190612382908490600401612f40565b60206040518083038186803b15801561239a57600080fd5b505afa1580156123ae573d6000803e3d6000fd5b505050506040513d601f19601f820116820180604052508101906123d29190612b5c565b611c6b5760405162461bcd60e51b815260206004820152600f60248201526e1094925111d157d11254d050931151608a1b604482015260640161054f565b6067546040516339d7fa4360e21b815260009182916001600160a01b039091169063e75fe90c90612445908890600401612f40565b604080518083038186803b15801561245c57600080fd5b505afa158015612470573d6000803e3d6000fd5b505050506040513d601f19601f820116820180604052508101906124949190612de8565b604051919350915083906068906124ac908890612e7f565b908152602001604051809103902060008282546124c99190613125565b909155505060ff821661256c576000846001600160a01b03168460405160006040518083038185875af1925050503d8060008114612523576040519150601f19603f3d011682016040523d82523d6000602084013e612528565b606091505b5050905080610b855760405162461bcd60e51b815260206004820152601060248201526f10d310525357d1915157d1905253115160821b604482015260640161054f565b8160ff16600114156109855760665460405163182e67ed60e31b81526000916001600160a01b03169063c1733f68906125a9908990600401612f40565b60206040518083038186803b1580156125c157600080fd5b505afa1580156125d5573d6000803e3d6000fd5b505050506040513d601f19601f820116820180604052508101906125f99190612bb0565b60405163a9059cbb60e01b81526001600160a01b038781166004830152602482018790529192509082169063a9059cbb90604401610c4d565b606654815160208301516000928392839283926001600160a01b031691634500fad99161266190600190613125565b6040518363ffffffff1660e01b815260040161267e929190612fb9565b60a06040518083038186803b15801561269657600080fd5b505afa1580156126aa573d6000803e3d6000fd5b505050506040513d601f19601f820116820180604052508101906126ce9190612d56565b5093509350935050600085606001518487604001516126ed91906130ce565b6126f79190613125565b905060006127066002856130e6565b905060006127148685613106565b82848a608001516127259190613106565b61272f9190613106565b61273991906130e6565b606654895160a08b015160c08c015160208d0151604051631c58293f60e01b81529596506001600160a01b0390941694631c58293f9461277e94939291600401612f81565b60206040518083038186803b15801561279657600080fd5b505afa1580156127aa573d6000803e3d6000fd5b505050506040513d601f19601f820116820180604052508101906127ce9190612b5c565b156127ed5760026127e0826003613106565b6127ea91906130e6565b90505b979650505050505050565b606654600090819081906001600160a01b0316634500fad98961281c60018b613125565b6040518363ffffffff1660e01b8152600401612839929190612fb9565b60a06040518083038186803b15801561285157600080fd5b505afa158015612865573d6000803e3d6000fd5b505050506040513d601f19601f820116820180604052508101906128899190612d56565b50935093505050600060028361289f91906130e6565b90506000826128ae838a613106565b6128b891906130e6565b606654604051631c58293f60e01b81529192506001600160a01b031690631c58293f906128ef908d908b908b908f90600401612f81565b60206040518083038186803b15801561290757600080fd5b505afa15801561291b573d6000803e3d6000fd5b505050506040513d601f19601f8201168201806040525081019061293f9190612b5c565b1561295e576002612951826003613106565b61295b91906130e6565b90505b9998505050505050505050565b600054610100900460ff166129925760405162461bcd60e51b815260040161054f9061302a565b610e5833612273565b60008083601f8401126129ac578182fd5b50813567ffffffffffffffff8111156129c3578182fd5b6020830191508360208285010111156129db57600080fd5b9250929050565b600082601f8301126129f2578081fd5b8135612a05612a00826130a6565b613075565b818152846020838601011115612a19578283fd5b816020850160208301379081016020019190915292915050565b600082601f830112612a43578081fd5b8151612a51612a00826130a6565b818152846020838601011115612a65578283fd5b612a7682602083016020870161313c565b949350505050565b600060208284031215612a8f578081fd5b8135610e3f816131af565b60006020808385031215612aac578182fd5b825167ffffffffffffffff80821115612ac3578384fd5b818501915085601f830112612ad6578384fd5b815181811115612ae857612ae8613199565b8060051b612af7858201613075565b8281528581019085870183870188018b1015612b11578889fd5b8893505b84841015612b4e57805186811115612b2b57898afd5b612b398c8a838b0101612a33565b84525060019390930192918701918701612b15565b509998505050505050505050565b600060208284031215612b6d578081fd5b8151610e3f816131c4565b60008060408385031215612b8a578081fd5b8235612b95816131af565b91506020830135612ba5816131af565b809150509250929050565b600060208284031215612bc1578081fd5b8151610e3f816131af565b60008060208385031215612bde578182fd5b823567ffffffffffffffff811115612bf4578283fd5b612c008582860161299b565b90969095509350505050565b600080600060408486031215612c20578081fd5b833567ffffffffffffffff811115612c36578182fd5b612c428682870161299b565b909790965060209590950135949350505050565b60008060008060608587031215612c6b578182fd5b843567ffffffffffffffff811115612c81578283fd5b612c8d8782880161299b565b909550935050602085013591506040850135612ca8816131c4565b939692955090935050565b600060208284031215612cc4578081fd5b813567ffffffffffffffff811115612cda578182fd5b612a76848285016129e2565b600080600060608486031215612cfa578081fd5b833567ffffffffffffffff811115612d10578182fd5b612d1c868287016129e2565b9350506020840135612d2d816131af565b929592945050506040919091013590565b600060208284031215612d4f578081fd5b5051919050565b600080600080600060a08688031215612d6d578283fd5b5050835160208501516040860151606087015160809097015192989197509594509092509050565b600080600080600080600060e0888a031215612daf578485fd5b5050855160208701516040880151606089015160808a015160a08b015160c0909b0151949c939b50919990985090965094509092509050565b60008060408385031215612dfa578182fd5b825160ff81168114612e0a578283fd5b6020939093015192949293505050565b81835281816020850137506000828201602090810191909152601f909101601f19169091010190565b60008151808452612e5b81602086016020860161313c565b601f01601f19169290920160200192915050565b8183823760009101908152919050565b60008251612e9181846020870161313c565b9190910192915050565b602081526000612a76602083018486612e1a565b606081526000612ec3606083018688612e1a565b6001600160a01b03949094166020830152506040015292915050565b608081526000612ef3608083018789612e1a565b6001600160a01b0395909516602083015250604081019290925260609091015292915050565b606081526000612f2d606083018688612e1a565b6020830194909452506040015292915050565b602081526000610e3f6020830184612e43565b606081526000612f666060830186612e43565b6001600160a01b039490941660208301525060400152919050565b608081526000612f946080830187612e43565b6001600160a01b03959095166020830152506040810192909252606090910152919050565b604081526000612fcc6040830185612e43565b90508260208301529392505050565b60208082526010908201526f24a72b20a624a22fa827a9a4aa24a7a760811b604082015260600190565b6020808252600b908201526a4f4e4c595f42524944474560a81b604082015260600190565b6020808252602b908201527f496e697469616c697a61626c653a20636f6e7472616374206973206e6f74206960408201526a6e697469616c697a696e6760a81b606082015260800190565b604051601f8201601f1916810167ffffffffffffffff8111828210171561309e5761309e613199565b604052919050565b600067ffffffffffffffff8211156130c0576130c0613199565b50601f01601f191660200190565b600082198211156130e1576130e1613183565b500190565b60008261310157634e487b7160e01b81526012600452602481fd5b500490565b600081600019048311821515161561312057613120613183565b500290565b60008282101561313757613137613183565b500390565b60005b8381101561315757818101518382015260200161313f565b838111156108605750506000910152565b600060001982141561317c5761317c613183565b5060010190565b634e487b7160e01b600052601160045260246000fd5b634e487b7160e01b600052604160045260246000fd5b6001600160a01b0381168114611c6b57600080fd5b8015158114611c6b57600080fdfea2646970667358221220eb99c497425dc69c918b7e5fc253185b88e943a2ad6a01205749843caee8670964736f6c63430008040033",
  "linkReferences": {},
  "deployedLinkReferences": {}
}