{
  "_format": "hh-sol-artifact-1",
  "contractName": "FeePoolUpgradeable",
  "sourceName": "contracts/FeePoolUpgradeable.sol",
  "abi": [
    {
      "anonymous": false,
      "inputs": [
        {
          "indexed": true,
          "internalType": "uint256",
          "name": "index",
          "type": "uint256"
        },
        {
          "indexed": true,
          "internalType": "address",
          "name": "account",
          "type": "address"
        },
        {
          "indexed": false,
          "internalType": "string",
          "name": "tokenTicker",
          "type": "string"
        },
        {
          "indexed": false,
          "internalType": "uint256",
          "name": "noOfTokens",
          "type": "uint256"
        },
        {
          "indexed": false,
          "internalType": "uint256",
          "name": "claimTimestamp",
          "type": "uint256"
        }
      ],
      "name": "ClaimedRewards",
      "type": "event"
    },
    {
      "anonymous": false,
      "inputs": [
        {
          "indexed": false,
          "internalType": "uint8",
          "name": "version",
          "type": "uint8"
        }
      ],
      "name": "Initialized",
      "type": "event"
    },
    {
      "anonymous": false,
      "inputs": [
        {
          "indexed": true,
          "internalType": "address",
          "name": "previousOwner",
          "type": "address"
        },
        {
          "indexed": true,
          "internalType": "address",
          "name": "newOwner",
          "type": "address"
        }
      ],
      "name": "OwnershipTransferred",
      "type": "event"
    },
    {
      "inputs": [
        {
          "internalType": "string",
          "name": "",
          "type": "string"
        }
      ],
      "name": "adminClaimedTillEpoch",
      "outputs": [
        {
          "internalType": "uint256",
          "name": "",
          "type": "uint256"
        }
      ],
      "stateMutability": "view",
      "type": "function"
    },
    {
      "inputs": [],
      "name": "bridgeUpgradeable",
      "outputs": [
        {
          "internalType": "contract BridgeUpgradeable",
          "name": "",
          "type": "address"
        }
      ],
      "stateMutability": "view",
      "type": "function"
    },
    {
      "inputs": [],
      "name": "bridgeUtilsUpgradeable",
      "outputs": [
        {
          "internalType": "contract BridgeUtilsUpgradeable",
          "name": "",
          "type": "address"
        }
      ],
      "stateMutability": "view",
      "type": "function"
    },
    {
      "inputs": [
        {
          "internalType": "string",
          "name": "_tokenTicker",
          "type": "string"
        },
        {
          "internalType": "uint256",
          "name": "_index",
          "type": "uint256"
        }
      ],
      "name": "claimFeeShare",
      "outputs": [],
      "stateMutability": "nonpayable",
      "type": "function"
    },
    {
      "inputs": [
        {
          "internalType": "string",
          "name": "",
          "type": "string"
        }
      ],
      "name": "feesInCurrentEpoch",
      "outputs": [
        {
          "internalType": "uint256",
          "name": "",
          "type": "uint256"
        }
      ],
      "stateMutability": "view",
      "type": "function"
    },
    {
      "inputs": [
        {
          "internalType": "string",
          "name": "_tokenTicker",
          "type": "string"
        }
      ],
      "name": "getAdminTokenFees",
      "outputs": [
        {
          "internalType": "uint256",
          "name": "",
          "type": "uint256"
        }
      ],
      "stateMutability": "view",
      "type": "function"
    },
    {
      "inputs": [
        {
          "internalType": "string",
          "name": "_tokenTicker",
          "type": "string"
        },
        {
          "internalType": "address",
          "name": "_account",
          "type": "address"
        },
        {
          "internalType": "uint256",
          "name": "_index",
          "type": "uint256"
        }
      ],
      "name": "getUserConfirmedRewards",
      "outputs": [
        {
          "internalType": "uint256",
          "name": "",
          "type": "uint256"
        }
      ],
      "stateMutability": "view",
      "type": "function"
    },
    {
      "inputs": [
        {
          "internalType": "string",
          "name": "_tokenTicker",
          "type": "string"
        },
        {
          "internalType": "address",
          "name": "_account",
          "type": "address"
        },
        {
          "internalType": "uint256",
          "name": "_index",
          "type": "uint256"
        }
      ],
      "name": "getUserUnconfirmedRewards",
      "outputs": [
        {
          "internalType": "uint256",
          "name": "",
          "type": "uint256"
        }
      ],
      "stateMutability": "view",
      "type": "function"
    },
    {
      "inputs": [
        {
          "internalType": "contract TokenBridgeRegistryUpgradeable",
          "name": "_tokenBridgeRegistryUpgradeable",
          "type": "address"
        },
        {
          "internalType": "contract BridgeUpgradeable",
          "name": "_bridgeUpgradeable",
          "type": "address"
        }
      ],
      "name": "initialize",
      "outputs": [],
      "stateMutability": "nonpayable",
      "type": "function"
    },
    {
      "inputs": [],
      "name": "owner",
      "outputs": [
        {
          "internalType": "address",
          "name": "",
          "type": "address"
        }
      ],
      "stateMutability": "view",
      "type": "function"
    },
    {
      "inputs": [],
      "name": "renounceOwnership",
      "outputs": [],
      "stateMutability": "nonpayable",
      "type": "function"
    },
    {
      "inputs": [
        {
          "internalType": "string",
          "name": "_tokenTicker",
          "type": "string"
        }
      ],
      "name": "resetFeesInCurrentEpoch",
      "outputs": [],
      "stateMutability": "nonpayable",
      "type": "function"
    },
    {
      "inputs": [],
      "name": "tokenBridgeRegistryUpgradeable",
      "outputs": [
        {
          "internalType": "contract TokenBridgeRegistryUpgradeable",
          "name": "",
          "type": "address"
        }
      ],
      "stateMutability": "view",
      "type": "function"
    },
    {
      "inputs": [
        {
          "internalType": "string",
          "name": "",
          "type": "string"
        }
      ],
      "name": "totalFees",
      "outputs": [
        {
          "internalType": "uint256",
          "name": "",
          "type": "uint256"
        }
      ],
      "stateMutability": "view",
      "type": "function"
    },
    {
      "inputs": [
        {
          "internalType": "string",
          "name": "_tokenTicker",
          "type": "string"
        },
        {
          "internalType": "address",
          "name": "_account",
          "type": "address"
        },
        {
          "internalType": "uint256",
          "name": "_index",
          "type": "uint256"
        }
      ],
      "name": "transferLpFee",
      "outputs": [],
      "stateMutability": "nonpayable",
      "type": "function"
    },
    {
      "inputs": [
        {
          "internalType": "address",
          "name": "newOwner",
          "type": "address"
        }
      ],
      "name": "transferOwnership",
      "outputs": [],
      "stateMutability": "nonpayable",
      "type": "function"
    },
    {
      "inputs": [
        {
          "internalType": "contract BridgeUpgradeable",
          "name": "_newInstance",
          "type": "address"
        }
      ],
      "name": "updateBridgeUpgradeableAddress",
      "outputs": [],
      "stateMutability": "nonpayable",
      "type": "function"
    },
    {
      "inputs": [
        {
          "internalType": "contract BridgeUtilsUpgradeable",
          "name": "_newInstance",
          "type": "address"
        }
      ],
      "name": "updateBridgeUtilsUpgradeableAddress",
      "outputs": [],
      "stateMutability": "nonpayable",
      "type": "function"
    },
    {
      "inputs": [
        {
          "internalType": "contract TokenBridgeRegistryUpgradeable",
          "name": "_newInstance",
          "type": "address"
        }
      ],
      "name": "updateTokenBridgeRegistryAddress",
      "outputs": [],
      "stateMutability": "nonpayable",
      "type": "function"
    },
    {
      "inputs": [
        {
          "internalType": "string",
          "name": "_tokenTicker",
          "type": "string"
        },
        {
          "internalType": "uint256",
          "name": "feesEarned",
          "type": "uint256"
        },
        {
          "internalType": "bool",
          "name": "_isAddingFees",
          "type": "bool"
        }
      ],
      "name": "updateTotalFees",
      "outputs": [],
      "stateMutability": "nonpayable",
      "type": "function"
    },
    {
      "inputs": [],
      "name": "withdrawAdminAllTokenFees",
      "outputs": [],
      "stateMutability": "nonpayable",
      "type": "function"
    },
    {
      "inputs": [
        {
          "internalType": "string",
          "name": "_tokenTicker",
          "type": "string"
        }
      ],
      "name": "withdrawAdminTokenFees",
      "outputs": [],
      "stateMutability": "nonpayable",
      "type": "function"
    },
    {
      "stateMutability": "payable",
      "type": "receive"
    }
  ],
  "bytecode": "0x608060405234801561001057600080fd5b50612ff7806100206000396000f3fe6080604052600436106101385760003560e01c8063b3b4e917116100ab578063d7b55c3b1161006f578063d7b55c3b14610394578063ee2a752b146103b4578063f1bcba0a146103c9578063f2fde38b14610401578063fc901f7414610421578063fe5b12e41461044157600080fd5b8063b3b4e917146102f4578063c92f86e414610314578063cae816d414610334578063d178bdc014610354578063d33ad0301461037457600080fd5b806360576b89116100fd57806360576b891461022957806365af68841461024957806367276acd146102695780636e2e8fe1146102a1578063715018a6146102c15780638da5cb5b146102d657600080fd5b8062e79e5c146101445780634146b3ea1461016657806347be423c146101b1578063485cc955146101e9578063489acb011461020957600080fd5b3661013f57005b600080fd5b34801561015057600080fd5b5061016461015f36600461286d565b610461565b005b34801561017257600080fd5b5061019e610181366004612aa2565b8051602081830181018051606a8252928201919093012091525481565b6040519081526020015b60405180910390f35b3480156101bd57600080fd5b5061019e6101cc366004612aa2565b805160208183018101805160688252928201919093012091525481565b3480156101f557600080fd5b50610164610204366004612967565b61048b565b34801561021557600080fd5b50610164610224366004612aa2565b6105d3565b34801561023557600080fd5b50610164610244366004612ad5565b610961565b34801561025557600080fd5b5061019e610264366004612ad5565b610c7d565b34801561027557600080fd5b50606754610289906001600160a01b031681565b6040516001600160a01b0390911681526020016101a8565b3480156102ad57600080fd5b50606554610289906001600160a01b031681565b3480156102cd57600080fd5b50610164610e1b565b3480156102e257600080fd5b506033546001600160a01b0316610289565b34801561030057600080fd5b5061016461030f3660046129fb565b610e2f565b34801561032057600080fd5b5061016461032f36600461286d565b611292565b34801561034057600080fd5b5061016461034f366004612a45565b6112bc565b34801561036057600080fd5b5061019e61036f366004612aa2565b6113a2565b34801561038057600080fd5b5061019e61038f366004612ad5565b61169d565b3480156103a057600080fd5b506101646103af36600461286d565b6118de565b3480156103c057600080fd5b50610164611908565b3480156103d557600080fd5b5061019e6103e4366004612aa2565b805160208183018101805160698252928201919093012091525481565b34801561040d57600080fd5b5061016461041c36600461286d565b6119e4565b34801561042d57600080fd5b50606654610289906001600160a01b031681565b34801561044d57600080fd5b5061016461045c3660046129bb565b611a5d565b610469611ab8565b606680546001600160a01b0319166001600160a01b0392909216919091179055565b600054610100900460ff16158080156104ab5750600054600160ff909116105b806104c55750303b1580156104c5575060005460ff166001145b61052d5760405162461bcd60e51b815260206004820152602e60248201527f496e697469616c697a61626c653a20636f6e747261637420697320616c72656160448201526d191e481a5b9a5d1a585b1a5e995960921b60648201526084015b60405180910390fd5b6000805460ff191660011790558015610550576000805461ff0019166101001790555b610558611b12565b606580546001600160a01b038086166001600160a01b031992831617909255606680549285169290911691909117905580156105ce576000805461ff0019169055604051600181527f7f26b83ff96e1f2b6a682f133852f6798a09c465da95921460cefb38474024989060200160405180910390a15b505050565b6105db611ab8565b606654604051635d01eb0f60e01b81526001600160a01b0390911690635d01eb0f9061060b908490600401612d2f565b600060405180830381600087803b15801561062557600080fd5b505af1158015610639573d6000803e3d6000fd5b505050506000610648826113a2565b90508060688360405161065b9190612c6e565b908152602001604051809103902060008282546106789190612f14565b90915550506066546040516338d59eab60e21b81526001600160a01b039091169063e3567aac906106ad908590600401612d2f565b60206040518083038186803b1580156106c557600080fd5b505afa1580156106d9573d6000803e3d6000fd5b505050506040513d601f19601f820116820180604052508101906106fd9190612b2d565b60698360405161070d9190612c6e565b908152604051908190036020018120919091556067546339d7fa4360e21b82526000916001600160a01b039091169063e75fe90c90610750908690600401612d2f565b604080518083038186803b15801561076757600080fd5b505afa15801561077b573d6000803e3d6000fd5b505050506040513d601f19601f8201168201806040525081019061079f9190612bd7565b50905060ff811661083b57604051600090339084908381818185875af1925050503d80600081146107ec576040519150601f19603f3d011682016040523d82523d6000602084013e6107f1565b606091505b50509050806108355760405162461bcd60e51b815260206004820152601060248201526f10d310525357d1915157d1905253115160821b6044820152606401610524565b50505050565b8060ff16600114156105ce5760665460405163182e67ed60e31b81526000916001600160a01b03169063c1733f6890610878908790600401612d2f565b60206040518083038186803b15801561089057600080fd5b505afa1580156108a4573d6000803e3d6000fd5b505050506040513d601f19601f820116820180604052508101906108c8919061299f565b90506001600160a01b03811663a9059cbb336040516001600160e01b031960e084901b1681526001600160a01b03909116600482015260248101869052604401602060405180830381600087803b15801561092257600080fd5b505af1158015610936573d6000803e3d6000fd5b505050506040513d601f19601f8201168201806040525081019061095a919061294b565b5050505050565b6066546001600160a01b0316336001600160a01b0316146109945760405162461bcd60e51b815260040161052490612df4565b60006109a184848461169d565b9050806068856040516109b49190612c6e565b9081526020016040518091039020541015610a055760405162461bcd60e51b8152602060048201526011602482015270494e53554646494349454e545f4645455360781b6044820152606401610524565b6067546040516339d7fa4360e21b81526000916001600160a01b03169063e75fe90c90610a36908890600401612d2f565b604080518083038186803b158015610a4d57600080fd5b505afa158015610a61573d6000803e3d6000fd5b505050506040513d601f19601f82011682018060405250810190610a859190612bd7565b508091505081606886604051610a9b9190612c6e565b90815260200160405180910390206000828254610ab89190612f14565b909155505060ff8116610b60576000846001600160a01b03168360405160006040518083038185875af1925050503d8060008114610b12576040519150601f19603f3d011682016040523d82523d6000602084013e610b17565b606091505b5050905080610b5a5760405162461bcd60e51b815260206004820152600f60248201526e1514905394d1915497d19052531151608a1b6044820152606401610524565b5061095a565b8060ff166001141561095a5760665460405163182e67ed60e31b81526000916001600160a01b03169063c1733f6890610b9d908990600401612d2f565b60206040518083038186803b158015610bb557600080fd5b505afa158015610bc9573d6000803e3d6000fd5b505050506040513d601f19601f82011682018060405250810190610bed919061299f565b60405163a9059cbb60e01b81526001600160a01b038781166004830152602482018690529192509082169063a9059cbb906044015b602060405180830381600087803b158015610c3c57600080fd5b505af1158015610c50573d6000803e3d6000fd5b505050506040513d601f19601f82011682018060405250810190610c74919061294b565b50505050505050565b60665460405163d8c7be7560e01b815260009182918291829182916001600160a01b03169063d8c7be7590610cba908b908b908b90600401612d42565b60e06040518083038186803b158015610cd257600080fd5b505afa158015610ce6573d6000803e3d6000fd5b505050506040513d601f19601f82011682018060405250810190610d0a9190612b84565b505050935093509350935060008411610d355760405162461bcd60e51b815260040161052490612dca565b6066546040516338d59eab60e21b815260009182916001600160a01b039091169063e3567aac90610d6a908d90600401612d2f565b60206040518083038186803b158015610d8257600080fd5b505afa158015610d96573d6000803e3d6000fd5b505050506040513d601f19601f82011682018060405250810190610dba9190612b2d565b9050610dc7600184612f14565b811415610de957610ddc8a86888c8c86611b41565b9650505050505050610e14565b83811415610e0c57610dff8a85888c8c86611d7a565b610e099083612ebd565b91505b509450505050505b9392505050565b610e23611ab8565b610e2d6000612062565b565b610e6e83838080601f0160208091040260200160405190810160405280939291908181526020018383808284376000920191909152506120b492505050565b606654604051635d01eb0f60e01b81526001600160a01b0390911690635d01eb0f90610ea09086908690600401612c8a565b600060405180830381600087803b158015610eba57600080fd5b505af1158015610ece573d6000803e3d6000fd5b505050506000610edb3390565b60665460405163d8c7be7560e01b815291925060009182916001600160a01b03169063d8c7be7590610f17908990899088908a90600401612c9e565b60e06040518083038186803b158015610f2f57600080fd5b505afa158015610f43573d6000803e3d6000fd5b505050506040513d601f19601f82011682018060405250810190610f679190612b84565b50505050925050915060008211610f905760405162461bcd60e51b815260040161052490612dca565b6000610f9d826001612ebd565b90506000610fe488888080601f0160208091040260200160405190810160405280939291908181526020018383808284376000920191909152508992508a915061169d9050565b9050600081116110225760405162461bcd60e51b81526020600482015260096024820152681393d7d49155d0549160ba1b6044820152606401610524565b8060688989604051611035929190612c5e565b90815260200160405180910390205410156110865760405162461bcd60e51b8152602060048201526011602482015270494e53554646494349454e545f4645455360781b6044820152606401610524565b60665460405163325f59f560e21b81526001600160a01b039091169063c97d67d4906110bc908b908b908a908c90600401612c9e565b600060405180830381600087803b1580156110d657600080fd5b505af11580156110ea573d6000803e3d6000fd5b50506066546040516338d59eab60e21b8152600093506001600160a01b03909116915063e3567aac90611123908c908c90600401612c8a565b60206040518083038186803b15801561113b57600080fd5b505afa15801561114f573d6000803e3d6000fd5b505050506040513d601f19601f820116820180604052508101906111739190612b2d565b9050825b8181116111fb57606654604051634572e84160e11b81526001600160a01b0390911690638ae5d082906111b6908d908d908c908e908890600401612cce565b600060405180830381600087803b1580156111d057600080fd5b505af11580156111e4573d6000803e3d6000fd5b5050505080806111f390612f57565b915050611177565b5061123f89898080601f0160208091040260200160405190810160405280939291908181526020018383808284376000920191909152508a92508691506121ff9050565b856001600160a01b0316877f5693da3e77f1a1aa49acd48f3f16beaa0c279ad5c1e582a362c4e6a6e24b4f488b8b864260405161127f9493929190612d08565b60405180910390a3505050505050505050565b61129a611ab8565b606780546001600160a01b0319166001600160a01b0392909216919091179055565b6066546001600160a01b0316336001600160a01b0316146112ef5760405162461bcd60e51b815260040161052490612df4565b8015611367578160688585604051611308929190612c5e565b908152602001604051809103902060008282546113259190612ebd565b9250508190555081606a858560405161133f929190612c5e565b9081526020016040518091039020600082825461135c9190612ebd565b909155506108359050565b816068858560405161137a929190612c5e565b908152602001604051809103902060008282546113979190612f14565b909155505050505050565b60006113ac611ab8565b6066546040516338d59eab60e21b81526000916001600160a01b03169063e3567aac906113dd908690600401612d2f565b60206040518083038186803b1580156113f557600080fd5b505afa158015611409573d6000803e3d6000fd5b505050506040513d601f19601f8201168201806040525081019061142d9190612b2d565b90506000806069856040516114429190612c6e565b908152602001604051809103902054600161145d9190612ebd565b90505b8281116116955760675460405163e1c5478560e01b81526000916001600160a01b03169063e1c547859061149a9089908690600401612da8565b60206040518083038186803b1580156114b257600080fd5b505afa1580156114c6573d6000803e3d6000fd5b505050506040513d601f19601f820116820180604052508101906114ea9190612b2d565b9050806114f75750611683565b606754604051630812436160e21b81526000916001600160a01b0316906320490d849061152a908a908790600401612da8565b60206040518083038186803b15801561154257600080fd5b505afa158015611556573d6000803e3d6000fd5b505050506040513d601f19601f8201168201806040525081019061157a9190612b2d565b6066546040516334fdbd6160e21b81529192506000916001600160a01b039091169063d3f6f584906115b2908b908890600401612da8565b60206040518083038186803b1580156115ca57600080fd5b505afa1580156115de573d6000803e3d6000fd5b505050506040513d601f19601f820116820180604052508101906116029190612b2d565b90506000611611846002612ef5565b61161b9084612ed5565b905060008161162a8487612f14565b6116349190612ef5565b9050600060026116448486612ef5565b61164f906003612ef5565b6116599190612ed5565b9050806116668387612f14565b6116709190612f14565b61167a9089612ebd565b97505050505050505b8061168d81612f57565b915050611460565b509392505050565b60665460405163d8c7be7560e01b8152600091829182918291829182916001600160a01b039091169063d8c7be75906116de908c908c908c90600401612d42565b60e06040518083038186803b1580156116f657600080fd5b505afa15801561170a573d6000803e3d6000fd5b505050506040513d601f19601f8201168201806040525081019061172e9190612b84565b5050945094509450945094506000851161175a5760405162461bcd60e51b815260040161052490612dca565b6066546040516338d59eab60e21b81526000916001600160a01b03169063e3567aac9061178b908d90600401612d2f565b60206040518083038186803b1580156117a357600080fd5b505afa1580156117b7573d6000803e3d6000fd5b505050506040513d601f19601f820116820180604052508101906117db9190612b2d565b905060006117ea600185612f14565b8214156117ff579650610e1495505050505050565b8461180b600186612f14565b148015611821575061181e600185612f14565b82115b156118805760006040518060e001604052808d81526020018681526020018581526020018881526020018981526020018c6001600160a01b031681526020018b815250905061186f81612421565b915061187c600187612ebd565b9550505b600061188d866001612ebd565b90505b8281116118cf576118a48c828a8e8e6125e7565b6118ae9083612ebd565b91506118bb600187612ebd565b9550806118c781612f57565b915050611890565b509a9950505050505050505050565b6118e6611ab8565b606580546001600160a01b0319166001600160a01b0392909216919091179055565b611910611ab8565b6065546040805163f6e22ef360e01b815290516000926001600160a01b03169163f6e22ef39160048083019286929190829003018186803b15801561195457600080fd5b505afa158015611968573d6000803e3d6000fd5b505050506040513d6000823e601f3d908101601f191682016040526119909190810190612889565b905060005b81518110156119e0576119ce8282815181106119c157634e487b7160e01b600052603260045260246000fd5b60200260200101516105d3565b806119d881612f57565b915050611995565b5050565b6119ec611ab8565b6001600160a01b038116611a515760405162461bcd60e51b815260206004820152602660248201527f4f776e61626c653a206e6577206f776e657220697320746865207a65726f206160448201526564647265737360d01b6064820152608401610524565b611a5a81612062565b50565b6066546001600160a01b0316336001600160a01b031614611a905760405162461bcd60e51b815260040161052490612df4565b6000606a8383604051611aa4929190612c5e565b908152604051908190036020019020555050565b6033546001600160a01b03163314610e2d5760405162461bcd60e51b815260206004820181905260248201527f4f776e61626c653a2063616c6c6572206973206e6f7420746865206f776e65726044820152606401610524565b600054610100900460ff16611b395760405162461bcd60e51b815260040161052490612e19565b610e2d61275a565b600080606a88604051611b549190612c6e565b9081526040519081900360200190205490506000611b73600283612ed5565b60665460405163f93dd87360e01b81529192506000916001600160a01b039091169063f93dd87390611ba9908d90600401612d2f565b60206040518083038186803b158015611bc157600080fd5b505afa158015611bd5573d6000803e3d6000fd5b505050506040513d601f19601f82011682018060405250810190611bf99190612b2d565b90506000611c078a43612f14565b606754604051637eddaa9760e11b81529192506000916001600160a01b039091169063fdbb552e90611c3d908f90600401612d2f565b60206040518083038186803b158015611c5557600080fd5b505afa158015611c69573d6000803e3d6000fd5b505050506040513d601f19601f82011682018060405250810190611c8d9190612b2d565b90506000611c9b8285612ef5565b85611ca6858e612ef5565b611cb09190612ef5565b611cba9190612ed5565b6066549091506001600160a01b0316631c58293f8e8c8c611cdc8d6001612ebd565b6040518563ffffffff1660e01b8152600401611cfb9493929190612d70565b60206040518083038186803b158015611d1357600080fd5b505afa158015611d27573d6000803e3d6000fd5b505050506040513d601f19601f82011682018060405250810190611d4b919061294b565b15611d6a576002611d5d826003612ef5565b611d679190612ed5565b90505b9c9b505050505050505050505050565b60665460405163f93dd87360e01b815260009182916001600160a01b039091169063f93dd87390611daf908b90600401612d2f565b60206040518083038186803b158015611dc757600080fd5b505afa158015611ddb573d6000803e3d6000fd5b505050506040513d601f19601f82011682018060405250810190611dff9190612b2d565b905060006002606a8a604051611e159190612c6e565b908152602001604051809103902054611e2e9190612ed5565b60665490915060009081906001600160a01b0316634500fad98c611e5360018e612f14565b6040518363ffffffff1660e01b8152600401611e70929190612da8565b60a06040518083038186803b158015611e8857600080fd5b505afa158015611e9c573d6000803e3d6000fd5b505050506040513d601f19601f82011682018060405250810190611ec09190612b45565b5050509150915060008183611ed59190612ebd565b611edf9043612f14565b90506000606760009054906101000a90046001600160a01b03166001600160a01b031663fdbb552e8e6040518263ffffffff1660e01b8152600401611f249190612d2f565b60206040518083038186803b158015611f3c57600080fd5b505afa158015611f50573d6000803e3d6000fd5b505050506040513d601f19601f82011682018060405250810190611f749190612b2d565b90506000611f828288612ef5565b86611f8d858f612ef5565b611f979190612ef5565b611fa19190612ed5565b6066549091506001600160a01b0316631c58293f8f8d8d611fc38e6001612ebd565b6040518563ffffffff1660e01b8152600401611fe29493929190612d70565b60206040518083038186803b158015611ffa57600080fd5b505afa15801561200e573d6000803e3d6000fd5b505050506040513d601f19601f82011682018060405250810190612032919061294b565b15612051576002612044826003612ef5565b61204e9190612ed5565b90505b9d9c50505050505050505050505050565b603380546001600160a01b038381166001600160a01b0319831681179093556040519116919082907f8be0079c531659141344cd1fd0a4f28419497f9722a3daafe3b4186f6b6457e090600090a35050565b606560009054906101000a90046001600160a01b03166001600160a01b031663029a7ba66040518163ffffffff1660e01b815260040160206040518083038186803b15801561210257600080fd5b505afa158015612116573d6000803e3d6000fd5b505050506040513d601f19601f8201168201806040525081019061213a919061294b565b80156121c1575060675460405163d1ae6e2160e01b81526001600160a01b039091169063d1ae6e2190612171908490600401612d2f565b60206040518083038186803b15801561218957600080fd5b505afa15801561219d573d6000803e3d6000fd5b505050506040513d601f19601f820116820180604052508101906121c1919061294b565b611a5a5760405162461bcd60e51b815260206004820152600f60248201526e1094925111d157d11254d050931151608a1b6044820152606401610524565b6067546040516339d7fa4360e21b815260009182916001600160a01b039091169063e75fe90c90612234908890600401612d2f565b604080518083038186803b15801561224b57600080fd5b505afa15801561225f573d6000803e3d6000fd5b505050506040513d601f19601f820116820180604052508101906122839190612bd7565b6040519193509150839060689061229b908890612c6e565b908152602001604051809103902060008282546122b89190612f14565b909155505060ff821661235b576000846001600160a01b03168460405160006040518083038185875af1925050503d8060008114612312576040519150601f19603f3d011682016040523d82523d6000602084013e612317565b606091505b5050905080610b5a5760405162461bcd60e51b815260206004820152601060248201526f10d310525357d1915157d1905253115160821b6044820152606401610524565b8160ff166001141561095a5760665460405163182e67ed60e31b81526000916001600160a01b03169063c1733f6890612398908990600401612d2f565b60206040518083038186803b1580156123b057600080fd5b505afa1580156123c4573d6000803e3d6000fd5b505050506040513d601f19601f820116820180604052508101906123e8919061299f565b60405163a9059cbb60e01b81526001600160a01b038781166004830152602482018790529192509082169063a9059cbb90604401610c22565b606654815160208301516000928392839283926001600160a01b031691634500fad99161245090600190612f14565b6040518363ffffffff1660e01b815260040161246d929190612da8565b60a06040518083038186803b15801561248557600080fd5b505afa158015612499573d6000803e3d6000fd5b505050506040513d601f19601f820116820180604052508101906124bd9190612b45565b5093509350935050600085606001518487604001516124dc9190612ebd565b6124e69190612f14565b905060006124f5600285612ed5565b905060006125038685612ef5565b82848a608001516125149190612ef5565b61251e9190612ef5565b6125289190612ed5565b606654895160a08b015160c08c015160208d0151604051631c58293f60e01b81529596506001600160a01b0390941694631c58293f9461256d94939291600401612d70565b60206040518083038186803b15801561258557600080fd5b505afa158015612599573d6000803e3d6000fd5b505050506040513d601f19601f820116820180604052508101906125bd919061294b565b156125dc5760026125cf826003612ef5565b6125d99190612ed5565b90505b979650505050505050565b606654600090819081906001600160a01b0316634500fad98961260b60018b612f14565b6040518363ffffffff1660e01b8152600401612628929190612da8565b60a06040518083038186803b15801561264057600080fd5b505afa158015612654573d6000803e3d6000fd5b505050506040513d601f19601f820116820180604052508101906126789190612b45565b50935093505050600060028361268e9190612ed5565b905060008261269d838a612ef5565b6126a79190612ed5565b606654604051631c58293f60e01b81529192506001600160a01b031690631c58293f906126de908d908b908b908f90600401612d70565b60206040518083038186803b1580156126f657600080fd5b505afa15801561270a573d6000803e3d6000fd5b505050506040513d601f19601f8201168201806040525081019061272e919061294b565b1561274d576002612740826003612ef5565b61274a9190612ed5565b90505b9998505050505050505050565b600054610100900460ff166127815760405162461bcd60e51b815260040161052490612e19565b610e2d33612062565b60008083601f84011261279b578182fd5b50813567ffffffffffffffff8111156127b2578182fd5b6020830191508360208285010111156127ca57600080fd5b9250929050565b600082601f8301126127e1578081fd5b81356127f46127ef82612e95565b612e64565b818152846020838601011115612808578283fd5b816020850160208301379081016020019190915292915050565b600082601f830112612832578081fd5b81516128406127ef82612e95565b818152846020838601011115612854578283fd5b612865826020830160208701612f2b565b949350505050565b60006020828403121561287e578081fd5b8135610e1481612f9e565b6000602080838503121561289b578182fd5b825167ffffffffffffffff808211156128b2578384fd5b818501915085601f8301126128c5578384fd5b8151818111156128d7576128d7612f88565b8060051b6128e6858201612e64565b8281528581019085870183870188018b1015612900578889fd5b8893505b8484101561293d5780518681111561291a57898afd5b6129288c8a838b0101612822565b84525060019390930192918701918701612904565b509998505050505050505050565b60006020828403121561295c578081fd5b8151610e1481612fb3565b60008060408385031215612979578081fd5b823561298481612f9e565b9150602083013561299481612f9e565b809150509250929050565b6000602082840312156129b0578081fd5b8151610e1481612f9e565b600080602083850312156129cd578182fd5b823567ffffffffffffffff8111156129e3578283fd5b6129ef8582860161278a565b90969095509350505050565b600080600060408486031215612a0f578081fd5b833567ffffffffffffffff811115612a25578182fd5b612a318682870161278a565b909790965060209590950135949350505050565b60008060008060608587031215612a5a578182fd5b843567ffffffffffffffff811115612a70578283fd5b612a7c8782880161278a565b909550935050602085013591506040850135612a9781612fb3565b939692955090935050565b600060208284031215612ab3578081fd5b813567ffffffffffffffff811115612ac9578182fd5b612865848285016127d1565b600080600060608486031215612ae9578081fd5b833567ffffffffffffffff811115612aff578182fd5b612b0b868287016127d1565b9350506020840135612b1c81612f9e565b929592945050506040919091013590565b600060208284031215612b3e578081fd5b5051919050565b600080600080600060a08688031215612b5c578283fd5b5050835160208501516040860151606087015160809097015192989197509594509092509050565b600080600080600080600060e0888a031215612b9e578485fd5b5050855160208701516040880151606089015160808a015160a08b015160c0909b0151949c939b50919990985090965094509092509050565b60008060408385031215612be9578182fd5b825160ff81168114612bf9578283fd5b6020939093015192949293505050565b81835281816020850137506000828201602090810191909152601f909101601f19169091010190565b60008151808452612c4a816020860160208601612f2b565b601f01601f19169290920160200192915050565b8183823760009101908152919050565b60008251612c80818460208701612f2b565b9190910192915050565b602081526000612865602083018486612c09565b606081526000612cb2606083018688612c09565b6001600160a01b03949094166020830152506040015292915050565b608081526000612ce2608083018789612c09565b6001600160a01b0395909516602083015250604081019290925260609091015292915050565b606081526000612d1c606083018688612c09565b6020830194909452506040015292915050565b602081526000610e146020830184612c32565b606081526000612d556060830186612c32565b6001600160a01b039490941660208301525060400152919050565b608081526000612d836080830187612c32565b6001600160a01b03959095166020830152506040810192909252606090910152919050565b604081526000612dbb6040830185612c32565b90508260208301529392505050565b60208082526010908201526f24a72b20a624a22fa827a9a4aa24a7a760811b604082015260600190565b6020808252600b908201526a4f4e4c595f42524944474560a81b604082015260600190565b6020808252602b908201527f496e697469616c697a61626c653a20636f6e7472616374206973206e6f74206960408201526a6e697469616c697a696e6760a81b606082015260800190565b604051601f8201601f1916810167ffffffffffffffff81118282101715612e8d57612e8d612f88565b604052919050565b600067ffffffffffffffff821115612eaf57612eaf612f88565b50601f01601f191660200190565b60008219821115612ed057612ed0612f72565b500190565b600082612ef057634e487b7160e01b81526012600452602481fd5b500490565b6000816000190483118215151615612f0f57612f0f612f72565b500290565b600082821015612f2657612f26612f72565b500390565b60005b83811015612f46578181015183820152602001612f2e565b838111156108355750506000910152565b6000600019821415612f6b57612f6b612f72565b5060010190565b634e487b7160e01b600052601160045260246000fd5b634e487b7160e01b600052604160045260246000fd5b6001600160a01b0381168114611a5a57600080fd5b8015158114611a5a57600080fdfea2646970667358221220cbd5d3c595fae89fde26710824230abfa1f4e02c9b37308fb7d2401145fce15b64736f6c63430008040033",
  "linkReferences": {},
  "deployedLinkReferences": {}
}