{
  "_format": "hh-sol-artifact-1",
  "contractName": "FeePoolUpgradeable",
  "sourceName": "contracts/FeePoolUpgradeable.sol",
  "abi": [
    {
      "anonymous": false,
      "inputs": [
        {
          "indexed": true,
          "internalType": "uint256",
          "name": "index",
          "type": "uint256"
        },
        {
          "indexed": true,
          "internalType": "address",
          "name": "account",
          "type": "address"
        },
        {
          "indexed": true,
          "internalType": "string",
          "name": "tokenTicker",
          "type": "string"
        },
        {
          "indexed": false,
          "internalType": "uint256",
          "name": "noOfTokens",
          "type": "uint256"
        },
        {
          "indexed": false,
          "internalType": "uint256",
          "name": "claimTimestamp",
          "type": "uint256"
        }
      ],
      "name": "ClaimedRewards",
      "type": "event"
    },
    {
      "anonymous": false,
      "inputs": [
        {
          "indexed": false,
          "internalType": "uint8",
          "name": "version",
          "type": "uint8"
        }
      ],
      "name": "Initialized",
      "type": "event"
    },
    {
      "anonymous": false,
      "inputs": [
        {
          "indexed": true,
          "internalType": "address",
          "name": "previousOwner",
          "type": "address"
        },
        {
          "indexed": true,
          "internalType": "address",
          "name": "newOwner",
          "type": "address"
        }
      ],
      "name": "OwnershipTransferred",
      "type": "event"
    },
    {
      "inputs": [
        {
          "internalType": "string",
          "name": "",
          "type": "string"
        }
      ],
      "name": "adminClaimedTillEpoch",
      "outputs": [
        {
          "internalType": "uint256",
          "name": "",
          "type": "uint256"
        }
      ],
      "stateMutability": "view",
      "type": "function"
    },
    {
      "inputs": [],
      "name": "bridgeUpgradeable",
      "outputs": [
        {
          "internalType": "contract BridgeUpgradeable",
          "name": "",
          "type": "address"
        }
      ],
      "stateMutability": "view",
      "type": "function"
    },
    {
      "inputs": [
        {
          "internalType": "string",
          "name": "_tokenTicker",
          "type": "string"
        },
        {
          "internalType": "uint256",
          "name": "_index",
          "type": "uint256"
        }
      ],
      "name": "claimFeeShare",
      "outputs": [],
      "stateMutability": "nonpayable",
      "type": "function"
    },
    {
      "inputs": [
        {
          "internalType": "string",
          "name": "",
          "type": "string"
        }
      ],
      "name": "feesInCurrentEpoch",
      "outputs": [
        {
          "internalType": "uint256",
          "name": "",
          "type": "uint256"
        }
      ],
      "stateMutability": "view",
      "type": "function"
    },
    {
      "inputs": [
        {
          "internalType": "string",
          "name": "_tokenTicker",
          "type": "string"
        }
      ],
      "name": "getAdminTokenFees",
      "outputs": [
        {
          "internalType": "uint256",
          "name": "",
          "type": "uint256"
        }
      ],
      "stateMutability": "view",
      "type": "function"
    },
    {
      "inputs": [
        {
          "internalType": "string",
          "name": "_tokenTicker",
          "type": "string"
        },
        {
          "internalType": "address",
          "name": "_account",
          "type": "address"
        },
        {
          "internalType": "uint256",
          "name": "_index",
          "type": "uint256"
        }
      ],
      "name": "getUserConfirmedRewards",
      "outputs": [
        {
          "internalType": "uint256",
          "name": "",
          "type": "uint256"
        }
      ],
      "stateMutability": "view",
      "type": "function"
    },
    {
      "inputs": [
        {
          "internalType": "string",
          "name": "_tokenTicker",
          "type": "string"
        },
        {
          "internalType": "address",
          "name": "_account",
          "type": "address"
        },
        {
          "internalType": "uint256",
          "name": "_index",
          "type": "uint256"
        }
      ],
      "name": "getUserUnconfirmedRewards",
      "outputs": [
        {
          "internalType": "uint256",
          "name": "",
          "type": "uint256"
        }
      ],
      "stateMutability": "view",
      "type": "function"
    },
    {
      "inputs": [
        {
          "internalType": "contract TokenBridgeRegistryUpgradeable",
          "name": "_tokenBridgeRegistryUpgradeable",
          "type": "address"
        },
        {
          "internalType": "contract BridgeUpgradeable",
          "name": "_bridgeUpgradeable",
          "type": "address"
        }
      ],
      "name": "initialize",
      "outputs": [],
      "stateMutability": "nonpayable",
      "type": "function"
    },
    {
      "inputs": [],
      "name": "owner",
      "outputs": [
        {
          "internalType": "address",
          "name": "",
          "type": "address"
        }
      ],
      "stateMutability": "view",
      "type": "function"
    },
    {
      "inputs": [],
      "name": "renounceOwnership",
      "outputs": [],
      "stateMutability": "nonpayable",
      "type": "function"
    },
    {
      "inputs": [
        {
          "internalType": "string",
          "name": "_tokenTicker",
          "type": "string"
        }
      ],
      "name": "resetFeesInCurrentEpoch",
      "outputs": [],
      "stateMutability": "nonpayable",
      "type": "function"
    },
    {
      "inputs": [],
      "name": "tokenBridgeRegistryUpgradeable",
      "outputs": [
        {
          "internalType": "contract TokenBridgeRegistryUpgradeable",
          "name": "",
          "type": "address"
        }
      ],
      "stateMutability": "view",
      "type": "function"
    },
    {
      "inputs": [
        {
          "internalType": "string",
          "name": "",
          "type": "string"
        }
      ],
      "name": "totalFees",
      "outputs": [
        {
          "internalType": "uint256",
          "name": "",
          "type": "uint256"
        }
      ],
      "stateMutability": "view",
      "type": "function"
    },
    {
      "inputs": [
        {
          "internalType": "string",
          "name": "_tokenTicker",
          "type": "string"
        },
        {
          "internalType": "address",
          "name": "_account",
          "type": "address"
        },
        {
          "internalType": "uint256",
          "name": "_index",
          "type": "uint256"
        }
      ],
      "name": "transferLpFee",
      "outputs": [],
      "stateMutability": "nonpayable",
      "type": "function"
    },
    {
      "inputs": [
        {
          "internalType": "address",
          "name": "newOwner",
          "type": "address"
        }
      ],
      "name": "transferOwnership",
      "outputs": [],
      "stateMutability": "nonpayable",
      "type": "function"
    },
    {
      "inputs": [
        {
          "internalType": "contract BridgeUpgradeable",
          "name": "_newInstance",
          "type": "address"
        }
      ],
      "name": "updateBridgeUpgradeableAddress",
      "outputs": [],
      "stateMutability": "nonpayable",
      "type": "function"
    },
    {
      "inputs": [
        {
          "internalType": "contract TokenBridgeRegistryUpgradeable",
          "name": "_newInstance",
          "type": "address"
        }
      ],
      "name": "updateTokenBridgeRegistryAddress",
      "outputs": [],
      "stateMutability": "nonpayable",
      "type": "function"
    },
    {
      "inputs": [
        {
          "internalType": "string",
          "name": "_tokenTicker",
          "type": "string"
        },
        {
          "internalType": "uint256",
          "name": "feesEarned",
          "type": "uint256"
        },
        {
          "internalType": "bool",
          "name": "_isAddingFees",
          "type": "bool"
        }
      ],
      "name": "updateTotalFees",
      "outputs": [],
      "stateMutability": "nonpayable",
      "type": "function"
    },
    {
      "inputs": [],
      "name": "withdrawAdminAllTokenFees",
      "outputs": [],
      "stateMutability": "nonpayable",
      "type": "function"
    },
    {
      "inputs": [
        {
          "internalType": "string",
          "name": "_tokenTicker",
          "type": "string"
        }
      ],
      "name": "withdrawAdminTokenFees",
      "outputs": [],
      "stateMutability": "nonpayable",
      "type": "function"
    },
    {
      "stateMutability": "payable",
      "type": "receive"
    }
  ],
  "bytecode": "0x608060405234801561001057600080fd5b50612fd2806100206000396000f3fe6080604052600436106101225760003560e01c8063b3b4e917116100a0578063ee2a752b11610064578063ee2a752b1461035e578063f1bcba0a14610373578063f2fde38b146103ab578063fc901f74146103cb578063fe5b12e4146103eb57600080fd5b8063b3b4e917146102be578063cae816d4146102de578063d178bdc0146102fe578063d33ad0301461031e578063d7b55c3b1461033e57600080fd5b806360576b89116100e757806360576b891461021357806365af6884146102335780636e2e8fe114610253578063715018a61461028b5780638da5cb5b146102a057600080fd5b8062e79e5c1461012e5780634146b3ea1461015057806347be423c1461019b578063485cc955146101d3578063489acb01146101f357600080fd5b3661012957005b600080fd5b34801561013a57600080fd5b5061014e61014936600461286f565b61040b565b005b34801561015c57600080fd5b5061018861016b366004612aa4565b805160208183018101805160698252928201919093012091525481565b6040519081526020015b60405180910390f35b3480156101a757600080fd5b506101886101b6366004612aa4565b805160208183018101805160678252928201919093012091525481565b3480156101df57600080fd5b5061014e6101ee366004612969565b610435565b3480156101ff57600080fd5b5061014e61020e366004612aa4565b61057d565b34801561021f57600080fd5b5061014e61022e366004612ad7565b61090b565b34801561023f57600080fd5b5061018861024e366004612ad7565b610c27565b34801561025f57600080fd5b50606554610273906001600160a01b031681565b6040516001600160a01b039091168152602001610192565b34801561029757600080fd5b5061014e610e9d565b3480156102ac57600080fd5b506033546001600160a01b0316610273565b3480156102ca57600080fd5b5061014e6102d93660046129fd565b610eb1565b3480156102ea57600080fd5b5061014e6102f9366004612a47565b6112be565b34801561030a57600080fd5b50610188610319366004612aa4565b6113a4565b34801561032a57600080fd5b50610188610339366004612ad7565b61169f565b34801561034a57600080fd5b5061014e61035936600461286f565b6118e0565b34801561036a57600080fd5b5061014e61190a565b34801561037f57600080fd5b5061018861038e366004612aa4565b805160208183018101805160688252928201919093012091525481565b3480156103b757600080fd5b5061014e6103c636600461286f565b6119e6565b3480156103d757600080fd5b50606654610273906001600160a01b031681565b3480156103f757600080fd5b5061014e6104063660046129bd565b611a5f565b610413611aba565b606680546001600160a01b0319166001600160a01b0392909216919091179055565b600054610100900460ff16158080156104555750600054600160ff909116105b8061046f5750303b15801561046f575060005460ff166001145b6104d75760405162461bcd60e51b815260206004820152602e60248201527f496e697469616c697a61626c653a20636f6e747261637420697320616c72656160448201526d191e481a5b9a5d1a585b1a5e995960921b60648201526084015b60405180910390fd5b6000805460ff1916600117905580156104fa576000805461ff0019166101001790555b610502611b14565b606580546001600160a01b038086166001600160a01b03199283161790925560668054928516929091169190911790558015610578576000805461ff0019169055604051600181527f7f26b83ff96e1f2b6a682f133852f6798a09c465da95921460cefb38474024989060200160405180910390a15b505050565b610585611aba565b606654604051635d01eb0f60e01b81526001600160a01b0390911690635d01eb0f906105b5908490600401612d0a565b600060405180830381600087803b1580156105cf57600080fd5b505af11580156105e3573d6000803e3d6000fd5b5050505060006105f2826113a4565b9050806067836040516106059190612c70565b908152602001604051809103902060008282546106229190612eef565b90915550506066546040516338d59eab60e21b81526001600160a01b039091169063e3567aac90610657908590600401612d0a565b60206040518083038186803b15801561066f57600080fd5b505afa158015610683573d6000803e3d6000fd5b505050506040513d601f19601f820116820180604052508101906106a79190612b2f565b6068836040516106b79190612c70565b908152604051908190036020018120919091556065546339d7fa4360e21b82526000916001600160a01b039091169063e75fe90c906106fa908690600401612d0a565b604080518083038186803b15801561071157600080fd5b505afa158015610725573d6000803e3d6000fd5b505050506040513d601f19601f820116820180604052508101906107499190612bd9565b50905060ff81166107e557604051600090339084908381818185875af1925050503d8060008114610796576040519150601f19603f3d011682016040523d82523d6000602084013e61079b565b606091505b50509050806107df5760405162461bcd60e51b815260206004820152601060248201526f10d310525357d1915157d1905253115160821b60448201526064016104ce565b50505050565b8060ff16600114156105785760665460405163182e67ed60e31b81526000916001600160a01b03169063c1733f6890610822908790600401612d0a565b60206040518083038186803b15801561083a57600080fd5b505afa15801561084e573d6000803e3d6000fd5b505050506040513d601f19601f8201168201806040525081019061087291906129a1565b90506001600160a01b03811663a9059cbb336040516001600160e01b031960e084901b1681526001600160a01b03909116600482015260248101869052604401602060405180830381600087803b1580156108cc57600080fd5b505af11580156108e0573d6000803e3d6000fd5b505050506040513d601f19601f82011682018060405250810190610904919061294d565b5050505050565b6066546001600160a01b0316336001600160a01b03161461093e5760405162461bcd60e51b81526004016104ce90612dcf565b600061094b84848461169f565b90508060678560405161095e9190612c70565b90815260200160405180910390205410156109af5760405162461bcd60e51b8152602060048201526011602482015270494e53554646494349454e545f4645455360781b60448201526064016104ce565b6065546040516339d7fa4360e21b81526000916001600160a01b03169063e75fe90c906109e0908890600401612d0a565b604080518083038186803b1580156109f757600080fd5b505afa158015610a0b573d6000803e3d6000fd5b505050506040513d601f19601f82011682018060405250810190610a2f9190612bd9565b508091505081606786604051610a459190612c70565b90815260200160405180910390206000828254610a629190612eef565b909155505060ff8116610b0a576000846001600160a01b03168360405160006040518083038185875af1925050503d8060008114610abc576040519150601f19603f3d011682016040523d82523d6000602084013e610ac1565b606091505b5050905080610b045760405162461bcd60e51b815260206004820152600f60248201526e1514905394d1915497d19052531151608a1b60448201526064016104ce565b50610904565b8060ff16600114156109045760665460405163182e67ed60e31b81526000916001600160a01b03169063c1733f6890610b47908990600401612d0a565b60206040518083038186803b158015610b5f57600080fd5b505afa158015610b73573d6000803e3d6000fd5b505050506040513d601f19601f82011682018060405250810190610b9791906129a1565b60405163a9059cbb60e01b81526001600160a01b038781166004830152602482018690529192509082169063a9059cbb906044015b602060405180830381600087803b158015610be657600080fd5b505af1158015610bfa573d6000803e3d6000fd5b505050506040513d601f19601f82011682018060405250810190610c1e919061294d565b50505050505050565b60665460405163d8c7be7560e01b8152600091829182918291829182916001600160a01b039091169063d8c7be7590610c68908c908c908c90600401612d1d565b60e06040518083038186803b158015610c8057600080fd5b505afa158015610c94573d6000803e3d6000fd5b505050506040513d601f19601f82011682018060405250810190610cb89190612b86565b50509450945094509450945060008511610ce45760405162461bcd60e51b81526004016104ce90612da5565b6066546040516338d59eab60e21b815260009182916001600160a01b039091169063e3567aac90610d19908e90600401612d0a565b60206040518083038186803b158015610d3157600080fd5b505afa158015610d45573d6000803e3d6000fd5b505050506040513d601f19601f82011682018060405250810190610d699190612b2f565b9050610d76600185612eef565b811415610d9957610d8b8b87898d8d86611b43565b975050505050505050610e96565b84610da5600186612eef565b148015610dbb5750610db8600185612eef565b81115b15610e1a5760006040518060e001604052808d81526020018681526020018581526020018881526020018981526020018c6001600160a01b031681526020018b8152509050610e0981611d7c565b9250610e16600187612e98565b9550505b6000610e27866001612e98565b90505b818111610e6957610e3e8c828a8e8e611f42565b610e489084612e98565b9250610e55600187612e98565b955080610e6181612f32565b915050610e2a565b5084811415610e8d57610e808b86898d8d866120b5565b610e8a9083612e98565b91505b50955050505050505b9392505050565b610ea5611aba565b610eaf600061239d565b565b610ef083838080601f0160208091040260200160405190810160405280939291908181526020018383808284376000920191909152506123ef92505050565b606654604051635d01eb0f60e01b81526001600160a01b0390911690635d01eb0f90610f229086908690600401612c8c565b600060405180830381600087803b158015610f3c57600080fd5b505af1158015610f50573d6000803e3d6000fd5b505050506000610f5d3390565b60665460405163d8c7be7560e01b815291925060009182916001600160a01b03169063d8c7be7590610f99908990899088908a90600401612ca0565b60e06040518083038186803b158015610fb157600080fd5b505afa158015610fc5573d6000803e3d6000fd5b505050506040513d601f19601f82011682018060405250810190610fe99190612b86565b505050509250509150600082116110125760405162461bcd60e51b81526004016104ce90612da5565b600061101f826001612e98565b9050600061106688888080601f0160208091040260200160405190810160405280939291908181526020018383808284376000920191909152508992508a915061169f9050565b9050600081116110a45760405162461bcd60e51b81526020600482015260096024820152681393d7d49155d0549160ba1b60448201526064016104ce565b80606789896040516110b7929190612c60565b90815260200160405180910390205410156111085760405162461bcd60e51b8152602060048201526011602482015270494e53554646494349454e545f4645455360781b60448201526064016104ce565b6066546040516338d59eab60e21b81526000916001600160a01b03169063e3567aac9061113b908c908c90600401612c8c565b60206040518083038186803b15801561115357600080fd5b505afa158015611167573d6000803e3d6000fd5b505050506040513d601f19601f8201168201806040525081019061118b9190612b2f565b9050825b81811161121357606654604051634572e84160e11b81526001600160a01b0390911690638ae5d082906111ce908d908d908c908e908890600401612cd0565b600060405180830381600087803b1580156111e857600080fd5b505af11580156111fc573d6000803e3d6000fd5b50505050808061120b90612f32565b91505061118f565b5061125789898080601f0160208091040260200160405190810160405280939291908181526020018383808284376000920191909152508a925086915061253a9050565b8888604051611267929190612c60565b60408051918290038220848352426020840152916001600160a01b038916918a917f5693da3e77f1a1aa49acd48f3f16beaa0c279ad5c1e582a362c4e6a6e24b4f48910160405180910390a4505050505050505050565b6066546001600160a01b0316336001600160a01b0316146112f15760405162461bcd60e51b81526004016104ce90612dcf565b801561136957816067858560405161130a929190612c60565b908152602001604051809103902060008282546113279190612e98565b925050819055508160698585604051611341929190612c60565b9081526020016040518091039020600082825461135e9190612e98565b909155506107df9050565b816067858560405161137c929190612c60565b908152602001604051809103902060008282546113999190612eef565b909155505050505050565b60006113ae611aba565b6066546040516338d59eab60e21b81526000916001600160a01b03169063e3567aac906113df908690600401612d0a565b60206040518083038186803b1580156113f757600080fd5b505afa15801561140b573d6000803e3d6000fd5b505050506040513d601f19601f8201168201806040525081019061142f9190612b2f565b90506000806068856040516114449190612c70565b908152602001604051809103902054600161145f9190612e98565b90505b8281116116975760665460405163e1c5478560e01b81526000916001600160a01b03169063e1c547859061149c9089908690600401612d83565b60206040518083038186803b1580156114b457600080fd5b505afa1580156114c8573d6000803e3d6000fd5b505050506040513d601f19601f820116820180604052508101906114ec9190612b2f565b9050806114f95750611685565b606654604051630812436160e21b81526000916001600160a01b0316906320490d849061152c908a908790600401612d83565b60206040518083038186803b15801561154457600080fd5b505afa158015611558573d6000803e3d6000fd5b505050506040513d601f19601f8201168201806040525081019061157c9190612b2f565b6066546040516334fdbd6160e21b81529192506000916001600160a01b039091169063d3f6f584906115b4908b908890600401612d83565b60206040518083038186803b1580156115cc57600080fd5b505afa1580156115e0573d6000803e3d6000fd5b505050506040513d601f19601f820116820180604052508101906116049190612b2f565b90506000611613846002612ed0565b61161d9084612eb0565b905060008161162c8487612eef565b6116369190612ed0565b9050600060026116468486612ed0565b611651906003612ed0565b61165b9190612eb0565b9050806116688387612eef565b6116729190612eef565b61167c9089612e98565b97505050505050505b8061168f81612f32565b915050611462565b509392505050565b60665460405163d8c7be7560e01b8152600091829182918291829182916001600160a01b039091169063d8c7be75906116e0908c908c908c90600401612d1d565b60e06040518083038186803b1580156116f857600080fd5b505afa15801561170c573d6000803e3d6000fd5b505050506040513d601f19601f820116820180604052508101906117309190612b86565b5050945094509450945094506000851161175c5760405162461bcd60e51b81526004016104ce90612da5565b6066546040516338d59eab60e21b81526000916001600160a01b03169063e3567aac9061178d908d90600401612d0a565b60206040518083038186803b1580156117a557600080fd5b505afa1580156117b9573d6000803e3d6000fd5b505050506040513d601f19601f820116820180604052508101906117dd9190612b2f565b905060006117ec600185612eef565b821415611801579650610e9695505050505050565b8461180d600186612eef565b1480156118235750611820600185612eef565b82115b156118825760006040518060e001604052808d81526020018681526020018581526020018881526020018981526020018c6001600160a01b031681526020018b815250905061187181611d7c565b915061187e600187612e98565b9550505b600061188f866001612e98565b90505b8281116118d1576118a68c828a8e8e611f42565b6118b09083612e98565b91506118bd600187612e98565b9550806118c981612f32565b915050611892565b509a9950505050505050505050565b6118e8611aba565b606580546001600160a01b0319166001600160a01b0392909216919091179055565b611912611aba565b6065546040805163f6e22ef360e01b815290516000926001600160a01b03169163f6e22ef39160048083019286929190829003018186803b15801561195657600080fd5b505afa15801561196a573d6000803e3d6000fd5b505050506040513d6000823e601f3d908101601f19168201604052611992919081019061288b565b905060005b81518110156119e2576119d08282815181106119c357634e487b7160e01b600052603260045260246000fd5b602002602001015161057d565b806119da81612f32565b915050611997565b5050565b6119ee611aba565b6001600160a01b038116611a535760405162461bcd60e51b815260206004820152602660248201527f4f776e61626c653a206e6577206f776e657220697320746865207a65726f206160448201526564647265737360d01b60648201526084016104ce565b611a5c8161239d565b50565b6066546001600160a01b0316336001600160a01b031614611a925760405162461bcd60e51b81526004016104ce90612dcf565b600060698383604051611aa6929190612c60565b908152604051908190036020019020555050565b6033546001600160a01b03163314610eaf5760405162461bcd60e51b815260206004820181905260248201527f4f776e61626c653a2063616c6c6572206973206e6f7420746865206f776e657260448201526064016104ce565b600054610100900460ff16611b3b5760405162461bcd60e51b81526004016104ce90612df4565b610eaf61275c565b600080606988604051611b569190612c70565b9081526040519081900360200190205490506000611b75600283612eb0565b6066546040516375021f1560e11b81529192506000916001600160a01b039091169063ea043e2a90611bab908d90600401612d0a565b60206040518083038186803b158015611bc357600080fd5b505afa158015611bd7573d6000803e3d6000fd5b505050506040513d601f19601f82011682018060405250810190611bfb9190612b2f565b90506000611c098a43612eef565b606554604051637eddaa9760e11b81529192506000916001600160a01b039091169063fdbb552e90611c3f908f90600401612d0a565b60206040518083038186803b158015611c5757600080fd5b505afa158015611c6b573d6000803e3d6000fd5b505050506040513d601f19601f82011682018060405250810190611c8f9190612b2f565b90506000611c9d8285612ed0565b85611ca8858e612ed0565b611cb29190612ed0565b611cbc9190612eb0565b6066549091506001600160a01b0316631c58293f8e8c8c611cde8d6001612e98565b6040518563ffffffff1660e01b8152600401611cfd9493929190612d4b565b60206040518083038186803b158015611d1557600080fd5b505afa158015611d29573d6000803e3d6000fd5b505050506040513d601f19601f82011682018060405250810190611d4d919061294d565b15611d6c576002611d5f826003612ed0565b611d699190612eb0565b90505b9c9b505050505050505050505050565b606654815160208301516000928392839283926001600160a01b031691634500fad991611dab90600190612eef565b6040518363ffffffff1660e01b8152600401611dc8929190612d83565b60a06040518083038186803b158015611de057600080fd5b505afa158015611df4573d6000803e3d6000fd5b505050506040513d601f19601f82011682018060405250810190611e189190612b47565b509350935093505060008560600151848760400151611e379190612e98565b611e419190612eef565b90506000611e50600285612eb0565b90506000611e5e8685612ed0565b82848a60800151611e6f9190612ed0565b611e799190612ed0565b611e839190612eb0565b606654895160a08b015160c08c015160208d0151604051631c58293f60e01b81529596506001600160a01b0390941694631c58293f94611ec894939291600401612d4b565b60206040518083038186803b158015611ee057600080fd5b505afa158015611ef4573d6000803e3d6000fd5b505050506040513d601f19601f82011682018060405250810190611f18919061294d565b15611f37576002611f2a826003612ed0565b611f349190612eb0565b90505b979650505050505050565b606654600090819081906001600160a01b0316634500fad989611f6660018b612eef565b6040518363ffffffff1660e01b8152600401611f83929190612d83565b60a06040518083038186803b158015611f9b57600080fd5b505afa158015611faf573d6000803e3d6000fd5b505050506040513d601f19601f82011682018060405250810190611fd39190612b47565b509350935050506000600283611fe99190612eb0565b9050600082611ff8838a612ed0565b6120029190612eb0565b606654604051631c58293f60e01b81529192506001600160a01b031690631c58293f90612039908d908b908b908f90600401612d4b565b60206040518083038186803b15801561205157600080fd5b505afa158015612065573d6000803e3d6000fd5b505050506040513d601f19601f82011682018060405250810190612089919061294d565b156120a857600261209b826003612ed0565b6120a59190612eb0565b90505b9998505050505050505050565b6066546040516375021f1560e11b815260009182916001600160a01b039091169063ea043e2a906120ea908b90600401612d0a565b60206040518083038186803b15801561210257600080fd5b505afa158015612116573d6000803e3d6000fd5b505050506040513d601f19601f8201168201806040525081019061213a9190612b2f565b90506000600260698a6040516121509190612c70565b9081526020016040518091039020546121699190612eb0565b60665490915060009081906001600160a01b0316634500fad98c61218e60018e612eef565b6040518363ffffffff1660e01b81526004016121ab929190612d83565b60a06040518083038186803b1580156121c357600080fd5b505afa1580156121d7573d6000803e3d6000fd5b505050506040513d601f19601f820116820180604052508101906121fb9190612b47565b50505091509150600081836122109190612e98565b61221a9043612eef565b90506000606560009054906101000a90046001600160a01b03166001600160a01b031663fdbb552e8e6040518263ffffffff1660e01b815260040161225f9190612d0a565b60206040518083038186803b15801561227757600080fd5b505afa15801561228b573d6000803e3d6000fd5b505050506040513d601f19601f820116820180604052508101906122af9190612b2f565b905060006122bd8288612ed0565b866122c8858f612ed0565b6122d29190612ed0565b6122dc9190612eb0565b6066549091506001600160a01b0316631c58293f8f8d8d6122fe8e6001612e98565b6040518563ffffffff1660e01b815260040161231d9493929190612d4b565b60206040518083038186803b15801561233557600080fd5b505afa158015612349573d6000803e3d6000fd5b505050506040513d601f19601f8201168201806040525081019061236d919061294d565b1561238c57600261237f826003612ed0565b6123899190612eb0565b90505b9d9c50505050505050505050505050565b603380546001600160a01b038381166001600160a01b0319831681179093556040519116919082907f8be0079c531659141344cd1fd0a4f28419497f9722a3daafe3b4186f6b6457e090600090a35050565b606560009054906101000a90046001600160a01b03166001600160a01b031663029a7ba66040518163ffffffff1660e01b815260040160206040518083038186803b15801561243d57600080fd5b505afa158015612451573d6000803e3d6000fd5b505050506040513d601f19601f82011682018060405250810190612475919061294d565b80156124fc575060655460405163d1ae6e2160e01b81526001600160a01b039091169063d1ae6e21906124ac908490600401612d0a565b60206040518083038186803b1580156124c457600080fd5b505afa1580156124d8573d6000803e3d6000fd5b505050506040513d601f19601f820116820180604052508101906124fc919061294d565b611a5c5760405162461bcd60e51b815260206004820152600f60248201526e1094925111d157d11254d050931151608a1b60448201526064016104ce565b6065546040516339d7fa4360e21b815260009182916001600160a01b039091169063e75fe90c9061256f908890600401612d0a565b604080518083038186803b15801561258657600080fd5b505afa15801561259a573d6000803e3d6000fd5b505050506040513d601f19601f820116820180604052508101906125be9190612bd9565b604051919350915083906067906125d6908890612c70565b908152602001604051809103902060008282546125f39190612eef565b909155505060ff8216612696576000846001600160a01b03168460405160006040518083038185875af1925050503d806000811461264d576040519150601f19603f3d011682016040523d82523d6000602084013e612652565b606091505b5050905080610b045760405162461bcd60e51b815260206004820152601060248201526f10d310525357d1915157d1905253115160821b60448201526064016104ce565b8160ff16600114156109045760665460405163182e67ed60e31b81526000916001600160a01b03169063c1733f68906126d3908990600401612d0a565b60206040518083038186803b1580156126eb57600080fd5b505afa1580156126ff573d6000803e3d6000fd5b505050506040513d601f19601f8201168201806040525081019061272391906129a1565b60405163a9059cbb60e01b81526001600160a01b038781166004830152602482018790529192509082169063a9059cbb90604401610bcc565b600054610100900460ff166127835760405162461bcd60e51b81526004016104ce90612df4565b610eaf3361239d565b60008083601f84011261279d578182fd5b50813567ffffffffffffffff8111156127b4578182fd5b6020830191508360208285010111156127cc57600080fd5b9250929050565b600082601f8301126127e3578081fd5b81356127f66127f182612e70565b612e3f565b81815284602083860101111561280a578283fd5b816020850160208301379081016020019190915292915050565b600082601f830112612834578081fd5b81516128426127f182612e70565b818152846020838601011115612856578283fd5b612867826020830160208701612f06565b949350505050565b600060208284031215612880578081fd5b8135610e9681612f79565b6000602080838503121561289d578182fd5b825167ffffffffffffffff808211156128b4578384fd5b818501915085601f8301126128c7578384fd5b8151818111156128d9576128d9612f63565b8060051b6128e8858201612e3f565b8281528581019085870183870188018b1015612902578889fd5b8893505b8484101561293f5780518681111561291c57898afd5b61292a8c8a838b0101612824565b84525060019390930192918701918701612906565b509998505050505050505050565b60006020828403121561295e578081fd5b8151610e9681612f8e565b6000806040838503121561297b578081fd5b823561298681612f79565b9150602083013561299681612f79565b809150509250929050565b6000602082840312156129b2578081fd5b8151610e9681612f79565b600080602083850312156129cf578182fd5b823567ffffffffffffffff8111156129e5578283fd5b6129f18582860161278c565b90969095509350505050565b600080600060408486031215612a11578081fd5b833567ffffffffffffffff811115612a27578182fd5b612a338682870161278c565b909790965060209590950135949350505050565b60008060008060608587031215612a5c578081fd5b843567ffffffffffffffff811115612a72578182fd5b612a7e8782880161278c565b909550935050602085013591506040850135612a9981612f8e565b939692955090935050565b600060208284031215612ab5578081fd5b813567ffffffffffffffff811115612acb578182fd5b612867848285016127d3565b600080600060608486031215612aeb578081fd5b833567ffffffffffffffff811115612b01578182fd5b612b0d868287016127d3565b9350506020840135612b1e81612f79565b929592945050506040919091013590565b600060208284031215612b40578081fd5b5051919050565b600080600080600060a08688031215612b5e578283fd5b5050835160208501516040860151606087015160809097015192989197509594509092509050565b600080600080600080600060e0888a031215612ba0578485fd5b5050855160208701516040880151606089015160808a015160a08b015160c0909b0151949c939b50919990985090965094509092509050565b60008060408385031215612beb578182fd5b825160ff81168114612bfb578283fd5b6020939093015192949293505050565b81835281816020850137506000828201602090810191909152601f909101601f19169091010190565b60008151808452612c4c816020860160208601612f06565b601f01601f19169290920160200192915050565b8183823760009101908152919050565b60008251612c82818460208701612f06565b9190910192915050565b602081526000612867602083018486612c0b565b606081526000612cb4606083018688612c0b565b6001600160a01b03949094166020830152506040015292915050565b608081526000612ce4608083018789612c0b565b6001600160a01b0395909516602083015250604081019290925260609091015292915050565b602081526000610e966020830184612c34565b606081526000612d306060830186612c34565b6001600160a01b039490941660208301525060400152919050565b608081526000612d5e6080830187612c34565b6001600160a01b03959095166020830152506040810192909252606090910152919050565b604081526000612d966040830185612c34565b90508260208301529392505050565b60208082526010908201526f24a72b20a624a22fa827a9a4aa24a7a760811b604082015260600190565b6020808252600b908201526a4f4e4c595f42524944474560a81b604082015260600190565b6020808252602b908201527f496e697469616c697a61626c653a20636f6e7472616374206973206e6f74206960408201526a6e697469616c697a696e6760a81b606082015260800190565b604051601f8201601f1916810167ffffffffffffffff81118282101715612e6857612e68612f63565b604052919050565b600067ffffffffffffffff821115612e8a57612e8a612f63565b50601f01601f191660200190565b60008219821115612eab57612eab612f4d565b500190565b600082612ecb57634e487b7160e01b81526012600452602481fd5b500490565b6000816000190483118215151615612eea57612eea612f4d565b500290565b600082821015612f0157612f01612f4d565b500390565b60005b83811015612f21578181015183820152602001612f09565b838111156107df5750506000910152565b6000600019821415612f4657612f46612f4d565b5060010190565b634e487b7160e01b600052601160045260246000fd5b634e487b7160e01b600052604160045260246000fd5b6001600160a01b0381168114611a5c57600080fd5b8015158114611a5c57600080fdfea26469706673582212204aa6d2078c2586e4a2cff410e0197c11619288c4a9cd2cff43125869ec0c109a64736f6c63430008040033",
  "linkReferences": {},
  "deployedLinkReferences": {}
}