{
  "_format": "hh-sol-artifact-1",
  "contractName": "FeePoolUpgradeable",
  "sourceName": "contracts/FeePoolUpgradeable.sol",
  "abi": [
    {
      "anonymous": false,
      "inputs": [
        {
          "indexed": true,
          "internalType": "uint256",
          "name": "index",
          "type": "uint256"
        },
        {
          "indexed": true,
          "internalType": "address",
          "name": "account",
          "type": "address"
        },
        {
          "indexed": false,
          "internalType": "string",
          "name": "tokenTicker",
          "type": "string"
        },
        {
          "indexed": false,
          "internalType": "uint256",
          "name": "noOfTokens",
          "type": "uint256"
        },
        {
          "indexed": false,
          "internalType": "uint256",
          "name": "claimTimestamp",
          "type": "uint256"
        }
      ],
      "name": "ClaimedRewards",
      "type": "event"
    },
    {
      "anonymous": false,
      "inputs": [
        {
          "indexed": false,
          "internalType": "uint8",
          "name": "version",
          "type": "uint8"
        }
      ],
      "name": "Initialized",
      "type": "event"
    },
    {
      "anonymous": false,
      "inputs": [
        {
          "indexed": true,
          "internalType": "address",
          "name": "previousOwner",
          "type": "address"
        },
        {
          "indexed": true,
          "internalType": "address",
          "name": "newOwner",
          "type": "address"
        }
      ],
      "name": "OwnershipTransferred",
      "type": "event"
    },
    {
      "inputs": [
        {
          "internalType": "string",
          "name": "",
          "type": "string"
        }
      ],
      "name": "adminClaimedTillEpoch",
      "outputs": [
        {
          "internalType": "uint256",
          "name": "",
          "type": "uint256"
        }
      ],
      "stateMutability": "view",
      "type": "function"
    },
    {
      "inputs": [],
      "name": "bridgeUpgradeable",
      "outputs": [
        {
          "internalType": "contract BridgeUpgradeable",
          "name": "",
          "type": "address"
        }
      ],
      "stateMutability": "view",
      "type": "function"
    },
    {
      "inputs": [],
      "name": "bridgeUtilsUpgradeable",
      "outputs": [
        {
          "internalType": "contract BridgeUtilsUpgradeable",
          "name": "",
          "type": "address"
        }
      ],
      "stateMutability": "view",
      "type": "function"
    },
    {
      "inputs": [
        {
          "internalType": "string",
          "name": "_tokenTicker",
          "type": "string"
        },
        {
          "internalType": "uint256",
          "name": "_index",
          "type": "uint256"
        }
      ],
      "name": "claimFeeShare",
      "outputs": [],
      "stateMutability": "nonpayable",
      "type": "function"
    },
    {
      "inputs": [
        {
          "internalType": "string",
          "name": "",
          "type": "string"
        }
      ],
      "name": "feesInCurrentEpoch",
      "outputs": [
        {
          "internalType": "uint256",
          "name": "",
          "type": "uint256"
        }
      ],
      "stateMutability": "view",
      "type": "function"
    },
    {
      "inputs": [
        {
          "internalType": "string",
          "name": "_tokenTicker",
          "type": "string"
        },
        {
          "internalType": "uint256",
          "name": "_limit",
          "type": "uint256"
        }
      ],
      "name": "getAdminTokenFees",
      "outputs": [
        {
          "internalType": "uint256",
          "name": "",
          "type": "uint256"
        }
      ],
      "stateMutability": "view",
      "type": "function"
    },
    {
      "inputs": [
        {
          "internalType": "string",
          "name": "_tokenTicker",
          "type": "string"
        }
      ],
      "name": "getLastEpochLpFees",
      "outputs": [
        {
          "internalType": "uint256",
          "name": "",
          "type": "uint256"
        }
      ],
      "stateMutability": "view",
      "type": "function"
    },
    {
      "inputs": [
        {
          "internalType": "string",
          "name": "_tokenTicker",
          "type": "string"
        },
        {
          "internalType": "address",
          "name": "_account",
          "type": "address"
        },
        {
          "internalType": "uint256",
          "name": "_index",
          "type": "uint256"
        }
      ],
      "name": "getUserConfirmedRewards",
      "outputs": [
        {
          "internalType": "uint256",
          "name": "",
          "type": "uint256"
        }
      ],
      "stateMutability": "view",
      "type": "function"
    },
    {
      "inputs": [
        {
          "internalType": "string",
          "name": "_tokenTicker",
          "type": "string"
        },
        {
          "internalType": "address",
          "name": "_account",
          "type": "address"
        },
        {
          "internalType": "uint256",
          "name": "_index",
          "type": "uint256"
        }
      ],
      "name": "getUserUnconfirmedRewards",
      "outputs": [
        {
          "internalType": "uint256",
          "name": "",
          "type": "uint256"
        }
      ],
      "stateMutability": "view",
      "type": "function"
    },
    {
      "inputs": [
        {
          "internalType": "contract TokenBridgeRegistryUpgradeable",
          "name": "_tokenBridgeRegistryUpgradeable",
          "type": "address"
        },
        {
          "internalType": "contract BridgeUpgradeable",
          "name": "_bridgeUpgradeable",
          "type": "address"
        }
      ],
      "name": "initialize",
      "outputs": [],
      "stateMutability": "nonpayable",
      "type": "function"
    },
    {
      "inputs": [],
      "name": "owner",
      "outputs": [
        {
          "internalType": "address",
          "name": "",
          "type": "address"
        }
      ],
      "stateMutability": "view",
      "type": "function"
    },
    {
      "inputs": [],
      "name": "renounceOwnership",
      "outputs": [],
      "stateMutability": "nonpayable",
      "type": "function"
    },
    {
      "inputs": [
        {
          "internalType": "string",
          "name": "_tokenTicker",
          "type": "string"
        }
      ],
      "name": "resetFeesInCurrentEpoch",
      "outputs": [],
      "stateMutability": "nonpayable",
      "type": "function"
    },
    {
      "inputs": [],
      "name": "tokenBridgeRegistryUpgradeable",
      "outputs": [
        {
          "internalType": "contract TokenBridgeRegistryUpgradeable",
          "name": "",
          "type": "address"
        }
      ],
      "stateMutability": "view",
      "type": "function"
    },
    {
      "inputs": [
        {
          "internalType": "string",
          "name": "",
          "type": "string"
        }
      ],
      "name": "totalFees",
      "outputs": [
        {
          "internalType": "uint256",
          "name": "",
          "type": "uint256"
        }
      ],
      "stateMutability": "view",
      "type": "function"
    },
    {
      "inputs": [
        {
          "internalType": "string",
          "name": "_tokenTicker",
          "type": "string"
        },
        {
          "internalType": "address",
          "name": "_account",
          "type": "address"
        },
        {
          "internalType": "uint256",
          "name": "_index",
          "type": "uint256"
        }
      ],
      "name": "transferLpFee",
      "outputs": [],
      "stateMutability": "nonpayable",
      "type": "function"
    },
    {
      "inputs": [
        {
          "internalType": "address",
          "name": "newOwner",
          "type": "address"
        }
      ],
      "name": "transferOwnership",
      "outputs": [],
      "stateMutability": "nonpayable",
      "type": "function"
    },
    {
      "inputs": [
        {
          "internalType": "contract BridgeUpgradeable",
          "name": "_newInstance",
          "type": "address"
        }
      ],
      "name": "updateBridgeUpgradeableAddress",
      "outputs": [],
      "stateMutability": "nonpayable",
      "type": "function"
    },
    {
      "inputs": [
        {
          "internalType": "contract BridgeUtilsUpgradeable",
          "name": "_newInstance",
          "type": "address"
        }
      ],
      "name": "updateBridgeUtilsUpgradeableAddress",
      "outputs": [],
      "stateMutability": "nonpayable",
      "type": "function"
    },
    {
      "inputs": [
        {
          "internalType": "contract TokenBridgeRegistryUpgradeable",
          "name": "_newInstance",
          "type": "address"
        }
      ],
      "name": "updateTokenBridgeRegistryAddress",
      "outputs": [],
      "stateMutability": "nonpayable",
      "type": "function"
    },
    {
      "inputs": [
        {
          "internalType": "string",
          "name": "_tokenTicker",
          "type": "string"
        },
        {
          "internalType": "uint256",
          "name": "feesEarned",
          "type": "uint256"
        },
        {
          "internalType": "bool",
          "name": "_isAddingFees",
          "type": "bool"
        }
      ],
      "name": "updateTotalFees",
      "outputs": [],
      "stateMutability": "nonpayable",
      "type": "function"
    },
    {
      "inputs": [
        {
          "internalType": "uint256",
          "name": "_limit",
          "type": "uint256"
        }
      ],
      "name": "withdrawAdminAllTokenFees",
      "outputs": [],
      "stateMutability": "nonpayable",
      "type": "function"
    },
    {
      "inputs": [
        {
          "internalType": "string",
          "name": "_tokenTicker",
          "type": "string"
        },
        {
          "internalType": "uint256",
          "name": "_limit",
          "type": "uint256"
        }
      ],
      "name": "withdrawAdminTokenFees",
      "outputs": [],
      "stateMutability": "nonpayable",
      "type": "function"
    },
    {
      "stateMutability": "payable",
      "type": "receive"
    }
  ],
  "bytecode": "0x608060405234801561001057600080fd5b506133e4806100206000396000f3fe6080604052600436106101435760003560e01c80638da5cb5b116100b6578063d7b55c3b1161006f578063d7b55c3b146103bf578063de4c8272146103df578063f1bcba0a146103ff578063f2fde38b14610437578063fc901f7414610457578063fe5b12e41461047757600080fd5b80638da5cb5b14610301578063b3b4e9171461031f578063c92f86e41461033f578063cae816d41461035f578063cf1f5b351461037f578063d33ad0301461039f57600080fd5b806360576b891161010857806360576b891461023457806365af68841461025457806367276acd146102745780636e2e8fe1146102ac578063715018a6146102cc578063809a9289146102e157600080fd5b8062e79e5c1461014f57806329277a3b146101715780634146b3ea1461019157806347be423c146101dc578063485cc9551461021457600080fd5b3661014a57005b600080fd5b34801561015b57600080fd5b5061016f61016a366004612bff565b610497565b005b34801561017d57600080fd5b5061016f61018c366004612ebf565b6104c1565b34801561019d57600080fd5b506101c96101ac366004612e34565b8051602081830181018051606a8252928201919093012091525481565b6040519081526020015b60405180910390f35b3480156101e857600080fd5b506101c96101f7366004612e34565b805160208183018101805160688252928201919093012091525481565b34801561022057600080fd5b5061016f61022f366004612cf9565b6108d1565b34801561024057600080fd5b5061016f61024f366004612e67565b610a14565b34801561026057600080fd5b506101c961026f366004612e67565b610d45565b34801561028057600080fd5b50606754610294906001600160a01b031681565b6040516001600160a01b0390911681526020016101d3565b3480156102b857600080fd5b50606554610294906001600160a01b031681565b3480156102d857600080fd5b5061016f610f4f565b3480156102ed57600080fd5b5061016f6102fc366004612f02565b610f63565b34801561030d57600080fd5b506033546001600160a01b0316610294565b34801561032b57600080fd5b5061016f61033a366004612d8d565b61103c565b34801561034b57600080fd5b5061016f61035a366004612bff565b61149f565b34801561036b57600080fd5b5061016f61037a366004612dd7565b6114c9565b34801561038b57600080fd5b506101c961039a366004612ebf565b6115af565b3480156103ab57600080fd5b506101c96103ba366004612e67565b6118cc565b3480156103cb57600080fd5b5061016f6103da366004612bff565b611b0d565b3480156103eb57600080fd5b506101c96103fa366004612e34565b611b37565b34801561040b57600080fd5b506101c961041a366004612e34565b805160208183018101805160698252928201919093012091525481565b34801561044357600080fd5b5061016f610452366004612bff565b611d76565b34801561046357600080fd5b50606654610294906001600160a01b031681565b34801561048357600080fd5b5061016f610492366004612d4d565b611def565b61049f611e4a565b606680546001600160a01b0319166001600160a01b0392909216919091179055565b6104c9611e4a565b606654604051634158a3d360e11b81526001600160a01b03909116906382b147a6906104f990859060040161311c565b600060405180830381600087803b15801561051357600080fd5b505af1158015610527573d6000803e3d6000fd5b50505050600061053783836115af565b90506000811161057a5760405162461bcd60e51b81526020600482015260096024820152685a45524f5f4645455360b81b60448201526064015b60405180910390fd5b8060688460405161058b919061305b565b908152602001604051809103902060008282546105a89190613301565b909155505081156105ec57816069846040516105c4919061305b565b908152602001604051809103902060008282546105e191906132aa565b9091555061068d9050565b6066546040516338d59eab60e21b81526001600160a01b039091169063e3567aac9061061c90869060040161311c565b60206040518083038186803b15801561063457600080fd5b505afa158015610648573d6000803e3d6000fd5b505050506040513d601f19601f8201168201806040525081019061066c9190612f1a565b60698460405161067c919061305b565b908152604051908190036020019020555b6067546040516339d7fa4360e21b81526000916001600160a01b03169063e75fe90c906106be90879060040161311c565b604080518083038186803b1580156106d557600080fd5b505afa1580156106e9573d6000803e3d6000fd5b505050506040513d601f19601f8201168201806040525081019061070d9190612fc4565b50905060ff81166107a957604051600090339084908381818185875af1925050503d806000811461075a576040519150601f19603f3d011682016040523d82523d6000602084013e61075f565b606091505b50509050806107a35760405162461bcd60e51b815260206004820152601060248201526f10d310525357d1915157d1905253115160821b6044820152606401610571565b506108cb565b8060ff16600114156108cb5760665460405163182e67ed60e31b81526000916001600160a01b03169063c1733f68906107e690889060040161311c565b60206040518083038186803b1580156107fe57600080fd5b505afa158015610812573d6000803e3d6000fd5b505050506040513d601f19601f820116820180604052508101906108369190612d31565b90506001600160a01b03811663a9059cbb336040516001600160e01b031960e084901b1681526001600160a01b03909116600482015260248101869052604401602060405180830381600087803b15801561089057600080fd5b505af11580156108a4573d6000803e3d6000fd5b505050506040513d601f19601f820116820180604052508101906108c89190612cdd565b50505b50505050565b600054610100900460ff16158080156108f15750600054600160ff909116105b8061090b5750303b15801561090b575060005460ff166001145b61096e5760405162461bcd60e51b815260206004820152602e60248201527f496e697469616c697a61626c653a20636f6e747261637420697320616c72656160448201526d191e481a5b9a5d1a585b1a5e995960921b6064820152608401610571565b6000805460ff191660011790558015610991576000805461ff0019166101001790555b610999611ea4565b606580546001600160a01b038086166001600160a01b03199283161790925560668054928516929091169190911790558015610a0f576000805461ff0019169055604051600181527f7f26b83ff96e1f2b6a682f133852f6798a09c465da95921460cefb38474024989060200160405180910390a15b505050565b6066546001600160a01b0316336001600160a01b031614610a475760405162461bcd60e51b8152600401610571906131e1565b6000610a548484846118cc565b905080610a615750505050565b80606885604051610a72919061305b565b9081526020016040518091039020541015610ac35760405162461bcd60e51b8152602060048201526011602482015270494e53554646494349454e545f4645455360781b6044820152606401610571565b60665460405163325f59f560e21b81526001600160a01b039091169063c97d67d490610af79087908790879060040161312f565b600060405180830381600087803b158015610b1157600080fd5b505af1158015610b25573d6000803e3d6000fd5b50506067546040516339d7fa4360e21b8152600093506001600160a01b03909116915063e75fe90c90610b5c90889060040161311c565b604080518083038186803b158015610b7357600080fd5b505afa158015610b87573d6000803e3d6000fd5b505050506040513d601f19601f82011682018060405250810190610bab9190612fc4565b508091505081606886604051610bc1919061305b565b90815260200160405180910390206000828254610bde9190613301565b909155505060ff8116610c27576040516001600160a01b0385169083156108fc029084906000818181858888f19350505050158015610c21573d6000803e3d6000fd5b50610d3e565b8060ff1660011415610d3e5760665460405163182e67ed60e31b81526000916001600160a01b03169063c1733f6890610c6490899060040161311c565b60206040518083038186803b158015610c7c57600080fd5b505afa158015610c90573d6000803e3d6000fd5b505050506040513d601f19601f82011682018060405250810190610cb49190612d31565b60405163a9059cbb60e01b81526001600160a01b038781166004830152602482018690529192509082169063a9059cbb906044015b602060405180830381600087803b158015610d0357600080fd5b505af1158015610d17573d6000803e3d6000fd5b505050506040513d601f19601f82011682018060405250810190610d3b9190612cdd565b50505b5050505050565b60665460405163d8c7be7560e01b815260009182918291829182916001600160a01b03169063d8c7be7590610d82908b908b908b9060040161312f565b60e06040518083038186803b158015610d9a57600080fd5b505afa158015610dae573d6000803e3d6000fd5b505050506040513d601f19601f82011682018060405250810190610dd29190612f71565b505050935093509350935060008411610dfd5760405162461bcd60e51b8152600401610571906131b7565b6066546040516338d59eab60e21b815260009182916001600160a01b039091169063e3567aac90610e32908d9060040161311c565b60206040518083038186803b158015610e4a57600080fd5b505afa158015610e5e573d6000803e3d6000fd5b505050506040513d601f19601f82011682018060405250810190610e829190612f1a565b9050610e8f600184613301565b811415610eb157610ea48a86888c8c86611ed3565b9650505050505050610f48565b83610ebd600185613301565b148015610ed35750610ed0600184613301565b81115b15610ee657610ee36001856132aa565b93505b6000610ef38560016132aa565b90505b818111610f1c57610f086001866132aa565b945080610f1481613344565b915050610ef6565b5083811415610f4057610f338a85888c8c8661210c565b610f3d90836132aa565b91505b509450505050505b9392505050565b610f57611e4a565b610f6160006123f4565b565b610f6b611e4a565b6065546040805163f6e22ef360e01b815290516000926001600160a01b03169163f6e22ef39160048083019286929190829003018186803b158015610faf57600080fd5b505afa158015610fc3573d6000803e3d6000fd5b505050506040513d6000823e601f3d908101601f19168201604052610feb9190810190612c1b565b905060005b8151811015610a0f5761102a82828151811061101c57634e487b7160e01b600052603260045260246000fd5b6020026020010151846104c1565b8061103481613344565b915050610ff0565b61107b83838080601f01602080910402602001604051908101604052809392919081815260200183838082843760009201919091525061244692505050565b606654604051634158a3d360e11b81526001600160a01b03909116906382b147a6906110ad9086908690600401613077565b600060405180830381600087803b1580156110c757600080fd5b505af11580156110db573d6000803e3d6000fd5b5050505060006110e83390565b60665460405163d8c7be7560e01b815291925060009182916001600160a01b03169063d8c7be7590611124908990899088908a9060040161308b565b60e06040518083038186803b15801561113c57600080fd5b505afa158015611150573d6000803e3d6000fd5b505050506040513d601f19601f820116820180604052508101906111749190612f71565b5050505092505091506000821161119d5760405162461bcd60e51b8152600401610571906131b7565b60006111aa8260016132aa565b905060006111f188888080601f0160208091040260200160405190810160405280939291908181526020018383808284376000920191909152508992508a91506118cc9050565b90506000811161122f5760405162461bcd60e51b81526020600482015260096024820152681393d7d49155d0549160ba1b6044820152606401610571565b806068898960405161124292919061304b565b90815260200160405180910390205410156112935760405162461bcd60e51b8152602060048201526011602482015270494e53554646494349454e545f4645455360781b6044820152606401610571565b60665460405163325f59f560e21b81526001600160a01b039091169063c97d67d4906112c9908b908b908a908c9060040161308b565b600060405180830381600087803b1580156112e357600080fd5b505af11580156112f7573d6000803e3d6000fd5b50506066546040516338d59eab60e21b8152600093506001600160a01b03909116915063e3567aac90611330908c908c90600401613077565b60206040518083038186803b15801561134857600080fd5b505afa15801561135c573d6000803e3d6000fd5b505050506040513d601f19601f820116820180604052508101906113809190612f1a565b9050825b81811161140857606654604051634572e84160e11b81526001600160a01b0390911690638ae5d082906113c3908d908d908c908e9088906004016130bb565b600060405180830381600087803b1580156113dd57600080fd5b505af11580156113f1573d6000803e3d6000fd5b50505050808061140090613344565b915050611384565b5061144c89898080601f0160208091040260200160405190810160405280939291908181526020018383808284376000920191909152508a92508691506125919050565b856001600160a01b0316877f5693da3e77f1a1aa49acd48f3f16beaa0c279ad5c1e582a362c4e6a6e24b4f488b8b864260405161148c94939291906130f5565b60405180910390a3505050505050505050565b6114a7611e4a565b606780546001600160a01b0319166001600160a01b0392909216919091179055565b6066546001600160a01b0316336001600160a01b0316146114fc5760405162461bcd60e51b8152600401610571906131e1565b801561157457816068858560405161151592919061304b565b9081526020016040518091039020600082825461153291906132aa565b9250508190555081606a858560405161154c92919061304b565b9081526020016040518091039020600082825461156991906132aa565b909155506108cb9050565b816068858560405161158792919061304b565b908152602001604051809103902060008282546115a49190613301565b909155505050505050565b60006115b9611e4a565b60006069846040516115cb919061305b565b90815260200160405180910390205460016115e691906132aa565b6066546040516338d59eab60e21b81529192506000916001600160a01b039091169063e3567aac9061161c90889060040161311c565b60206040518083038186803b15801561163457600080fd5b505afa158015611648573d6000803e3d6000fd5b505050506040513d601f19601f8201168201806040525081019061166c9190612f1a565b905083156116e25780600161168186856132aa565b61168b9190613301565b11156116c95760405162461bcd60e51b815260206004820152600d60248201526c4c494d49545f4558434545445360981b6044820152606401610571565b60016116d585846132aa565b6116df9190613301565b90505b6000825b8281116118c257606654600090819081906001600160a01b0316634500fad98b611711600188613301565b6040518363ffffffff1660e01b815260040161172e929190613195565b60a06040518083038186803b15801561174657600080fd5b505afa15801561175a573d6000803e3d6000fd5b505050506040513d601f19601f8201168201806040525081019061177e9190612f32565b945094509450505080600014156117a35761179983866132aa565b94505050506118b0565b606654604051632d034d9760e11b81526000916001600160a01b031690635a069b2e906117d6908e908990600401613195565b60206040518083038186803b1580156117ee57600080fd5b505afa158015611802573d6000803e3d6000fd5b505050506040513d601f19601f820116820180604052508101906118269190612f1a565b905060006118348285613301565b905060006118438560046132e2565b61184d87856132e2565b6118589060036132e2565b61186291906132c2565b905060006118718660026132e2565b61187b88856132e2565b61188591906132c2565b9050816118928289613301565b61189c9190613301565b6118a6908a6132aa565b9850505050505050505b806118ba81613344565b9150506116e6565b5095945050505050565b60665460405163d8c7be7560e01b8152600091829182918291829182916001600160a01b039091169063d8c7be759061190d908c908c908c9060040161312f565b60e06040518083038186803b15801561192557600080fd5b505afa158015611939573d6000803e3d6000fd5b505050506040513d601f19601f8201168201806040525081019061195d9190612f71565b505094509450945094509450600085116119895760405162461bcd60e51b8152600401610571906131b7565b6066546040516338d59eab60e21b81526000916001600160a01b03169063e3567aac906119ba908d9060040161311c565b60206040518083038186803b1580156119d257600080fd5b505afa1580156119e6573d6000803e3d6000fd5b505050506040513d601f19601f82011682018060405250810190611a0a9190612f1a565b90506000611a19600185613301565b821415611a2e579650610f4895505050505050565b84611a3a600186613301565b148015611a505750611a4d600185613301565b82115b15611aaf5760006040518060e001604052808d81526020018681526020018581526020018881526020018981526020018c6001600160a01b031681526020018b8152509050611a9e816127b3565b9150611aab6001876132aa565b9550505b6000611abc8660016132aa565b90505b828111611afe57611ad38c828a8e8e612979565b611add90836132aa565b9150611aea6001876132aa565b955080611af681613344565b915050611abf565b509a9950505050505050505050565b611b15611e4a565b606580546001600160a01b0319166001600160a01b0392909216919091179055565b6066546040516338d59eab60e21b815260009182916001600160a01b039091169063e3567aac90611b6c90869060040161311c565b60206040518083038186803b158015611b8457600080fd5b505afa158015611b98573d6000803e3d6000fd5b505050506040513d601f19601f82011682018060405250810190611bbc9190612f1a565b905080611bcc5750600092915050565b606654600090819081906001600160a01b0316634500fad987611bf0600188613301565b6040518363ffffffff1660e01b8152600401611c0d929190613195565b60a06040518083038186803b158015611c2557600080fd5b505afa158015611c39573d6000803e3d6000fd5b505050506040513d601f19601f82011682018060405250810190611c5d9190612f32565b94509450945050508060001415611c7a5750600095945050505050565b606654604051632d034d9760e11b81526000916001600160a01b031690635a069b2e90611cad908a908990600401613195565b60206040518083038186803b158015611cc557600080fd5b505afa158015611cd9573d6000803e3d6000fd5b505050506040513d601f19601f82011682018060405250810190611cfd9190612f1a565b90506000611d0b8285613301565b90506000611d1a8560046132e2565b611d2487856132e2565b611d2f9060036132e2565b611d3991906132c2565b90506000611d488660026132e2565b611d5288856132e2565b611d5c91906132c2565b9050611d6882826132aa565b9a9950505050505050505050565b611d7e611e4a565b6001600160a01b038116611de35760405162461bcd60e51b815260206004820152602660248201527f4f776e61626c653a206e6577206f776e657220697320746865207a65726f206160448201526564647265737360d01b6064820152608401610571565b611dec816123f4565b50565b6066546001600160a01b0316336001600160a01b031614611e225760405162461bcd60e51b8152600401610571906131e1565b6000606a8383604051611e3692919061304b565b908152604051908190036020019020555050565b6033546001600160a01b03163314610f615760405162461bcd60e51b815260206004820181905260248201527f4f776e61626c653a2063616c6c6572206973206e6f7420746865206f776e65726044820152606401610571565b600054610100900460ff16611ecb5760405162461bcd60e51b815260040161057190613206565b610f61612aec565b600080606a88604051611ee6919061305b565b9081526040519081900360200190205490506000611f056002836132c2565b60665460405163f93dd87360e01b81529192506000916001600160a01b039091169063f93dd87390611f3b908d9060040161311c565b60206040518083038186803b158015611f5357600080fd5b505afa158015611f67573d6000803e3d6000fd5b505050506040513d601f19601f82011682018060405250810190611f8b9190612f1a565b90506000611f998a43613301565b606754604051637eddaa9760e11b81529192506000916001600160a01b039091169063fdbb552e90611fcf908f9060040161311c565b60206040518083038186803b158015611fe757600080fd5b505afa158015611ffb573d6000803e3d6000fd5b505050506040513d601f19601f8201168201806040525081019061201f9190612f1a565b9050600061202d82856132e2565b85612038858e6132e2565b61204291906132e2565b61204c91906132c2565b6066549091506001600160a01b0316631c58293f8e8c8c61206e8d60016132aa565b6040518563ffffffff1660e01b815260040161208d949392919061315d565b60206040518083038186803b1580156120a557600080fd5b505afa1580156120b9573d6000803e3d6000fd5b505050506040513d601f19601f820116820180604052508101906120dd9190612cdd565b156120fc5760026120ef8260036132e2565b6120f991906132c2565b90505b9c9b505050505050505050505050565b60665460405163f93dd87360e01b815260009182916001600160a01b039091169063f93dd87390612141908b9060040161311c565b60206040518083038186803b15801561215957600080fd5b505afa15801561216d573d6000803e3d6000fd5b505050506040513d601f19601f820116820180604052508101906121919190612f1a565b905060006002606a8a6040516121a7919061305b565b9081526020016040518091039020546121c091906132c2565b60665490915060009081906001600160a01b0316634500fad98c6121e560018e613301565b6040518363ffffffff1660e01b8152600401612202929190613195565b60a06040518083038186803b15801561221a57600080fd5b505afa15801561222e573d6000803e3d6000fd5b505050506040513d601f19601f820116820180604052508101906122529190612f32565b505050915091506000818361226791906132aa565b6122719043613301565b90506000606760009054906101000a90046001600160a01b03166001600160a01b031663fdbb552e8e6040518263ffffffff1660e01b81526004016122b6919061311c565b60206040518083038186803b1580156122ce57600080fd5b505afa1580156122e2573d6000803e3d6000fd5b505050506040513d601f19601f820116820180604052508101906123069190612f1a565b9050600061231482886132e2565b8661231f858f6132e2565b61232991906132e2565b61233391906132c2565b6066549091506001600160a01b0316631c58293f8f8d8d6123558e60016132aa565b6040518563ffffffff1660e01b8152600401612374949392919061315d565b60206040518083038186803b15801561238c57600080fd5b505afa1580156123a0573d6000803e3d6000fd5b505050506040513d601f19601f820116820180604052508101906123c49190612cdd565b156123e35760026123d68260036132e2565b6123e091906132c2565b90505b9d9c50505050505050505050505050565b603380546001600160a01b038381166001600160a01b0319831681179093556040519116919082907f8be0079c531659141344cd1fd0a4f28419497f9722a3daafe3b4186f6b6457e090600090a35050565b606560009054906101000a90046001600160a01b03166001600160a01b031663029a7ba66040518163ffffffff1660e01b815260040160206040518083038186803b15801561249457600080fd5b505afa1580156124a8573d6000803e3d6000fd5b505050506040513d601f19601f820116820180604052508101906124cc9190612cdd565b8015612553575060675460405163d1ae6e2160e01b81526001600160a01b039091169063d1ae6e219061250390849060040161311c565b60206040518083038186803b15801561251b57600080fd5b505afa15801561252f573d6000803e3d6000fd5b505050506040513d601f19601f820116820180604052508101906125539190612cdd565b611dec5760405162461bcd60e51b815260206004820152600f60248201526e1094925111d157d11254d050931151608a1b6044820152606401610571565b6067546040516339d7fa4360e21b815260009182916001600160a01b039091169063e75fe90c906125c690889060040161311c565b604080518083038186803b1580156125dd57600080fd5b505afa1580156125f1573d6000803e3d6000fd5b505050506040513d601f19601f820116820180604052508101906126159190612fc4565b6040519193509150839060689061262d90889061305b565b9081526020016040518091039020600082825461264a9190613301565b909155505060ff82166126ed576000846001600160a01b03168460405160006040518083038185875af1925050503d80600081146126a4576040519150601f19603f3d011682016040523d82523d6000602084013e6126a9565b606091505b5050905080610c215760405162461bcd60e51b815260206004820152601060248201526f10d310525357d1915157d1905253115160821b6044820152606401610571565b8160ff1660011415610d3e5760665460405163182e67ed60e31b81526000916001600160a01b03169063c1733f689061272a90899060040161311c565b60206040518083038186803b15801561274257600080fd5b505afa158015612756573d6000803e3d6000fd5b505050506040513d601f19601f8201168201806040525081019061277a9190612d31565b60405163a9059cbb60e01b81526001600160a01b038781166004830152602482018790529192509082169063a9059cbb90604401610ce9565b606654815160208301516000928392839283926001600160a01b031691634500fad9916127e290600190613301565b6040518363ffffffff1660e01b81526004016127ff929190613195565b60a06040518083038186803b15801561281757600080fd5b505afa15801561282b573d6000803e3d6000fd5b505050506040513d601f19601f8201168201806040525081019061284f9190612f32565b50935093509350506000856060015184876040015161286e91906132aa565b6128789190613301565b905060006128876002856132c2565b9050600061289586856132e2565b82848a608001516128a691906132e2565b6128b091906132e2565b6128ba91906132c2565b606654895160a08b015160c08c015160208d0151604051631c58293f60e01b81529596506001600160a01b0390941694631c58293f946128ff9493929160040161315d565b60206040518083038186803b15801561291757600080fd5b505afa15801561292b573d6000803e3d6000fd5b505050506040513d601f19601f8201168201806040525081019061294f9190612cdd565b1561296e5760026129618260036132e2565b61296b91906132c2565b90505b979650505050505050565b606654600090819081906001600160a01b0316634500fad98961299d60018b613301565b6040518363ffffffff1660e01b81526004016129ba929190613195565b60a06040518083038186803b1580156129d257600080fd5b505afa1580156129e6573d6000803e3d6000fd5b505050506040513d601f19601f82011682018060405250810190612a0a9190612f32565b509350935050506000600283612a2091906132c2565b9050600082612a2f838a6132e2565b612a3991906132c2565b606654604051631c58293f60e01b81529192506001600160a01b031690631c58293f90612a70908d908b908b908f9060040161315d565b60206040518083038186803b158015612a8857600080fd5b505afa158015612a9c573d6000803e3d6000fd5b505050506040513d601f19601f82011682018060405250810190612ac09190612cdd565b15612adf576002612ad28260036132e2565b612adc91906132c2565b90505b9998505050505050505050565b600054610100900460ff16612b135760405162461bcd60e51b815260040161057190613206565b610f61336123f4565b60008083601f840112612b2d578182fd5b50813567ffffffffffffffff811115612b44578182fd5b602083019150836020828501011115612b5c57600080fd5b9250929050565b600082601f830112612b73578081fd5b8135612b86612b8182613282565b613251565b818152846020838601011115612b9a578283fd5b816020850160208301379081016020019190915292915050565b600082601f830112612bc4578081fd5b8151612bd2612b8182613282565b818152846020838601011115612be6578283fd5b612bf7826020830160208701613318565b949350505050565b600060208284031215612c10578081fd5b8135610f488161338b565b60006020808385031215612c2d578182fd5b825167ffffffffffffffff80821115612c44578384fd5b818501915085601f830112612c57578384fd5b815181811115612c6957612c69613375565b8060051b612c78858201613251565b8281528581019085870183870188018b1015612c92578889fd5b8893505b84841015612ccf57805186811115612cac57898afd5b612cba8c8a838b0101612bb4565b84525060019390930192918701918701612c96565b509998505050505050505050565b600060208284031215612cee578081fd5b8151610f48816133a0565b60008060408385031215612d0b578081fd5b8235612d168161338b565b91506020830135612d268161338b565b809150509250929050565b600060208284031215612d42578081fd5b8151610f488161338b565b60008060208385031215612d5f578182fd5b823567ffffffffffffffff811115612d75578283fd5b612d8185828601612b1c565b90969095509350505050565b600080600060408486031215612da1578081fd5b833567ffffffffffffffff811115612db7578182fd5b612dc386828701612b1c565b909790965060209590950135949350505050565b60008060008060608587031215612dec578182fd5b843567ffffffffffffffff811115612e02578283fd5b612e0e87828801612b1c565b909550935050602085013591506040850135612e29816133a0565b939692955090935050565b600060208284031215612e45578081fd5b813567ffffffffffffffff811115612e5b578182fd5b612bf784828501612b63565b600080600060608486031215612e7b578081fd5b833567ffffffffffffffff811115612e91578182fd5b612e9d86828701612b63565b9350506020840135612eae8161338b565b929592945050506040919091013590565b60008060408385031215612ed1578182fd5b823567ffffffffffffffff811115612ee7578283fd5b612ef385828601612b63565b95602094909401359450505050565b600060208284031215612f13578081fd5b5035919050565b600060208284031215612f2b578081fd5b5051919050565b600080600080600060a08688031215612f49578283fd5b5050835160208501516040860151606087015160809097015192989197509594509092509050565b600080600080600080600060e0888a031215612f8b578485fd5b5050855160208701516040880151606089015160808a015160a08b015160c0909b0151949c939b50919990985090965094509092509050565b60008060408385031215612fd6578182fd5b825160ff81168114612fe6578283fd5b6020939093015192949293505050565b81835281816020850137506000828201602090810191909152601f909101601f19169091010190565b60008151808452613037816020860160208601613318565b601f01601f19169290920160200192915050565b8183823760009101908152919050565b6000825161306d818460208701613318565b9190910192915050565b602081526000612bf7602083018486612ff6565b60608152600061309f606083018688612ff6565b6001600160a01b03949094166020830152506040015292915050565b6080815260006130cf608083018789612ff6565b6001600160a01b0395909516602083015250604081019290925260609091015292915050565b606081526000613109606083018688612ff6565b6020830194909452506040015292915050565b602081526000610f48602083018461301f565b606081526000613142606083018661301f565b6001600160a01b039490941660208301525060400152919050565b608081526000613170608083018761301f565b6001600160a01b03959095166020830152506040810192909252606090910152919050565b6040815260006131a8604083018561301f565b90508260208301529392505050565b60208082526010908201526f24a72b20a624a22fa827a9a4aa24a7a760811b604082015260600190565b6020808252600b908201526a4f4e4c595f42524944474560a81b604082015260600190565b6020808252602b908201527f496e697469616c697a61626c653a20636f6e7472616374206973206e6f74206960408201526a6e697469616c697a696e6760a81b606082015260800190565b604051601f8201601f1916810167ffffffffffffffff8111828210171561327a5761327a613375565b604052919050565b600067ffffffffffffffff82111561329c5761329c613375565b50601f01601f191660200190565b600082198211156132bd576132bd61335f565b500190565b6000826132dd57634e487b7160e01b81526012600452602481fd5b500490565b60008160001904831182151516156132fc576132fc61335f565b500290565b6000828210156133135761331361335f565b500390565b60005b8381101561333357818101518382015260200161331b565b838111156108cb5750506000910152565b60006000198214156133585761335861335f565b5060010190565b634e487b7160e01b600052601160045260246000fd5b634e487b7160e01b600052604160045260246000fd5b6001600160a01b0381168114611dec57600080fd5b8015158114611dec57600080fdfea26469706673582212204996f135074358d58fb0ff9a3c4766f7474c1c68472f61601b7da768c6c4e51564736f6c63430008040033",
  "linkReferences": {},
  "deployedLinkReferences": {}
}